:100000000C94B5020C94ED020C94ED020C94C51EF8
:100010000C94ED020C94ED020C94ED020C94ED02A4
:100020000C94ED020C94ED020C941A260C94ED261F
:100030000C940B210C94ED020C94ED020C94ED0247
:100040000C94ED020C94ED020C94ED020C94ED0274
:100050000C94ED020C94C3210C94ED020C94ED026F
:100060000C94ED020C94ED020C94ED020C94ED0254
:100070000C94ED020C94ED020C94ED020C94ED0244
:100080000C94ED020C94ED020C94ED020C94ED0234
:100090000C94ED020C94ED020C94ED020C94ED0224
:1000A0000C94ED020C94ED020C94ED0231006769A2
:1000B0007420726573657420484541440067697413
:1000C00020737461736820706F70006769742073A7
:1000D000746173680020676974206272616E63687E
:1000E000202F61767600206769742072656D6F74C9
:1000F00065207072756E65206F726967696E002089
:100100006769742070756C6C00676974206368653A
:10011000636B6F7574206D617374657200676974C9
:1001200020726573746F7265202E00676974206396
:100130006865636B6F757420006769742062726113
:100140006E6368202F61767600676974207075731E
:1001500068006769742070756C6C00676974206151
:100160006464202F70202E0067697420636F6D6DAA
:100170006974202F616D2000676974206469666668
:100180000067697420737461747573003100010431
:1001900031357C003000010431357C0001043330FE
:1001A0007C00010431307C0014001A0009001300A7
:1001B000050004401524162117220A281C001B00E4
:1001C00006000700190028442C430000000000002E
:1001D0000D000F0018401D002D00102811320821BD
:1001E0000C2412400E000B003640374038402A41A4
:1001F0002B42000000000000000000005200000040
:1002000000004A00500051004F004D00AE00A80011
:10021000AA00A9000000E000E100000000000000CA
:10022000290000004B00000000004C0000004E00C0
:10023000000000002A00060119011B01007C0100DA
:10024000000000000000000000000000CD000000E1
:1002500000000000CF00CE00D00000000000000031
:10026000000000000000000000000000000000008E
:100270000000DB00D900DC00407EB600D100DA00CF
:10028000D200B7000000060119011B0100000000A8
:10029000010000000000000000000000000000005D
:1002A000290023433500220214144C0000001B01D6
:1002B000190106012A0001000100000000000000F1
:1002C0001F4325432043214322431E4324431F024F
:1002D00027023002300026433202640064022D02FD
:1002E0001E020000000000000000000000000000EE
:1002F00000000000000000000000000000001B01E2
:1003000019010601000001000100000000000000CA
:10031000000024002500260000000000210022002B
:100320002300000000001E001F442044000027009E
:1003300000000000000000004C7E4D7E477E467E9F
:100340000000447E437E427E417E00004B7E497E1B
:10035000487E457E4A7E010001000000000000004A
:100360000000400041004200430000003D003E000C
:100370003F00440000003A003B003C004500000004
:10038000000000000000000000000000000000006D
:100390002A2B2800000000000000000000000000E0
:1003A00000000029000000002C1E342021222434EB
:1003B0002627252E362D3738271E1F2021222324BD
:1003C00025263333362E37381F0405060708090A59
:1003D0000B0C0D0E0F101112131415161718191AF5
:1003E0001B1C1D2F3130232D350405060708090A73
:1003F0000B0C0D0E0F101112131415161718191AD5
:100400001B1C1D2F3130354C000000000000000087
:1004100000000000000000000000000000000000DC
:100420000000000000000000000000007E0F00D46B
:10043000FFFFFFC7000000781A0346006500720046
:10044000720069007300200073007700650065008A
:100450007000000008034400500042000000040344
:10046000090409023B00020100A0FA09040000018E
:10047000030101000921110100012240000705814B
:100480000308000109040100010300000009211113
:10049000010001227B0007058203200001120100F8
:1004A0000200000008ABC239390100010200010559
:1004B000010902A10185020901A10005091901290B
:1004C000081500250195087501810205010930090B
:1004D000311581257F95027508810609381581251A
:1004E0007F950175088106050C0A38021581257F64
:1004F000950175088106C0C005010980A101850329
:1005000019012AB700150126B70095017510810061
:10051000C0050C0901A101850419012AA0021501D9
:1005200026A002950175108100C005010906A101F0
:10053000050719E029E715002501950875018102D5
:100540009501750881010507190029FF150026FF8F
:10055000009506750881000508190129059505759E
:10056000019102950175039101C011241FBECFEFC7
:10057000DAE0DEBFCDBF04B603FE18C08091B6023C
:100580009091B702A091B802B091B9028730904B18
:10059000A740B04B59F41092B6021092B7021092D5
:1005A000B8021092B902E0E0F8E3099511E0A0E08A
:1005B000B1E0E0EBF3E502C005900D92A03CB1077D
:1005C000D9F722E0A0ECB1E001C01D92A63BB20732
:1005D000E1F70E9430170C9467290C940000782FE3
:1005E000CA01603130F0772331F00E94C70480E007
:1005F0000895C901F8CF0E94DD04F9CF282FCA0160
:10060000603128F421110E940D0580E0089581E0F9
:10061000089525E044E063E00E943D0B0895809139
:10062000C2018823B1F060E082EA91E00E94DE1C02
:100630008DEC0E94FE068EEC0E94FE0660E08CE9C6
:1006400091E00E94DE1C8FEC0E94FE0680ED0E946D
:10065000FE060895FC01DB01EF3184E4F80709F49C
:100660008DC0F0F5E73283E4F807D0F4EE3183E48F
:10067000F807C0F4E63380E4F80709F44AC0F8F458
:10068000E23180E4F80709F441C04FE250E0E8317C
:1006900080E4F807E9F044E350E0E430F044C1F0CE
:1006A00081E00895EF51F34428E034E141E252E063
:1006B000E830F105C0F5E759F64D0C94BE28E73354
:1006C00080E4F80749F148E352E0E833F04441F7A9
:1006D00015966C91159712968C910E94FE020895C2
:1006E000E03284E4F80709F44CC0CF0180549E47FF
:1006F0000E97B0F6E154FE4712968C91ED30F1055D
:1007000008F042C0EF58F64D0C94BE2843E350E089
:10071000DFCF46E352E0DCCF47E352E0D9CF26E219
:1007200032E045E252E015966C91159712968C9145
:100730000E94EF02089526E234E145E254E1F3CF4E
:1007400027E234E144E254E1EECF24E634E143E22F
:1007500052E0E9CF2EE232E04EE250E0E4CF2DE26B
:1007600034E144E252E0DFCF20E334E142E350E001
:10077000DACF25E332E040E252E0D5CF4FE154E159
:10078000A7CF40E254E1A4CF882309F489CF809118
:10079000C20160E0882361F086E991E00E94DE1CDE
:1007A0001092C20160E084E991E00E94DE1C78CFE3
:1007B0008EE891E00E94DE1C81E08093C20160E03F
:1007C0008CE891E0F2CF882309F46ACF60E081E8F9
:1007D00091E00E94DE1C88E290E00E940D0560CF4F
:1007E000882309F45DCF60E088E791E0F2CF8823A9
:1007F00009F456CF60E088E691E00E94DE1C8FE1AC
:1008000092E00E940D058FE192E00E940D0580E5C7
:1008100090E0E3CF882309F443CF60E08BE591E0DB
:10082000D8CF882309F43CCF60E082E591E0D1CFB6
:10083000882309F435CF60E089E491E0B6CF8823BE
:1008400009F42ECF60E089E391E0C3CF882309F457
:1008500027CF60E08BE291E0A8CF882309F420CF76
:1008600060E08DE191E0A1CF882309F419CF60E029
:1008700089E091E00E94DE1C86E392E00E940D0573
:1008800060E08FEF90E00E94DE1C86E392E00E9421
:100890000D0560E086EE90E00E94DE1C86E392E0AB
:1008A0000E940D0560E085ED90E093CF882309F468
:1008B000F7CE60E08BEC90E08CCF882309F4F0CE8B
:1008C00060E08DEB90E085CF882309F4E9CE60E00D
:1008D0008EEA90E00E94DE1C80E394E10E940D0508
:1008E00060E08CEA90E061CF8630B8F46830A8F41C
:1008F000453098F4E42FF0E095E0699FE00DF11D9C
:10090000112498E2899FE00DF11D1124EE0FFF1FC5
:10091000E855FE4F85919491089581E090E0089507
:100920000E94740408959C019A9581159F4118F5C1
:10093000F901EE27F270832F8170B9016627747078
:10094000A9014427587034FF0CC08295807FEF2B9B
:1009500009F08062672B09F08064452B69F080689C
:100960000895EF2B09F08260672B09F08460452B16
:1009700019F08860089580E00895CF93DF93EB012C
:100980000E949304FE010995DF91CF910895CF93C2
:10099000DF93EC01805E9109089720F06CE579E027
:1009A000209711F467E077E0CE010E94BD048C2F00
:1009B0000E946706DF91CF910895CF93DF93EC01FA
:1009C0000E94B306CE01805E9109089720F063E68D
:1009D00079E0209711F46EE077E0CE010E94BD042B
:1009E000DF91CF9108950F931F93CF93DF938C01E5
:1009F000EB010E94C704209741F4C8010E94DD0466
:100A0000DF91CF911F910F9108958FE99FE001979A
:100A1000F1F700C000002197EECF60E070E089336D
:100A2000910511F460E570E00E94F304089581E0FF
:100A300008950E942A03089508950E941C050895B0
:100A4000A5E0B0E0E6E2F5E00C94D32849835A83B0
:100A50003091C80189819A81311119C0662399F0BA
:100A6000222389F00E94D50A182F682F89819A8144
:100A70000E94B10A69817A81812F0E94AC1125966A
:100A8000E3E00C94EF280E94C30A182FF3CF0E94D2
:100A9000D50A69817A81F1CFFC01262F40815181ED
:100AA0006281738184810E942005089581E0089508
:100AB000CF93DF93D82FC92F60E00E944C056D2F94
:100AC0007C2F0E941D05DF91CF91089508950E940B
:100AD00080090E9466052FEF84E39CE0215080404E
:100AE0009040E1F700C0000008950E9467050E9451
:100AF000E72108950E9467050E940B2208950F9335
:100B00001F93CF93DF938C0161E00E944C05EC01B1
:100B1000B8010E9419058823E1F1B801CE010E94B5
:100B2000F1198823B1F1B801CE010E94E01D88239C
:100B300081F1B801CE010E94911B882351F1B801C7
:100B4000CE010E94461D882321F1F801828188236D
:100B500081F0CA35FCE7DF0739F178F4C130ECE702
:100B6000DE07F9F0C330FCE7DF07C9F0C115DC4749
:100B700071F0C8010E9417050DC0CB35ECE7DE0708
:100B8000B1F0CC35DC47A9F70E94FE0EF2CF0E94EF
:100B9000750580E0DF91CF911F910F9108950E941C
:100BA000100F0E947A05F5CF0E94080FE2CF0E9435
:100BB0000C0FDFCF0E94E8200E94010608950E94DA
:100BC00005060E94ED200895089581E00895089596
:100BD000CF93DF93D82F0E94E505C82F882319F003
:100BE0008D2F0E94E7058C2FDF91CF9108950895F6
:100BF000CF93C82F0E94E4058C2F0E94E805CF9167
:100C0000089580E00E94F80508950E94EA1F0E945E
:100C1000F8050895CF930E94EA1FC82F8091C30161
:100C20008C1779F0C093C3010E9477216093C401AF
:100C30007093C5018093C6019093C7018C2F0E94C9
:100C4000F805CF910895ABE0B0E0E9E2F6E00C944E
:100C5000D4284F83588769877A878B8761110E94D0
:100C6000470E1E8285E0FE013796DE011196019047
:100C70000D928A95E1F799818A812C813D81232B00
:100C800061F449815A816B817C818D819E810E94B2
:100C90006A0D2B96E2E00C94F02889238F3F89F3AC
:100CA000CE0101960E9456058111EBCFF2CFFC01D7
:100CB000808191810E94070B0895662329F00E948C
:100CC000C1170E94821808950E940A18FACFCF9384
:100CD000C82F8823B9F08CEF8C0F813AA8F46C2FC1
:100CE00080910001909101010E947820882329F0D1
:100CF0008C2F0E94010E0E94680E8C2F0E94F90D0D
:100D00000E94680ECF91089580E28C0F883048F4DD
:100D1000C77081E001C0880FCA95EAF70E94250ECE
:100D2000EFCF8BE58C0F833038F42C2F2452330B0C
:100D3000C9010E941B20E6CFE8E5EC0FEB3150F42F
:100D4000F0E0EE0FFF1FEE5AFE4F808191810E946E
:100D50004120D8CF83E38C0F8331A0F661E08C2F44
:100D60000E945D06CFCF882381F19CEF980F913AC6
:100D700028F40E94010E0E94680E089590E2980FD8
:100D8000983050F4877091E001C0990F8A95EAF786
:100D9000892F0E942B0EEFCF9BE5980F933028F4FC
:100DA00080E090E00E941B20089598E5980F9B3109
:100DB00028F480E090E00E944120089593E3980F8A
:100DC000933118F460E00E945D0608951F93CF935D
:100DD000DF93182FEB010E946706209739F4812FCB
:100DE0000E94B306DF91CF911F9108958FE99FE094
:100DF0000197F1F700C000002197EFCF60E070E0AD
:100E0000893311F460E570E00E94E60608958823B6
:100E100021F00E94250E0E94680E0895882321F07B
:100E20000E942B0E0E94680E0895A0E0B0E0EBE156
:100E3000F7E00C94CE286C01D62FC72FFC0112814D
:100E4000058102950F700E941A0EE82E8823E9F0A2
:100E5000E12E1123D1F08C2F807F803451F080E27D
:100E60008D0F8830E8F0011104C08C2F807E803215
:100E7000B9F080918C0282FF13C082E00E94CB0EF9
:100E80000E941A0E91E0E82EE926EC2FE295EF7011
:100E9000C03C08F05CC0F0E0E258F64D0C94BE286F
:100EA000E12CF3CF0C2F0F70C03110F00295007FB2
:100EB000112399F0002359F080E28D0F883010F053
:100EC000D11107C0802F0E94250E0E94680E8D2F21
:100ED0003CC0802F0E94390EF8CF8D2F0E94B306A0
:100EE0000023A9F180E28D0F883010F0D11104C0E9
:100EF000802F0E942B0E03C0802F0E943F0E0E9465
:100F0000680E25C0FC2FFF70FF2EC07FC03219F085
:100F1000F29480EFF822DD2351F0D13009F458C06B
:100F2000112309F460C0002309F457C0D0CF809189
:100F30008C0282FD2BC0112311F1FF2029F08F2D8F
:100F40000E94250E0E94680E80E00E946706EE2037
:100F500089F00E94160E80FD0DC0F60112820E94DB
:100F6000100E0E940E0AC6010E9433090E94100E44
:100F70000E941E0ACDB7DEB7E8E00C94EA2880E0B4
:100F80000E94B306FF2019F38F2DB3CF112381F0F8
:100F9000011106C00E944A0E8F290E940707D7CF71
:100FA0000130C1F70E944A0E8F290E94510ECFCF07
:100FB000011106C00E945E0E8F2D0E940E07C7CF42
:100FC000013029F28F2D0E940E070E945E0EBFCFC6
:100FD000112329F0063008F0BACF8F2DDECF05306F
:100FE00008F0B5CFE9CF002339F3D93349F42FEF17
:100FF00087EE93E0215080409040E1F700C0000070
:101000008D2F0E94B306A3CF8C2F86958695837073
:10101000882369F0813009F09ACF8D2F9C2F93702F
:10102000111102C080E090E00E94412090CF8D2FEE
:101030009C2F9370111102C080E090E00E941B2051
:1010400086CF612F8D2F0E945D0681CF8C2F8370FC
:10105000811139C0111129C04D2F42954695477015
:10106000440F440F2D2F2F7030E0042E02C0220FAA
:10107000331F0A94E2F780E090E0D4FF09C08FE0CC
:1010800090E002C0880F991F4A95E2F780959095ED
:10109000C695C695C370822B932BC23071F0C330B6
:1010A00079F0C13039F00E94E1090E94EA1F0E94E4
:1010B000F8054DCF0E94D809F8CF0E94EA09F5CF74
:1010C0000E94D509F2CF112361F1C0FFEECF4D2F61
:1010D000429546954770440F440F2D2F2F7030E0F6
:1010E000042E02C0220F331F0A94E2F780E090E042
:1010F000D4FF09C08FE090E002C0880F991F4A9585
:10110000E2F780959095C695C695C370822B932B78
:10111000C23069F0C33071F0C13031F00E94490A29
:10112000C4CF823010F2D3CF0E94400ABECF0E94BB
:10113000520ABBCF0E94F609B8CFCF70112339F005
:101140008C2F0E940E0A8D2F0E940707AECF8D2F85
:101150000E940E078C2F0E941E0AA7CFD23F31F1AA
:1011600070F4D03FB9F0D13FB1F1112309F451C06F
:10117000002309F44BC08D2F0E94670696CFD33F02
:10118000E1F0D43F21F11111F3CF011150C08C2FA8
:101190008F71E1CF112341F0053008F086CF8C2FFD
:1011A0008F710E94300A81CF0530F7CF8C2F8F715D
:1011B0001111D1CF0E940E0A78CF112329F08C2F64
:1011C0008F710E94020A71CF0E94FD096ECF80913B
:1011D0008C0282FD06C08C2F8F71112309F4BBCFC6
:1011E000E9CF112349F0CF718C2F0E940E0A63E0E2
:1011F0008C2F0E94AD0E59CF81E00E94CB0E0230A1
:1012000008F453CF82E00E94CB0E4FCF8C2F8F710A
:10121000D1CF002309F4BBCFD93349F4EFEFF7EE78
:1012200023E0E150F0402040E1F700C000008D2FA6
:101230000E94B3063ACF0F931F93CF93DF93EC0135
:10124000688179818A810E94140B8C010E945B0A5B
:101250000E94D409B801CE010E941507DF91CF91F9
:101260001F910F910895CF93DF93EC0198818981AD
:101270002B813C81232BB1F089238F3F99F0CE0144
:101280000E947F05811111C00E941A0E882351F01F
:101290008A81882339F080918C0282FF03C082E02A
:1012A0000E94CB0EDF91CF910895CE010E941B09C1
:1012B000CE010E945805F6CF882321F00E94390EF6
:1012C0000E94680E0895882321F00E943F0E0E941C
:1012D000680E089580E090E00E941B2080E090E07E
:1012E0000E9441200E94470E0E94680E0E949F1893
:1012F0000E94821808950E94090E0E946A090895AA
:101300000E94360E0E947B090895282F92959F70A7
:10131000963091F060F4925F9F70923030F481E0EB
:10132000203F79F030F4283E30F080E008959A5F55
:10133000F3CF243FD1F7089581E0283EE0F3213F29
:10134000F9CF0895FC0183819481892B61F081811B
:10135000908189238F3F39F0808191810E94070B12
:101360000E948509089580E00895A5E0B0E0EBEBC8
:10137000F9E00C94D4282596E2E00C94F028A6E03D
:10138000B0E0E5ECF9E00C94D4282696E2E00C9469
:10139000F02808950E94C90908950E94CA099093EF
:1013A000E0018093DF01089508950E94CD0908951A
:1013B0002091DF013091E001822B932B0E94CD0917
:1013C00008952091DF013091E001822393230E9450
:1013D000CD0908952091DF013091E0018227932704
:1013E0000E94CD0908950E94090308950E94F309FF
:1013F0009093DE018093DD01089580E090E00E94EB
:10140000F609089521E030E0A90102C0440F551FFC
:101410008A95E2F7CA010E94F609089521E030E0BA
:1014200002C0220F331F8A95E2F78091DD0190916F
:10143000DE01822B932B0E94F609089521E030E013
:1014400002C0220F331F8A95E2F7209530958091D4
:10145000DD019091DE01822393230E94F609089515
:1014600021E030E002C0220F331F8A95E2F780911D
:10147000DD019091DE01822793270E94F6090895ED
:101480002091DD013091DE01822B932B0E94F60921
:1014900008952091DD013091DE01822393230E9483
:1014A000F60908952091DD013091DE01822793270E
:1014B0000E94F609089508959B01677091E001C0AC
:1014C000990F6A95EAF763E0369527956A95E1F7F3
:1014D000220F331F220F331FFA01E20FF31F40E0E8
:1014E00050E0682F70E08191DF0111979B01042E7D
:1014F00002C0369527950A94E2F721702195282796
:10150000292328272C934F5F5F4F4430510559F70B
:1015100008959C01982F977083E0369527958A95BA
:10152000E1F7220F331F220F331FFB01E20FF31FDE
:1015300040E050E080E0219130E0092E02C0369575
:1015400027950A94E2F721703327042E01C0220F59
:101550000A94EAF7822B4F5F5F4F4430510559F7E9
:101560000895282F862F983068F4253058F4622F7C
:1015700070E025E0929F600D711D112449EC51E04F
:101580000E945C0A0895292F983068F4853058F439
:1015900090E069EC71E035E0239F800D911D1124EE
:1015A0000E94890A089580E00895A0E0B0E0EBED84
:1015B000FAE00C94CD288C01E090DD01F090DE0182
:1015C0008091DF019091E001E82AF92ACFE0D0E094
:1015D000CC24C394D12CC6010C2E02C0880F991FB5
:1015E0000A94E2F78E219F21892B49F4219798F7DD
:1015F000B12C8B2DCDB7DEB7E9E00C94E928BC2ED9
:10160000B8018C2F0E94B811019781F3F2CFCF93CC
:10161000DF93D82FC92F0E94D50A6D2F7C2F0E94EF
:10162000B811DF91CF9108951F93CF93DF93162FB9
:10163000D72F9091C801992341F0862F972F0E94B0
:10164000070BDF91CF911F910895882381F0862F9A
:10165000972F0E94D50AC82F682F812F9D2F0E9497
:10166000B10A612F7D2F8C2F0E94B811EACF862FEF
:10167000972F0E94C30AC82FF4CFFC0181E090E0AD
:10168000DC0102C0AA0FBB1F6A95E2F7BD01DC01B5
:1016900002C0AA0FBB1F4A95E2F76A2B7B2B02C040
:1016A000880F991F2A95E2F79B012E233F232617C7
:1016B000370719F48E2B9F2B0895809590958E23D4
:1016C0009F2308950F931F93CF93E091E101C6E00C
:1016D0008091E2018E1304C0CF911F910F91089564
:1016E0000E2F10E0CE9FF0011124ED51FE4F4081EE
:1016F000518162817381848195810E94BF09F801C3
:101700003196E770E5CF4091130250911402609139
:1017100015027091160280911702909118020E9492
:10172000BF090895E091E1019091E20126E0E913FB
:1017300002C080E00895AE2FB0E02E9FF00111248A
:10174000ED51FE4F3181361306C03081381303C08E
:101750003281341304C0FD013196E770E8CF81E097
:1017600008951F93CF93DF9380911802803108F082
:101770004CC080911502882309F447C08091E10193
:101780002091E2013091130260911402C09116027F
:10179000D0911702732F76232817B9F190E0209784
:1017A00009F443C016E07F3F09F43FC0189FF001E1
:1017B000199FF00D1124DF01AD51BE4F11964C91D0
:1017C000119746132CC04C91431329C012964C918B
:1017D000129741111EC013964D915C914C1B5D0BED
:1017E000483C5105E0F4809118028F70806180932D
:1017F0001802E851FE4F80818F708061808383E101
:1018000092E00E9433090E94620BDF91CF911F91F9
:1018100008950196877099272813C8CFF6CF0196AF
:10182000877099272813BFCFF0CF01968770B4CF68
:10183000ABE0B0E0EEE1FCE00C94CC288C0185E05C
:10184000F801DE01179601900D928A95E1F7F801F3
:10185000F280C380D48083E1A82E82E0B82E9091DC
:101860001302209114024091160250911702411563
:10187000510509F41BC1892F82238F3F09F416C13A
:10188000E0901502B601641B750BEE2009F4D2C07E
:1018900080911802683C710508F0A3C0B1808031C6
:1018A00008F063C02B1115C02081291312C0F1105C
:1018B00040C08F708061809318020E94830B83E187
:1018C00092E00E94330980911802F8018583F12C7F
:1018D00029C0AF80C114D10451F18B2D8A218F3FD3
:1018E00031F1F11026C040E06B2D8A2D0E94920B41
:1018F00040E06B2D8A2D0E94920BF82E8111E7CFCC
:101900008F8198850E94070B292F22952F70903484
:10191000B0F49F702230E0F09923F1F0F801958146
:101920009031D0F48F2D2B96EAE00C94E828FF201C
:1019300071F280911802816080931802C8CF2A5FEB
:101940002F70223068F0C8010E943309FE2CEACFC4
:10195000992311F0882331F3805E883018F3F3CF98
:10196000803F00F3815F8230F9CF2B1114C02081BA
:10197000291311C0F1100FC08583C8010E943309DB
:1019800086E0F801A3E1B2E001900D928A95E1F7BB
:101990000E94830B4CC0C8010E94A209882309F44D
:1019A00079C0FF2009F476C080911802803270F06F
:1019B00020911302309114023A8329831B82DD8225
:1019C000CC828E83CE0101960E94330986E0F80115
:1019D000A3E1B2E001900D928A95E1F70E94B10B6C
:1019E000D7CF803198F44F81588569857A858B856A
:1019F0000E94B50983E192E00E94330986E0F50177
:101A000011928A95E9F70E94830B61CF31813213DD
:101A1000C2CF20812913BFCFF110BDCF8583C8016C
:101A20000E94330986E0F50111928A95E9F7FF24B7
:101A3000F39478CF683C710588F5FF2059F18181D6
:101A400082131EC0808189131BC08091180280FD03
:101A50000EC0803160F08583807F803F09F48DCF98
:101A60008581982F907F905F8F70892B85CF86E03E
:101A7000F801A3E1B2E001900D928A95E1F7D7CF8A
:101A8000C8010E94A2098111A1CF80911802816032
:101A900080931802C8010E943309C9CF4F8158852D
:101AA00069857A858B850E94B509A8CFFF2091F3BF
:101AB000C8010E94A209882369F386E0F801A3E126
:101AC000B2E001900D928A95E1F783E192E00E94E5
:101AD000570684CFACE0B0E0E0E7FDE00C94D328FB
:101AE0004F83588769877A878B879C87CE010796B3
:101AF0000E94180C8823D9F08A859B85892B61F078
:101B00004F815885842F85238F3F31F069857A85F1
:101B10008B859C850E94BF0916E08091E101909120
:101B2000E201891344C02C96E3E00C94EF2886E090
:101B3000FE013796DE01119601900D928A95E1F72C
:101B40008F8198852091E2014091E1016A857B8532
:101B5000672B11F389238F3FF9F230E0C901019619
:101B60008770992750E08417950771F40E948009C7
:101B70001092E2011092E10186E0E3E1F2E0DF0180
:101B80001D928A95E9F7C8CF96E0929FD001939F66
:101B9000B00D1124AD51BE4FFE01319601900D9252
:101BA0009A95E1F78093E2010E94620BB5CF189FEE
:101BB000C00111248D519E4F0E94180C882309F4F6
:101BC000B2CFE091E1011E9FF0011124ED51FE4FD3
:101BD0004081518162817381848195810E94BF0916
:101BE0008091E10190E00196877099278093E1014F
:101BF00094CF682F80910001909101010E94B22042
:101C00000895682F80910001909101010E94B520F4
:101C1000089580910001909101010E94B8200895DB
:101C20008091210285958595859508958091210261
:101C30008770089590912102977081E0911101C001
:101C400080E0089580912C02089590912C02982BA9
:101C500090932C020895982F909580912C028923BF
:101C600080932C02089580932C02089510922C02E8
:101C7000089590912B02982B90932B020895982F02
:101C8000909580912B02892380932B0208951092C6
:101C90002B02089580912202089508950E944D0E0E
:101CA000089590918C0292FF08C09091220298179B
:101CB00021F0809322020E944E0E0895809122020C
:101CC000882329F01092220280E00E944E0E08958F
:101CD000CF93DF93E0910001F091010180912C02FC
:101CE0008083E0910001F0910101808190912B02AD
:101CF000892B808390912202992381F0E091000149
:101D0000F09101018081892B808380910001909165
:101D100001010E94672081110E945E0EC0910001A6
:101D2000D091010148E050E069E172E0CE010E94EB
:101D30000F29892B59F088E0FE01A9E1B2E001905A
:101D40000D928A95E1F7CE010E940120DF91CF919B
:101D5000089508950E94A90E089590918C0292FF13
:101D600011C098E0899F90011124622B6093210299
:101D70000E940E0A809121028595859585950E9485
:101D8000AA0E08950E940E0A08951092210280E082
:101D90000E94AA0E089520912102809582238093AB
:101DA0002102982F9770911113C030E0482F082E10
:101DB000000C550B2417350759F090918C0292FFB7
:101DC00007C08595859585950E941E0A0E94C50EBF
:101DD000089590918C0292FB222720F9281769F030
:101DE00080FB92F990938C0280918B0290918C02EF
:101DF0000E94310F82E00E94CB0E089580918C02E8
:101E000082FB882780F991E089270E94E90E0895D6
:101E100081E00E94E90E089580E00E94E90E089595
:101E20006FEF7FEF80E090E00E945129089580E0FD
:101E300090E00E942D299C0181E0273E3E4F09F051
:101E400080E0089582E090E00E942529089583E0D3
:101E500090E00E942529089584E090E00E942D29B9
:101E60000895BC0184E090E00E9451290895AB01DF
:101E7000BC018FE090E00E9445290895AB01BC01B0
:101E800083E190E00E944529089560E070E0CB0175
:101E90000E943E0F089560E070E0CB010E94370F72
:101EA0000E94450F089567EE7EEF80E090E00E946B
:101EB000512960E082E090E00E94332960E083E0F5
:101EC00090E00E9433291092E0011092DF0160E05F
:101ED00074E184E090E00E94512960E086E090E0A7
:101EE0000E9433296FEF87E090E00E94332940E0A1
:101EF00050E0BA0188E090E00E94452960E08DE062
:101F000090E00E94332940E050E0BA0188E190E07F
:101F10000E94452960E087E190E00E94332940E07B
:101F200050E0BA018CE190E00E94452960E070E049
:101F300080E290E00E94512940E050E0BA0188E13F
:101F400090E00E9445290E944B0F08950E94530F74
:101F500008958EE090E00E942529982F81E091114C
:101F600001C080E00895682F8EE090E00E94332940
:101F70000895A5E0B0E0EFEBFFE00C94D2280E94BA
:101F80006B218C0180912D0290912E028017910778
:101F900091F08FEF89838A831B820E946B2181607D
:101FA000782F49815A816B81892F0E9423061093D3
:101FB0002E0200932D022596E4E00C94EE280E9458
:101FC000772160933B0270933C0280933D02909393
:101FD0003E026093370270933802809339029093E7
:101FE0003A020895089508950E94F30F0895089500
:101FF0000E94F70F089581E008958DE093E10E941B
:10200000E01F0E94F20F0E94F40F08950E94F41442
:102010000895089508950E9409100E940A100895D5
:102020000E943B130E94F7050E94411A08950E94E6
:1020300062210E94A4120E940C150E942F140E947B
:1020400010100E94BC190E941C150E94F80F0895E0
:10205000A5E0B0E0EEE2F0E10C94CC280E94FB0F8A
:1020600081110CC00E94B90F0E94F4140E94C01884
:102070000E940A062596EAE00C94E8280E94701453
:102080008FE2A82E82E0B82E750110E0F7010191D1
:102090007F01812F0E9460131F5F183009F440C038
:1020A0000817A1F380913F0281FD0E9466130E94F0
:1020B0000610C82E00E0802F0E946013182FF50133
:1020C00091915F01891731F1D82ED926F12CEE2498
:1020D000E3948E2D8D218823A9F0CC2099F0F982EC
:1020E0000A8391E08E2D8123811101C090E09B83B2
:1020F0000E946B218160782F49815A816B81892FE1
:102100000E942306F394EE0CF5E0FF12E2CFF501F6
:10211000319710830F5F083071F60E94DF0FA4CF54
:102120000813C0CF9FCF1F93CF93DF930E94BD11A1
:10213000EC01811522E5920708F053C0811540E5B6
:10214000940708F0DDC0803E9105F8F48D3C9105C0
:1021500008F0AEC0883A910580F4853A910508F000
:1021600099C08130910521F00497813A910550F48E
:10217000CE01DF91CF911F910895885A91094B9715
:1021800008F48BC0C0E0D0E0F3CF811550E4950790
:10219000F8F4C11580E2D80708F0CBC0C83ED105DD
:1021A00038F3CE019A9581159F4160F78D2F0E94DB
:1021B0006112182FCE0199270E94BD11212F30E006
:1021C000322F2227E901CC27DF71C82BD92BD0CFA2
:1021D00099270E94BD11CC27DF70C82BD92BD06A5C
:1021E000C7CF803842E59407C8F5803652E5950799
:1021F00008F067C0C03482E5D807B0F08C2F869510
:102200008695877020E2829FC0011124C37021E06F
:1022100030E0A90102C0440F551FCA95E2F7EA0158
:10222000C82BD92BDC68A4CFC03252E5D50708F003
:1022300041C08C2F8695869520E2829FC001112493
:10224000C37021E030E0A90102C0440F551FCA95B8
:10225000E2F7EA01C82BD92BDD688ACF803C52E532
:10226000950760F48F71C03AD24508F03FC090E006
:10227000982F8827EC01C46FD06A7ACF805C924592
:10228000809708F07FCFDC2FCC27CC27DF71C06F81
:10229000D06A6ECFA497D0646BCFC85AD0E0CC0F71
:1022A000DD1FC857DE4F0990D881C02DD46460CFA0
:1022B000D0655ECFCF71D0E0DC2FCC27C16FD06A64
:1022C00057CF86958695877020E2829FC0011124A2
:1022D000C37021E030E0A90102C0440F551FCA9528
:1022E000E2F7EA01C82BD92BDA6842CF0E946112CB
:1022F000C82FD0E0DC2FCC27CC27DF71D06238CFBD
:102300008F710E94611265E0D695C7956A95E1F7D5
:10231000CF70D0E0DC2FCC27282F30E084FF05C021
:1023200054E0220F331F5A95E1F7C22BD32BD0690B
:102330001FCF8D2F8F710E946112182FCE01992708
:102340000E94BD11212F30E0322F222722273F711A
:10235000282B392BE901D2CF462F672F783028F46C
:10236000453018F40E949004089580E090E00895AC
:102370000E94AC110E9493100895803E9105D1F106
:10238000C8F48133910509F47FC048F4893291057E
:1023900009F46FC08A32910509F47DC0089589332C
:1023A0009105E1F082389105C9F08533910509F472
:1023B0005BC00895843E9105D1F148F4823E9105B9
:1023C00031F1833E910541F181EE90E00895863E22
:1023D0009105C1F1873E9105E1F1089520918B02AD
:1023E0002370211165C020918C0223FF14C089E263
:1023F00090E0089520918B0220FD43C030918C0223
:1024000030FF09C024FF4EC080E090E00895209185
:102410008B0222FDF7CF089520918B0222FD45C04B
:1024200030918C0230FD44C024FFF5CFEDCF2091D8
:102430008C0221FFF0CF80918B0284FDE5CF87EEE7
:1024400090E0089520918B0223FFE5CF24FDDCCF9F
:10245000F6CF20918B0223FD2EC030918C0231FFEC
:10246000E3CF84EE90E0089520918B0225FFD3CF37
:10247000BECF20918B0225FD21C020918C0223FF2D
:10248000CACF89E390E0089520918B0226FFC3CF45
:102490008AE290E0089520918B0226FFBCCF81E371
:1024A00090E0089583EE90E0089582EE90E0089524
:1024B00080EE90E0089586EE90E0089585E390E048
:1024C000AACF90918B0292FF06C0282F2871283046
:1024D000F9F4877F846093FF06C0282F2871283184
:1024E000F1F4877E846120918C0220FF06C0382F92
:1024F00038713830D9F4877F816021FF06C0282FDA
:1025000028712831D1F4877E816194FD877E0895FA
:10251000282F24712430F9F68B7F8860DCCF282F98
:102520002471243101F78B7E8861DDCF382F317122
:10253000313019F78E7F8860E0CF282F217121314B
:1025400021F78E7E8861E1CF109287021092880277
:102550001092890210928A020895CF92DF92EF9230
:10256000FF92CF93DF9300D000D0CDB7DEB76B01E1
:102570007C010E94F414811112C00E9477216983AA
:102580007A838B839C83C61AD70AE80AF90AC09219
:102590008702D0928802E0928902F0928A020F901C
:1025A0000F900F900F90DF91CF91FF90EF90DF9001
:1025B000CF900895A4E0B0E0E0EEF2E10C94D428CE
:1025C0000E94F414882371F00E94772169837A8332
:1025D0008B839C8369817A818B819C812496E2E044
:1025E0000C94F0280E94772169837A838B839C83E3
:1025F0008091870290918802A0918902B0918A020D
:1026000029813A814B815C81280F391F4A1F5B1F4A
:1026100029833A834B835C83DDCF80E008950E9459
:10262000100F0895CF930E9470142FEF86E791E06A
:10263000215080409040E1F700C000000E947014DB
:102640000E94F11491E0C82FC927CC0FCC0F8C2F1A
:102650000E94601390E002C095958795CA95E2F7B5
:1026600080FF04C00E940F130E94E721CF910895BC
:102670000E94121308950E94170F811102C00E9438
:10268000A60F0E94220F80933F020E942C0F90936E
:102690008C0280938B020E9438130E94270F90E0D7
:1026A0000E94D5098091DD019091DE010E94F3091D
:1026B000089508950E94591308950E940F030895E4
:1026C000E82FF0E0EA56FD4F8081089508950895BF
:1026D0000E9467130895EF92FF921F93CF93DF93A9
:1026E00000D000D0CDB7DEB70E94F414182F60914F
:1026F0009E02882309F447C01A8219821C821B8219
:10270000862F90E09E012F5F3F4F7901B9018A56D5
:102710009D4F0E942A158823E9F080918D0290E058
:1027200044E050E0B7018A569D4F0E940F2921E0F6
:1027300020934002892BC9F410E00E945D13812F81
:102740000F900F900F900F90DF91CF911F91FF90FE
:10275000EF90089580914002882371F384E0F7019F
:1027600011928A95E9F710924002E0918D02F0E013
:10277000EA56FD4F89819A81AB81BC818083918328
:10278000A283B383DACF70E06A567D4F80918D02C9
:1027900090E08A569D4F0E94B3150E946813CFCFD8
:1027A0000F931F93CF9322E031E061E070E0D901F5
:1027B00040E050E08D918F3FA1F0E82FE295EF705F
:1027C000F0E0C1A18F708B0102C0000F111F8A952C
:1027D000E2F7C801902F90959C2391A392A1892B99
:1027E00082A34F5F5F4F4530510521F72B5F3F4F6D
:1027F00011E026313107D9F6CF911F910F9108953D
:10280000CF93DF939C01C62FD0E085E0689FF00155
:102810001124EE5FFE4F60E071E050E041914F3FC8
:10282000E1F0A42FA295AF70A05EB0E08C9190E093
:102830004F7002C0959587954A95E2F78170811196
:102840000CC0872F582B6F5F770F653039F7C20F99
:10285000D31F5883DF91CF91089580E0F3CFA4E197
:10286000B0E0E5E3F4E10C94D428809116018111E5
:1028700012C084E1EEE3F1E0DE01119601900D92C9
:102880008A95E1F784E1FE013196A2E0B1E0019082
:102890000D928A95E1F78091160191E08927880FC2
:1028A000880F80939E0294E0981B90938D020E9463
:1028B000D01388E0E6E9F2E0DF01982F1D929A95A7
:1028C000E9F7EEE8F2E0DF011D928A95E9F784E08E
:1028D0000E94B1140E945A136496E2E00C94F0280E
:1028E000A8E0B0E0E6E7F4E10C94D1281A8219825E
:1028F000FE01339686E0DF011D928A95E9F7F12CFF
:102900008E010F5F1F4F6F2DC8010E940014F394BA
:10291000B4E0FB12F8CF48E050E0B8018EE892E056
:102920000E940F2921E0892B99F420E060919E02FA
:1029300070E06A567D4F44E08EE892E00E94B21447
:10294000182F0E946B13812B2896E5E00C94ED283C
:1029500088E0F801AEE8B2E001900D928A95E1F7C7
:10296000E5CF0895A0E0B0E0E8EBF4E10C94CF28C7
:10297000D82EE92EF62E072FC42F222349F081E00E
:10298000809343020E946B21909342028093410204
:1029900010914302111107C010E0812FCDB7DEB7AF
:1029A000E7E00C94EB2880914102909142020E9452
:1029B0009421059788F3D0E0AE016D2D7E2D8F2DEB
:1029C000902F0E940F29892B51F0AE016D2D7E2D85
:1029D0008F2D902F0E941C2910924302DECF10E011
:1029E000FBCF0E94A90F089580914602811107C074
:1029F0000E949D28882351F081E08093460281E067
:102A000090914602913009F080E0089582E0809331
:102A100046020E949828F3CF0E94170F811102C02E
:102A20000E94A60F0E94F114809316010E94F414D4
:102A300081110E94601508950E94F414811102C052
:102A40000E946315089581E0909147029A3008F042
:102A500080E008950F931F93CF93DF93EC01162F1F
:102A6000072F809147028A3090F4612F702FCE019A
:102A70000E94B015811121C0809147028F3FB1F4AF
:102A80000E946B21909345028093440209C080917B
:102A90004402909145020E949421843F914028F77E
:102AA00080E0DF91CF911F910F9108958F5F809308
:102AB00047028A3028F781E0F4CF10924702FBCF1B
:102AC0000E947D1E08950E94801E0895A0E0B0E03F
:102AD000ECE6F5E10C94CE28FA0169017801C82FE3
:102AE000880FDD0B3097B1F0DE0193E0AA0FBB1F1A
:102AF0009A95E1F7A95EBE4F11968D919C91129720
:102B0000885B9D4F4C9150E0E417F50708F4AF0146
:102B10000E941C29CE010E946B1F182F8823D1F020
:102B2000E114F104B9F083E0CC0FDD1F8A95E1F7E1
:102B3000FE01E95EFE4F438150E0E416F50608F41D
:102B4000A701C95EDE4F6C817D81685B7D4FC60148
:102B50000E941C29812FCDB7DEB7E8E00C94EA284B
:102B60000E94D31608950E94EC160895A8E0B0E0E4
:102B7000ECEBF5E10C94D22880915D0290915E021D
:102B8000A0915F02B0916002BC01CD010E94A3211F
:102B900011E0643671058105910520F10E94DA1279
:102BA000DC01CB010296A11DB11D89839A83AB8301
:102BB000BC8300E010E020E030E044E050E0BE01E3
:102BC0006F5F7F4F82E00E946615182F882351F0B7
:102BD0000E94772160935D0270935E0280935F0292
:102BE00090936002812F2896E4E00C94EE288F9257
:102BF0009F92AF92BF92CF92DF92FF920F931F935B
:102C0000CF93DF93CDB7DEB729970FB6F894DEBF29
:102C10000FBECDBF6B01A090BE01B090BF0101E01F
:102C200010E09E012B5F3F4F40E050E060E070E01D
:102C300080E00E946615F82E882309F459C04501EA
:102C40008FEF881A980A8091590290915A02A091A8
:102C50005B02B0915C02BC01CD010E94A3216E8396
:102C60007F8388879987643671058105910570F1A6
:102C700004E010E09E012F5F3F4F40E050E060E035
:102C800070E081E00E946615182F64E070E0C401D6
:102C90000E94BD199D8198132BC0112349F10E94F8
:102CA00077216093590270935A0280935B0290934C
:102CB0005C0289819A81AB81BC818093550290939B
:102CC0005602A0935702B093580213C064E070E01C
:102CD000C4010E94BD199D818913CACFF50181816C
:102CE0009281A381B48189839A83AB83BC83E1CF32
:102CF000F12C8091550290915602A0915702B0910B
:102D00005802F60180839183A283B3838F2D299685
:102D10000FB6F894DEBF0FBECDBFDF91CF911F91EC
:102D20000F91FF90DF90CF90BF90AF909F908F90CA
:102D30000895A0E0B0E0EFE9F6E10C94CC28F82E7D
:102D4000E92EB62EA72E8A010E942315CC24C39407
:102D5000D12C882319F08AE0C82ED12CC1E0D0E014
:102D60006B2D7A2D8F2D9E2DF8010995811116C09E
:102D70002196CC16DD0694F0CC9FC001CD9F900D1E
:102D8000900D112420E030E045E34A95F1F7000072
:102D90002F5F3F4F28173907B9F7E2CFCDB7DEB71E
:102DA000EAE00C94E8280F931F93CF93DF93D82F7A
:102DB000C92F8B0147EF55E10E949916882339F0FE
:102DC00046EB55E1B8018D2F9C2F0E949916DF919B
:102DD000CF911F910F9108950F931F93CF93DF937E
:102DE000FB01C091BE01D091BF01CE01019624E04C
:102DF000DC0101900D922A95E1F764E070E00E94F9
:102E0000BD1988836D817E818F81988500915102E3
:102E100010915202209153023091540260177107B1
:102E20008207930751F0609351027093520280938E
:102E30005302909354020E94AD12DF91CF911F91E3
:102E40000F9108950E9472230E9417100E947F2301
:102E500008950E9484230E9428100E949E230895B2
:102E60000E9404210E9458230E94FD0F0E942217F5
:102E70000E9429170E940B10FBCF8091690280FFEE
:102E80000DC06091330170E0660F771F60387105E7
:102E9000C0F561157105B9F1862F089581FF07C04E
:102EA0006091330184E0689FB0011124EFCF82FF6D
:102EB00004C06091330188E0F6CF809168028823D6
:102EC000E9F0909132016091330170E0891730F0A0
:102ED00093E0660F771F9A95E1F7D8CF869F900110
:102EE000879F300D112483E0220F331F8A95E1F76D
:102EF000692F70E0C9010E94AA28C8CF68E070E07D
:102F0000CBCF8FE7089581E008958091690280FF1B
:102F10000CC06091300170E0759567957595679567
:102F20006115710561F1862F089581FF06C06091DA
:102F3000300170E075956795F3CF6091300170E0D6
:102F400082FD15C0209167022223B1F090912F01DC
:102F50006091300170E0291750F4269FA001279F4F
:102F6000500D1124692F70E0CA010E94AA28603810
:102F70007105B0F28FE7089561E070E0D4CF81E091
:102F80000895E3E3E80FE331E0F5F0E0E657F64DAE
:102F90000C94BE280E943D17819580936D02089580
:102FA0000E943D17FACF0E943D17819580936C02D5
:102FB00008950E943D17FACF0E94851780936E02F4
:102FC00008950E9485178195F9CF0E9485178195F4
:102FD00080936F0208950E948517FACF815D990B47
:102FE00021E030E001C0220F8A95EAF780916B0260
:102FF000822B80936B020895809169028160809397
:1030000069020895809169028260F9CF8091690216
:103010008460F5CF40916C028D3C59F480916D0233
:1030200087FF0DC010926D02442359F4109268027C
:1030300008C08E3C81F480916D0218169CF34423E5
:1030400081F080916E0290916F02892B811159C09D
:103050001092670208958F3C41F447FFF0CF109221
:103060006C0280916D028823E0CF803D19F4141624
:10307000B4F3E5CF90916E02893D29F41916FCF660
:1030800010926E02DCCF8A3D19F497FFD8CFF8CFAB
:1030900090916F028B3D29F497FFD1CF10926F0270
:1030A000CECF8C3D19F41916CCF3C9CF9FE2980FFF
:1030B000983090F4815D990B21E030E0B90102C0B5
:1030C000660F771F8A95E2F7CB01809590916B028E
:1030D000892380936B02B3CF8D3D31F480916902D7
:1030E0008E7F80936902ABCF8E3D21F4809169027F
:1030F0008D7FF7CF8F3D09F0A2CF809169028B7F42
:10310000F0CF08950E946B2120916C0230916D02E6
:10311000232B222321F08093650290936602209155
:103120006E0230916F02232B222321F080936302E1
:10313000909364028AE692E00E940C20089586E053
:10314000EAE6F2E0DF011D928A95E9F71092680243
:1031500010926702109269020895FC018281811128
:103160000DC0838181110AC08481811107C081E073
:103170009581911101C080E08170089581E0FCCFBC
:10318000A6E0B0E0E6ECF8E10C94D12886E0EAE6AF
:10319000F2E09E012F5F3F4FD90101900D928A9579
:1031A000E1F710926C0210926D0210926E02109272
:1031B0006F028B819C81892B8901882391F08091FA
:1031C0006502909166020E9494219C0180916802A0
:1031D0008823C9F14091340150E04217530708F4A5
:1031E0003FC08D819E81892B882399F08091630255
:1031F000909164020E9494219C018091670288232F
:1032000009F46DC04091310150E04217530708F4B2
:1032100074C0B8018AE692E00E94C020811105C006
:103220008AE692E00E94AD1881110E94821886E021
:10323000F801AAE6B2E001900D928A95E1F7269690
:10324000E5E00C94ED28409162029AE0499FA001CC
:1032500011244217530728F68F5F8093680202C03B
:103260008F3FD1F7FB80FF2059F00E943D1791E07E
:103270001F140CF09FEF899F802D112480936C0206
:10328000FC80FF2059F00E943D1791E01F140CF0C4
:103290009FEF899F802D112480936D0230916C02E5
:1032A000332309F49ECF20916D02222309F499CF94
:1032B00045EB3403C0011124892F911101C081E035
:1032C00080936C0245EB240390011124332319F001
:1032D00030936D0286CF81E080936D0282CF409162
:1032E00061029AE0499FA00111244217530708F098
:1032F00090CF8F5F8093670202C08F3FD1F7FD8030
:10330000FF2059F00E94851791E01F140CF09FEFE9
:10331000899F802D112480936E02FE80FF2059F03A
:103320000E94851791E01F140CF09FEF899F802D5C
:10333000112480936F0230916E02332309F469CF18
:1033400020916F02222309F464CF45EB3403C001BE
:103350001124892F911101C081E080936E0245EB09
:10336000240390011124332319F030936F0251CFBD
:1033700081E080936F024DCF0895FC01680F791FA3
:103380008FEF91E3E617F70709F40895219182275B
:1033900028E030E087FF08C0880F892721503109D5
:1033A00021153105B9F7EECF880FF8CFA4E0B0E0D2
:1033B000ECEDF9E10C94D4289C01DB0112968C9180
:1033C000882351F037FF08C03F77C901A0E0B0E083
:1033D000BC01CD010E94361B81E02496E2E00C94F2
:1033E000F0280F931F93CF93DF93EC018B01FB0128
:1033F00082818823B1F00E94220E8272FE01E05386
:10340000FC47E830F10568F4E356F64D0C94BE280D
:10341000882321F08FEF03C08823E1F381E00E942D
:10342000541AB801CE010E94D619DF91CF911F9195
:103430000F91089580E00E945C1AF3CF81E0FBCFEA
:1034400082E0F9CF83E0F7CF84E0F5CF85E0F3CFDA
:103450009091A002923071F48A3050F4875F90E02E
:103460006AE070E00E94AA28875A0E94FE0608952A
:103470008650FBCF0E94D31C089508950E943D1AE8
:1034800008958CE090E00E942529482F50E060E0EC
:1034900070E04093A0025093A1026093A202709347
:1034A000A3020E943E1A089508956091A0028CE044
:1034B00090E00E9433290895CF93C82F8093A002F3
:1034C0000E94551A8C2F0E943E1ACF9108950E9497
:1034D000FE1F80939F029091A002913029F481FFFA
:1034E00003C089E30E94FE060E94220E8093A4027C
:1034F0000E94360E0E94470E8091A0028230B9F0E1
:1035000030F481110FC082EE0E94670604C084303F
:1035100011F1853029F18FE39CE90197F1F700C0A3
:103520000000089588E193E00E940D05F4CF80919A
:103530009F0280FD03C083E50E94FE0682EE0E948A
:1035400067068FE39CE90197F1F700C0000087E56B
:103550000E94FE06E0CF86EE0E94FE0688E1F8CFCC
:103560008BE191E00E940D0585E290E00E940D053F
:1035700088E290E0D9CF8091A0028230D9F030F477
:1035800081110DC082EE0E94B30604C08430D9F0D0
:103590008530D9F08091A4020E94330E08958CE208
:1035A0000E94FE0680919F0281FFF4CF89E30E9472
:1035B000FE06F0CF82EE0E94B30680919F0280FD4E
:1035C000E9CF83E5F4CF88E2F2CF88E290E00E9471
:1035D0000D05E0CFA0E0B0E0E0EFFAE10C94CC28DC
:1035E0006B017C01A090A0020CE110E0C7E0D0E0EC
:1035F00021E0D701C601002E04C0B695A795979586
:1036000087950A94D2F7382F3F70B32E222349F0C2
:1036100084E0A81215C029E02B1590F480E00E94E8
:10362000281A8B2D0E94281A21970450110920E096
:10363000CF3FDC07F1F6CDB7DEB7EAE00C94E8281F
:10364000B110EFCFC430D10564F3219704501109B4
:10365000D701C601002E04C0B695A795979587950A
:103660000A94D2F7382F3F70B32ED2CFCF92DF9289
:10367000EF92FF92CF93DF9300D000D0CDB7DEB7AB
:103680006B017C01C114D10421E1E206F10450F484
:10369000C114D10431E0E306F10478F08091A00276
:1036A000823081F40F900F900F900F90DF91CF91A7
:1036B000FF90EF90DF90CF9008950E94671AC701A6
:1036C000B6012AC00E94671A8091A0028111F7CF2B
:1036D00041E0E41AF108D701C6012AE0B695A795A2
:1036E000979587952A95D1F79C01AD0138524F4F98
:1036F0005F4FCA01B9010E94EA1A33E0D322EE24D7
:10370000FF24D701C6019452AF4FBF4F89839A83DC
:10371000AB83BC83BC01CD010E94EA1A0E94BB1A94
:10372000C1CFCF93DF93EC01FB018281882309F4A1
:10373000D2C09E0130572332310508F0B2C00E943A
:103740002C0F90938C0280938B02FE01E150F04786
:10375000E232F10520F4EB55F64D0C94BE28809131
:103760008B02816080938B0293C080918C02886071
:1037700080938C028DC080918B028260F3CF809108
:103780008B028460EFCF80918B028860EBCF8091B9
:103790008C028160EDCF80918C028260E9CF8091B4
:1037A0008B028061DFCF80918B028062DBCF8091C2
:1037B0008B028064D7CF0E94800980918B02806841
:1037C000D1CF80918B028C60CDCF80918C028360B1
:1037D000CFCF80918B028E7FC5CF80918C02877F67
:1037E000C7CF80918B028D7FBDCF80918B028B7F65
:1037F000B9CF80918B02877FB5CF80918C028E7F6D
:10380000B7CF80918C028D7FB3CF80918B028F7E5A
:10381000A9CF80918B028F7DA5CF80918B028F7B6A
:10382000A1CF0E94800980918B028F779BCF8091DE
:103830008B02837F97CF80918C028C7F99CF809170
:103840008B0282FB992790F921E0922790FB82F965
:1038500090FB83F987CF80918C02982F909591707F
:103860008E7F892B90FB81F983CF90918B02892FDA
:103870008F7B96FF806476CF0E94800990918B02A7
:10388000892F97FB87F980586DCF81E00E94B30F95
:1038900080918B0290918C020E94310F0E948009CE
:1038A00080E0DF91CF91089580E0F0CF90918B027E
:1038B000892F8F7E94FF806155CF90918B02892F45
:1038C0008E7F90FF81604ECF90918C02892F877FF1
:1038D00093FF88604DCF81E0E4CFFF920F931F9359
:1038E000CF93DF93E82FF0E0E857FC4FF490282FB8
:1038F00026952695269530E0F901E85DFB4F9491D9
:103900008770F901E85EFB4F049110E0082E02C0B9
:10391000159507950A94E2F701701127F901E85F00
:10392000FB4FC491D0E0082E02C0D595C7950A94EC
:10393000E2F7C170DD27E92FF0E002C0F595E795C9
:103940008A95E2F7E0FD10C001151105C1F48F2D35
:103950000E94FE06CD2B19F08CE20E94FE06CDB728
:10396000DEB7E5E00C94ED2881EE0E9467060115B4
:10397000110579F48F2D0E94FE0681EE07C086EEB8
:103980000E9467068F2D0E94FE0686EE0E94B306F7
:10399000E1CF86EE0E9467068F2D0E94FE0686EE1E
:1039A0000E94B306EACF982F9F709A50963020F06D
:1039B000805D0E946D1C0895895AFBCFFF920F9382
:1039C0001F93CF93DF938C01F62EF8018491882307
:1039D00009F457C0813009F050C0E8012196FE017A
:1039E0008491813099F42196FE0184910E94FE0613
:1039F0008E010F5F1F4F8F2D882339F3EFE9FFE012
:103A00003197F1F700C000008150F6CF823039F4D1
:103A1000E8012296FE0184910E946706E9CF833077
:103A200039F4E8012296FE0184910E94B306E0CFAA
:103A30008430F1F6E8012296FE01849120E030E026
:103A40004AE0FE0131968053990B8A30910550F07F
:103A50002150310968F28FE99FE00197F1F700C02A
:103A60000000F6CF429FB001439F700D11249C01CE
:103A7000260F371F8491EF01E4CF0E946D1CE801EF
:103A8000B7CFCDB7DEB7E5E00C94ED28CF93DF9349
:103A9000EB0186319C4719F50E94220E9A819923E9
:103AA000A1F08A7A91E0811101C090E090937002B8
:103AB000882349F085E30E94F90D0E94680E80E09A
:103AC000DF91CF91089589E2F6CF8091700288232B
:103AD00021F085E30E94010EF0CF89E2FBCF81E067
:103AE000EFCF0F931F93CF93DF93C42FD22FFC01FF
:103AF00082818823C9F0409373020E946B219093C6
:103B000072028093710280E28C0F883040F4C7709B
:103B100081E001C0880FCA95EAF70E940707DF918C
:103B2000CF911F910F9108951091730214133CC00F
:103B300080917102909172020E949421883C9105BB
:103B400098F5C0E2CD0F1D1741F180E2810F88305A
:103B500040F4177081E001C0880F1A95EAF70E94BF
:103B60000E07C83020F0802F0E94FE06D8CF91E0CB
:103B70008D2F877001C0990F8A95EAF7892F0E94CF
:103B80000707802F0E94FE06D77081E001C0880FD2
:103B9000DA95EAF70E940E07C2CF802F0E94FE0638
:103BA000C83008F0BCCFF0CF80E28C0F883008F02E
:103BB000B6CFC77081E001C0880FCA95EAF7EACF97
:103BC0000F93FC01CB01E851FC47E730F10590F57C
:103BD000E953F64D0C94BE2806E221EE41EE6AE16F
:103BE0007CE70E94711D80E00F91089507E225EEA9
:103BF00045EE6BE17CE7F5CF06E221EE40EE68E1B1
:103C00007CE7EFCF07E225EE44EE69E17CE7E9CF00
:103C100006E221EE42EE6CE17CE7E3CF07E225EE1F
:103C200046EE6DE17CE7DDCF08E221E045EE6EE196
:103C30007CE7D7CFFB01828181111092730281E072
:103C4000D3CF8EE14A9B03C081508111FBCF4A9BA9
:103C5000FECF08955A9880E28A95F1F75A9A08950E
:103C6000FC013BE03A95F1F798E020E080E031E09C
:103C700040E14A95F1F7880F4A9B02C081602327F3
:103C800042E04A95F1F7000040E14A95F1F7915082
:103C90009111EECF90E19A95F1F799B132E03A9512
:103CA000F1F7000040E14A95F1F792FB992790F96E
:103CB00092272081920F90830895A1E0B0E0E3E67F
:103CC000FEE10C94D02819828C017C01E60EF11CD7
:103CD0000E151F0541F481E09981911180E0219634
:103CE000E6E00C94EC280E94211ECE0101960E9471
:103CF000301EF80181938F01EBCF529A5A9A0895A2
:103D000052985A9AEA9AE9E6F0E080818F7C8083A3
:103D100008956150770B91E001C0990F6A95EAF719
:103D2000692F90E021E0611108C0992399F05A9A17
:103D300080E28A95F1F75A980895362F3823332375
:103D400039F05A9A922730E23A95F1F76695EBCF1F
:103D50005A98F9CF5A98ECCFFF920F931F93CF93B5
:103D6000DF93EC018C01060F111DC017D10729F458
:103D7000CDB7DEB7E5E00C94ED28F9900E942A1E3D
:103D800068E08F2D0E94891EF0CF1F920F920FB610
:103D90000F9211240F931F932F933F934F935F9391
:103DA0006F937F938F939F93AF93BF93EF93FF9303
:103DB000CF93DF930F92CDB7DEB719820E94211EF9
:103DC000CE0101960E94301E082F06950695069595
:103DD000982F92959570202F2570920F292F237080
:103DE00096959695920F982797708981892B8111C6
:103DF0005CC0043008F059C080E18A95F1F75A9A06
:103E0000529A82E08A95F1F700C05A9888E0089F9C
:103E100080011124D801A95EBE4F1696ED91FC9148
:103E200017973097A9F06091BE017091BF01149669
:103E30002D913C911597260F371F11968D919C91CE
:103E40001297680F791F13964C9113978C910995CF
:103E5000F801E95EFE4F6381662351F02091BE01B7
:103E60003091BF0184819581820F931F0E94AC1E07
:103E70000E942A1E80E18A95F1F75A9852985A9A20
:103E800080E18A95F1F7F801E95EFE4F60816623D3
:103E900051F02091BE013091BF0181819281820F4A
:103EA000931F0E945D1E0E94211E0F90DF91CF91F3
:103EB000FF91EF91BF91AF919F918F917F916F9102
:103EC0005F914F913F912F911F910F910F900FBED6
:103ED0000F901F9018950F931F93CF93DF938C0132
:103EE00004970CF065C0F894529A5A9885E08A9528
:103EF000F1F70000C02FC695C570802F8570C80FE0
:103F00008C2F8370C695C69593E0000F111F9A956C
:103F1000E1F7C80FC8018C2BEC010E942A1E00C0DB
:103F200068E08C2F0E94891E90E19A95F1F75298D3
:103F30005A9A4A9B35C087E090E04A9933C0F8010D
:103F4000E95EFE4F6381662361F02091BE013091EE
:103F5000BF0184819581820F931F0E945D1E88237B
:103F600021F10E94211E80E28A95F1F75A98529A17
:103F700090E19A95F1F7F801E95EFE4F60816623C2
:103F800051F02091BE013091BF0181819281820F59
:103F9000931F0E94AC1E0E942A1E789481E009C0E3
:103FA00000C0C7CF0197009749F4529A5A9A789463
:103FB00080E0DF91CF911F910F91089500C0BDCF98
:103FC0009093C1018093C001089590937A028093E9
:103FD000790208950E94F414811103C08091740243
:103FE0000895E0917902F0917A02309729F00190DA
:103FF000F081E02D0995089580E008950E94EA1F60
:104000000895E0917902F0917A02309721F00280D0
:10401000F381E02D09950895DC01E0917902F0919A
:104020007A02309739F082E08C930480F581E02D9C
:10403000CD0109950895A3E0B0E0E1E2F0E20C942F
:10404000D4289C018091770290917802821793077F
:10405000A1F03093780220937702E0917902F091F9
:104060007A02309751F083E089833B832A8306806C
:10407000F781E02DCE01019609952396E2E00C949C
:10408000F028A3E0B0E0E7E4F0E20C94D4289C012F
:10409000809175029091760282179307A1F0309378
:1040A000760220937502E0917902F0917A023097BE
:1040B00051F084E089833B832A830680F781E02DD9
:1040C000CE01019609952396E2E00C94F0289C011C
:1040D000AC014E5F5F4F285F3F4F80E0FA01908157
:1040E0004F5F5F4F91118F5F24173507B9F7089520
:1040F0009C01662351F0FC013296285F3F4F81916D
:10410000861729F0E217F307D1F780E0089581E0E0
:1041100008959C01FC0132968FEF90E04191461783
:1041200051F08F3F19F4411101C0892F9F5F9630E4
:10413000A9F78F3F09F40895280F311D87FD3A959F
:10414000F901628308959C01FC013296285F3F4F7C
:104150008191861303C0DF0111971C92E217F307C8
:10416000B9F708950E94892008950E94A320089518
:10417000FC01329686E0DF011D928A95E9F70895E9
:1041800046E050E00E940F299C0181E0232B09F4B6
:1041900080E0089508950E94CA2008958F5F80935B
:1041A0007B020E94CB20089583E080937B020E94D3
:1041B000CB2008950E94CE20089581E080937B0259
:1041C0000E94CB2008950E94DD200895089508954F
:1041D0000E94E7200895089508950E94E62008951A
:1041E000CF930E94EB200E9470140E94EC20C0E04C
:1041F0008C2F0E946013811105C0CF5FC830C1F7BA
:10420000CF91089581E0FCCF85B7806885BF85B7E1
:10421000806885BF08951F921FB61F9211248F9347
:104220009F93AF93BF9380917C02811113C08091C3
:10423000A5029091A602A091A702B091A802419672
:10424000A11DB11D8093A5029093A602A093A70281
:10425000B093A802BF91AF919F918F911F901FBE05
:104260001F9018958091AD02843031F10E94DA05DB
:1042700010927C0288E190E020E40FB6F894A895B3
:10428000809360000FBE2093600083B7817F8460BD
:1042900083BF83B7816083BF7894889583B78E7F0F
:1042A00083BF0FB6F894A8958091600088618093D1
:1042B0006000109260000FBE08950E9480090E9465
:1042C000DF05089582E084BD93E095BD9AEF97BD28
:1042D00080936E0008952FB7F8948091A502909175
:1042E000A602A091A702B091A8022FBF0895A4E052
:1042F000B0E0EDE7F1E20C94D4288FB7F894209168
:10430000A5023091A6024091A7025091A8022983EC
:104310003A834B835C838FBF69817A818B819C81D7
:104320002496E2E00C94F0289C014FB7F894809119
:10433000A5029091A602A091A702B091A8024FBF3A
:10434000821B930B0895A4E0B0E0E9EAF1E20C943B
:10435000D228462F572FBC012FB7F8948091A50281
:104360009091A602A091A702B091A8022FBF8C0144
:104370009D01041B150B260B370BC901B8012496B0
:10438000E4E00C94EE2878941F921FB61F9211243B
:104390008F939F93AF93BF938091A5029091A602B4
:1043A000A091A702B091A8020196A11DB11D809312
:1043B000A5029093A602A093A702B093A802BF9172
:1043C000AF919F918F911F901FBE1F90189581E014
:1043D0008093E00080E28093D8001092C9008FE1C2
:1043E0009EE40197F1F700C0000087E090EBDC014C
:1043F0008093B6029093B702A093B802B093B9022B
:1044000088E19CE00FB6F894A895809360000FBEF9
:1044100090936000FFCF88E19CE00FB6F894A895D8
:10442000809360000FBE90936000FFCF8091850263
:104430000895282FCB01BA013091AD023430E1F458
:104440002F702093E9002FEF3091E80035FD07C071
:1044500035ED3A95F1F7000021502111F5CF20916B
:10446000E80025FF09C040E050E00E94162480913A
:10447000E8008E778093E8000895BC0143E050E0A7
:1044800082E00E9419220895BC0146E050E082E0DB
:104490000E9419220895CF93DF93D82FC92F48E0A7
:1044A00050E0682F792F81E00E94192288E0ED2FDB
:1044B000FC2FADE7B2E001900D928A95E1F7DF9114
:1044C000CF9108958091AC02811109C00E949E2570
:1044D0000E94FB258091E20084608093E2000895B1
:1044E0001092AC0208950E94DD2008956091A90207
:1044F00081E0611101C080E00E94D4200895909174
:10450000AD0281E0943009F080E06091A9020E9440
:10451000DA20089542E061EC81E00E941A2542E22F
:1045200061EC82E00E941A259091AD0281E0943006
:1045300009F080E06091A9020E94CE200895809148
:10454000AF02893089F148F4823009F4A0C0833089
:1045500009F45AC0813041F008958A3009F487C0C7
:104560008B3009F46CC008958091AE02813A09F055
:104570004AC08091E800877F8093E8008091B20272
:104580009091B302892B61F060E080E090E070E0F0
:104590000E9465248091E8008B778093E80008955D
:1045A00068E08DE792E0F3CF8091AE02813259F559
:1045B0008091B2029091B302029728F58091E800B1
:1045C000877F8093E8008091E80082FF18C0909177
:1045D000F3008091F200029731F48091F100813074
:1045E00011F0863021F48091F10080938502809152
:1045F000E8008B778093E8000E944E2504C08091EC
:10460000AD028111E0CF08958091AE02813AD9F7D1
:104610008091B2029091B302892BA9F78091E800B2
:10462000877F8093E8008091E80080FFFCCF809135
:104630003D018093F1008091E8008E77DBCF80917F
:10464000AE02813201F78091B2029091B302892BC0
:10465000D1F68091E800877F8093E8000E944E2584
:104660008091B00280933D010E948009089580915D
:10467000AE02813241F68091E800877F8093E800A6
:104680000E944E258091B102809386020895809108
:10469000AE02813A09F0B7CF8091E800877F80931E
:1046A000E8008091E80080FFFCCF80918602C1CFB6
:1046B00084B7877F84BF0FB6F894A8958091600077
:1046C000886180936000109260000FBE80E890E0E7
:1046D0000FB6F89480936100909361000FBE0E9422
:1046E000E32008950E949E250E94FB25E2EEF0E063
:1046F00080818460808378940E947E28089585E379
:1047000091E00E94E51F08958091AD02853031F45B
:104710008091AD02853019F00E945D2108950E94BC
:1047200032218091AB02882399F30E94F0208823E4
:1047300079F30E9400240E948009EACF08959A012B
:104740004091B4025091B5020E94A7230895AC0194
:10475000CB01D901252F332723303105E1F058F45F
:1047600021303105C9F122303105D9F180E090E0E6
:1047700020E030E01EC02132310521F12232310526
:10478000A9F7892BC1F16130710581F78BE790E0C2
:104790002FEA34E00EC0CA019927413069F0823017
:1047A000910569F0EEE5F4E0892B01F7849190E042
:1047B0009F012D933C930895E4E5F4E0F7CFE8E3FF
:1047C000F4E0F4CF892B91F06130710579F689E03E
:1047D00090E02DE834E0EDCF82E190E02DE934E087
:1047E000E8CF8BE390E022E634E0E3CF89E090E08D
:1047F00024E734E0DECF80E490E02AE235E0D9CF50
:1048000080E189BD82E189BD09B400FEFDCF8091C0
:10481000D8008F7D8093D8008091E00082608093E3
:10482000E0008091E00081FDFCCF0895AF92BF923F
:10483000CF92DF92FF920F931F93CF93DF936C0180
:10484000EB018A010E946D25F82E811123C001150C
:10485000110539F0F80180819181C81BD90BC80E70
:10486000D91EA12CB12C2097A9F08091E80085FDDC
:1048700022C08091E8008E778093E8000115110531
:10488000A1F0F801808191818A0D9B1D9183808325
:1048900085E0F82E8F2DDF91CF911F910F91FF9022
:1048A000DF90CF90BF90AF9008950E946D25882330
:1048B000E1F2F82EEFCFF60181916F018093F100C4
:1048C0002197FFEFAF1ABF0ACECFFC019B01809169
:1048D000B4029091B5028617970718F0672B61F024
:1048E000C90140E0009771F441110CC08091E800CB
:1048F00082FF35C080E008958091E8008E77809334
:10490000E800EECF2091AD022223A9F12530A9F1D4
:104910002091E80023FD2DC02091E80022FDE6CF84
:104920002091E80020FFDECF3091F3002091F200CB
:10493000009719F02830310558F041E02830310552
:1049400009F040E02091E8002E772093E800CACFDC
:1049500041914093F10001972F5F3F4FE9CF809144
:10496000AD02882341F0853041F08091E80083FF5B
:10497000BDCF81E0089582E0089583E00895FC01B1
:104980009B018091B4029091B5028617970718F0A9
:10499000672B61F0C90140E0009771F441110CC030
:1049A0008091E80082FF36C080E008958091E800A1
:1049B0008E778093E800EECF2091AD022223B1F1F3
:1049C0002530B1F12091E80023FD2EC02091E800B0
:1049D00022FDE6CF2091E80020FFDECF3091F300EA
:1049E0002091F200009719F02830310558F041E08D
:1049F0002830310509F040E02091E8002E7720931F
:104A0000E800CACF44914093F100319601972F5F9F
:104A10003F4FE8CF8091AD02882341F0853041F0CF
:104A20008091E80083FFBCCF81E0089582E0089583
:104A300083E00895982F973028F08F708093E900D5
:104A400081E008959093E900242F762F50E0981785
:104A500031F07091EC002091ED005091F00021FDBB
:104A600002C09F5FE8CF3091EB003E7F3093EB00B8
:104A70003091ED003D7F3093ED003091EB003160DF
:104A80003093EB007093EC002093ED005093F00016
:104A90002091EE0027FDE5CF80E008958091AE02E1
:104AA00087FF13C08091E80082FF06C08091E80074
:104AB0008B778093E80004C08091AD028111F2CF22
:104AC00008958091AD028823D9F38091E80080FF9A
:104AD000F8CF8091E8008E77ECCF2091E400309100
:104AE000E50095E6A9018091EC008170882331F002
:104AF0008091E80080FF06C080E008952091E800E2
:104B000022FD1BC08091AD02882391F0853091F089
:104B10008091EB0085FD10C02091E4003091E5000C
:104B20004217530701F391509111DCCF84E00895AF
:104B300082E0089583E0089581E008950E940D26A3
:104B40000E941526E0EEF0E0808181608083E8ED30
:104B5000F0E080818F77808319BCA7EDB0E08C9165
:104B60008E7F8C9380818F7E80831092AC0208951B
:104B70000F931F93CF93DF930E940D260E9415265B
:104B8000C8EDD0E088818F778883888180688883AA
:104B900088818F7D888319BC1092AD021092A90282
:104BA0001092AB021092AA0200EE10E0F801808190
:104BB0008B7F808388818160888342E060E080E031
:104BC0000E941A25E1EEF0E080818E7F8083E2EE84
:104BD000F0E0808181608083808188608083F8013B
:104BE00080818E7F8083888180618883DF91CF91EF
:104BF0001F910F910895E8EDF0E080818F7E808312
:104C0000E7EDF0E080818160808384E082BF81E015
:104C10008093AC020E94B8250895E8EDF0E0808111
:104C20008E7F80831092E20008951092DA00109235
:104C3000E10008951F920F920FB60F9211242F9347
:104C40003F934F935F936F937F938F939F93AF9314
:104C5000BF93EF93FF938091E10082FF0BC080919F
:104C6000E20082FF07C08091E1008B7F8093E1002A
:104C70000E947D288091DA0080FF19C08091D800C1
:104C800080FF15C08091DA008E7F8093DA008091DA
:104C9000D90080FF94C080E189BD82E189BD09B45B
:104CA00000FEFDCF81E08093AD020E9462228091E0
:104CB000E10080FF19C08091E20080FF15C0809163
:104CC000E2008E7F8093E2008091E2008061809319
:104CD000E2008091D80080628093D80019BC85E002
:104CE0008093AD020E9476228091E10084FF29C06A
:104CF0008091E20084FF25C080E189BD82E189BD09
:104D000009B400FEFDCF8091D8008F7D8093D8003C
:104D10008091E1008F7E8093E1008091E2008F7EA0
:104D20008093E2008091E20081608093E2008091B4
:104D3000A902882309F449C084E08093AD020E944F
:104D40007F228091E10083FF29C08091E20083FFF0
:104D500025C08091E100877F8093E10082E080930D
:104D6000AD021092A9028091E1008E7F8093E10054
:104D70008091E2008E7F8093E2008091E20080616A
:104D80008093E20042E060E080E00E941A2580917A
:104D9000F00088608093F0000E947322FF91EF91F1
:104DA000BF91AF919F918F917F916F915F914F9143
:104DB0003F912F910F900FBE0F901F90189519BC27
:104DC0001092AD020E94702272CF8091E30087FFA3
:104DD00002C083E0B2CF81E0B0CF1F920F920FB636
:104DE0000F921124FF920F931F932F933F934F9392
:104DF0005F936F937F938F939F93AF93BF93CF9363
:104E0000DF93EF93FF9309EE10E0F8018081C091EA
:104E1000EC00C795CC27C7958F70FC2EF82A10821E
:104E2000C0EFD0E08881877F888378940E943627FE
:104E3000F8011082888188608883CF2DCF70C0836D
:104E4000FF91EF91DF91CF91BF91AF919F918F91A2
:104E50007F916F915F914F913F912F911F910F9192
:104E6000FF900F900FBE0F901F901895AAE2B0E030
:104E7000ECE3F7E20C94D3288EEA92E0FC01019671
:104E80002091F100208322E0863B9207B9F70E942F
:104E90009F228091E80083FF38C08091AE029091FC
:104EA000AF029A3090F5E92FF0E0E253F64D0C9402
:104EB000BE28803889F0823841F58091B2028F7027
:104EC000873018F58093E9008091EB0085FB8827F7
:104ED00080F91092E90006C08091AA029091AB027D
:104EE000911182609091E800977F9093E800809301
:104EF000F1001092F1008091E8008E7723C08111BB
:104F000016C08091B002813011F18091E80083FFDA
:104F10000AC08091E800877F8093E8008091EB00D1
:104F200080628093EB00AA96E3E00C94EF28823035
:104F300061F78091B002882389F01092E900809196
:104F4000E800877F8093E8000E944E25DECF81E055
:104F5000933009F080E08093AB02EFCF8091B202F2
:104F60008F702FEF280F263080F68093E900209174
:104F7000EB0020FFE2CF933031F48091EB008062B0
:104F80008093EB00DACF9091EB0090619093EB006F
:104F900021E030E0A90102C0440F551F8A95E2F7D5
:104FA0004093EA001092EA008091EB008860E8CF1D
:104FB0008111ABCF1091B0021F778091E300807810
:104FC000812B8093E3008091E800877F8093E80045
:104FD0000E944E258091E80080FFFCCF8091E30085
:104FE00080688093E30083E0111101C082E0809328
:104FF000AD028BCF8058823008F087CF8091B0020D
:105000009091B1028C3D53E0950799F583E08A8336
:105010008AE289834FB7F894DE01139620E03EE0E0
:1050200051E2E32FF0E050935700849120FF03C03A
:1050300082958F703F5F8F708A30C8F0895C90E0F6
:105040008D939D932F5F243161F74FBF8091E800CE
:10505000877F8093E8006AE270E0CE0101960E94AB
:1050600065248091E8008B778093E8004ECF805DC7
:10507000E6CF6091B2027091B302AE014F5F5F4F15
:105080000E949F23BC01892B09F43FCF8091E80047
:10509000877F8093E80089819A810E94BF24E1CFB5
:1050A000803809F032CF8091E800877F8093E80054
:1050B0008091A9028093F1001ECF811126CF90919B
:1050C000B002923008F021CF8091E800877F809372
:1050D000E8009093A9020E944E258091A90288239E
:1050E00031F084E08093AD020E948A220ECF80913D
:1050F000E30087FDF6CF81E0F5CF0895CF9380914F
:10510000AD02882399F08091E900C091EC00C79529
:10511000CC27C7958F70C82B1092E9008091E800CA
:1051200083FD0E943627CF70C093E900CF91089588
:105130000E949E251092AD020895E8EDF0E0808176
:10514000806180838AE18A95F1F700C08091D9005F
:105150008170089597FB072E16F4009407D077FD11
:1051600009D00E94FB2807FC05D03EF4909581955C
:105170009F4F0895709561957F4F0895EE0FFF1F23
:105180000590F491E02D09942F923F924F925F92F7
:105190006F927F928F929F92AF92BF92CF92DF9247
:1051A000EF92FF920F931F93CF93DF93CDB7DEB7AC
:1051B000CA1BDB0B0FB6F894DEBF0FBECDBF099440
:1051C0002A88398848885F846E847D848C849B8497
:1051D000AA84B984C884DF80EE80FD800C811B81A5
:1051E000AA81B981CE0FD11D0FB6F894DEBF0FBED4
:1051F000CDBFED010895AA1BBB1B51E107C0AA1F3B
:10520000BB1FA617B70710F0A61BB70B881F991F67
:105210005A95A9F780959095BC01CD010895FB01A1
:10522000DC0104C08D910190801921F4415050405F
:10523000C8F7881B990B0895FB01DC0102C001909F
:105240000D9241505040D8F70895F999FECF92BD84
:1052500081BDF89A992780B50895A8E1B0E042E0B1
:1052600050E00C945929262FF999FECF92BD81BDAB
:10527000F89A019700B4021639F01FBA20BD0FB694
:10528000F894FA9AF99A0FBE08950396272F0E9470
:1052900034290E943329252F0E943429242F0C946D
:1052A00034290196272F0E9434290C943329DC01DC
:1052B000CB01FC01F999FECF06C0F2BDE1BDF89A21
:1052C000319600B40D9241505040B8F70895F894CB
:1052D000FFCFA503AA03AF03B403B9038F039B0356
:1052E000A003E303F003F7030A04110418041F04E6
:1052F00026042D04340456045D0464045207520746
:105300008207820704082108A707A70726089D0827
:10531000AE08AE08CA17D017D317D917EE17EE1775
:10532000EE17EE17EE17EE17EE17EE17DC17E11774
:10533000E517EB17FC1702180618081A0C1A1A1AA8
:105340001E1A201A221A241A261AE91B5D1CF11BA8
:10535000BB1BBF1BF51BC31BF91B051CCF1B561C1E
:10536000D31B091CD71B0D1C351CDB1B111C3C1C43
:10537000E11B171C1F1CC71BFD1BCB1B011CE51BC6
:105380001B1C2B1C451C541CB51BED1B641CFC1D5D
:10539000021EEC1DF61D081E0E1E141E59277F2727
:1053A00085277F278527D827FA27852750285D2836
:1053B0002302C6F7F6F5F4313332369391909466B2
:1053C000973435FFFFFF01000000010000000000DE
:1053D000000004010000000405000000000000407F
:1053E000085028061016224B2244223D2201F4F5D3
:1053F000F6F7C6933632333197669490913534FF81
:10540000FFFFE200E900EA00B500B600B700CD00FA
:105410008301CC008A01920194012102230224021B
:105420002502260227022A02B300B4006F00700092
:105430009F01CB019F02A002E200E900EA00B50053
:10544000B600B700CD008301CC008A01920194011F
:105450002102230224022502260227022A02B30087
:10546000B4006F0070009F01CB019F02A0024802B0
:00000001FF
