:100000000C944F090C9487090C9487090C949E3228
:100010000C9487090C9487090C9487090C94870920
:100020000C9487090C9487090C94DE2F0C94B6303D
:100030000C949D180C9487090C9487090C948709DB
:100040000C9487090C9487090C9487090C948709F0
:100050000C9487090C94BA2F0C9487090C94870987
:100060000C9487090C9487090C9487090C948709D0
:100070000C9487090C9487090C9487090C948709C0
:100080000C9487090C9487090C9487090C948709B0
:100090000C9487090C9487090C9487090C948709A0
:1000A0000C9487090C9487090C9487090104333058
:1000B0007C00010431307C0000AF00AE07087F08EF
:1000C00007003E5B4F5B3E003E6B4F6B3E001C3EAD
:1000D0007C3E1C00183C7E3C18001C577D571C00C1
:1000E0001C5E7F5E1C0000183C180000FFE7C3E7A1
:1000F000FF00001824180000FFE7DBE7FF0030488E
:100100003A060E00262979292600407F05050700BA
:10011000407F05253F005A3CE73C5A007F3E1C1CAF
:100120000800081C1C3E7F0014227F2214005F5F21
:10013000005F5F0006097F017F00006689956A0005
:1001400060606060600094A2FFA2940008047E04D6
:10015000080010207E20100008082A1C0800081C37
:100160002A0808001E10101010000C1E0C1E0C0097
:1001700030383E383000060E3E0E0600000000000B
:10018000000000005F000000000700070000147F6F
:10019000147F1400242A7F2A1200231308646200AB
:1001A000364956205000000807030000001C224179
:1001B00000000041221C00002A1C7F1C2A000808A5
:1001C0003E08080000807030000008080808080099
:1001D0000000606000002010080402003E51494504
:1001E0003E0000427F4000007249494946002141DB
:1001F000494D33001814127F10002745454539003A
:100200003C4A494931004121110907003649494911
:100210003600464949291E00000014000000004035
:1002200034000000000814224100141414141400B7
:100230000041221408000201590906003E415D599F
:100240004E007C1211127C007F49494936003E4124
:10025000414122007F4141413E007F4949494100DF
:100260007F09090901003E41415173007F080808D8
:100270007F0000417F4100002040413F01007F0896
:10028000142241007F40404040007F021C027F005A
:100290007F0408107F003E4141413E007F0909096B
:1002A00006003E4151215E007F091929460026497A
:1002B0004949320003017F0103003F4040403F00B5
:1002C0001F2040201F003F4038403F0063140814A7
:1002D00063000304780403006159494D4300007F23
:1002E00041414100020408102000004141417F00CB
:1002F000040201020400404040404000000307089F
:1003000000002054547840007F284444380038448A
:1003100044442800384444287F003854545418007A
:1003200000087E09020018A4A49C78007F08040439
:10033000780000447D4000002040403D00007F10D8
:100340002844000000417F4000007C0478047800CD
:100350007C0804047800384444443800FC18242401
:10036000180018242418FC007C08040408004854D1
:100370005454240004043F4424003C4040207C00AA
:100380001C2040201C003C4030403C0044281028E9
:1003900044004C9090907C004464544C440000080D
:1003A00036410000000077000000004136080000E0
:1003B0000201020402003C2623263C00000000004B
:1003C0000000404040F0F8F8FF38FFF8F83FF8F838
:1003D000FF38FFF8F8F040404000000000000080C7
:1003E000C0C0C0800000C0C08000000080C0C0004D
:1003F000C0C0000080C0C00000000000C0C0C0C07D
:10040000C000C0C0000000000000000000000000AC
:1004100000000000000000000000000000000000DC
:1004200000000000000000000000000000000000CC
:100430000000000000000000000000C0F0F8FC3EDA
:100440001E06010000007F4141417F007F41414184
:100450007F000080C0E07E5B4F5BFEC00000C000FC
:10046000DCD7DEDEDED7DC00C000000000000000CC
:10047000000000000000000000000000000000007C
:100480000000494949FFFFFFFFE0DFBFBF00BFBFDA
:10049000DFE0FFFFFFFF49494900000000001F3F68
:1004A0006060E0BF1F007F7F071E381E077F7F0050
:1004B0007F7F0E1F3B716000000000007F7F0C0CEF
:1004C0000C007E7E007F7E0303007F7E03037E7E22
:1004D00003037F7E000F3E703C063C703E0F0032EF
:1004E0007B49493F7E007F7E0303001E3F69696FA1
:1004F0002600000000000000000000030F1F3F3C2A
:100500007870600000007F4141417F007F414141A0
:100510007F00307B7F7830202030787F3B000300E5
:100520000F7F0F0F0F7F0F0003000000000000007F
:1005300000000000000000000000000000000000BB
:100540000000010101070F0F7F0F7F0F0F7E0F0FBC
:100550007F0F7F0F0F070101010000000000000066
:100560000000000101000000000000000000000089
:10057000000000000000000000000000000000007B
:10058000000000000000000000000000000000006B
:10059000000000000000000000000000000000005B
:1005A000000000000000000000000000000000004B
:1005B000000000000000000000000000000000003B
:1005C000000000000000000000000000000000002B
:1005D000000000000000000000000000000000001B
:1005E000000000000000000000000000000000000B
:1005F00000000000000000000000000000000000FB
:1006000000000000000000000000000000000000EA
:1006100000000000000000000000000000000000DA
:100620007E0F00D4FFFFFFC700000078000000002D
:10063000000000002A2B280000000000000000003D
:100640000000000000000029000000002C1E3420E3
:10065000212224342627252E362D3738271E1F2009
:100660002122232425263333362E37381F0405064E
:100670000708090A0B0C0D0E0F1011121314151692
:100680001718191A1B1C1D2F3130232D3504050690
:100690000708090A0B0C0D0E0F1011121314151672
:1006A0001718191A1B1C1D2F3130354C0501090272
:1006B000A10185020901A1000509190129081500F8
:1006C000250195087501810205010930093115815F
:1006D000257F95027508810609381581257F9501CA
:1006E00075088106050C0A38021581257F9501756C
:1006F000088106C0C005010980A101850319012AEE
:10070000B700150126B700950175108100C0050CD2
:100710000901A101850419012AA002150126A002E0
:10072000950175108100C005010906A10105071991
:10073000E029E715002501950875018102950175ED
:100740000881010507190029FF150026FF009506FD
:1007500075088100050819012905950575019102A3
:10076000950175039101C009023B00020100A0FA46
:100770000904000001030101000921110100012207
:10078000400007058103080001090401000103007E
:100790000000092111010001227B000705820320CE
:1007A000000112010002000000081D8D9D9D020045
:1007B0000102000116034B0079007200690061001C
:1007C0002000720065007600320000001003730004
:1007D00070006C00690074006B006200000004038C
:1007E00009042223252628292A2C2D2F303233359F
:1007F00036383A3B3D3E4042434547494A4C4E50CD
:1008000051535557595A5C5E6062646668696B6DF6
:100810006F71737577797B7D7F81838587898A8CFA
:100820008E90929496989A9C9E9FA1A3A5A7A8AA01
:10083000ACAEAFB1B3B4B6B8B9BBBCBEBFC1C2C336
:10084000C5C6C7C9CACBCCCDCED0D1D2D2D3D4D5D0
:10085000D6D7D7D8D9D9DADADBDBDBDCDCDCDCDCF9
:10086000DDDDDDDDDCDCDCDCDCDBDBDBDADAD9D9D1
:10087000D8D7D7D6D5D4D3D2D2D1D0CECDCCCBCA5F
:10088000C9C7C6C5C3C2C1BFBEBCBBB9B8B6B4B385
:10089000B1AFAEACAAA8A7A5A3A19F9E9C9A98961B
:1008A0009492908E8C8A89878583817F7D7B7977EE
:1008B0007573716F6D6B6968666462605E5C5A59CE
:1008C00057555351504E4C4A4947454342403E3D8F
:1008D0003B3A3836353332302F2D2C2A292826251D
:1008E0002322FFAA7F5540000101010101010101FE
:1008F00001020202020202020202030303030303D3
:1009000003030404040404040405050505050606A0
:10091000060606070707070708080808090909095E
:100920000A0A0A0B0B0B0C0C0C0D0D0D0E0E0E0F04
:100930000F0F101011111112121313141415151694
:10094000161717181819191A1A1B1B1C1D1D1E1E05
:100950001F20202122222324242526262728292956
:100960002A2B2C2D2D2E2F30313232333435363781
:1009700038393A3B3C3D3E3F40414243444546477F
:1009800048494A4C4D4E4F50515354555658595A58
:100990005B5D5E5F616264656668696B6C6D6F70FC
:1009A00072737577787A7B7D7E8082838587888A6B
:1009B0008C8E8F91939596989A9C9EA0A2A3A5A7A2
:1009C000A9ABADAFB1B3B5B7BABCBEC0C2C4C6C99E
:1009D000CBCDCFD1D4D6D8DBDDDFE2E4E7E9EBEE57
:1009E000F0F3F5F8FAFDFF00DA1281FFD9F1DB2010
:1009F000A4A62EAF00A0C000A1C800AED580A83F1D
:100A0000D300408D14200000047F3F1F6432146423
:100A10003214783C1E1E140A05000000000000007D
:100A20000000000000008080C0E0F07078383C1CBE
:100A30001E0E0E0E0707070707070707070707071A
:100A4000070707070E0E0E1E1C3C387870F0E0C03A
:100A50008080000000000000000000000000000096
:100A60000000000000000000000000000000000086
:100A70000000000000000000000000000000000076
:100A80000000000000000000000000000000000066
:100A90000000000000000000000000000000000056
:100AA000C0E0F07C3E1F0F07030180C0E0F0783803
:100AB0003C1C1E0E0E070787E77F1FFFFF1F7FE707
:100AC0008707070E0E1E1C3C3878F0E0C08001033B
:100AD000070F1F3E7CF0E0C0000000000000000097
:100AE0000000000000000000000000000000000006
:100AF00000000000000000000000000000000000F6
:100B000000000000000000000000000000000000E5
:100B100000000000000000000000000000F0FCFFEA
:100B20001F07010000C0F0FCFEFFF7F3B1B030304A
:100B3000303030303078FE87010000FFFF000001C8
:100B400087FE7830303030303030B0B1F3F7FFFE10
:100B5000FCF0C0000001071FFFFCF00000000000D7
:100B60000000000000000000000000000000000085
:100B70000000000000000000000000000000000075
:100B80000000000000000000000000000000000065
:100B9000000000000000000000000000FFFFFF0058
:100BA00000000000FEFFFF0101071E78E181838342
:100BB00086868C8C9898B1B7FEF8E0FFFFE0F8FECF
:100BC000B7B198988C8C8686838381E1781E070163
:100BD00001FFFFFE0000000000FFFFFF000000001B
:100BE000FFFF0000C0C030300000F0F00000000047
:100BF0000000F0F00000F0F0C0C030303030C0C075
:100C000000003030F3F300000000000030303030DE
:100C10003030C0C00000000000000000FFFFFF00F7
:100C2000000000007FFFFF8080E0781E8781C1C147
:100C30006161313119198DED7F1F07FFFF071F7F9C
:100C4000ED8D191931316161C1C181871E78E08054
:100C500080FFFF7F0000000000FFFFFF000000009A
:100C60003F3F03030C0C30300000000033333333BC
:100C700033330F0F00003F3F000000000000000072
:100C8000000030303F3F303000000C0C3333333342
:100C900033333F3F0000000000000000000F3FFF23
:100CA000F8E0800000030F3F7FFFEFCF8D0D0C0CAD
:100CB0000C0C0C0C0C1E7FE1800000FFFF0000807C
:100CC000E17F1E0C0C0C0C0C0C0C0D8DCFEFFF7F7C
:100CD0003F0F03000080E0F8FF3F0F00000000001E
:100CE0000000000000000000000000000000000004
:100CF00000000000000000000000000000000000F4
:100D000000000000000000000000000000000000E3
:100D100000000000000000000000000000000000D3
:100D200003070F3E7CF8F0E0C0800103070F1E1C94
:100D30003C38787070E0E0E1E7FEF8FFFFF8FEE78E
:100D4000E1E0E0707078383C1C1E0F07030180C0A2
:100D5000E0F0F87C3E0F07030000000000000000F8
:100D60000000000000000000000000000000000083
:100D70000000000000000000000000000000000073
:100D80000000000000000000000000000000000063
:100D90000000000000000000000000000000000053
:100DA000000000000000010103070F0E1E1C3C386C
:100DB00078707070E0E0E0E0E0E0E0E0E0E0E0E0EB
:100DC000E0E0E0E070707078383C1C1E0E0F070306
:100DD0000101000000000000000000000000000011
:100DE0000000000000000000000000000000000003
:100DF00000000000000000000000000000000000F3
:100E000000000000000000000000000000000000E2
:100E100000000000000000000020202020202020F2
:100E2000005343524C434B20002020202020202000
:100E3000004341504C434B20002020202020202004
:100E4000004E554D4C434B2000556E646566696EEF
:100E500065640A0041646A7573740A0046756E63BE
:100E600074696F6E0A0053796D0A004E61760A004C
:100E7000436F6C656D616B2D44480A0044766F7258
:100E8000616B0A005157455254590A004C6179650B
:100E9000723A2000726576320A0A004B79726961F3
:100EA0002000808182838485868788898A8B8C8DC7
:100EB0008E8F9091929394A0A1A2A3A4A5A6A7A877
:100EC000A9AAABACADAEAFB0B1B2B3B4C0C1C2C3EE
:100ED000C4C5C6C7C8C9CACBCCCDCECFD0D1D2D35A
:100EE000D400000000000500130009001A001400DF
:100EF0002B44000000000A4517211624152804225F
:100F0000E100294429451900074406001B001C0084
:100F1000E00028452C44E200E3000000AE000000A1
:100F20000000000000000D000F0018001D0033003D
:100F30002F34000000001045112108240C28123223
:100F400034323E453E440E000B4436003700380034
:100F50002D3128442C452A004C000000A800000038
:100F60000000000000001A0006000F0019001B001E
:100F70002B44000000001245082104240C281822EC
:100F8000E100245229451C001344340033002F0093
:100F9000E00028452C44E200E3000000AE00000021
:100FA0000000000000000E000B000A000900140001
:100FB0002D340000000016451121152417280722A2
:100FC0001D323E453E4405001044360037000D00FA
:100FD000383128442C452A004C000000A8000000AD
:100FE0000000000000001700150008001A0014009F
:100FF0002B44000000000A4509210724162804227A
:10100000E100294429450500194406001B001D0084
:10101000E00028452C44E200E3000000AE000000A0
:101020000000000000001C0018000C00120013005B
:101030002F34000000000B450D210E240F28333201
:1010400034323E453E44110010443600370038002B
:101050002D3128442C452A004C000000A800000037
:10106000000000000000080007001A00040014003F
:101070002B00000000001500070016000400E1002E
:101080001B00290029000900190006001B00E000D0
:101090001C0028002C00E200E3000000AE0000006D
:1010A0000000000000001C00500052004F00130020
:1010B0002F34000000000B00500051004F0033009F
:1010C000343226523E4411001000360037003800FA
:1010D0002D3128442C452A004C000000A8000000B7
:1010E00000000000000035002614251438023502E7
:1010F00001000000000030022714241424022D14E3
:101100000100010001002E0230146414210232009B
:1011100001000100010001000100000001000000C9
:101120000000000000001E02640064022702230287
:101130002002000000002D0225022602380037029E
:10114000141401000100300022021F023202360294
:10115000081401000100010001000000010000006E
:101160000000000000004E004C0052002A004B001E
:101170002900000000004D004F00510050004A00BF
:101180000100D900D000CD00010049002B0029004A
:1011900001000100CE00CF000100000001000000AE
:1011A000000000000000300224002500260030006E
:1011B0003800000000002402210022002300370034
:1011C0003602D100D20037021E001F002000360078
:1011D0002702DA002700DD00DE000000DF0000004B
:1011E000000000000000BD00BE0000000000000084
:1011F0004252000000002178277823782578207853
:1012000041520100010022782878247826780000D5
:10121000405201000100AB00AC00000001000000E2
:1012200000000000000000004000410042004300B8
:10123000000000000000A9003D003E003F00440007
:10124000000000000100AA003A003B003C004500FD
:10125000000001000100AC00AB0000000100000034
:1012600000004D6F7573654A6967676C657320612F
:10127000637469766174656400010431357C004DE6
:101280006F7573654A6967676C6573206465616330
:101290007469766174656400010431357C00112441
:1012A0001FBECFEFDAE0DEBFCDBF04B603FE18C02D
:1012B0008091C5079091C607A091C707B091C80754
:1012C0008730904BA740B04B59F41092C50710924D
:1012D000C6071092C7071092C807E0E0F8E3099527
:1012E00012E0A0E0B1E0ECEDFAE602C005900D924C
:1012F000A631B107D9F727E0A6E1B2E001C01D92FF
:10130000A53CB207E1F70E9405290C94FF340C9428
:101310000000909386078093850708959C01807351
:101320009927C09731F4206430938807209387076A
:1013300008952F7BF9CF21E030E002C0220F331F48
:101340008A95E2F78091870790918807822B932BEB
:101350000E948E09089521E030E002C0220F331F61
:101360008A95E2F7209530958091870790918807BC
:10137000822393230E948E090895282F292B283039
:1013800070F528E0929FF0011124E80FF11D87709D
:1013900041E001C0440F8A95EAF783E0F695E795AE
:1013A0008A95E1F7EE0FFF1FEE0FFF1FEE5AF84F81
:1013B00080E090E070E05191DF0111979B01082ED1
:1013C00002C0369527950A94E2F7217021952527CA
:1013D000242325272C9301968430910561F70895E5
:1013E000292F282B283060F528E0929FF001112446
:1013F000E80FF11D982F977083E0F695E7958A9591
:10140000E1F7EE0FFF1FEE0FFF1FEE5AF84F40E01F
:1014100050E080E0219130E0092E02C036952795FA
:101420000A94E2F721703327042E01C0220F0A9498
:10143000EAF7822B4F5F5F4F4430510559F708950B
:1014400080E0089580918E0790918D07981301C0D8
:1014500008958F5F8770FACFEAE1F2E091918913E6
:1014600003C0DF0111971C9292E0E032F907B1F757
:101470000895209189078095822380938907982F6A
:101480009770911113C030E0482F082E000C550BB7
:101490002417350759F090918B0792FF07C0859567
:1014A000859585950E94AB09109289070895982F1C
:1014B0009095809183078923809383070895809175
:1014C00084078111109284070895962F972B9830E6
:1014D000B0F48730A0F498E0899FF0011124E70F61
:1014E000F11D83E0EE0FFF1F8A95E1F7E60FF11D76
:1014F000EE0FFF1FEE51F14F85919491089580E01A
:1015000090E0089520918A0722FF06C0982F9871D5
:101510009830C1F4877F846090918B07392F3170A8
:10152000927023FF21C0482F4871483191F4877E83
:1015300084619923B1F0982F9171913191F48E7E4D
:1015400088610FC0982F9471943031F78B7F886039
:10155000E3CF482F4471443139F48B7E8861911177
:1015600018C024FD877E0895332369F0382F387121
:10157000383019F4877F8160DCCF382F31713130FA
:1015800011F48E7F8860992361F3982F98719831B8
:1015900091F6877E8161E5CFCF93DF93EC01803EAA
:1015A000910509F478C088F58133910509F4C0C02C
:1015B00090F48932910509F4B0C08A32910509F49A
:1015C000BEC0019709F47AC0CE010497813A910513
:1015D00008F06DC073C08933910509F450C082389A
:1015E000910509F44CC08533910509F491C08D3CF7
:1015F000910508F010C1883A910508F0A7C0853A16
:10160000910510F3A497D06459C0843E910509F464
:1016100064C088F4823E910509F44CC0833E910574
:1016200009F450C0C83ED10508F448C0CE019A95CF
:101630008F3F9E41CDCF863E910509F459C0873E2C
:10164000910509F45AC0803222E5920708F0A4C03F
:10165000811542E5940708F0E3C0811550E5950730
:1016600008F484C08F710E94820AE5E0D695C79580
:10167000EA95E1F7CF709C2FEC01D0691FC08091F3
:101680008A07837081110CC180918B0783FF16C07C
:10169000C9E2D0E013C080918A0780FD46C09091D6
:1016A0008B0790FF0BC0C3EED0E084FF07C0C0E003
:1016B000D0E004C080918A0782FDF5CFCE01DF9192
:1016C000CF91089580918A0782FDE7C090918B07A2
:1016D00090FDE6C084FFF2CFEACF80918B0781FFB7
:1016E000EDCF80918A07C7EED0E084FDE0CFE6CF52
:1016F00080918A0783FDF7CFE1CF80918A0783FD30
:10170000D2C090918B0791FFE5CFC4EED0E0D6CF49
:1017100080918A0785FFD2CFBBCF80918A0785FD54
:10172000C5C080918B0783FFC9CFC9E3D0E0C6CF86
:1017300080918A0786FFC2CFCAE2D0E0BFCF8091F6
:101740008A0786FFBBCFC1E3D0E0B8CF885A9109A2
:10175000499708F0ACCFC85AD0E0CC0FDD1FCD526E
:10176000DE4F0990D881C02DD464A8CFC11580E484
:10177000D80708F052C0C11520E2D20708F452CFB2
:101780008D2F8F710E94820A90E0982F88278827DA
:101790009F718C2BEC017FC0803A924550F5C03888
:1017A00082E5D80708F066C0C03622E5D207B0F05F
:1017B0008C2F86958695877040E2849FC001112406
:1017C000C37021E030E0A90102C0440F551FCA9543
:1017D000E2F7EA01C82BD92BDA6870CFC03452E5A2
:1017E000D50790F5CF71D0E0DC2FCC27C16FD06A40
:1017F00065CFC03C82E5D80708F443C0CE01805CC9
:101800009245809708F053CFDC2FCC27CC27DF718F
:10181000C06FD06A53CFD06551CFDF70D06A4ECF42
:101820008695869520E2829FC0011124C37021E035
:1018300030E0A90102C0440F551FCA95E2F7EA0142
:10184000C82BD92BDD683ACF8C2F8695869587706B
:1018500050E2859FC0011124C37021E030E0A9014E
:1018600002C0440F551FCA95E2F7EA01C82BD92BD5
:10187000DC6824CFCF71D0E0DC2FCC27C46FD06AD6
:101880001DCF8C2F8F710E94820AC82FD0E0DC2FD1
:10189000CC27CC27DF71D06211CFC2EED0E00ECFC3
:1018A000C0EED0E00BCFC6EED0E008CFC5E3D0E06D
:1018B00005CFA0E0B0E0EFE5FCE00C94D6338C015E
:1018C000E0908707F09088078091850790918607C0
:1018D000E82AF92ACFE0D0E0CC24C394D12CC60169
:1018E0000C2E02C0880F991F0A94E2F78E219F21C7
:1018F000892B49F4219798F7B12C8B2DCDB7DEB702
:10190000E9E00C94F233BC2EB8018C2F0E94650ADA
:101910000E94CC0A019771F3F0CF0F931F93CF93DE
:10192000FC01828100811181882391F0662381F07E
:10193000C8010E94590CC82F682FC8010E94BD0918
:10194000B8018C2F0E94650ACF911F910F910895C5
:10195000C8010E94F009C82FF3CFCF93DF93D82F8F
:10196000C92F0E94590C6D2F7C2F0E94650A0E947E
:10197000CC0ADF91CF910895FC0183819481892B5A
:10198000C9F08181908189238F3FA1F0808191816D
:101990000E94AD0C282F92959F70963091F060F4C4
:1019A000925F9F70923030F481E0203F79F030F404
:1019B000283E30F080E004C09A5FF3CF243FD1F797
:1019C000089581E0283E18F0213FF9CF0895089549
:1019D00080E00895F894E82FE295EF70F0E041A1DF
:1019E0008F7021E030E0B90102C0660F771F8A9541
:1019F000E2F7CB01962F9095942391A392A1892B86
:101A000082A3789408950895A0E0B0E0EAE0FDE0B4
:101A10000C94D533E901E42FF0E0E951F74F61115F
:101A20000BC0E4919E2F8E2F8983E8839A83CDB7D4
:101A3000DEB7EAE00C94F133282F30E0062F10E0F7
:101A4000F491EF2F86E0829F6001839FD00C1124D8
:101A5000EE24EA94F12CC601B7010E94B933220F9B
:101A6000331F45E5469FC001479F900D1124281B59
:101A7000390B822F880F280FC701801B910BF89F0D
:101A8000A001F99F500D1124952F209F5001219FF7
:101A9000B00C1124AB2CBB24D701AA19BB095D01E2
:101AA000FA9DD001FB9DB00D11248B2F5701A21A76
:101AB000B1089501209F5001219FB00C309FB00CC0
:101AC0001124AB2CBB24EA18FB08FE9D9001FF9D5E
:101AD000300D112463307105C9F01CEFC11613E0FD
:101AE000D10650F46130710509F49ECF6230710562
:101AF00089F08E2FE32F98CF6430710571F0663036
:101B00007105B9F3E52F9B2F8F2F8ECFEB2F852FEC
:101B10009F2F8ACF852F932F87CF832FE52FF8CF45
:101B200080917E07823060F48170826080937E07AE
:101B300080918107873918F086E98093810708959D
:101B40008A34B0F381708864F1CFEBE7F7E011825B
:101B50008281846082830895FA01882311F00995B7
:101B60000895FB01FCCFFC01680F791F8FEF91E313
:101B7000E617F70709F408952191822728E030E05D
:101B800087FF08C0880F89272150310921153105A9
:101B9000B9F7EECF880FF8CFA3E0B0E0E2EDFDE0BB
:101BA0000C94DD339C0180914A0290914B02821784
:101BB0009307A1F030934B0220934A02E09148072B
:101BC000F0914907309751F083E089833B832A8362
:101BD0000680F781E02DCE01019609952396E2E07B
:101BE0000C94F933A3E0B0E0E8EFFDE00C94DD33B2
:101BF0009C01809148029091490282179307A1F0BD
:101C00003093490220934802E0914807F091490738
:101C1000309751F084E089833B832A830680F781E3
:101C2000E02DCE01019609952396E2E00C94F9335C
:101C30009C01FC0132968FEF90E04191461751F0E4
:101C40008F3F19F4411101C0892F9F5F9630A9F78A
:101C50008F3F09F40895280F311D87FD3A95F9014A
:101C600062830895A4E0B0E0E8E3FEE00C94DD3385
:101C70008FB7F89420912A0730912B0740912C07B9
:101C800050912D0729833A834B835C838FBF6981F1
:101C90007A818B819C812496E2E00C94F9330E9436
:101CA000320E0895809147020895FC019B018091B6
:101CB0003D0290913E028617970740F0672B29F46A
:101CC0008091E8008E778093E800C90140E000979A
:101CD00041F4411106C08091E80082FF2FC080E0EE
:101CE0000895209142072223A9F12530A9F12091DE
:101CF000E80023FD2DC02091E80022FDECCF2091CB
:101D0000E80020FFE4CF3091F3002091F20000972B
:101D100019F02830310558F041E02830310509F03C
:101D200040E02091E8002E772093E800D0CF419149
:101D30004093F10001972F5F3F4FE9CF8091420719
:101D4000882341F0853041F08091E80083FFC3CFC4
:101D500081E0089582E0089583E00895809137023C
:101D600087FF13C08091E80082FF06C08091E800E1
:101D70008B778093E80004C0809142078111F2CFF5
:101D80000895809142078823D9F38091E80080FF6D
:101D9000F8CF8091E8008E77ECCF2091E40030916D
:101DA000E50095E6A9018091EC008170882331F06F
:101DB0008091E80080FF06C080E008952091E8004F
:101DC00022FD1BC080914207882391F0853091F05D
:101DD0008091EB0085FD10C02091E4003091E5007A
:101DE0004217530701F391509111DCCF84E008951D
:101DF00082E0089583E0089581E00895E8EDF0E041
:101E000080818E7F80831092E2001092DA0010921F
:101E1000E100A0EEB0E08C9181608C9380818F779F
:101E2000808319BCA7EDB0E08C918E7F8C9380816C
:101E30008F7E8083109236020895982FE42FE270EF
:101E40009093E900891308C0762F242F50E0E11108
:101E500011C091E0980FF4CF7091EC002091ED004B
:101E60005091F00021FD06C09F5F973049F78093A5
:101E7000E90008953091EB003E7F3093EB00309104
:101E8000ED003D7F3093ED003091EB0031603093F9
:101E9000EB007093EC002093ED005093F000209144
:101EA000EE0027FDE1CF0895A0E0B0E0EAE5FFE015
:101EB0000C94D733C8EDD0E088818F7E8883E7ED1E
:101EC000F0E080818160808384E082BF81E0809344
:101ED000360288818E7F888302EE10E0F80110823E
:101EE0001092DA0081EEC82ED12CF6011082888182
:101EF0008F77888388818068888388818F7D8883B5
:101F000019BC10924207109235021092970210925B
:101F1000340290EEE92EF12CF70180818B7F8083D3
:101F200088818160888342E060E080E00E941D0F2C
:101F3000F60180818E7F8083F801808181608083BB
:101F4000808188608083F70180818E7F8083888193
:101F500080618883CDB7DEB7E8E00C94F3338091DD
:101F60004307811110C08091D80080618093D80010
:101F70008AE18A95F1F700C08091D90080FF0AC0FC
:101F800081E08093430781E090914307913009F00D
:101F900080E0089582E0809343070E94FE0E109235
:101FA0004207F1CFA4E0B0E0E8EDFFE00C94DD33B0
:101FB0000E94AF0F882371F00E94320E69837A83EA
:101FC0008B839C8369817A818B819C812496E2E05A
:101FD0000C94F9330E94320E69837A838B839C833D
:101FE0008091440790914507A0914607B09147071B
:101FF00029813A814B815C81280F391F4A1F5B1F61
:1020000029833A834B835C83DDCF0E94AF0F882303
:1020100059F0E0914807F0914907309729F0019075
:10202000F081E02D0995089580E008954091100118
:1020300080917E0780FF24C020910F0130E0C9010C
:10204000880F991F820F931F815B9D4F539A6BB12D
:10205000677F7BB17860EFB7F89450E09A01220F68
:10206000331F240F351F280F391F28173907E9F4AC
:10207000EFBF8FE594E00197F1F700C000000895ED
:102080008091110190911201282F30E0F901EE0F9B
:10209000FF1FE20FF31FE15BFD4F891768F6118206
:1020A000108212828F5F3396F8CFDC014D91CD0103
:1020B00058E07BB9000000C047FF6BB9440F000037
:1020C00000C000C000C06BB900C05A9591F7CDCFD9
:1020D0000F931F93CF93DF93EC0100E010E040914A
:1020E0001301842F90E0081719076CF00E94161056
:1020F0008C8190E00196817099278C83DF91CF913C
:102100001F910F91089580911101800F912F911DC2
:102110009C01220F331F280F391F215B3D4F9C81EB
:102120006091800780917F07469550E0041715075E
:1021300064F4992361F040918107473908F046E93A
:102140000E94040D0F5F1F4FCACF9923A1F340E0F7
:10215000F7CFEF92FF921F93CF93DF93EC0110E044
:10216000EE24EA94F12C60911301161770F00E948E
:1021700016109A818C8190FF28C08F5F8C83DF912D
:10218000CF911F91FF90EF90089580911101810FE1
:102190009927991F9C01220F331F280F391F215B9C
:1021A0003D4F40918107473908F046E970E0C7018B
:1021B0000E941E34962F8C8160918007199F800D9C
:1021C00011240E94040D1F5FCECF8150D7CFA0E015
:1021D000B0E0EDEEF0E10C94D433EC01A0901301EB
:1021E0008C819A8190FD0DC0BB24B39481110DC0E8
:1021F0008FEF8A0DBB24B39480934E0281E08C83D1
:1022000004C0BB24BA948823B9F3E12CF12CEA145E
:10221000B8F00E94161090914E02E1E0BE1257C035
:10222000809113018150992319F08FEF890F91E06C
:1022300080934E029C83CDB7DEB7EBE00C94F03375
:10224000809111018E0D9F2D911D8C01000F111F8A
:10225000080F191F015B1D4FF801118210821282B5
:1022600034E0C32ED12C912C80914E02890D853102
:1022700054F164E10E941034892F082E000C990B50
:102280008E159F05A9F4809181078C9DA0018D9DDD
:10229000500D11245595479555954795473908F0A8
:1022A00046E998016091800780917F070E94040DA4
:1022B0009B0CF1E0CF1AD108C114D104A9F68FEF1D
:1022C000E81AF80AA4CF87FFD8CF8A0DD6CF892F76
:1022D00090E001966091130170E00E941E34982FE7
:1022E000A7CF0F931F93CF93DF93EC018C818111C4
:1022F00009C081E08C8310924D0292E0909303011B
:10230000809302011091110120911201812F90E020
:10231000FC01EE0FFF1FE80FF91FE15BFD4F821775
:1023200050F100E060911301061758F10E94161059
:102330008091020120914D02280F20934D0290912F
:102340000301980F90930301191654F4022E000C08
:10235000330B409113014150550B2417350734F0CE
:10236000819580930201813009F41C82DF91CF9125
:102370001F910F9108951182108212828F5F339600
:10238000CECF202F30E070E0C9010E941E34810FB3
:1023900090E040914D02042E000C550BFC01EE0F15
:1023A000FF1FE80FF91F24173507C4F04091030100
:1023B000042E000C550B4217530784F09F01215B3C
:1023C0003D4F40918107473908F046E96091800709
:1023D00080917F070E94040D0F5FA4CFE15BFD4F4A
:1023E000118210821282F8CFAEE0B0E0EAEFF1E1A4
:1023F0000C94D9338D879E87AD85BE8514961C912C
:10240000212F30E0D9010E9462349B01AC010E946F
:10241000783469837A838B839C83E0E2F0E0E11B6C
:10242000F109A5E5B0E09B01AC010E947834698711
:102430007A878B879C879F01DF010E945A349B011A
:10244000AC010E9483346D837E838F8398879B01C8
:10245000AC0189819A81AB81BC81280F391F4A1F49
:102460005B1F69857A858B859C850E943234022F9B
:1024700030E00A3248F5C901880F991F820F931F77
:1024800095958795F82EF09410E085E5E82EE01AF2
:1024900080911301181730F10E941610ED85FE850A
:1024A000948181E0992319F0903219F48FEF809391
:1024B000010180910101890FAD85BE8514968C9331
:1024C0002E96E6E00C94F53385E590E0DC01A21B46
:1024D000B30BCD01880F991F8A0F9B1F97FFD0CF99
:1024E0000196CECF8E2D11FD802F40911101410F0D
:1024F0005527551F9A01220F331F240F351F215BCB
:102500003D4F4F2DB6E9BF1508F446E960918007AD
:102510000E94040D1F5FBCCF90917E0790FF11C0F9
:102520009091110150911201292F30E0F901EE0F25
:10253000FF1FE20FF31FE15BFD4F951718F00E949C
:10254000161008958183608342839F5F3396F5CF91
:10255000A3E0B0E0EEEAF2E10C94DB338C01809171
:102560004C0281110AC09E012F5F3F4F46E96FEF79
:102570000E94040D8A8180934C02F80164816130CD
:1025800049F06230D1F080914C0240E0662331F096
:1025900040E015C060914C0240E080E00E948C1247
:1025A000F801848190E0019663E070E00E941E349F
:1025B00084832396E4E00C94F73340914C0280E04E
:1025C00060E0ECCFA3E0B0E0E8EEF2E10C94DD33A4
:1025D00090917E0790FF0DC0473908F046E99E01B3
:1025E0002F5F3F4F0E94040D4B8169818A810E94B9
:1025F0008C122396E2E00C94F933CF93DF93EC0135
:10260000EC81F0E0EE51F84F4491EEE7F7E06281A3
:1026100081810E94E2128C818F5F8C83DF91CF9148
:102620000895CF93DF93EC01EEE7F7E043816281F9
:102630008C810E94E2128C818F5F8C83DF91CF911D
:1026400008950F931F93CF93DF93EB018A0190912D
:102650004207943079F58093E9008FEF9091E8007C
:1026600095FD07C095ED9A95F1F700008150811115
:10267000F5CF8091E80085FF1DC00E94CD0E81112D
:1026800014C08091E80085FD06C08091E8008E7737
:102690008093E800F2CF88818093F1000150110906
:1026A0000115110511F02196ECCF8091E8008E778D
:1026B0008093E800DF91CF911F910F910895CF9300
:1026C000DF93D82FC92F48E050E0682F792F81E0A1
:1026D0000E94211388E0ED2FFC2FAFE3B2E00190C0
:1026E0000D928A95E1F7DF91CF910895BC0146E004
:1026F00050E082E00E9421130895BC0143E050E0C5
:1027000082E00E9421130895A0E0B0E0EAE8F3E13E
:102710000C94D533F82EE92EB62EA72E8A0180917F
:102720003202CC24C394D12C8A3018F48AE0C82E0B
:10273000D12CC1E0D0E06B2D7A2D8F2D9E2DF8018C
:102740000995811116C02196CC16DD0694F0CC9F18
:10275000C001CD9F900D900D112420E030E045E3A5
:102760004A95F1F700002F5F3F4F28173907B9F757
:10277000E2CFCDB7DEB7EAE00C94F13390918B074E
:1027800092FB222720F9281779F080FB92F9909389
:102790008B0760918A0770918B0784E090E00E941C
:1027A000E93482E00E94390A08958091830790916C
:1027B0008C07892B8093180290918407992391F0BC
:1027C000892B8093180220E08AE192E0FC0130819D
:1027D000019631112F5F32E080329307B9F7211152
:1027E0000E945F0A48E050E06AE477E088E192E006
:1027F0000E94A134892BA9F088E0E8E1F2E0AAE484
:10280000B7E001900D928A95E1F7E0914807F091C9
:102810004907309731F00280F381E02D88E192E0A2
:1028200009950895882339F090918307892B809327
:1028300083070E94D5130895882321F00E94570A28
:102840000E94D513089567EE7EEF80E090E00E942D
:10285000E93460E082E090E00E94CB3460E083E005
:1028600090E00E94CB34109286071092850760E0BA
:1028700074E184E090E00E94E93460E086E090E05A
:102880000E94CB346FEF87E090E00E94CB3440E0B1
:1028900050E0BA0188E090E00E94DD3460E08DE015
:1028A00090E00E94CB3440E050E0BA0188E190E033
:1028B0000E94DD3460E087E190E00E94CB3440E08C
:1028C00050E0BA018CE190E00E94DD3460E070E0FD
:1028D00080E290E00E94E93440E050E0BA0188E1F3
:1028E00090E00E94DD3440E050E0BA018FE090E0DB
:1028F0000E94DD3440E050E0BA0183E190E00E94A4
:10290000DD3408950F931F93CF93DF938B01D82F5E
:10291000C92F0E94900DA8016D2F7C2F88E090E0B8
:102920000E94DD34DF91CF911F910F910895EEE762
:10293000F7E083E0808311828FEF828386E98383CF
:102940001482EBE7F7E082818360828363E070E0CA
:102950008FEF96E90E9482140895A4E0B0E0E3EBC3
:10296000F4E10C94DD3380918207833018F48F5F9B
:102970008093820780917E0790917F07A0918007C6
:10298000B0918107BC01CD010E9482142496E2E03F
:102990000C94F933A4E0B0E0E0EDF4E10C94DD3305
:1029A00080918207882319F081508093820780915B
:1029B0007E0790917F07A0918007B0918107BC01AD
:1029C000CD010E9482142496E2E00C94F933A7E032
:1029D000B0E0EDEEF4E10C94D533E82ED62EF42ED3
:1029E000B22E20917E0720FF43C080917F078E1179
:1029F00008C090918007961304C0909181079417A6
:102A000029F090917D07926090937D07E22FE695E3
:102A1000AE2FB0E0AC58BE4F9C9190937B072E7FB9
:102A2000223051F54F2D86E98F1508F446E99E01B5
:102A30002F5F3F4F6D2D8E2D0E94040D4B816981BC
:102A40008A810E948C128E2D80937F07D0928007FE
:102A5000F0928107BB2061F080917E0790917F0703
:102A6000A0918007B0918107BC01CD010E94821422
:102A70002796EAE00C94F133923019F4F090810734
:102A8000E2CF963009F39930F9F29931E1F6E95144
:102A90009E2F9170A92EE695F0E0EE51F74FE4914C
:102AA000C12C0E2F10E060911301C61618F00E9481
:102AB0001610C9CF2C2D30E0C09EC001C19E900DD4
:102AC000112470E00E94B9338E2DA11017C0860F1B
:102AD00090911101A901490F511D9A01220F331F35
:102AE000240F351F215B3D4F4F2DA6E9AF1508F48C
:102AF00046E96D2D0E94040DC394D5CF861BE8CF07
:102B0000EEE7F7E0818121E043816281885F0E94E6
:102B1000E7140895EEE7F7E0818121E043816281C7
:102B200088500E94E7140895EEE7F7E0628128E0FC
:102B3000620F08F46FEF21E0438181810E94E71466
:102B40000895EEE7F7E0628128E0621B08F460E098
:102B500021E0438181810E94E7140895EEE7F7E0C8
:102B6000438128E0420F08F44FEF21E06281818128
:102B70000E94E7140895EEE7F7E0438128E0421B46
:102B800008F440E021E0628181810E94E714089509
:102B9000A0E0B0E0EEECF5E10C94D733FA01690166
:102BA0007801C82F880FDD0B3097B1F0DE0193E07C
:102BB000AA0FBB1F9A95E1F7AE5CBE4F11968D919F
:102BC0009C911297825D984F4C9150E0E417F50765
:102BD00008F4AF010E94AE34CE010E944433182F96
:102BE0008823D1F0E114F104B9F083E0CC0FDD1FAC
:102BF0008A95E1F7FE01EE5CFE4F438150E0E4165A
:102C0000F50608F4A701CE5CDE4F6C817D81625D24
:102C1000784FC6010E94AE34812FCDB7DEB7E8E011
:102C20000C94F333A1E0B0E0E8E1F6E10C94D23388
:102C3000762E6A014901580101E010E09E012F5FE4
:102C40003F4F40E050E060E070E00E94C815182F50
:102C5000882309F442C0D6014D915D916D917C911C
:102C60002FB7F89480912A0790912B07A0912C07F9
:102C7000B0912D072FBF841B950BA60BB70B843685
:102C80009105A105B10538F4B701C5010E94B30D46
:102C90009981891711F18701940140E050E060E0CB
:102CA00070E0872D0E94C815182FB701C5010E943A
:102CB000B30D9981981731F010E0812F2196EDE046
:102CC0000C94EE3311701123C1F30E94320EF60101
:102CD0006083718382839383F0CFA701B501C40120
:102CE0000E94AE34EACFA4E0B0E0E9E7F6E10C944C
:102CF000D7336B0184E0E82EF12C0FE217E09E0140
:102D00002F5F3F4F46E257E061E080E00E941216DD
:102D1000882361F049815A816B817C81409322072D
:102D2000509323076093240770932507409122074F
:102D3000509123076091240770912507F601408385
:102D40005183628373832496E8E00C94F333A0E00C
:102D5000B0E0EDEAF6E10C94D733EB01942FB90122
:102D6000A801C880D980EA80FB80EFB7F894009171
:102D70002A0710912B0720912C0730912D07EFBFC8
:102D80000C191D092E093F090436110521053105CD
:102D900010F4992371F000E010E020E030E00E9490
:102DA000C815882339F00E94320E688379838A839C
:102DB0009B8381E0CDB7DEB7E8E00C94F333A8E065
:102DC000B0E0E5EEF6E10C94DB3325E0EEE7F7E06A
:102DD000CE010196DC0101900D922A95E1F7309128
:102DE0007B0720917C0750917D073E832F83588776
:102DF00041E09C01511101C040E008E010E062E1B7
:102E000077E085E00E94A716811110927D07289631
:102E1000E4E00C94F733A1E0B0E0E1E1F7E10C94D9
:102E2000DB3380910D0789832091410730E090E0EA
:102E300041E02817390709F440E001E010E09E0165
:102E40002F5F3F4F6EE077E086E00E94A716219645
:102E5000E4E00C94F733A8E0B0E0E1E3F7E10C9490
:102E6000DB33409116075091170760911807709156
:102E700019072FB7F89480912A0790912B07A091FA
:102E80002C07B0912D072FBF841B950BA60BB70BFA
:102E900011E084369105A105B10520F10E94D20F01
:102EA000DC01CB010296A11DB11D89839A83AB83FE
:102EB000BC8300E010E020E030E044E050E0BE01E0
:102EC0006F5F7F4F84E00E94C815182F882351F050
:102ED0000E94320E609316077093170780931807AD
:102EE00090931907812F2896E4E00C94F733A0E023
:102EF000B0E0EDE7F7E10C94D7336C017B0164E6B9
:102F000070E088E70E940531EC0197FD11C0860151
:102F1000EC0CFD1CF801849164E670E00E947431B1
:102F2000EC01892B29F40F5F1F4F0E151F0591F738
:102F30000E94F631CE01CDB7DEB7E8E00C94F33352
:102F400080910707882371F080910D07882351F045
:102F500062E070E08AEB90E00E947717892B11F411
:102F600010920D070895A4E0B0E0E9EBF7E10C94AE
:102F7000DD33809107078823F9F00E94320EDC01CF
:102F8000CB01805A9541AF4FBF4F8093010790937B
:102F90000207A0930307B093040780910D078111E6
:102FA0000BC062E070E088EB90E00E947717892BFD
:102FB00019F481E080930D072496E2E00C94F93334
:102FC000CF93DF93682F8091BB029091BC026A304F
:102FD000B9F42091BA028D5F9240622F70E00E9496
:102FE000B933281B822F66E00E940434C82FC150D9
:102FF00018F4DF91CF91089580E20E94E017F7CF97
:103000006D30F9F49C012D5F32404091BA02642F7B
:1030100070E0C9010E94B933481B842FA901480FF1
:10302000511D4115544018F080E020E030E0820F3F
:10303000932F911D83509D4F9093BC028093BB02B0
:10304000D8CF26E0FC01ACE2B2E001900D922A95C7
:10305000E1F7603E08F458C026E0FC0111922A9581
:10306000E9F7C091BB02D091BC0246E050E0BE013E
:103070008CE292E00E94A1349E012D5F3240892BA8
:1030800041F1C90146E0969587954A95E1F741E0FF
:1030900050E0BA0102C0660F771F8A95E2F7CB01B4
:1030A0006091FF0670910007862B972BB9016B5F2B
:1030B0007F4FE6E076956795EA95E1F702C0440F09
:1030C000551F6A95E2F7842B952B90930007809308
:1030D000FF062A5F3F4F4091BA02642F70E0C9019A
:1030E0000E94B933481B463010F4240F311D2115BE
:1030F00074E0370710F020E030E023503D4F30936C
:10310000BC022093BB0275CFF6E06F9FB001112483
:1031100064547F4F46E050E00E948B34A2CFCF939F
:10312000DF93EC01FE018491811103C0DF91CF9107
:1031300008950E94E0172196F5CF1F921FB61F92A7
:1031400011248F939F93AF93BF9380919602811127
:1031500013C080912A0790912B07A0912C07B09162
:103160002D074196A11DB11D80932A0790932B072F
:10317000A0932C07B0932D07BF91AF919F918F9192
:103180001F901FBE1F9018952FB7F89480912A07A3
:1031900090912B07A0912C07B0912D072FBF089578
:1031A0000E94AF0F882319F00E94C41808950E944E
:1031B000D20FCB01089560917E07669570E04BE0D9
:1031C00050E084E091E00E949434892B19F481E06E
:1031D00080937C070E94D0189093AF028093AE0238
:1031E00080917D07846080937D070895A4E0B0E01E
:1031F000ECEFF8E10C94DD3390917E0790FF39C03D
:103200008823D9F18532D8F58F77880F90917E0782
:103210009170892B80937E0780917D0781608093D8
:103220007D07662361F080917E0790917F07A091D2
:103230008007B0918107BC01CD010E94821460918A
:103240007E07669570E04BE050E084E091E00E94DC
:103250009434892BB1F00E94A50D81E08093B102D6
:1032600020E0409181076091800780917F070E9454
:10327000E7142496E2E00C94F93381E0C6CF84E2AF
:10328000C4CF0E94DB18E9CF80917E0786958F5FBF
:10329000853208F081E061E00E94F618089590916F
:1032A0007E0796958FEF890F913009F484E261E0F3
:1032B0000E94F618089590917E0790FF08C0969599
:1032C000981728F0961718F40E944419089561E0A1
:1032D0000E94F61808950E94C41820917407309136
:1032E0007507232B222321F080930A0790930B0765
:1032F0002091760730917707232B222321F08093AA
:10330000080790930907E0914807F0914907309723
:1033100049F082E0809372070480F581E02D82E716
:1033200097E009950895662309F4BBC060916A018E
:10333000462F50E0440F551FFA01E35FFD4F2081F7
:103340004B5F5D4FFA0190818D3C09F07AC0219569
:103350002093750780916A01681709F46FC090E0A7
:10336000880F991FFC01E35FFD4F20818B5F9D4F0C
:10337000FC01808190917407191614F4209374074E
:103380009091740797FF04C0922F919590937407C2
:1033900090917507191614F420937507909175078D
:1033A00097FF03C021952093750790917707191611
:1033B00014F4809377079091770797FF04C0982FB4
:1033C00091959093770790917607191614F480934E
:1033D00076079091760797FF03C0819580937607D3
:1033E000309174073323B9F020917507222399F0A7
:1033F00045EB3403C0011124892F911101C081E0F4
:103400008093740755EB250390011124332309F4AD
:1034100044C03093750730917707332379F040919A
:103420007607442359F025EB3203C0011124909311
:103430007707420390011124309376070E946B199D
:103440000895E2E3E80FE23108F084CFF0E0EF5FA7
:10345000FA4C0C9454342195209374077BCF9195AA
:103460009093760777CF91959093770773CF815D8F
:10347000990B21E030E001C0220F8A95EAF7809194
:103480007307822B8093730765CF81E080936A0175
:1034900061CF82E0FBCF83E0F9CF81E080937507B5
:1034A000BACF8D3C39F48091750787FFC7CF109252
:1034B0007507C4CF8E3C29F4809175071816BCF3AC
:1034C000BDCF8F3C39F48091740787FFB7CF10923E
:1034D0007407B4CF803D29F4809174071816BCF3AB
:1034E000ADCF893D41F48091760718160CF0A6CF38
:1034F00010927607A3CF8A3D29F48091760787FF43
:103500009DCFF6CF8B3D39F48091770787FF96CF1B
:103510001092770793CF8C3D29F480917707181686
:10352000BCF38CCF9FE2980F983008F087CF815D75
:10353000990B21E030E0F90102C0EE0FFF1F8A95E0
:10354000E2F7CF01809590917307892380937307E9
:1035500075CFCF93C82F8823A9F08CEF8C0F813AB9
:1035600098F4EAE1F2E08191C81709F440C022E042
:10357000E032F207C1F76C2F88E192E00E94180E4A
:103580000E94D513CF91089580E28C0F883068F4A3
:10359000C77021E030E001C0220FCA95EAF78091A0
:1035A0008307822B80938307EBCF8BE58C0F8330CF
:1035B00038F42C2F2452330BC9010E94CC0DE2CFDA
:1035C000E8E5EC0FE93150F4F0E0EE0FFF1FED52AB
:1035D000FE4F808191810E94F20DD4CF83E38C0F46
:1035E000833180F661E08C2F0E949319CBCF8C2F12
:1035F0000E942C0A0E94D513BECF882381F19CEF34
:10360000980F913A28F40E942C0A0E94D51308952D
:1036100090E2980F983050F4877091E001C0990FB4
:103620008A95EAF7892F0E94570AEFCF9BE5980FFA
:10363000933028F480E090E00E94CC0D089598E546
:10364000980F993128F480E090E00E94F20D0895DF
:1036500093E3980F933118F460E00E949319089552
:103660000F931F93CF93C82F00E010E0893311F41C
:1036700000E510E08C2F0E94A91A0115110539F4FC
:103680008C2F0E94FD1ACF911F910F9108958FE901
:103690009FE00197F1F700C0000001501109EDCF44
:1036A000811107C089EA611101C08AEA0E94301BBA
:1036B00008958130E9F78EE46111F8CF8BE4F6CFFD
:1036C000A1E0B0E0E6E6FBE10C94D633EE24E3940F
:1036D000F12C04E317E09E012F5F3F4F4EE157E0CE
:1036E00063E082E00E941216082F882339F1D12C62
:1036F00080E01DC0C0901D07CD0C2C2D30E0A9012D
:10370000455E584F7A01E1E0F0E0EC0FFD1FED0D52
:10371000F11D1081FA019081191BB12E1B149CF030
:10372000912F17FD90E0191B111118C0D39490919F
:103730001A07D916F8F281110E944F0E802F219698
:10374000E9E00C94F233BA94F70180818F5F8083B3
:1037500060E08C2D0E94501B802FE0CF1F5FF7018F
:1037600080818150808361E08C2D0E94501B802FCE
:10377000DBCFA0E0B0E0EFEBFBE10C94D8338C01A1
:10378000F8019491992309F4AAC0913009F048C036
:10379000E8012196FE018491813049F42196FE01D1
:1037A00084910E94301B8E010F5F1F4FE9CF823042
:1037B00039F4E8012296FE0184910E94A91AF3CF00
:1037C000833039F4E8012296FE0184910E94FD1AAB
:1037D000EACF843041F7E8012296FE01849120E08F
:1037E00030E04AE0FE0131968053990B8A30910512
:1037F00060F021153105B9F28FE99FE00197F1F7EB
:1038000000C0000021503109F4CF429FB001439F16
:10381000700D11249C01260F371F8491EF01E2CF18
:10382000E92FF0E0E45DF94FD490292F26952695F5
:10383000269530E0F901E45EF94F84919770F90123
:10384000E45FF94FE490F12C092E02C0F594E7945F
:103850000A94E2F7E1E0EE22FF24F901E450FA4F86
:10386000C491D0E0092E02C0D595C7950A94E2F71D
:10387000C170DD27E82FF0E002C0F595E7959A9535
:10388000E2F7E0FD0DC0E114F104A9F48D2D0E94D2
:10389000301BCD2B19F08CE20E94301BE80183CF46
:1038A00081EE0E94A91AE114F10479F48D2D0E9491
:1038B000301B81EE07C086EE0E94A91A8D2D0E9452
:1038C000301B86EE0E94FD1AE4CF86EE0E94A91AF4
:1038D0008D2D0E94301B86EE0E94FD1AEACFCDB7D7
:1038E000DEB7E7E00C94F433CF9310928307C6E081
:1038F000EAE1F2E0DF018C2F1D928A95E9F780E082
:1039000090E00E94CC0D80E090E00E94F20D1092B9
:103910008C070E94D513E2E7F7E0DF011D92CA95FC
:10392000E9F70E946B19CF9108950E94741C2FEF44
:1039300084E39CE0215080409040E1F700C000000B
:1039400088E19CE00FB6F894A895809360000FBEC4
:1039500090936000FFCFAAE2B0E0E1EBFCE10C94B1
:10396000DC3387E392E0FC0101962091F100208393
:1039700022E08F339207B9F780913802893009F439
:1039800056C0C8F4823009F4B2C0833009F481C053
:10399000813071F18091E80083FFE6C080913702A9
:1039A000909138029A3008F0DFC0E92FF0E0ED5E28
:1039B000FA4C0C9454348A3009F488C08B3051F797
:1039C00080913702813231F780913B0290913C0225
:1039D000892B01F78091E800877F8093E8000E949F
:1039E000AE0E80913902809300010E94741CD2CFE8
:1039F00080913702813A71F68091E800877F809349
:103A0000E80080913B0290913C02892B61F060E0DC
:103A100080E090E070E00E94550E8091E8008B7786
:103A20008093E800B7CF68E08FE392E0F3CF809116
:103A30003702813209F0AECF80913B0290913C0277
:103A4000029708F0A7CF8091E800877F8093E80075
:103A50008091E80082FF18C09091F3008091F200FD
:103A6000029731F48091F100813011F0863021F419
:103A70008091F100809347028091E8008B778093DA
:103A8000E8000E94AE0E86CF809142078111E0CF00
:103A900081CF80913702813A09F07CCF80913B023F
:103AA00090913C02892B09F075CF8091E800877FC7
:103AB0008093E8008091E80080FFFCCF80910001B6
:103AC0008093F1008091E8008E77D9CF8091370202
:103AD000813209F05FCF8091E800877F8093E80012
:103AE0000E94AE0E80913A028093330253CF8091B0
:103AF0003702813A09F04ECF8091E800877F8093AA
:103B0000E8008091E80080FFFCCF80913302D8CF9D
:103B1000803889F0823841F580913B028F70873080
:103B200018F58093E9008091EB0085FB882780F9E8
:103B30001092E90006C08091340290919702911191
:103B400082609091E800977F9093E8008093F10065
:103B50001092F1008091E8008E7723C0811116C089
:103B600080913902813011F18091E80083FF0AC011
:103B70008091E800877F8093E8008091EB0080626D
:103B80008093EB00AA96E3E00C94F833823061F75F
:103B900080913902882389F01092E9008091E80031
:103BA000877F8093E8000E94AE0EDECF81E09330E5
:103BB00009F080E080939702EFCF80913B028F70F5
:103BC0002FEF280F263080F68093E9002091EB003C
:103BD00020FFE2CF933031F48091EB00806280933C
:103BE000EB00DACF9091EB0090619093EB0021E035
:103BF00030E0A90102C0440F551F8A95E2F74093B7
:103C0000EA001092EA008091EB008860E8CF811111
:103C1000ABCF109139021F778091E3008078812B20
:103C20008093E3008091E800877F8093E8000E9402
:103C3000AE0E8091E80080FFFCCF8091E3008068A9
:103C40008093E30083E0111101C082E0809342077A
:103C50008BCF8058823008F087CF40913902509145
:103C60003A024C3D83E0580799F583E08A838AE263
:103C700089834FB7F894DE01139620E03EE051E2CD
:103C8000E32FF0E050935700849120FF03C082950A
:103C90008F703F5F8F708A30C8F0895C90E08D93A1
:103CA0009D932F5F243161F74FBF8091E800877F9C
:103CB0008093E8006AE270E0CE0101960E94550E02
:103CC0008091E8008B778093E8004ECF805DE6CF4F
:103CD00020913B0230913C02852F9927833091053A
:103CE00009F160F48130910509F472C0029709F07E
:103CF0003BCF8BE390E0E7E6F7E029C08132910506
:103D000009F45AC0829709F02FCF2115310509F423
:103D100069C02130310509F027CF8BE790E0ECEA4C
:103D2000F6E015C0CA0199274130B1F18230910502
:103D300009F43AC0892B09F017CFEEEDF7E0E491D2
:103D40008E2F90E0EEEDF7E0009709F40DCF209173
:103D5000E800277F2093E80020913D0230913E0249
:103D60008217930708F49C0140E02115310509F002
:103D70003EC041113CC08091E80082FDA1CF8091FE
:103D80004207882309F49CCF853009F499CF8091AC
:103D9000E80083FFF0CF94CFECECF7E0E4918E2FB6
:103DA00090E0ECECF7E0D0CFE4EBF7E0E4918E2F7D
:103DB00090E0E4EBF7E0C8CF2115310571F0213038
:103DC000310509F0D1CE89E090E0E2E9F7E0BFCF1C
:103DD00082E190E0E2EAF7E0BACF89E090E0E9E73B
:103DE000F7E0B5CF80E490E0E7E2F7E0B0CF809174
:103DF0004207882309F464CF853009F461CF8091AC
:103E0000E80083FD5DCF8091E80082FDB4CF809112
:103E1000E80080FFAACF9091F3008091F200211575
:103E2000310519F08830910550F041E0089709F00C
:103E300040E08091E8008E778093E80096CF44912F
:103E40004093F1003196215031090196E8CF803836
:103E500009F08ACE8091E800877F8093E800809106
:103E600035028093F10076CE81117ECE1091390219
:103E7000123008F079CE8091E800877F8093E800C7
:103E8000109335020E94AE0E112381F084E08093DE
:103E9000420742E061EC81E00E941D0F42E261ECCA
:103EA00082E00E941D0F809142075ECE8091E30068
:103EB00087FDECCF81E0EBCF9C014FB7F894809168
:103EC0002A0790912B07A0912C07B0912D074FBF87
:103ED000821B930B08950F931F93CF93DF93C62FED
:103EE000D42F122F8823A9F0609379070E94C41859
:103EF00090932B0280932A02C77081E001C0880F43
:103F0000CA95EAF70E941214DF91CF911F910F9189
:103F1000089580917907681332C080912A029091A8
:103F20002B020E945C1F883C910548F5CD130CC004
:103F3000812F0E94301BD77081E001C0880FDA9575
:103F4000EAF70E941C14E0CFC77001E0802F01C087
:103F5000880FCA95EAF70E941C1480E28D0F883002
:103F600050F48D2F877001C0000F8A95EAF7802FDB
:103F70000E941214DDCF812F0E94301BC5CFC77065
:103F800081E001C0880FCA95EAF7DBCFA5E0B0E079
:103F9000ECECFFE10C94D7338C01DC019C91119681
:103FA0008C91119713962D913C91232B09F4A1C06C
:103FB00089238F3F09F49DC061E0C8010E948D0CE8
:103FC00089839A83F801828129813A81232B09F020
:103FD0006FC0882309F4AFC180917807882309F462
:103FE00059C088E992E10E94B91B109278078FE7C7
:103FF00092E10E94B91BD80112968C918111A4C044
:10400000F8018281E080F180882309F483C2C7012E
:104010000E94590C8983682FC7010E94BD09B7010E
:1040200089810E94650A0E94CC0A8D839983D801F8
:104030001296DC9012971596CC90C2942FE0C22273
:104040008091890787708823C1F0FD2CDD20B1F0B5
:10405000892F807F803421F08D81805E883068F0E8
:1040600080918B0782FF09C082E00E94390A80910B
:1040700089078770FF24F3948111F12CE981E2957F
:10408000EF70B981B03C08F0B6C2F0E0E35EFA4CE4
:104090000C94543489E792E10E94B91B81E080932B
:1040A000780782E692E10E94B91BF8018281A6CFCF
:1040B000E981FA81E851FC47E730F105A8F5E75DB1
:1040C000FA4C0C94543426E241EE61EE0E946B1FD0
:1040D000809189078770882361F0D80112968C91AE
:1040E000882339F080918B0782FF03C082E00E9411
:1040F000390A2596E8E00C94F33327E245EE65EEA5
:10410000E5CF26E241EE60EEE1CF27E245EE64EE38
:10411000DDCF26E241EE62EED9CF27E245EE66EE34
:10412000D5CF28E241E0EBCF811111C029813A813E
:1041300026313C4709F0FFC080917A078111F9C010
:1041400089E20E942C0AF2C01092790759CF10928E
:10415000790789819A819057839708F0D0C084E0CD
:1041600090E00E94C53490938B0780938A07E98181
:10417000FA81E150F047E232F10520F4E05DFA4CBB
:104180000C94543480918A07816080938A076091EF
:104190008A0770918B0784E090E00E94E9340E94C6
:1041A000741C96CF80918B07886080938B07EFCF2C
:1041B00080918A078260E9CF80918A078460E5CF89
:1041C00080918A078860E1CF80918B078160EDCF75
:1041D00080918B078260E9CF80918A078061D5CF7B
:1041E00080918A078062D1CF80918A078064CDCF89
:1041F0000E94741C80918A078068C7CF80918A07CB
:104200008C60C3CF80918B078360CFCF80918A076A
:104210008E7FBBCF80918B07877FC7CF80918A0726
:104220008D7FB3CF80918A078B7FAFCF80918A0734
:10423000877FABCF80918B078E7FB7CF80918B0725
:104240008D7FB3CF80918A078F7E9FCF80918A0721
:104250008F7D9BCF80918A078F7B97CF0E94741CA4
:1042600080918A078F7791CF80918A07837F8DCF46
:1042700080918B078C7F99CF80918A0782FB992749
:1042800090F921E0922790FB82F990FB83F97DCF92
:1042900080918B07982F909591708E7F892B90FB42
:1042A00081F983CF90918A07892F8F7B96FF806455
:1042B0006CCF0E94741C90918A07892F97FB87F915
:1042C000805863CF61E08EE090E00E94CB345FCFF6
:1042D00060E0F9CF90918A07892F8F7E94FF8061EB
:1042E00054CF90918A07892F8E7F90FF81604DCFA8
:1042F00090918B07892F877F93FF886056CF8981A4
:104300009A8186319C4709F09FC0809183078A7A01
:1043100091E0811101C090E090937A0765E38111EB
:1043200001C069E288E192E00E94180E0E94D51354
:10433000CFCE85E306CF809183078272E981FA812F
:10434000E052F847E531F10508F05ACEEE5AFA4C42
:104350000C94543480917E0780FF1DC08E7F809323
:104360007E0780917E0790917F07A0918007B09192
:10437000810789839A83AB83BC83BC01CD010E94F2
:1043800082140E94A50D80917D07816080937D0736
:104390000E9416109DCE816080937E0761E0869515
:1043A0000E94F61895CE4FE459E164E479E10E9449
:1043B000AC0D8ECE44E459E16FE479E1F8CF4AE8E0
:1043C00055E160E875E1F3CF40E855E16AE875E151
:1043D000EECF41EA55E164E975E1E9CF44E955E101
:1043E00061EA75E1E4CF4BEB55E16EEA75E1DFCFB1
:1043F0004EEA55E16BEB75E1DACF4AEC54E16DEA38
:1044000074E1D5CF4DEA54E16AEC74E1D0CF61E0BC
:1044100081E0C6CF65E082E00E945B1959CE68E07A
:1044200086E0FACF6EE089E0F7CF64E18FE0F4CF69
:1044300067E185E1F1CF61E088E1B2CF62E289E135
:10444000EBCF61E083E2ACCFA981BA81AA35ECE77A
:10445000BE0709F45BC008F03DC0A1302CE7B207ED
:1044600009F452C0A3303CE7B30709F447C0A115D3
:10447000BC4709F0C5CD0E94741CEFEFF4E32CE0BB
:10448000E150F0402040E1F700C0000081E080935F
:10449000E00080E28093D8001092C9008FE19EE492
:1044A0000197F1F700C0000087E090EBDC018093FA
:1044B000C5079093C607A093C707B093C80788E1C4
:1044C0009CE00FB6F894A895809360000FBE90937F
:1044D0006000FFCF89819A818B35ACE79A07C1F0E4
:1044E0008C359C4709F08CCD80918B0782FB882707
:1044F00080F991E089270E94BE1382CD6FEF7FEF94
:1045000080E090E00E94E9340E94951C81E0F3CFA6
:1045100080E0F1CFC7010E94F009898380CDE98155
:10452000EF70EE2EF981F03118F0E29490EFE9226D
:10453000DD20C1F0EE2071F08D81805E883018F0B2
:104540002D81211109C0809183078E2980938307D3
:104550000E94D5138D8147C080918C078E2980934E
:104560008C07F6CF8D810E94FD1AEE2009F443C01E
:104570008D81805E883018F03D81311104C08E2D10
:104580000E94570A06C0E09480918C078E21809388
:104590008C070E94D5132FC049814F70E42E69818A
:1045A000607F603219F0E29480EFE8228D818823E9
:1045B00051F0813009F461C0DD2009F46BC0CC20DA
:1045C00009F461C0C7CF20918B0722FD30C0DD20E8
:1045D00069F0EE2039F0809183078E29809383075C
:1045E0000E94D51380E00E94A91A05C080E00E94B5
:1045F000FD1AE110C4CFFF20A9F08091890780FD4A
:1046000011C0F80112828595859585950E949B09B8
:10461000C8010E94C61F809189078595859585955B
:104620000E94AB0960E0C8010E948D0C62CDDD20C4
:1046300099F090918407892F8E29C11003C00E94A0
:104640001214D9CFA1E0CA12FACF22FFD4CF981703
:1046500091F280938407CFCFC11006C00E945F0AF9
:104660008E2D0E941C14C7CFB1E0CB1621F28E2DE7
:104670000E941C140E945F0ABECFDD2031F0E5E0ED
:10468000EC1508F4B8CF8E2DDACFF4E0FC1508F461
:10469000B2CFE6CFCC2021F32D81293349F43FEF6F
:1046A00047EE63E0315040406040E1F700C0000059
:1046B0008D810E94FD1A9FCF898186958695837092
:1046C000882369F0813009F096CF8D8199819370AC
:1046D000D11002C080E090E00E94F20D8CCF8D815D
:1046E00099819370D11002C080E090E00E94CC0DBF
:1046F00082CF6D2D8D810E9493197DCF898183702A
:10470000811145C0D1102FC04D814295469547700B
:10471000440F440F2D812F7030E0042E02C0220F71
:10472000331F0A94E2F78D8184FF20C08FE090E070
:1047300002C0880F991F4A95E2F780959095A9814C
:10474000A695A695A370A230C9F0A330A1F0409120
:10475000850750918607A13061F0822B932B84232B
:1047600095230E9489090E94051045CF80E090E0C2
:10477000E6CF242B352B822B932BF3CF822B932B3D
:10478000209185073091860782279327EACFDD2085
:10479000A9F1B981B0FFE7CF4D81429546954770A9
:1047A000440F440F2D812F7030E0042E02C0220FE1
:1047B000331F0A94E2F7ED8180E090E0E4FF09C046
:1047C0008FE090E002C0880F991F4A95E2F780952C
:1047D0009095F981F695F695F370F230C1F0F330CB
:1047E00099F04091870750918807F13059F0822B5A
:1047F000932B842395230E948E09B5CF823008F431
:10480000B2CFCACF242B352B822B932BF4CF822B04
:10481000932B209187073091880782279327EBCF2E
:1048200029812F702983DD2039F0822F0E949B0976
:104830008D810E94121497CF8D810E941C14898152
:104840000E94AB0990CF3D81323FC1F178F4303FF7
:10485000C9F0313F09F44CC0DD2009F475C0CC200B
:1048600009F46FC08D810E94A91A7DCF4D81433F0D
:1048700061F1443FC9F1D110F2CFC11074C08981F8
:104880008F71DECFDD20B9F064E06C1508F46BCFDA
:1048900089818F71898381E090E0DC01098002C009
:1048A000AA0FBB1F0A94E2F78091870790918807AF
:1048B0008A279B27A0CFB5E0CB16E8CF89818F71DF
:1048C000D110BECF0E949B094ECF80E090E0DD204A
:1048D00009F491CFE981EF7181E090E002C0880F87
:1048E000991FEA95E2F787CF80918B0782FD06C07A
:1048F00089818F71DD2009F4A3CFE4CFDD20B1F0F1
:10490000F981FF71F9838F2F0E949B0980918B079A
:1049100082FF0AC0398128E0329FC00111248360E0
:1049200080938907832FCECF8981CCCF81E00E94ED
:10493000390A41E04C1508F016CF82E00E94390A8E
:1049400012CF89818F71BECFCC2009F498CF6D81B1
:10495000693349F48FEF97EEA3E081509040A04077
:10496000E1F700C000008D810E94FD1AFCCE1F936C
:10497000CF93DF938091C407803108F04CC08091C1
:10498000C107882309F447C080918E0720918D07C5
:104990006091BF073091C007C091C207D091C30793
:1049A000732F76232817B9F190E0209709F443C0BC
:1049B00016E07F3F09F43FC0189FF001199FF00DEA
:1049C0001124DF01A157B84F11964C911197341360
:1049D0002CC04C91461329C012964C91129741114C
:1049E0001EC013964D915C914C1B5D0B483C5105CC
:1049F000E0F48091C4078F7080618093C407EC5607
:104A0000F84F80818F70806180838FEB97E00E94E8
:104A1000C61F0E94220ADF91CF911F91089501962F
:104A2000877099272813C8CFF6CF019687709927EA
:104A30002813BFCFF0CF01968770B4CF8F929F928B
:104A4000AF92BF92DF92EF92FF920F931F93CF939B
:104A5000DF93CDB7DEB72B970FB6F894DEBF0FBE4E
:104A6000CDBF8C0185E0F801DE01179601900D9213
:104A70008A95E1F7F801F280A380B4808FEB882E4D
:104A800087E0982E9091BF072091C0074091C20700
:104A90005091C3074115510509F414C1822F892390
:104AA0008F3F09F40FC1D090C107B501641B750B8E
:104AB000DD2009F4DBC08091C407683C710508F073
:104AC000B7C03181803108F077C0EF2C321312C0AB
:104AD000208129130FC0F1101CC08F70806180935A
:104AE000C407C4010E94C61F8091C407F8018583D2
:104AF000E12C4FC08F819885AB2889F0282F29237E
:104B00002F3F69F0E0918E0720918D0736E0FF205E
:104B1000E1F08091C40781608093C407E9CFFF2052
:104B200039F3F7CF4E2F50E03E9FF0011124E157AB
:104B3000F84F6181691306C06081681303C0628108
:104B40006111D6CFFA013196E770E213EBCF8F8176
:104B500098850E94AD0C292F22952F70903248F431
:104B60009F70992311F08823A1F0805E883088F02F
:104B700004C0225F2F70223028F0C8010E94C61F97
:104B8000ED2C07C09F70992381F3F8019581903136
:104B900060F78E2D2B960FB6F894DEBF0FBECDBFFB
:104BA000DF91CF911F910F91FF90EF90DF90BF9019
:104BB000AF909F908F900895321312C020812913D7
:104BC0000FC0F1100DC08583C8010E94C61F86E08A
:104BD000F801AFEBB7E001900D928A95E1F725C09F
:104BE000C8010E94BC0C882309F468C0FF2009F4A6
:104BF00065C08091C407803270F02091BF0730916A
:104C0000C0073A8329831B82BD82AC828E83CE018A
:104C100001960E94C61F86E0F801AFEBB7E0019055
:104C20000D928A95E1F70E94B724EE24E394B1CF68
:104C3000803150F48FEB97E00E94C61F86E0F401AC
:104C400011928A95E9F754CF31812313C9CF20817E
:104C50002913C6CFF110C4CF8583C8010E94C61F97
:104C600086E0F40111928A95E9F7DFCF683C71057F
:104C700028F7FF2019F18181281316C0808189133C
:104C800013C08091C40780FDA2CF803108F49FCF6C
:104C90008583807F803F09F497CF8581982F907F0F
:104CA000905F8F70892B8FCFC8010E94BC0C81113F
:104CB000B2CF8091C40781608093C407C8010E946D
:104CC000C61FB3CFFF20D1F3C8010E94BC0C8823BC
:104CD000A9F386E0F801AFEBB7E001900D928A9559
:104CE000E1F78091BF079091C0070E94AD0C9BCF68
:104CF000A7E1B0E0EEE7F6E20C94DC334B8B5C8B83
:104D0000962F6D8B7E8B8F8B611110928C071A8A78
:104D100085E0FE017396DE011D9601900D928A9545
:104D2000E1F79F8786E0FE013D96DE011796019030
:104D30000D928A95E1F7CE0107960E941E258111FA
:104D400031C086E0FE013796DE01119601900D928A
:104D50008A95E1F78F81988520918D0740918E0784
:104D60006A857B85672BF1F089238F3FD9F030E08E
:104D7000C90101968770992750E084179507E9F0DB
:104D800096E0929FD001939FB00D1124A157B84F88
:104D9000FE01319601900D929A95E1F780938D076F
:104DA0000E94220A16E080918E0790918D07891348
:104DB00012C06796E3E00C94F8330E94741C1092C2
:104DC0008D0710928E0786E0EFEBF7E0DF011D9272
:104DD0008A95E9F7E7CF189FC00111248157984FB2
:104DE0000E941E25882329F380918E0790E001966A
:104DF0008770992780938E07D6CFA4E1B0E0E3E0D7
:104E0000F7E20C94D2331A861986FE013B9686E0AF
:104E1000DF011D928A95E9F78CE1A82E81E0B82E7A
:104E20008E01075F1F4F4801EE24E394F12C2CE123
:104E3000C22E21E0D22EF50181915F018F3F09F44E
:104E400041C0F894E82FE295EF70F0E021A18F7057
:104E5000A70102C0440F551F8A95E2F7CA01922F9D
:104E6000982B91A392A18095892382A3789400C066
:104E7000E4E1F1E031E0712C21912F3F09F465C0AC
:104E8000A22FA295AF70A05EB0E08C9190E02F7041
:104E900002C0959587952A95E2F78170811155C0DA
:104EA000832F782A330FCE16DF0631F7F5013197BD
:104EB00080818F3F11F00E94EA0C50EA5A95F1F779
:104EC000D8017C920F5F1F4FB0E2AB16B1E0BB067A
:104ED00009F0B1CF48E050E0B4018BE892E00E94C5
:104EE000A13400919402892B91F188E0F401ABE8A0
:104EF000B2E001900D928A95E1F781E0809329025A
:104F00000E94C41890932802809327028091270260
:104F1000909128020E945C1F0597E8F010E0065669
:104F20001D4F44E050E06BE872E0C8010E94A134DC
:104F3000892B41F084E0EBE8F2E0D80101900D927A
:104F40008A95E1F71092290206C080E0AACF8091ED
:104F500029028111DBCF0E94AF0FE09194028823D8
:104F600009F4A2C01A8219821C821B820E2F10E043
:104F700006561D4F809132028A3008F05EC043E72A
:104F800056E1FE0131967F01BF01C8010E948413E2
:104F90006701882309F476C040E65BE1B701C801E8
:104FA0000E948413882309F46DC04BE257E1B701D6
:104FB000C8010E948413882309F464C04FED56E1B0
:104FC000B701C8010E948413882309F45BC04BE039
:104FD00057E1B701C8010E948413882309F452C025
:104FE000109232028091930290E044E050E0B601CA
:104FF00086569D4F0E94A13421E020932602892BE2
:1050000099F5809178078823A1F082EB90E00E94C7
:10501000B91B8DEC0E94301B8EEC0E94301B8CEA79
:1050200090E00E94B91B8FEC0E94301B80ED0E9423
:10503000301B6496EDE00C94EE3380912402909145
:1050400025020E945C1F843F914008F098CF809118
:1050500026028823B1F284E0FE013196DF011D9221
:105060008A95E9F710922602E0919302F0E0E65665
:10507000FD4F89819A81AB81BC8180839183A2831A
:10508000B383BFCF809132028F3F39F40E94C4189E
:105090009093250280932402DACF8F5F80933202AF
:1050A0008A3008F49FCFF2CFF0E0E656FD4F8081C2
:1050B0009181A281B38180932F0790933007A093B1
:1050C0003107B093320764E070E08FE297E00E940E
:1050D000B30D80932E074091B70250E06091B60265
:1050E00070E0655E784F8E010F5F1F4FC8010E9410
:1050F000AE3489818093340761E070E0C8010E947A
:10510000B30D80933307C0903507D0903607E090F9
:105110003707F09038078091200290912102A091EA
:105120002202B0912302C816D906EA06FB06D1F086
:10513000C0922002D0922102E0922202F092230239
:105140000E94AF0F81110EC00E94320EC61AD70AFC
:10515000E80AF90AC0924407D0924507E092460750
:10516000F092470788E0E9E3F7E0D80101900D925B
:105170008A95E1F7809139078695F0903A07E0909B
:105180003B07D0903C0700913F07109140071092D9
:105190004007112301F110FF0BC0298190917E0778
:1051A00020FF20C0916090937E0760E00E94F61877
:1051B00011FF06C020E04D2D6E2D8F2D0E94E714AB
:1051C00012FF04C00023D9F00E94DB1813FF03C0B4
:1051D00081E08093B10280914107882399F00E9479
:1051E000B31727CF9E7F90937E070E94A50D8091D5
:1051F0007D07816080937D070E941610D9CF0E94A1
:10520000A50DE4CF0E94A01714CFCDB7DEB76197EC
:105210000FB6F894DEBF0FBECDBF85B7806885BFDF
:1052200085B7806885BF84B7877F84BF0FB6F89441
:10523000A895809160008861809360001092600062
:105240000FBE80E890E00FB6F894809361009093D1
:1052500061000FBE88EE9CE09093170280931602C7
:105260000E94FE0E0E94540F8091E20084608093A1
:10527000E200789480914207882399F08091E900B8
:105280001091EC001795112717958F70182B10921D
:10529000E9008091E80083FD0E94AB1C1F70109311
:1052A000E90082E084BD93E095BD9AEF97BD8093BD
:1052B0006E00109244071092450710924607109214
:1052C000470723982B9A6E9A769825E02A95F1F74E
:1052D000000083B183FB882780F96E98769A30EAC4
:1052E0003A95F1F780932001809120018111F6C158
:1052F0008AE080930F018AE0809310010E94AF0F33
:1053000081110E9456328091200191E0892780937B
:10531000B602492F481B40931D07809120019093AE
:10532000B7028091200190931A078091200181118A
:1053300006C085EF80932A0184EF80932901809134
:105340002A01E82FE295EF70F0E041A18F7021E093
:1053500030E0B90102C0660F771F8A95E2F7CB01F2
:10536000962F9095942391A392A1892B82A380914B
:105370002901E82FE295EF70F0E041A18F70D9018B
:1053800002C0AA0FBB1F8A95E2F7CD019A2F909514
:10539000942391A392A1892B82A3EFE8F1E03197A6
:1053A000F1F700C000001091B7026AE271E049E233
:1053B00051E028EBE22E22E0F22EFB018E2F861B1D
:1053C000811708F48DC18091200181111EC084E9EC
:1053D00080931C0186E680931D0187E980931E015E
:1053E00086EC80931F0188E0EBE6F1E0DE01119688
:1053F00001900D928A95E1F788E0FE013196A4E1D3
:10540000B1E001900D928A95E1F78091200191E041
:105410008927880F880F8093940294E0981B9093BB
:1054200093020CE111E090E2E92E91E0F92EF801EF
:1054300081918F018F3F11F00E94EA0CE016F10676
:10544000B1F704E111E08CE1E82E81E0F82ED801FB
:105450008D918D018F3F11F00E94EA0CE016F1064C
:10546000B1F788E0EAE9F2E0DF01282F1D922A95E2
:10547000E9F7EBE8F2E0DF011D928A95E9F780E0B9
:1054800090E00E94C534873E9E4F11F00E94231485
:1054900082E090E00E94B7348093A20284E090E022
:1054A0000E94C53490938B0780938A0783E090E035
:1054B0000E94B73490E00E94890982E08093FD0643
:1054C00080E88093BA020E94FF306DE070E08AEFBE
:1054D00099E00E947717892B09F043C08091FD065F
:1054E00063E070E081FD24C187EF99E00E947717A7
:1054F000892BB9F56DE070E087EE99E00E9477178F
:10550000892B79F50E94320E69877A878B879C8771
:10551000DC01CB01805A9541AF4FBF4F809301070B
:1055200090930207A0930307B0930407EDEFF2E016
:1055300080E094E0DF019C011D9221503040E1F7B2
:10554000F093BC02E093BB028FEF9FEF90930007B4
:105550008093FF0681E08093070780930D071092E8
:10556000FE068091950281113BC080E090E00E9490
:10557000C534873E9E4F21F00E9423140E94971449
:1055800088E090E00E94BF3460937E0770937F07AD
:10559000809380079093810780917D07836080933B
:1055A0007D07623070F40E94971488E090E00E94BA
:1055B000BF3460937E0770937F078093800790933A
:1055C00081070E94900D0E94A50D80917E0780FFAB
:1055D00004C060E086950E94F61881E080939502F1
:1055E0000E94AF0F811102C00E94593281E291E006
:1055F0009093490780934807CE010196B0E4BB2EF3
:1056000089879D8780914207853049F480914207C0
:10561000853009F490C00E94741C0E9405100E94FD
:10562000FD2603EA12E0FAE9CF2EF2E0DF2EA9E927
:10563000EA2EA1E0FA2EB7019601F8019191D90165
:105640008D919D01DB014D91BD0184234BEA52E018
:105650004E175F0709F4C6C0981781F30E94AF0F79
:10566000582E912CD601AD906D01F70181917F01EB
:10567000A822D8016D908D016A1439F16A24812C19
:1056800077247394872D86218823B9F05520A9F0BB
:1056900089829A8291E0872D8A21811101C090E050
:1056A0009B830E94C4188160782F9D838C834981DD
:1056B0005A816B81892F0E9478268394770CB8E0F9
:1056C0008B12E0CFF8013197A0829394E8E09E120C
:1056D000C9CF0E94320ECC24C394A5C080E009CE6D
:1056E0000191802F82958F70805E90E0DC012C917B
:1056F000DA013D91AD01832F82958F70805E90E03D
:10570000DC018C9190E03F7002C0959587953A95A9
:10571000E2F78170880F30E00F7002C03595279551
:105720000A95E2F72170822BD7018D937D0146CE39
:1057300084EF99E0DBCE80914207843029F10E940A
:10574000A0171092960248E150E00FB6F894A89581
:10575000409360000FBEB092600083B7817F846089
:1057600083BF83B7816083BF7894889583B78E7F2A
:1057700083BF0FB6F894A8958091600088618093EC
:105780006000109260000FBE80919702882309F498
:105790003DCF0E94FD26EAE9F2E0A9E9B1E022EA64
:1057A00032E081919D918923811104C02E173F071A
:1057B000C1F72CCF80E189BD82E189BD09B400FE2B
:1057C000FDCF8091D8008F7D8093D8008091E0003C
:1057D00082608093E0008091E00081FDFCCF0E9418
:1057E000741C14CF98133ACF0E94C4188C01809176
:1057F00098029091990208171907A1F08FEF8983F9
:105800008A831B820E94C4188160782F9D838C83B9
:1058100049815A816B81892F0E94782610939902C1
:1058200000939802C12C0E94AF0F80917C078823BF
:1058300009F465C080917B07E0917E07E695E81B3F
:10584000E093B002823009F05DC0F0E0EB5EF54F0E
:10585000E4910E2F10E0EDEF8E2EE2E19E2E80916E
:10586000B102882361F01092B1020E94D018909387
:10587000AF028093AE021092B3021092B2020E9465
:10588000D0189C018091AE029091AF02A901481BF3
:10589000590B4F3F5F4798F54091AD024423B1F05B
:1058A0001092AD024091AB025091AC02241B350B1B
:1058B0002F3F3F4758F4405D5A485093AC02409305
:1058C000AB0220917D07286020937D07E090B20213
:1058D000F090B302800F911F9093AF028093AE02BD
:1058E0008EEA92E0F40109958091B2029091B302A0
:1058F000892B29F4EF2819F081E08093AD02E12C87
:10590000D12CD4C0853109F446C068F4893059F1EE
:105910008F30A9F18630E1F000ED17E073E0872EBB
:105920007DE0972E9CCF833209F440C004EF11E054
:1059300098E6892E90E1992E843209F490CF88312F
:1059400059F708E210E084EF882E81E1982E87CF86
:10595000F0E0EE5EF54FE4910E2F10E061E1862E4F
:1059600063E1962E7CCFE695F0E0E15FF54FE491A0
:105970000E2F10E059EA852E50E1952E70CFE69556
:10598000F0E0E45FF54FE4910E2F10E047EE842E37
:1059900040E1942E64CFF0E0E75FF54FE4910E2FE5
:1059A00010E031E7832E31E1932E59CFE7E0FAE0A2
:1059B0000591149128EA822E22E1922E50CF0E2DCD
:1059C00010E0F801E65DFE4F4081E42FE295EF70B4
:1059D000E05EF0E02081F801E75DFE4F3081E32FCB
:1059E000E295EF70E05EF0E0808190E03F7002C0F1
:1059F000959587953A95E2F78170880F30E04F7062
:105A000002C0359527954A95E2F72170822BD8017F
:105A1000A854BD4FEC919E2F9370891709F445C08F
:105A2000EE0FEE0FE82BEC93F090B602FE0CEF7049
:105A3000F0E0EF55FE4F0C541D4F8081D8019C9132
:105A4000890F8C9320E0843084F0EF2DF0E0E55E48
:105A5000F84F80818F5F80830E94AF0F882321F0F1
:105A600060E08F2D0E94501B21E0F80180818D3F66
:105A700084F4EF2DF0E0E55EF84F80818150808363
:105A80000E94AF0F882321F061E08F2D0E94501BF0
:105A900021E0D8018C91082E000C990B64E070E095
:105AA0000E941E34F8018083D22AE3948091B702C9
:105AB000E81608F484CF10910707DD2009F47EC0B2
:105AC0000E944F0E111180C00E94B31786E0E2E7DA
:105AD000F7E0A985BD8501900D928A95E1F71092B6
