:100000000C942F080C9467080C9467080C94302FFC
:100010000C9467080C9467080C9467080C946708A4
:100020000C9467080C9467080C946B1B0C94271BAA
:100030000C9465270C9467080C9467080C94670867
:100040000C9467080C9467080C9467080C94670874
:100050000C9467080C94441C0C9467080C94670873
:100060000C9467080C9467080C9467080C94670854
:100070000C9467080C9467080C9467080C94670844
:100080000C9467080C9467080C9467080C94670834
:100090000C9467080C9467080C9467080C94670824
:1000A0000C9467080C9467080C9467080000000023
:1000B0001700150008001A0014002B420000000071
:1000C0000A430961076416680462E1002942294372
:1000D0000500194206001B001D00E00028432C42C9
:1000E000E200E3000000AE0000000000000000009D
:1000F0001C0018000C00120013002F7400000000F8
:100100000B430D610E640F68337234723E433E42FE
:10011000110010423600370038002D7128422C4360
:100120002A004C000000A8000000000000000000B1
:10013000080007001A00040014002B000000000053
:100140001500070016000400E1001B00290029002B
:100150000900190006001B00E0001C0028002C000C
:10016000E200E3000000AE0000000000000000001C
:100170001C00500052004F0013002F7400000000BC
:100180000B00500051004F003300347204513E42C6
:10019000110010003600370038002D7128422C4322
:1001A0002A004C000000A800000000000000000031
:1001B0003500261425143802350201000000000025
:1001C00030022714241424022D1401000100010020
:1001D0002E023014641421023200010001000100DB
:1001E000010001000000010000000000000000000C
:1001F0001E026400640227022302200200000000A5
:100200002D022502260238003702141401000100D5
:10021000300022021F0232023602081401000100DF
:1002200001000100000001000000000000000000CB
:100230004E004C0052002A004B0029000000000034
:100240004D004F00510050004A0001000100F00035
:10025000ED00F10049002B00290001000100EE0033
:10026000EF00F200000001000000000000000000AC
:100270003002240025002600300038000000000075
:100280002402210022002300370036020100010071
:1002900037021E001F002000360027020100270041
:1002A000010001000000010000000000000000004B
:1002B000BD00BE0000000000000000520000000071
:1002C000C45CCA5CC65CC85CC35C0152010001002E
:1002D000C55CCB5CC75CC95C00000052010001003A
:1002E000AB00AC00000001000000000000000000B6
:1002F0003F00400041004200430044000000000075
:10030000A9003D003E003F004400450001000100FF
:10031000AA003A003B003C0045000000010001003B
:10032000AC00AB00000001000000000000DA128108
:10033000FFD9F1DB20A4A62EAF00A0C000A1C80009
:10034000AED580A83FD300408D14200000047F3F2D
:100350001F643214643214783C1E1E140A05000017
:1003600000000000000000000000008080C0E0F0FD
:100370007078383C1C1E0E0E0E070707070707078C
:100380000707070707070707070E0E0E1E1C3C3856
:100390007870F0E0C08080000000000000000000E5
:1003A000000000000000000000000000000000004D
:1003B000000000000000000000000000000000003D
:1003C000000000000000000000000000000000002D
:1003D000000000000000000000000000000000001D
:1003E0000000000000C0E0F07C3E1F0F070301800A
:1003F000C0E0F078383C1C1E0E0E070787E77F1F11
:10040000FFFF1F7FE78707070E0E1E1C3C3878F0A2
:10041000E0C0800103070F1F3E7CF0E0C000000039
:1004200000000000000000000000000000000000CC
:1004300000000000000000000000000000000000BC
:1004400000000000000000000000000000000000AC
:10045000000000000000000000000000000000009C
:100460000000F0FCFF1F07010000C0F0FCFEFFF7DA
:10047000F3B1B03030303030303078FE87010000DA
:10048000FFFF00000187FE7830303030303030B070
:10049000B1F3F7FFFEFCF0C0000001071FFFFCF006
:1004A000000000000000000000000000000000004C
:1004B000000000000000000000000000000000003C
:1004C000000000000000000000000000000000002C
:1004D000000000000000000000000000000000001C
:1004E00000FFFFFF0000000000FEFFFF0101071EEC
:1004F00078E181838386868C8C9898B1B7FEF8E08A
:10050000FFFFE0F8FEB7B198988C8C8686838381D4
:10051000E1781E070101FFFFFE0000000000FFFF61
:10052000FF00000000FFFF0000C0C030300000F0FE
:10053000F0000000000000F0F00000F0F0C0C0305B
:10054000303030C0C000003030F3F3000000000055
:1005500000303030303030C0C000000000000000FB
:1005600000FFFFFF00000000007FFFFF8080E078B9
:100570001E8781C1C16161313119198DED7F1F075E
:10058000FFFF071F7FED8D191931316161C1C181F5
:10059000871E78E08080FFFF7F0000000000FFFFE3
:1005A000FF000000003F3F03030C0C303000000050
:1005B000003333333333330F0F00003F3F0000006D
:1005C0000000000000000030303F3F303000000CE1
:1005D0000C3333333333333F3F000000000000005F
:1005E00000000F3FFFF8E0800000030F3F7FFFEFA8
:1005F000CF8D0D0C0C0C0C0C0C0C1E7FE180000040
:10060000FFFF000080E17F1E0C0C0C0C0C0C0C0D8D
:100610008DCFEFFF7F3F0F03000080E0F8FF3F0F1B
:1006200000000000000000000000000000000000CA
:1006300000000000000000000000000000000000BA
:1006400000000000000000000000000000000000AA
:10065000000000000000000000000000000000009A
:10066000000000000003070F3E7CF8F0E0C08001AE
:1006700003070F1E1C3C38787070E0E0E1E7FEF8DD
:10068000FFFFF8FEE7E1E0E0707078383C1C1E0FD9
:1006900007030180C0E0F0F87C3E0F070300000074
:1006A000000000000000000000000000000000004A
:1006B000000000000000000000000000000000003A
:1006C000000000000000000000000000000000002A
:1006D000000000000000000000000000000000001A
:1006E0000000000000000000000000010103070FEF
:1006F0000E1E1C3C3878707070E0E0E0E0E0E0E056
:10070000E0E0E0E0E0E0E0E0E070707078383C1CB1
:100710001E0E0F0703010100000000000000000092
:1007200000000000000000000000000000000000C9
:1007300000000000000000000000000000000000B9
:1007400000000000000000000000000000000000A9
:100750000000000000000000000000000000202059
:100760002020202020005343524C434B20002020C7
:100770002020202020004341504C434B20002020CB
:100780002020202020004E554D4C434B2000556E1C
:10079000646566696E65640A0041646A7573740A0B
:1007A0000046756E6374696F6E0A0053796D0A00B6
:1007B0004E61760A00436F6C656D616B2D44480A8B
:1007C0000044766F72616B0A005157455254590AC2
:1007D000004C617965723A2000726576320A0A002F
:1007E0004B79726961200080818283848586878845
:1007F000898A8B8C8D8E8F9091929394A0A1A2A3C5
:10080000A4A5A6A7A8A9AAABACADAEAFB0B1B2B330
:10081000B4C0C1C2C3C4C5C6C7C8C9CACBCCCDCE7B
:10082000CFD0D1D2D3D400000101010101010101D7
:100830000102020202020202020203030303030393
:100840000303040404040404040505050505060661
:10085000060606070707070708080808090909091F
:100860000A0A0A0B0B0B0C0C0C0D0D0D0E0E0E0FC5
:100870000F0F101011111112121313141415151655
:10088000161717181819191A1A1B1B1C1D1D1E1EC6
:100890001F20202122222324242526262728292917
:1008A0002A2B2C2D2D2E2F30313232333435363742
:1008B00038393A3B3C3D3E3F404142434445464740
:1008C00048494A4C4D4E4F50515354555658595A19
:1008D0005B5D5E5F616264656668696B6C6D6F70BD
:1008E00072737577787A7B7D7E8082838587888A2C
:1008F0008C8E8F91939596989A9C9EA0A2A3A5A763
:10090000A9ABADAFB1B3B5B7BABCBEC0C2C4C6C95E
:10091000CBCDCFD1D4D6D8DBDDDFE2E4E7E9EBEE17
:10092000F0F3F5F8FAFDFFFFAA7F554022232526B4
:1009300028292A2C2D2F3032333536383A3B3D3E8C
:100940004042434547494A4C4E5051535557595AD6
:100950005C5E6062646668696B6D6F7173757779F0
:100960007B7D7F81838587898A8C8E9092949698EF
:100970009A9C9E9FA1A3A5A7A8AAACAEAFB1B3B401
:10098000B6B8B9BBBCBEBFC1C2C3C5C6C7C9CACB56
:10099000CCCDCED0D1D2D2D3D4D5D6D7D7D8D9D921
:1009A000DADADBDBDBDCDCDCDCDCDDDDDDDDDCDC8A
:1009B000DCDCDCDBDBDBDADAD9D9D8D7D7D6D5D4A7
:1009C000D3D2D2D1D0CECDCCCBCAC9C7C6C5C3C273
:1009D000C1BFBEBCBBB9B8B6B4B3B1AFAEACAAA8C8
:1009E000A7A5A3A19F9E9C9A98969492908E8C8A7C
:1009F00089878583817F7D7B79777573716F6D6B57
:100A00006968666462605E5C5A5957555351504E2E
:100A10004C4A4947454342403E3D3B3A38363533E0
:100A200032302F2D2C2A29282625232200AF00AE74
:100A300005010980A101850319012AB700150126C6
:100A4000B700950175108100C0050C0901A1018551
:100A50000419012AA002150126A002950175108132
:100A600000C005010906A101050719E029E71500E5
:100A70002501950875018102950175088101050719
:100A8000190029FF150026FF00950675088100054D
:100A900008190129059505750191029501750391C4
:100AA00001C009023B00020100A0FA090400000194
:100AB0000301010009211101000122400007058105
:100AC00003080001090401000103000000092111CD
:100AD00001000122320007058203200001120100FB
:100AE00002000000081D8D9D9D02000102000116FC
:100AF000034B0079007200690061002000720065FC
:100B0000007600320000001003730070006C006972
:100B10000074006B00620000000403090407087FF2
:100B20000807003E5B4F5B3E003E6B4F6B3E001C78
:100B30003E7C3E1C00183C7E3C18001C577D571C18
:100B4000001C5E7F5E1C0000183C180000FFE7C31D
:100B5000E7FF00001824180000FFE7DBE7FF003084
:100B6000483A060E00262979292600407F05050708
:100B700000407F05253F005A3CE73C5A007F3E1C61
:100B80001C0800081C1C3E7F0014227F2214005FFA
:100B90005F005F5F0006097F017F00006689956A3C
:100BA0000060606060600094A2FFA2940008047E70
:100BB00004080010207E20100008082A1C080008E5
:100BC0001C2A0808001E10101010000C1E0C1E0C11
:100BD0000030383E383000060E3E0E0600000000A1
:100BE00000000000005F0000000007000700001484
:100BF0007F147F1400242A7F2A12002313086462C2
:100C000000364956205000000807030000001C224F
:100C10004100000041221C00002A1C7F1C2A000801
:100C2000083E080800008070300000080808080826
:100C3000000000606000002010080402003E5149DE
:100C4000453E0000427F400000724949494600216C
:100C500041494D33001814127F100027454545398E
:100C6000003C4A49493100412111090700364949F0
:100C7000493600464949291E0000001400000000C2
:100C8000403400000000081422410014141414140D
:100C9000000041221408000201590906003E415D8E
:100CA000594E007C1211127C007F49494936003EA2
:100CB00041414122007F4141413E007F4949494134
:100CC000007F09090901003E41415173007F080876
:100CD000087F0000417F4100002040413F01007F2C
:100CE00008142241007F40404040007F021C027FE8
:100CF000007F0408107F003E4141413E007F09090A
:100D00000906003E4151215E007F0919294600264F
:100D1000494949320003017F0103003F4040403F01
:100D2000001F2040201F003F4038403F0063140850
:100D30001463000304780403006159494D43000023
:100D40007F41414100020408102000004141417FE1
:100D5000000402010204004040404040000003073C
:100D60000800002054547840007F2844443800385C
:100D70004444442800384444287F003854545418CC
:100D80000000087E09020018A4A49C78007F0804D3
:100D900004780000447D4000002040403D00007F7A
:100DA000102844000000417F4000007C0478047853
:100DB000007C0804047800384444443800FC1824BB
:100DC00024180018242418FC007C08040408004897
:100DD000545454240004043F4424003C4040207CEC
:100DE000001C2040201C003C4030403C00442810A7
:100DF0002844004C9090907C004464544C44000083
:100E0000083641000000007700000000413608006D
:100E1000000201020402003C2623263C00000000E0
:100E2000000000404040F0F8F8FF38FFF8F83FF8C5
:100E3000F8FF38FFF8F8F0404040000000000000E4
:100E400080C0C0C0800000C0C08000000080C0C062
:100E500000C0C0000080C0C00000000000C0C0C0D2
:100E6000C0C000C0C0000000000000000000000082
:100E70000000000000000000000000000000000072
:100E80000000000000000000000000000000000062
:100E9000000000000000000000000000C0F0F8FCAE
:100EA0003E1E06010000007F4141417F007F41411D
:100EB000417F000080C0E07E5B4F5BFEC00000C051
:100EC00000DCD7DEDEDED7DC00C000000000000062
:100ED0000000000000000000000000000000000012
:100EE000000000494949FFFFFFFFE0DFBFBF00BF2F
:100EF000BFDFE0FFFFFFFF49494900000000001F7E
:100F00003F6060E0BF1F007F7F071E381E077F7FA6
:100F1000007F7F0E1F3B716000000000007F7F0C90
:100F20000C0C007E7E007F7E0303007F7E03037E29
:100F30007E03037F7E000F3E703C063C703E0F0038
:100F4000327B49493F7E007F7E0303001E3F696973
:100F50006F2600000000000000000000030F1F3F8C
:100F60003C7870600000007F4141417F007F41413B
:100F7000417F00307B7F7830202030787F3B00033A
:100F8000000F7F0F0F0F7F0F000300000000000015
:100F90000000000000000000000000000000000051
:100FA000000000010101070F0F7F0F7F0F0F7E0F61
:100FB0000F7F0F7F0F0F07010101000000000000ED
:100FC000000000000101000000000000000000001F
:100FD0000000000000000000000000000000000011
:100FE0000000000000000000000000000000000001
:100FF00000000000000000000000000000000000F1
:1010000000000000000000000000000000000000E0
:1010100000000000000000000000000000000000D0
:1010200000000000000000000000000000000000C0
:1010300000000000000000000000000000000000B0
:1010400000000000000000000000000000000000A0
:10105000000000000000000000000000000011245B
:101060001FBECFEFDAE0DEBFCDBF04B603FE18C06F
:1010700080919D0790919E07A0919F07B091A00736
:101080008730904BA740B04B59F410929D071092B7
:101090009E0710929F071092A007E0E0F8E30995E1
:1010A00011E0A0E0B1E0E2E6F3E602C005900D92A7
:1010B000A63FB107D9F727E0A6EFB1E001C01D9226
:1010C000AD39B207E1F70E948C270C9492310C9451
:1010D0000000E8EDF0E080818E7F80831092E200D6
:1010E0001092DA001092E100A0EEB0E08C918160E5
:1010F0008C9380818F77808319BCA7EDB0E08C91B1
:101100008E7F8C9380818F7E8083109278030895E8
:101110002091E4003091E50095E6A9012091EC00D2
:10112000822F817020FF06C08091E80080FF06C0FA
:1011300080E008952091E80022FD1AC08091850387
:10114000882389F0853089F08091EB0085FD0FC000
:101150002091E4003091E50042175307F9F29150D5
:10116000E1F684E0089582E0089583E0089581E047
:101170000895EF92FF920F931F93CF937C018B0101
:101180000E948808C82F811117C08091E80085FD52
:101190000BC08091E8008E778093E8000E94880859
:1011A000882399F3C82F08C0F70181917F018093AC
:1011B000F1000150110949F78C2FCF911F910F9128
:1011C000FF90EF9008958091870387FF13C080916F
:1011D000E80082FF06C08091E8008B778093E800EA
:1011E00004C0809185038111F2CF08958091850319
:1011F0008823D9F38091E80080FFF8CF8091E80040
:101200008E77ECCF982F9093E900242F762F50E023
:10121000891731F07091EC002091ED005091F000B1
:1012200021FD07C09F5F973071F78093E90081E04F
:1012300008953091EB003E7F3093EB003091ED004C
:101240003D7F3093ED003091EB0031603093EB0047
:101250007093EC002093ED005093F0002091EE008D
:1012600027FDE0CF80E00895B0E0A0E0EAE3F9E0F8
:101270000C946A30C8EDD0E088818F7E8883E7EDDA
:10128000F0E080818160808384E082BF81E0809390
:10129000780388818E7F888302EE10E0F801108247
:1012A0001092DA0081EEC82ED12CF60110828881CE
:1012B0008F77888388818068888388818F7D888301
:1012C00019BC109285031092860310928403109229
:1012D000830390EEE92EF12CF70180818B7F8083D0
:1012E00088818160888342E060E080E00E9402099A
:1012F000F60180818E7F8083F80180818160808308
:10130000808188608083F70180818E7F80838881DF
:1013100080618883CDB7DEB7E8E00C948630FC01AD
:1013200080918D0390918E0386179707A0F0611529
:10133000710529F49091E8009E779093E80090E081
:101340006115710551F4911108C08091E80082FF88
:1013500034C080E00895BC01F2CF809185038823DA
:10136000C1F18530C1F18091E80083FD30C08091EA
:10137000E80082FDEACF8091E80080FFE1CF809114
:10138000F3002091F200382F6115710519F0283013
:10139000310558F091E02830310509F090E02091B6
:1013A000E8002E772093E800CBCF81918093F10065
:1013B000615071092F5F3F4FE7CF809185038823EC
:1013C00041F0853041F08091E80083FFBECF81E09D
:1013D000089582E0089583E008950895089508959A
:1013E00080917A0308952FB7F894609171037091FA
:1013F000720380917303909174032FBF08959C0131
:10140000FC0132969FEF80E04191461751F09F3FDB
:1014100019F4411101C0982F8F5F8630A9F79F3FC3
:1014200009F40895290F311D97FD3A95F90162835A
:10143000089520916E0330916F032817390771F0DA
:1014400090936F0380936E03E0916C03F0916D03B2
:10145000309721F00084F185E02D099508952091C1
:101460006A0330916B032817390771F090936B036F
:1014700080936A03E0916C03F0916D03309721F043
:101480000680F781E02D09950895FC01680F791F0A
:101490008FEF91E32191822728E030E087FF09C098
:1014A000880F892721503109C9F7E617F70791F707
:1014B0000895880FF7CFFA01811101C0FB0109954A
:1014C0000895EDE1F3E011828281846082830895C2
:1014D00080915F03982F9E7F61F48170826080937A
:1014E0005F0380916203873918F086E98093620375
:1014F00008958A34B0F381708864F1CFAF92BF92BF
:10150000DF92EF92FF920F931F93CF93DF93082FF9
:10151000162FE901E42FF0E0E95DF74F611110C0EB
:10152000E4915E2F4E2F4983E8835A83DF91CF9158
:101530001F910F91FF90EF90DF90BF90AF900895B3
:10154000E62EF12C4491D42EE42FF0E026E0829F89
:10155000C00111242FEF30E0B9010E944C30802FE0
:1015600090E0880F991F55E5569FD001579FB00D09
:1015700011248A1B9B0B982F990F890F5901AE18C4
:10158000BF08AE9ED001AF9EB00DBE9EB00D11241F
:101590005B2F189F80011124012F11275901A01AD8
:1015A000B10AAE9E8001AF9E100DBE9E100D11249B
:1015B0005901A81AB108AE9CC001AF9C900DBE9C09
:1015C000900D1124892F9927281B390B2E9FC001BC
:1015D0002F9F900D3E9F900D1124E92F62307105D1
:1015E000A1F050F46115710509F49DCF61307105CA
:1015F00081F0EB2F512F97CF6430710569F080F0A7
:101600006630710509F48FCFF4CFE42F4B2F592F9B
:101610008ACFE42F412F87CFEB2F542F492F83CF31
:101620004B2F5D2DE12F7FCF80E00895F894E82FB8
:10163000E295EF70F0E031A1282F2F7081E090E06B
:1016400001C0880F2A95EAF7982F9095932391A3CC
:1016500092A1892B82A3789408959091AB0292FF76
:1016600006C0282F28712830F9F4877F846093FF03
:1016700006C0282F28712831F1F4877E84612091DB
:10168000AC0220FF06C0382F38713830D9F4877F7C
:10169000816021FF06C0282F28712831D1F4877E70
:1016A000816194FD877E0895282F24712430F9F6F6
:1016B0008B7F8860DCCF282F2471243101F78B7E4B
:1016C0008861DDCF382F3171313019F78E7F886016
:1016D000E0CF282F2171213121F78E7E8861E1CF63
:1016E0007830B0F46830A0F498E0899FF0011124BC
:1016F000E70FF11D83E0EE0FFF1F8A95E1F7E60F7C
:10170000F11DEE0FFF1FE455FF4F85919491089551
:1017100080E090E00895CF93DF93EC01823891054B
:10172000B1F108F040C08133910509F49DC048F53E
:101730008932910509F48DC08A9709F49CC0C115BE
:1017400022E5D20708F0BDC0C11531E5D30708F086
:1017500024C1C83ED10508F0A3C0C13ED10588F51B
:10176000C83AD10508F08EC0C53AD10508F0F6C0D8
:10177000C130D10531F1209721F1C430D10508F5F0
:1017800045C08533910509F45FC0C997C1F68091C2
:10179000AB02837009F036C18091AC0283FF11C0A7
:1017A000C9E2D0E00EC0833E910599F170F4803E0D
:1017B000910501F1823E910511F68091AB0282FD07
:1017C00021C0CE01DF91CF910895863E910561F150
:1017D000873E910571F1843E910509F0B0CF80916B
:1017E000AC0281FFEECF8091AB02C7EED0E084FD6A
:1017F0000DC0E7CF8091AB0280FD33C09091AC0269
:1018000090FFDFCFC3EED0E084FFDBCFD0E0C0E0BD
:10181000D8CF8091AB0282FDF2C09091AC0290FDD6
:10182000F1C084FFCECFF2CF8091AB0283FDDDCF3C
:10183000C8CF8091AB0283FDE8C09091AC0291FFCC
:10184000F0CFC4EED0E0BDCF8091AB0285FFB9CF21
:10185000A7CF8091AB0285FDDBC08091AC0283FFF6
:10186000B0CFC9E3D0E0ADCF8091AB0286FFA9CF66
:10187000CAE2D0E0A6CF8091AB0286FFA2CFC1E33F
:10188000D0E09FCFCF3BD10508F6C85AD0E0CC0FAF
:10189000DD1FC758DE4F0990D881C02DD46491CF89
:1018A000C11540E5D40708F064C0C11580E4D8072D
:1018B00008F05CC0CE019A9581159F4108F481CF54
:1018C000A5CFC11536E5D30718F5C11545E5D407F1
:1018D00008F07CC0C11584E5D80708F072C09E01ED
:1018E000237033279C2F96959695C115D34508F400
:1018F00059C0C1E0D0E002C0CC0FDD1F2A95E2F74D
:1019000030E2939FC0011124C82BD92BDA6859CF3C
:10191000C1158AE5D80778F4C11529E5D20708F082
:1019200060C0C11538E5D30708F470CFDC2FCC2791
:10193000C06FD06A46CFCE0190568115904208F014
:1019400065CF8D2F8F710E942D0B90E0982F8827E7
:1019500088279F719C012C2BE90141C0C55AD0E01A
:10196000CA58DE4FC881D0E0D0642BCFDF70D06A78
:1019700028CFCE018370992721E030E002C0220FEA
:10198000331F8A95E2F7C695C69580E2C89FE001AD
:101990001124C22BD32BDD6814CFDC2FCC27C16FD1
:1019A000D06A0FCFC1E0D0E002C0CC0FDD1F2A9576
:1019B000E2F720E2929FC0011124C82BD92BDC68EA
:1019C00000CFDC2FCC27C46FD06AFBCE8C2F0E94B7
:1019D0002D0BC82FD0E0DC2FCC27CC27DF71D062B5
:1019E000F0CE8C2F8F700E942D0B34E0D695C795CA
:1019F0003A95E1F7CF709C2FEC01D069E2CEC2EEB0
:101A0000D0E0DFCEC0EED0E0DCCEC6EED0E0D9CE66
:101A1000C5E3D0E0D6CE0E94F30908958091640218
:101A20008111109264020895809590916302982329
:101A30009093630208958091580290912702981321
:101A400001C008958F5F8770FACFB0E0A0E0EBE2AD
:101A5000FDE00C9469307C010091D0021091D1021C
:101A60008091CE029091CF02082B192BCFE0D0E0CD
:101A7000CC24C394D12CBC2EC6010C2E02C0880FDE
:101A8000991F0A94E2F780239123892B49F4219727
:101A900090F7B12C8B2DCDB7DEB7E9E00C948530F3
:101AA000B7018C2F0E94700B0E948B0B019779F36A
:101AB000F1CFCF93DF93EC010E94250DBE010E9470
:101AC000700B0E948B0BDF91CF910895983070F5C9
:101AD000883060F528E0929FF0011124E80FF11D95
:101AE0006E2F677083E0F695E7958A95E1F7EE0F24
:101AF000FF1FEE0FFF1FEF5FFD4F50E040E080E063
:101B0000219130E0062E02C0369527950A94E2F71F
:101B100021703327042E01C0220F0A94EAF7822B8A
:101B20004F5F5F4F4430510559F7089580E00895A5
:101B3000983090F5883080F528E0929FF0011124CC
:101B4000E80FF11D2E2F277041E001C0440F2A95A8
:101B5000EAF783E0F695E7958A95E1F7EE0FFF1F28
:101B6000EE0FFF1FEF5FFD4F30E020E070E051917E
:101B7000DF011197CB01022E02C0969587950A943A
:101B8000E2F7817081958527842385278C932F5FC9
:101B90003F4F2430310559F70895FC01838194812A
:101BA000892B29F08081918189238F3F51F480E036
:101BB0000895843FE1F717C0883EA8F0813FB9F748
:101BC00012C0808191810E94590D92959F7096302C
:101BD00099F358F4925F9F70923048F7803F19F064
:101BE00040F7883E20F781E008959A5FF4CFCF93C5
:101BF000DF93C0919B07D0919C078A30C1F420915C
:101C00009203CE0185599340622F70E00E944C30C0
:101C1000281B822F66E00E949730C82FC15018F40D
:101C2000DF91CF91089580E20E94F70DF7CF8D30BC
:101C3000E9F4C559D34020919203622F70E0CE01A0
:101C40000E944C30281B822F9E01280F311D211528
:101C5000344018F080E0D0E0C0E0C80FD11DCB5672
:101C6000DC4FD0939C07C0939B07DACF96E0FE0130
:101C7000A5E9B7E001900D929A95E1F7803E08F44E
:101C800058C086E0FE0111928A95E9F7C0919B0742
:101C9000D0919C0746E050E0BE0185E997E00E94A4
:101CA00034319E0125593340892B41F1C90146E069
:101CB000969587954A95E1F741E050E0BA0102C058
:101CC000660F771F8A95E2F7CB01609193037091BD
:101CD0009403862B972BB9016B5F7F4FE6E07695D7
:101CE0006795EA95E1F702C0440F551F6A95E2F740
:101CF000842B952B90939403809393032A5F3F4FFB
:101D000040919203642F70E0C9010E944C30481B3F
:101D1000463010F4240F311D211574E0370710F000
:101D200030E020E02B563C4F30939C0720939B07DC
:101D300077CFF6E08F9FB0011124635E744F46E0C9
:101D400050E0CE010E941E31A1CFCF93DF93EC0172
:101D5000FE018491811103C0DF91CF9108950E940B
:101D6000F70D2196F5CF8091630290916202892B45
:101D70008093F80190916402992391F0892B8093CC
:101D8000F80120E08AEF91E0FC013191CF0131119F
:101D90002F5FF2E080309F07B9F721110E940E0DEE
:101DA00048E050E06AE572E088EF91E00E9434314B
:101DB000892BA9F088E0E8EFF1E0AAE5B2E0019014
:101DC0000D928A95E1F7E0916C03F0916D033097E5
:101DD00031F00280F381E02D88EF91E009950895BC
:101DE00090E080E00E942F0A90E080E00E94190AB3
:101DF000109262020E94B30E08959C012C7033274A
:101E00002C30310541F480619093D1028093D0024F
:101E10000E94F00E08958F7EF7CF21E030E002C0DF
:101E2000220F331F8A95E2F7209530958091D002DA
:101E30009091D102822393230E94FD0E08959091E8
:101E400059028095892380935902282F277091F495
:101E5000282F082E000C330B9217130659F090917F
:101E6000AC0292FF07C08595859585950E940D0F60
:101E700010925902089521E030E002C0220F331F72
:101E80008A95E2F78091D0029091D102822B932B18
:101E90000E94FD0E08959093CF028093CE020E947F
:101EA000F00E089510926302EAEFF1E086E0DF01A0
:101EB0001D928A95E9F70E94F00E0895AAE2B0E01B
:101EC000E4E6FFE00C946F3087E893E02091F100A6
:101ED000FC012193CF01F3E08F389F07B9F7809180
:101EE0008803833009F470C0B8F4813009F447C026
:101EF000823009F4B1C08091E80083FF7EC28091F6
:101F00008703909188039A3008F077C2E92FF0E0B8
:101F1000EC56FE4C0C94E7308A3009F48CC08B30C0
:101F200009F46FC0893039F780918703813219F73E
:101F300080918B0390918C030297E8F68091E800E2
:101F4000877F8093E8008091E80082FF38C09091FD
:101F5000F3008091F200029731F48091F10081301A
:101F600011F0863021F48091F10080937A03809102
:101F7000E8008B778093E8000E94E308BCCF809153
:101F80008703813A09F0B7CF8091E800877F80937B
:101F9000E80080918B0390918C03892B61F468E0B9
:101FA0008BE793E070E00E948F098091E8008B77C7
:101FB0008093E800A0CF60E090E080E0F3CF8091D4
:101FC00085038111C0CF97CF80918703813A09F0B3
:101FD00092CF80918B0390918C03892B09F08BCF4A
:101FE0008091E800877F8093E8008091E80080FF7F
:101FF000FCCF80916D018093F1008091E8008E7795
:10200000B9CF80918703813209F075CF80918B031E
:1020100090918C03892B09F06ECF8091E800877F27
:102020008093E8000E94E3088091890380936D010A
:102030000E94520F60CF80918703813209F05BCFFD
:102040008091E800877F8093E8000E94E3088091F8
:102050008A03809379034FCF80918703813A09F0F7
:102060004ACF8091E800877F8093E8008091E80064
:1020700080FFFCCF80917903BECF803899F0823801
:1020800009F0BBC180918B038F70873008F0B5C118
:102090008093E9008091EB0085FB882780F91092FE
:1020A000E90006C0809183039091840391118260BE
:1020B0009091E800977F9093E8008093F100109250
:1020C000F1008091E8008E7794C1882309F482C1E1
:1020D000823009F092C180918903811185C180917C
:1020E0008B038F702FEF280F263008F086C1809366
:1020F000E9002091EB0020FF77C1933031F480910B
:10210000EB0080628093EB006FC19091EB009061D7
:102110009093EB0021E030E001C0220F8A95EAF7AE
:102120002093EA001092EA008091EB008860EACFE9
:10213000811163C1109189031F778091E30080783A
:10214000812B8093E3008091E800877F8093E800F3
:102150000E94E3088091E80080FFFCCF8091E300BB
:1021600080688093E30082E0111183E0809385030F
:1021700044C18058823008F040C180918903909119
:102180008A038C3D23E09207A1F583E08A838AE2EB
:1021900089834FB7F894DE01139620E03EE051E2C8
:1021A000E32FF0E050935700E49120FF03C0E29545
:1021B000EF703F5FEF708E2F90E0EA30C0F0C7966F
:1021C0008D939D932F5F243159F74FBF8091E80085
:1021D000877F8093E8006AE270E0CE0101960E945A
:1021E0008F098091E8008B778093E80006C1C09644
:1021F000E7CF40918B0350918C03292F3327233055
:10220000310509F444C078F52130310509F46FC077
:102210008BE390E0E2EAFAE02230310509F0EDC00C
:102220002091E800277F2093E80020918D033091D2
:102230008E038217930708F49C0140E021153105B5
:1022400009F064C0411162C08091E80082FDC9CFED
:1022500080918503882329F2853019F28091E80066
:1022600083FFF2CFBECF21323105A9F122323105F1
:1022700009F0C3C04115510509F443C0413051056F
:1022800009F0BBC082E390E0E0E3FAE0C9CF992710
:1022900081309105C1F0009759F0029709F0ADC067
:1022A000EFEEFAE0E4918E2F90E0EFEEFAE007C057
:1022B000E9E1FBE0E4918E2F90E0E9E1FBE000979B
:1022C00009F49BC0ADCFE7E0FBE0E4918E2F90E0F6
:1022D000E7E0FBE0F4CF4115510571F041305105C5
:1022E00009F08BC089E090E0EDECFAE099CF82E153
:1022F00090E0EDEDFAE094CF89E090E0E4EBFAE0D5
:102300008FCF80E490E0E2E6FAE08ACF8091850307
:10231000882309F466CF853009F463CF8091E80003
:1023200083FD5FCF8091E80082FD8ECF8091E80031
:1023300080FF84CF9091F3008091F2002115310548
:1023400019F08830910550F041E0089709F040E01D
:102350008091E8008E778093E80070CF449140939D
:10236000F1003196215031090196E8CF803809F00B
:1023700044C08091E800877F8093E80080918603C5
:102380008093F1009ECE811138C0109189031230E4
:10239000A0F58091E800877F8093E8001093860382
:1023A0000E94E308112311F084E005C08091E3004E
:1023B00087FDFACF81E08093850342E061EC81E004
:1023C0000E94020942E261EC82E00E9402098091CF
:1023D000850313C080918903813079F481E09330C3
:1023E00009F080E0809384031092E9008091E80076
:1023F000877F8093E8000E94E3088091E80083FFD4
:102400000AC08091E800877F8093E8008091EB000C
:1024100080628093EB00AA96E3E00C948B308823D3
:1024200021F00E94140D0E94B30E0895882339F004
:1024300090916302982B909363020E94B30E0895CB
:10244000882391F19CEF980F913A80F4EAEFF1E044
:1024500020E032E09191891303C0DF0111971C92B3
:102460002E173F07B9F70E94B30E089590E2980F18
:10247000983050F4877091E001C0990F8A95EAF77F
:10248000892F0E94140DEFCF9BE5980F933028F40D
:1024900090E080E00E942F0A0895885A873120F446
:1024A00090E080E00E94190A0895CF93C82F8823F6
:1024B000B1F08CEF8C0F813A00F5EAEFF1E080E0AB
:1024C00092E0DF012D91C21761F08A179B07D1F7C7
:1024D0006C2F88EF91E00E94FF090E94B30ECF910C
:1024E00008952191C21303C0DF0111971C928E172A
:1024F0009F07B9F70E94B30EEBCF80E28C0F8830B4
:1025000068F4C77021E030E001C0220FCA95EAF7F5
:1025100080916302822B80936302DFCFEBE5EC0FA7
:10252000E33040F4F0E0EA58FE4F808190E00E94F2
:102530002F0AD5CFC85AC73190F6EC2FF0E0EE0F36
:10254000FF1FE758FE4F808191810E94190AC7CF73
:10255000B0E0A0E0EEEAF2E10C946A306C017B019D
:1025600064E670E088E70E94AA2DEC0197FD12C096
:1025700010E000E0F601E00FF11F849164E670E0E6
:102580000E94162EEC01892B29F40F5F1F4F0E15A8
:102590001F0581F70E948C2ECE01CDB7DEB7E8E093
:1025A0000C9486308091680390916903911103C067
:1025B00091E089270895882369F062E070E08EE257
:1025C0009AE00E94A812892B19F08091680308955F
:1025D0001092680380916803EBCFCF93C09168039A
:1025E000809169038823D1F00E94F309605A7541F4
:1025F0008F4F9F4F609364037093650380936603CE
:1026000090936703C11108C062E070E08CE29AE029
:102610000E94A812892B29F0C09168038C2FCF91BA
:10262000089581E080936803F7CF809375037093DA
:1026300077036093760380918503843001F582E00F
:102640008093E9008FEF9091E800815095FD06C0DE
:1026500095ED9A95F1F700008111F5CF8091E80092
:1026600085FF0DC050E040E063E070E085E793E057
:102670000E94B9088091E8008E778093E800089561
:10268000BC0184E00E9415130895BC0183E00E9400
:1026900015130895CF93DF93EC0181E08093E90057
:1026A0008FEF9091E800815095FD06C095ED9A95C9
:1026B000F1F700008111F5CF8091E80085FF14C08B
:1026C00050E040E068E070E0CE010E94B9088091DF
:1026D000E8008E778093E80088E0FE01ABE7B3E086
:1026E00001900D928A95E1F7DF91CF910895609165
:1026F000690180915F0380FF20C08091680143E001
:10270000849FC00111248D5D9C4F539A2BB1277F6C
:102710003BB138605FB7F894FC01649FE00DF11D98
:102720001124BF0168177907D1F45FBF8FE594E0EA
:102730000197F1F700C00000089580916A0190911F
:102740006B0123E0829FF0011124ED5DFC4F89179E
:10275000A0F61182108212828F5F3396F8CFFC01AF
:102760004191CF01E8E03BB9000000C047FF2BB921
:10277000440F000000C000C000C02BB900C0EA95A3
:1027800091F7D0CF0F931F93CF93DF93EC0110E01D
:1027900000E090916C019017110609F06CF40E9412
:1027A00077138C8190E00196817099278C83DF915B
:1027B000CF911F910F91089520916A01A801420FB6
:1027C000511D9A01220F331F240F351F2D5D3C4FE1
:1027D0004C8160916103809160039695901711067A
:1027E00069F064F0442361F040916203473908F0D6
:1027F00046E90E947E0A0F5F1F4FCBCF4423A1F30F
:1028000040E0F7CFB0E0A0E0E8E0F4E10C946630FF
:10281000EC014C81042F10E09801D8010E94F530A2
:102820009B01AC010E940B314B015C01E0E2F0E046
:10283000E01BF10BA5E5B0E0AC019B010E940B3160
:102840006B017C019F01DF010E94ED309B01AC0117
:102850000E9416319B01AC01280D391D4A1D5B1DDC
:10286000C701B6010E94C530F22E822F90E039E2F6
:102870003F1520F143E0249F9001112435952795C1
:10288000122F109500E085E5E82EEF1880916C017D
:10289000081718F10E9477139C8181E0992319F0A1
:1028A000903219F48FEF8093670180916701890F4F
:1028B0008C83CDB7DEB7ECE00C94823025E530E0B8
:1028C000B901681B790B9B01220F331F260F371F9D
:1028D00037FFD4CF2F5F3F4FD1CF8E2D01FD8F2DEE
:1028E00020916A01622F600F7727771F9B01220FCB
:1028F000331F260F371F2D5D3C4F412F173908F02E
:1029000046E9609161030E947E0A0F5FBFCFEF929C
:10291000FF920F931F93CF93DF93EC018C81811172
:1029200009C081E08C831092210392E090936601AC
:102930008093650180916A0190916B0123E0829FF1
:10294000F0011124ED5DFC4F891758F110E003E010
:1029500060916C01161758F10E9477138091650100
:1029600020912103280F2093210390916601980F55
:1029700090936601191654F4022E000C330B40910B
:102980006C014150550B2417350734F08195809325
:102990006501813009F41C82CDB7DEB7E6E00C9406
:1029A00088301182108212828F5F3396CDCFE12E54
:1029B000F12C70E0C7010E94B13020916A01820FB2
:1029C000482F50E020912103022E000C330BE21619
:1029D000F306D4F020916601022E000C330B2E1565
:1029E0003F0594F0809F900111242D5D3C4F409154
:1029F0006203473908F046E9609161038091600302
:102A00000E947E0A1F5FA4CFFA01EE0FFF1FE40FA2
:102A1000F51FED5DFC4F118210821282F3CFB0E002
:102A2000A0E0E5E1F5E10C946630EC018A81BB247D
:102A3000BA9480FD02C0BB24B394A0906C018C8139
:102A4000811109C081E0B81220C08FEF8A0D8093F8
:102A5000200381E08C83F12CE12C44E1842EEA14E4
:102A6000B8F00E9477138091200391E0B9125AC008
:102A7000811153C080916C018150809320031C828E
:102A8000CDB7DEB7ECE00C94823010922003E1CF9A
:102A900000916A010E0D1F2D111DC801880F991F8D
:102AA000080F191F0D5D1C4FF80111821082128250
:102AB00034E0C32ED12C912C80912003890D8531D7
:102AC00044F1682D0E94A330892F082E000C990B29
:102AD0008E159F05A9F4809162038C9DA0018D9DA8
:102AE000500D11245595479555954795473908F050
:102AF00046E9980160916103809160030E947E0A1B
:102B00009B0CF1E0CF1AD108B9F68FEFE81AF80A5A
:102B1000A6CF87FFDACF8A0DD8CF815080932003CC
:102B2000BC82AECF90E0019660916C0170E00E9493
:102B3000B130809320038C83A3CFEF92FF921F9339
:102B4000CF93DF93EC0110E0EE24EA94F12C609136
:102B50006C01161770F00E9477139A818C8190FF98
:102B60002AC08F5F8C83DF91CF911F91FF90EF90F0
:102B7000089520916A01422F410F5527551FCA0120
:102B80009A01220F331F280F391F2D5D3C4F4091B2
:102B90006203473908F046E970E0C7010E94B1308E
:102BA000962F8C8160916103199F800D11240E94E2
:102BB0007E0A1F5FCCCF8150D5CF90915F0390FFED
:102BC0000EC090916A0120916B0133E0939FF00158
:102BD0001124ED5DFC4F921718F00E9477130895B1
:102BE0008183608342839F5F3396F5CFA3E0B0E09B
:102BF000ECEFF5E10C946E308C0180912203811191
:102C00000AC09E012F5F3F4F46E96FEF0E947E0A88
:102C10008A8180932203F8016481613069F0809198
:102C2000220340E0662361F040E0623011F44091FD
:102C3000220380E060E004C06091220340E080E075
:102C40000E94DD15F801848190E0019663E070E058
:102C50000E94B13084832396E4E00C948A30A3E090
:102C6000B0E0E5E3F6E10C94703090915F0390FFE3
:102C70000DC0473908F046E99E012F5F3F4F0E9483
:102C80007E0A4B8169818A810E94DD152396E2E0EC
:102C90000C948C30CF93DF93EC01EFE5F3E04381AC
:102CA00062818C810E942F168C818F5F8C83DF91D3
:102CB000CF910895CF93DF93EC01EC81F0E0E45DD8
:102CC000F64F4491EFE5F3E0628181810E942F1677
:102CD0008C818F5F8C83DF91CF910895B0E0A0E06D
:102CE000E4E7F6E10C9468307C015B016A018091B5
:102CF0009C0201E010E08A3010F40AE010E0C1E02C
:102D0000D0E0B501C701F6010995811104C02196F3
:102D10000C171D072CF4CDB7DEB7EAE00C94843015
:102D2000CC9F9001CD9F300D300D112490E080E0BC
:102D300045E34A95F1F70000019682179307C1F722
:102D4000E0CF80916F02811110C08091D800806126
:102D50008093D8008AE18A95F1F700C08091D9006C
:102D600080FF0AC081E080936F0281E090916F0242
:102D7000913009F080E0089582E080936F020E9414
:102D8000690810928503F1CF0E94A116882359F09B
:102D9000E0916C03F0916D03309729F00190F08180
:102DA000E02D0995089580E008950F931F930E94E8
:102DB000A116882329F00E94F3091F910F9108950D
:102DC0000E94F30900919D0210919E0220919F02A2
:102DD0003091A002600F711F821F931FEECF1F93CF
:102DE000CF93DF93182FEB010E945512209739F4EF
:102DF000812F0E942012DF91CF911F9108958FE9BA
:102E00009FE00197F1F700C000002197EFCF8111FB
:102E10000CC070E0662331F060E089EA0E94EF1692
:102E200081E0089560E08AEAF9CF8130C9F770E067
:102E3000662319F060E08EE4F1CF60E08BE4EECF22
:102E40000E94520F2FEF84E39CE02150804090407D
:102E5000E1F700C0000088E19CE00FB6F894A89567
:102E6000809360000FBE90936000FFCFCF92DF92FF
:102E7000EF92FF926B017C010E94680AB701A601E4
:102E800088E090E00E947031FF90EF90DF90CF904B
:102E90000895A3E0B0E0EFE4F7E10C946930F82E78
:102EA000D62E042FC22E90915F0390FF3EC0E92FD3
:102EB000E695AE2FB0E0AF52BE4F8C9180931D03CC
:102EC0009E7F9230B1F5473908F046E99E012F5FA9
:102ED0003F4F6D2D8F2D0E947E0A4B8169818A8123
:102EE0000E94DD15809160038F1108C080916103FD
:102EF0008D1104C080916203801729F080911F0317
:102F0000826080931F03F0926003D092610300936C
:102F10006203CC2051F060915F0370916003809157
:102F20006103909162030E9436172396E9E00C94A6
:102F30008530823019F400916203D4CF863019F4C1
:102F4000F0906003CFCF8930D9F3893159F6E95138
:102F50006E2F6170B62EE695F0E0E95DF64F1491A4
:102F6000E12C60916C01E61618F00E947713BACF3D
:102F7000E19EC001112470E00E944C308F2DB110F1
:102F800017C0860F20916A01622F6E0D7727771F79
:102F90009B01220F331F260F371F2D5D3C4F402F03
:102FA000073908F046E96D2D0E947E0AE394D9CFD7
:102FB000861BE8CFEFE5F3E0438128E0421B08F4ED
:102FC00040E021E0628181810E9449170895EFE588
:102FD000F3E0438128E0420F08F44FEF21E06281E3
:102FE00081810E9449170895EFE5F3E0628128E0AE
:102FF000621B08F460E021E0438181810E9449174F
:103000000895EFE5F3E0628128E0620F08F46FEFC6
:1030100021E0438181810E9449170895EFE5F3E0A3
:10302000818121E04381628188500E94491708957F
:10303000EFE5F3E0818121E043816281885F0E94B6
:103040004917089580916303882319F08150809374
:10305000630360915F0370916003809161039091BD
:1030600062030E943617089580916303833018F439
:103070008F5F8093630360915F0370916003809121
:103080006103909162030E9436170895EFE5F3E023
:1030900083E0808311828FEF828386E983831482A9
:1030A000ADE1B3E012968C911297836012968C93E7
:1030B00060817181828193810E9436170895CF9338
:1030C00084E090E00E944A31C82F82E290E00E94A2
:1030D0004A31982F8C2FCF910895A4E0B0E0E3E718
:1030E000F8E10C946F304091900250919102609100
:1030F0009202709193022FB7F8948091710390918E
:103100007203A0917303B09174032FBF841B950BBE
:10311000A60BB70B11E084369105A105B10570F13E
:103120000E94D5166E5F7F4F8F4F9F4F69837A83C2
:103130008B839C83809121019091220184589D4F23
:103140004091200150E04530510510F044E050E03E
:10315000BE016F5F7F4F0E94413184E090E00E948A
:10316000D62F182F882351F00E94F3096093900204
:10317000709391028093920290939302812F2496F0
:10318000E3E00C948B304F925F926F927F928F921C
:103190009F92AF92BF92EF92FF920F931F93CF93A4
:1031A000DF937B01FB0140805180628073809FB779
:1031B000F8948090710390907203A0907303B09084
:1031C00074039FBF84189508A608B708F4E68F1605
:1031D0009104A104B10418F4C1E0442329F1C82FDB
:1031E000880FDD0BFE0183E0EE0FFF1F8A95E1F7EC
:1031F000E050FF4F8181928184589D4F408150E083
:103200000417150708F4A801B9010E944131CE0145
:103210000E94D62FC82F882339F00E94F309F701A6
:1032200060837183828393838C2FDF91CF911F9171
:103230000F91FF90EF90BF90AF909F908F907F90F5
:103240006F905F904F900895A1E0B0E0EAE2F9E15D
:103250000C946E3080916803898320918F0290E0F6
:1032600041E02817190609F440E001E010E09E0152
:103270002F5F3F4F68E972E086E00E94C3182196F5
:10328000E4E00C948A30A8E0B0E0E9E4F9E10C94C1
:103290006E3085E0EFE5F3E0DE01119601900D92CE
:1032A0008A95E1F780911D0390911E03A0911F0361
:1032B0008E839F83A88741E08885811101C040E00B
:1032C00008E010E09E012F5F3F4F64E972E085E067
:1032D0000E94C318811110921F032896E4E00C94F9
:1032E0008A304F925F927F928F929F92AF92BF925D
:1032F000CF92DF92EF92FF920F931F93CF93DF93C2
:103300000F92CDB7DEB7C62E4A015901482E880F5D
:103310005508C2010E94D62F782E882309F480C058
:10332000C20133E0880F991F3A95E1F7FC01E050A4
:10333000FF4F438150E04115510511F041E050E04D
:1033400080509F4FFC016481758164587D4FCE0190
:1033500001960E944131F401408151816281738163
:103360002FB7F8948091710390917203A091730329
:10337000B09174032FBF841B950BA60BB70B84363B
:103380009105A105B10540F4B701C8010E94450AA5
:103390009981891709F444C00C2C000CDD08C60182
:1033A0000E94D62F782E811113C0712C872D0F907B
:1033B000DF91CF911F910F91FF90EF90DF90CF9011
:1033C000BF90AF909F908F907F905F904F900895A7
:1033D000C60123E0880F991F2A95E1F7FC01E05010
:1033E000FF4F438150E0E416F50608F4A701805032
:1033F0009F4FFC016481758164587D4FC5010E9417
:103400004131B701C8010E94450A99818913CDCF86
:103410000E94F309F4016083718382839383C6CF92
:10342000A701B801C5010E944131C0CFA1E0B0E0C1
:10343000ECE1FAE10C946930EE24E394F12C02E81B
:1034400012E09E012F5F3F4F48E752E063E082E0C9
:103450000E947119C82E882339F100E080E01DC058
:10346000D090AF02D00E2D2D30E0A9014A535D4F10
:103470007A01E1E0F0E0EC0FFD1FE00FF11D10819B
:10348000FA019081191BB12E1B149CF0912F17FD8E
:1034900090E0191B111118C00F5F9091AE0209172F
:1034A000F8F281110E940B0D8C2D2196E9E00C940D
:1034B0008530BA94F70180818F5F808360E08D2D25
:1034C0000E9407178C2DE0CF1F5FF701808181508C
:1034D000808361E08D2D0E9407178C2DDBCFA4E047
:1034E000B0E0E5E7FAE10C946A306B0184E0E82E85
:1034F000F12C0DE712E09E012F5F3F4F44E752E0B1
:1035000061E080E00E947119882361F049815A814D
:103510006B817C81409370025093710260937202C0
:103520007093730240917002509171026091720227
:1035300070917302F60140835183628373832496F2
:10354000E8E00C94863068EE7EEF90E080E00E9428
:103550007C3160E082E090E00E945E3160E083E0D8
:1035600090E00E945E311092CF021092CE0260E095
:1035700084E090E00E945E3164E082E290E00E948C
:103580005E3160E085E090E00E945E3160E086E0C0
:1035900090E00E945E316FEF87E090E00E945E3124
:1035A00040E050E0BA0188E090E00E94703160E0B5
:1035B0008DE090E00E945E3140E050E0BA0188E189
:1035C00090E00E94703160E087E190E00E945E31FF
:1035D00040E050E0BA018CE190E00E94703170E070
:1035E00060E080E290E00E947C3140E050E0BA016F
:1035F00088E190E00E94703140E050E0BA018FE035
:1036000090E00E94703140E050E0BA0183E190E028
:103610000E9470310895CF93C091AC02C2FB9927EC
:1036200090F9981791F080FBC2F9C093AC026091B9
:10363000AB0284E090E00E945E316C2F82E290E069
:103640000E945E3182E00E941F0FCF9108951F9269
:103650000F920FB60F9211242F933F934F935F93C6
:103660006F937F938F939F93AF93BF93CF93DF938A
:10367000EF93FF93D091E900DF708091EC00C82FA9
:10368000C17080FDC0E81092E9008091F000877F52
:103690008093F00078940E945E0F1092E900809170
:1036A000F00088608093F000CD2BCF70C093E900CC
:1036B000FF91EF91DF91CF91BF91AF919F918F914A
:1036C0007F916F915F914F913F912F910F900FBE1E
:1036D0000F901F9018951F920F920FB60F92112402
:1036E0002F933F934F935F936F937F938F939F930A
:1036F000AF93BF93EF93FF938091E10082FF09C0E6
:103700008091E20082FF05C08091E1008B7F809371
:10371000E1008091DA0080FF24C08091D80080FF12
:1037200020C08091DA008E7F8093DA008091D900EA
:1037300080FF9DC080E189BD82E189BD09B400FEA2
:10374000FDCF81E08093850380917803811109C0CA
:103750000E9469080E9434098091E200846080938D
:10376000E2008091E10080FF17C08091E20080FFBD
:1037700013C08091E2008E7F8093E2008091E2008E
:1037800080618093E2008091D80080628093D800AD
:1037900019BC85E0809385038091E10084FF2BC0F4
:1037A0008091E20084FF27C080E189BD82E189BD6C
:1037B00089B5982F917080FFFBCF8091D8008F7DC5
:1037C0008093D8008091E1008F7E8093E10080910A
:1037D000E2008F7E8093E2008091E200816080931E
:1037E000E20080918603882309F447C084E0809337
:1037F0008503809185038091E10083FF27C080913C
:10380000E20083FF23C08091E100877F8093E10085
:1038100082E080938503109286038091E1008E7F81
:103820008093E1008091E2008E7F8093E20080919E
:10383000E20080618093E20042E060E080E00E946C
:1038400002098091F00088608093F000FF91EF9171
:10385000BF91AF919F918F917F916F915F914F91A8
:103860003F912F910F900FBE0F901F90189519BC8C
:10387000109285031092780374CF8091E30087FD46
:1038800093E090938503B5CF78941F921FB61F9253
:1038900011248F939F93AF93BF9380917103909165
:1038A0007203A0917303B09174030196A11DB11D21
:1038B0008093710390937203A0937303B093740386
:1038C000BF91AF919F918F911F901FBE1F90189530
:1038D0009C014FB7F8948091710390917203A0916D
:1038E0007303B09174034FBF821B930B08952FB7DE
:1038F000F8948091710390917203A0917303B09139
:1039000074032FBF08950F931F93CF93DF93C62F98
:10391000D42F022FFC0182818823A9F060939103A8
:103920000E94771C9093900380938F03C77081E06F
:1039300001C0880FCA95EAF70E941612DF91CF9155
:103940001F910F91089580919103681334C0809165
:103950008F03909190030E94681C883C910558F554
:1039600010E21D0FCD17B9F080E28C0F883040F4C3
:10397000C77081E001C0880FCA95EAF70E940F1254
:10398000183048F481E09D2F977001C0880F9A95F8
:10399000EAF70E94161270E060E0802F0E94EF1696
:1039A000183060F6D77081E001C0880FDA95EAF729
:1039B0000E940F12C3CFC77081E001C0880FCA9563
:1039C000EAF7F6CF0E94A116882319F00E94771C0F
:1039D00008950E94D516CB01089560915F03669506
:1039E00070E04BE050E08AE591E00E942731892B9E
:1039F00019F481E080931E030E94E21C9093180347
:103A00008093170380911F03846080931F030895A0
:103A100090915F0390FF31C0917081112FC092602F
:103A200090935F0380911F03816080931F0366233F
:103A300051F060915F0370916003809161039091F8
:103A400062030E94361760915F03669570E04BE059
:103A500050E08AE591E00E942731892BB1F00E9465
:103A6000610A81E080931A0320E040916203609133
:103A70006103809160030E9449170895853210F018
:103A80009864CECF880F982BCBCF0E94ED1CE9CF46
:103A900080915F038695815009F484E261E00E9481
:103AA000081D089580915F0386958F5F853208F029
:103AB00081E061E00E94081D089590915F0390FFEE
:103AC00008C09695981728F0961718F40E94521D72
:103AD000089561E00E94081D0895A5E0B0E0E3E7C5
:103AE000FDE10C9466307C01FC0183819481892B7B
:103AF00031F08081918189238F3F09F0D1C42596CF
:103B0000ECE00C9482300E94250D182F682F8981DB
:103B10009A810E94980D69817A81812F0E94700B91
:103B20008C01843FFCE59F0709F483C018F5893DAB
:103B30009C4509F47AC00A3D8CE5180709F489C050
:103B4000083D9CE5190709F526E241EE61EEC70143
:103B50000E94831C80915902877089F2F70182814B
:103B6000882369F28091AC0282FFC9CF82E00E9473
:103B70001F0FC5CF863FECE59E0709F462C008F42D
:103B80005CC0873F9C4509F460C0F70182818823AF
:103B900009F497C4109291030430FDE51F0708F063
:103BA0005BC00B3F2CE5120730F4C80182509C45E6
:103BB000449708F05CC00E945F189093AC02809319
:103BC000AB020231ECE51E0709F45CC108F0A8C0A5
:103BD00009302CE5120709F433C108F072C0053032
:103BE0008CE5180709F41CC108F05EC00330ECE551
:103BF0001E0709F40DC108F00FC18091AB0281606E
:103C000002302CE5120709F488C06091AB021091D4
:103C1000AC0284E090E00E945E31612F82E290E08D
:103C20000E945E310E94520F95CF27E245EE65EE6D
:103C30008ECF26E241EE60EE8ACF27E245EE64EEBB
:103C400086CF26E241EE62EE82CF27E245EE66EEB7
:103C50007ECF28E241E0EBCF063A3DE5130709F4B9
:103C6000AACFE0F402369DE5190709F4A4CF063186
:103C70008CE5180709F0D4C4809163028A7A91E038
:103C800009F490E09093000269E2811165E388EF06
:103C900091E00E94FF090E94B30E5CCFC8018E5ACA
:103CA0009D45039720F787CF8091AB028062073054
:103CB0003CE5130791F108F4BFC08091AB0280642A
:103CC0002CC00D309CE5190709F4C4C090F4809114
:103CD000AB028E7F0B30FCE51F07F9F08091AB0241
:103CE0008C600C302CE51207C0F08091AB028D7F08
:103CF00014C00F303CE5130709F4BCC008F4AEC093
:103D000000319CE5190709F4B9C08091AB028F7BA3
:103D10000131ECE51E0709F078CF8093AB0275CF37
:103D20000115FDE51F0709F4B7C0A8F50B3F3CE5F9
:103D3000130709F479C0C0F404319CE5190709F4AC
:103D4000B9C008F4A5C00531FCE51F0709F05DCF37
:103D50008091AB0282FB992790F921E0922790FB9A
:103D600082F990FB83F9D9CF0D3F2CE5120709F4B6
:103D700079C008F45DC00E3F8CE5180709F476C0E1
:103D80008091AC0283600F3F9CE5190709F03DCF9D
:103D90008093AC023ACF0236EDE51E0709F495C0D8
:103DA00090F402302DE5120709F48DC008F478C0B4
:103DB00060E003308DE5180709F027CF8EE090E032
:103DC0000E945E3122CF0E3A9DE51907E9F060F4BA
:103DD0009091AB02892F8E7F90FF8160063AFDE5BE
:103DE0001F0709F49ACF11CF0F3A2DE5120771F191
:103DF000003B3DE5130709F008CF9091AC02892FF5
:103E0000877F93FF8860C4CF8091AC028860C0CF69
:103E10008091AB02826081CF8091AB0284607DCFC4
:103E20008091AB02886079CF8091AC028160B0CF85
:103E30008091AC028260ACCF8091AB0280616DCF8B
:103E40000E94520F8091AB02806867CF8091AC02D4
:103E5000877F9ECF8091AB028B7F5FCF8091AB023B
:103E6000877F5BCF8091AC028E7F92CF8091AC0236
:103E70008D7F8ECF8091AB028F7E4FCF8091AB0232
:103E80008F7D4BCF0E94520F8091AB028F7745CF31
:103E90008091AB02837F41CF8091AC028C7F78CF41
:103EA0008091AC02982F909591708E7F892B90FB1A
:103EB00081F96ECF0E94520F9091AB02892F97FB30
:103EC00087F980582ACF61E079CF9091AB02892F92
:103ED0008F7E94FF806121CF8091000281110FC0FD
:103EE00089E2EAEFF1E020E032E09191891303C02A
:103EF000DF0111971C922E173F07B9F7CCCE85E34F
:103F0000F0CF816080935F0361E086950E94081D79
:103F100021CE48E45DE162E57DE10E945B0A1ACEB4
:103F200042E55DE168E47DE1F8CF48E158E16EE00B
:103F300078E1F3CF44EF57E161E078E1EECF4AED6D
:103F400057E167EE77E1E9CF47EE57E16AED77E1B8
:103F5000E4CF44E358E162E278E1DFCF61E081E061
:103F6000D5CF65E082E00E945D1DF4CD68E086E07B
:103F7000FACF64E18FE0F7CF67E185E1F4CF62E249
:103F800089E1F1CF61E083E2C1CF0E94520F2FEFB0
:103F900034E38CE0215030408040E1F700C0000065
:103FA00081E08093E00080E28093D8001092C90005
:103FB000EFE1FEE43197F1F700C0000087E090EBFD
:103FC000DC0180939D0790939E07A0939F07B09379
:103FD000A00788E19CE00FB6F894A8958093600054
:103FE0000FBE90936000FFCF8091AC0282FB8827C8
:103FF00080F991E089270E940B1BF70182810081E3
:104000001181882309F445C0C8010E94250DD82ECE
:10401000682FC8010E94980DB8018D2D0E94700B69
:104020000E948B0B8C01882EF701D280B580B29450
:104030003FE0B322809159028770C1F0AD2CDD20A2
:10404000B1F0812F807F803421F080E2800F8830B2
:1040500068F08091AC0282FF09C082E00E941F0FCD
:10406000809159028770AA24A3948111A12C912ECA
:1040700092942FE09222FBE0F91508F46FC0E92D2D
:10408000F0E0E256FE4C0C94E73081E0B4CF80E0E3
:10409000B2CFC8010E94660DD82EBECF212F2F703F
:1040A000C22E107F19F0C29490EFC922DD20B9F022
:1040B000CC2069F080E2800F883010F0811009C0B8
:1040C00080916302C82AC09263020E94B30E802FBF
:1040D00043C080916202C82AC0926202F6CF802F4C
:1040E0000E942012CC20D1F1005E083010F0811027
:1040F00004C08C2D0E94140D06C0C09480916202F1
:10410000C822C09262020E94B30E28C0312F3F70B5
:10411000C32E107F103219F0C29480EFC82288207D
:1041200059F081E0881609F471C0DD2009F47BC0E4
:10413000BB2009F471C0CBCF2091AC0222FD43C05B
:10414000DD20D9F1CC2039F080916302C82AC092D9
:1041500063020E94B30E80E00E945512E92DE850E0
:10416000FF0B349710F40E94C416AA20A9F0809186
:10417000590280FD11C0F7011282859585958595BC
:104180000E943B0FC7010E946D1D809159028595C9
:10419000859585950E940D0F85E0F701DE0111964A
:1041A00001900D928A95E1F709811A81C8010E9458
:1041B000660DB8010E94700BA2CC80E00E94201214
:1041C000CC2061F296CFDD20A1F0909164028C2D7D
:1041D000892BB11003C00E941612C0CFE1E0BE12BD
:1041E000FACF22FFBBCF981709F4B8CF80936402AF
:1041F000B5CFB11006C00E940E0D8C2D0E940F127B
:10420000ADCFF1E0BF1609F4A9CFF5CFDD2031F035
:1042100025E02B1508F4A2CF8C2DDDCF34E03B1523
:1042200008F49CCFEACFBB2041F389E3881209C090
:104230009FEFE7EEF3E09150E040F040E1F700C07F
:104240000000802F0E94201289CF812F86958695AD
:10425000837061F0813009F081CFC8019370D11073
:1042600002C090E080E00E94190A78CFC8019370E4
:10427000D11002C090E080E00E942F0A6FCF812F02
:10428000837009F03FC0D11069CF402F4295469509
:104290004770440F440F802F8F7090E0042E02C0AF
:1042A000880F991F0A94E2F730E020E004FF09C06C
:1042B0002FE030E002C0220F331F4A95E2F720952D
:1042C0003095169516951370123099F078F4409148
:1042D000CE025091CF02113039F0822B932B8423E0
:1042E00095230E944B0F3ACF842B952B822B932B37
:1042F000F8CF822B932B2091CE023091CF028227D0
:104300009327EFCF8695DD2011F0812F81708823D0
:1043100009F424CF402F429546954770440F440F2F
:10432000802F8F7090E0042E02C0880F991F0A948E
:10433000E2F730E020E004FF09C02FE030E002C0E7
:10434000220F331F4A95E2F7209530951695169562
:104350001370123099F078F44091D0025091D1024C
:10436000113039F0822B932B842395230E94FD0E6C
:10437000F5CE842B952B822B932BF8CF822B932B6E
:104380002091D0023091D10282279327EFCF1F7066
:10439000DD2029F0812F0E943B0F802F1CCF802F22
:1043A0000E940F12812F0E940D0FD8CE802F22EF76
:1043B000821699F1281570F030EF8316D1F091EF45
:1043C000891691F0DD2009F45BC0B11080CE812FF9
:1043D0008F7127C0E3EF8E1639F1F4EF8F12F2CF11
:1043E0008091AC0282FD2EC0812F8F71DD20D9F229
:1043F00018C0DD2069F024E02B1508F4AFCE1F7142
:1044000081E090E002C0880F991F1A95E2F7B8CFBB
:1044100035E03B1508F4A2CEF2CF812F8F71D11079
:10442000C2CF0E943B0F9ACE90E080E0DD2009F4DD
:104430009DCF1F7181E090E002C0880F991F1A95EF
:10444000E2F794CFDD2089F01F71812F0E943B0F8E
:104450008091AC0282FF07C0E8E01E9FC0011124DA
:10446000836080935902812FDCCF81E00E941F0F6F
:10447000F1E0FB1508F072CE82E00E941F0F6ECEB5
:10448000BB2059F0893309F0DCCE2FEF37EE83E003
:10449000215030408040E1F7D2CE812F8F7183CF01
:1044A00085E0DE01119601900D928A95E1F7F70102
:1044B000228189819A81211126CB0E94660D182FB5
:1044C0002ACB0631FCE51F0709F406CD8091630273
:1044D00082720D3C2CE5120709F43BCD08F068C050
:1044E000073C9CE5190709F420CDF0F5043CFCE5F8
:1044F0001F0709F40ECD48F5033C3CE5130709F00E
:104500007CCD80915F0380FFFCCC8E7F80935F0326
:1045100060915F03709160038091610390916203E9
:104520000E9436170E94610A80911F038160809368
:104530001F039FEFE0E7F2E09150E040F040E1F729
:1045400000C000000E94771305CB053C9CE51907CD
:1045500009F4E6CC4EE058E168E178E1063CECE590
:104560001E0709F4DACC49CD0A3CFCE51F0709F423
:10457000E6CC78F4083C3CE5130709F4DBCC41E0D9
:1045800058E164EF77E1093C9CE5190709F4C5CCD3
:1045900034CD0B3CECE51E0709F4D6CC42E258E1E1
:1045A00064E378E10C3CFCE51F0709F4B6CC25CDAB
:1045B000023D2CE5120709F4DCCCA0F40F3C8CE59D
:1045C000180709F4CECC08F4C9CC003DECE51E0771
:1045D00009F4CCCC6EE089E0013DFCE51F0709F44D
:1045E000C2CC0BCD053D2CE5120709F4C8CC68F40C
:1045F000033D8CE5180709F4BFCC61E088E1043D78
:104600009CE5190709F482CCF8CC063DECE51E07C1
:1046100009F4B8CC0E35FDE51F0709F49BCAEDCCB3
:104620000B352DE5120709F430CD68F401158CE542
:10463000180709F4AACC0F3D1C4509F0DECC0E94F6
:10464000A31A0E9420170D35EDE51E0709F4CCCC06
:1046500008F41DCD083A1D45A1F3CFCC1F93CF938D
:10466000DF9380912602807F09F049C08091230268
:10467000882309F444C080915802D09127026091A8
:10468000210270912202A0912402B0912502C62F2E
:10469000C72316E0D81799F190E0109711F0CF3F9B
:1046A00019F401968770F6CF189F9001199F300D6D
:1046B0001124F901E85DFD4F41814713F2CF40819C
:1046C0004613EFCF42814111ECCF438154814A1B05
:1046D0005B0B483C510528F7809126028F70806162
:1046E00080932602F901E35DFD4F80818F70806128
:1046F000808381E292E00E946D1D0E941B0DDF917C
:10470000CF911F910895A1E1B0E0E9E8F3E20C94A4
:1047100068308C0185E0F801DE011D9601900D9254
:104720008A95E1F7F801E28081E2A82E82E0B82EB6
:1047300060912402709125026115710509F426C16A
:104740009091210240912202892F84238F3F09F406
:104750001DC120813181C380D480F0902302F601F5
:10476000E61BF70BFF2009F4DCC080912602582FCE
:10477000507FE83CF10508F09FC051116BC0FE2C42
:10478000431314C0921312C0E11010C08F708061E7
:1047900080932602C5010E946D1D80912602F801BA
:1047A00085838F2D6196EAE00C948430C114D10486
:1047B00029F0822F83238F3F09F003C180E0F82F77
:1047C000F170DF2E80FF3CC080915802409127029B
:1047D00056E0841315C02D873E878D859E850E94E7
:1047E000590D292F22952F702230F0F0243018F522
:1047F0009F70F1F0F8019581907FD1F4D12C1EC00B
:1048000090E0589FF001599FF00D1124E85DFD4F95
:104810006181361306C06081261303C06281E612EF
:104820000FC001968770D5CF9F7011F0882331F3A8
:10483000805E883018F3C8010E946D1DFD2CB1CF39
:10484000EE2009F4AECF809126028160809326028B
:10485000F12CA7CF431306C0921304C0F801EE2039
:1048600009F479C0C8010E94CD0D882309F1EE201A
:10487000F9F080912602803270F02091210230916F
:10488000220238872F831986DB86CA868C87CE0161
:1048900007960E946D1D86E0F801A1E2B2E001904A
:1048A0000D928A95E1F70E942E23FF24F39479CF8D
:1048B000C8010E946D1DF9CF51110AC081E292E03A
:1048C0000E946D1D86E0F50111928A95E9F7C0CF2F
:1048D00043130FC092130DC0E1100BC0F801858384
:1048E000C8010E946D1D86E0F50111928A95E9F7D5
:1048F00058CFC8010E94CD0D8823D1F2EE20C1F21D
:1049000080912602803238F22091210230912202D9
:104910003A8329831B82DD82CC828E83CE0101966D
:10492000B8CFE83CF105F8F6FE2CEE2009F243136F
:104930001FC092131DC08091260280FD10C0982FC9
:10494000907F69F0F8018583903F31F0982F907F38
:10495000905F8F70892B8583C8010E946D1D86E052
:10496000F801A1E2B2E001900D928A95E1F719CF2A
:10497000C8010E94CD0D81118ECF809126028160E9
:1049800080932602C8010E946D1D0BCFEE2009F412
:104990008FCFC8010E94CD0DF82E882309F488CF4F
:1049A00086E0F801A1E2B2E001900D928A95E1F76C
:1049B00080912102909122020E94590D0E942E2383
:1049C000F0CE81E08E25FBCEA7E1B0E0EAEEF4E286
:1049D0000C946F304B8B5C8B6D8B7E8B8F8B61114E
:1049E000109262021A8A198A85E0FE017396DE012E
:1049F0001D9601900D928A95E1F786E0FE013D96A5
:104A0000DE01179601900D928A95E1F7CE01079687
:104A10000E948323882359F016E0809158029091D8
:104A20002702891343C06796E3E00C948B3086E03D
:104A3000FE013796DE01119601900D928A95E1F7FD
:104A40008A859B85892B41F38F81988589238F3FA8
:104A500019F32091270230E0C90101968770992748
:104A6000409158024817190671F40E94520F109293
:104A700027021092580286E0E1E2F2E0DF011D9287
:104A80008A95E9F7C9CF96E0929FD001939FB00D28
:104A90001124A85DBD4FFE01319601900D929A95AB
:104AA000E1F7809327020E941B0DB6CF819FC001C2
:104AB0001124885D9D4F0E948323882309F4B3CF7E
:104AC0008091580290E00196877099278093580250
:104AD000A4CFACE0B0E0EFE6F5E20C9465308E01D7
:104AE0000F5F1F4F88E0D8011D928A95E9F780E497
:104AF000C82E81E0D82EF12CE12CAA24A394B12C4D
:104B000020E4822E21E0922EF60181916F018F3FE9
:104B100009F442C0F894E82FE295EF70F0E021A18B
:104B20008F70A50102C0440F551F8A95E2F7CA0194
:104B3000922F982B91A392A18095892382A3789498
:104B400000C0E8E3F1E0712C31E021912F3F09F43E
:104B50006BC0A22FA295AF70B0E090968C9190E0C0
:104B60002F7002C0959587952A95E2F780FD5CC06D
:104B7000832F782A330F8E169F0639F7F601319767
:104B800080818F3F11F00E94160B50EA5A95F1F781
:104B9000F801EE0DFF1D70828FEFE81AF80A94E01D
:104BA000E916F10409F0B0CF48E050E0B80181EA1D
:104BB00092E00E943431009741F028E0F801A1EA28
:104BC000B2E001900D922A95E1F70091AA02892B9B
:104BD00069F181E0809367020E94771C90936602DE
:104BE0008093650280916502909166020E94681C24
:104BF000059700F110E00E541D4F44E050E061EACB
:104C000072E0C8010E943431F12C892B51F084E00C
:104C1000E1EAF2E0D80101900D928A95E1F7FF24D4
:104C2000F3941092670207C080E0A3CF80916702DF
:104C30008111D8CFF12C0E94A116E82EE091AA0292
:104C4000882309F494C019861A861B861C860E2FA9
:104C500010E00E541D4F80919C028A3008F051C024
:104C60004FE65AE1BE01675F7F4FC8010E946E1692
:104C7000882309F46BC046E15AE1BE01675F7F4FAC
:104C8000C8010E946E16882309F460C04DE658E101
:104C9000BE01675F7F4FC8010E946E16882309F42A
:104CA00055C043E459E1BE01675F7F4FC8010E94D0
:104CB0006E16882309F44AC044E259E1BE01675FD9
:104CC0007F4FC8010E946E16882309F43FC01092DE
:104CD0009C028091A90290E044E050E0BE01675F31
:104CE0007F4F8E549D4F0E94343121E020936E02FD
:104CF000892BF1F4E12C8E2D8F292C96EDE00C946C
:104D0000813080916802909169020E94681C843F02
:104D1000914008F0A5CF80916E02882359F3FE01DF
:104D2000399684E0DF011D928A95E9F710926E02B0
:104D3000E091A902F0E0EE54FD4F89859A85AB859C
:104D4000BC8580839183A283B383D5CF80919C025D
:104D50008F3F31F08F5F80939C028A3008F4B9CF87
:104D60000E94771C9093690280936802D4CFF0E090
:104D7000EE54FD4F84E0ADE7B2E001900D928A95CC
:104D8000E1F764E070E08DE792E00E94450A8093CD
:104D90007C024091CB0250E06091CA0270E06A53FD
:104DA0007D4FCE0109960E94413189858093820210
:104DB00061E070E0CE0109960E94450A809381026D
:104DC0008090830290908402A0908502B090860229
:104DD00080916A0290916B02A0916C02B0916D0279
:104DE00088169906AA06BB06D1F080926A029092B4
:104DF0006B02A0926C02B0926D020E94A11681110A
:104E00000EC00E94F309861A970AA80AB90A80926E
:104E10009D0290929E02A0929F02B092A002809169
:104E20008E02882379F180FF0DC0809187029091D6
:104E30005F0380FF2EC0916090935F0360E08695D2
:104E40000E94081D80918E0281FF09C020E04091E0
:104E50008A0260918902809188020E94491780919C
:104E60008E0282FF06C080918D02882341F10E944C
:104E7000ED1C80918E0283FF03C081E080931A03B2
:104E800010928E0280918F028823E1F00E94ED1231
:104E900032CF9E7F90935F030E94610A80911F032F
:104EA000816080931F03BFEFE0E7F2E0B150E04084
:104EB000F040E1F700C000000E947713C3CF0E94CA
:104EC000610AD7CF0E94D21216CF1F921FB61F922F
:104ED00011248F939F93AF93BF938091700381119F
:104EE00013C08091710390917203A0917303B091EC
:104EF00074034196A11DB11D8093710390937203B9
:104F0000A0937303B0937403BF91AF919F918F915E
:104F10001F901FBE1F901895CDB7DEB72F970FB605
:104F2000F894DEBF0FBECDBF85B7806885BF85B75B
:104F3000806885BF84B7877F84BF0FB6F894A89533
:104F400080916000886180936000109260000FBEC5
:104F500080E890E00FB6F894809361009093610030
:104F60000FBE84E19BE09093F7018093F6010E94CD
:104F700069080E9434098091E20084608093E20015
:104F80007894809185038823A1F01091E9001F7027
:104F90009091EC00892F817090FD80E8182B109281
:104FA000E9008091E80083FD0E945E0F1F7010935E
:104FB000E90082E084BD93E095BD9AEF97BD8093B0
:104FC0006E0010929D0210929E0210929F0210920B
:104FD000A00223982B9A6E9A769805E00A95F1F72D
:104FE000000083B183FB882780F96E98769A10EAD7
:104FF0001A95F1F78093440180914401882309F4C4
:1050000063C1109268018AE0809369010E94A11631
:1050100081110E94EA2E80914401811120C084E90F
:105020008093400186E68093410187E980934201A5
:1050300086EC8093430188E0EEE6F1E0DE01119614
:1050400001900D928A95E1F7FE013196A8E3B1E057
:10505000CE01099621912D93E817F907D9F7809190
:10506000440194E0811190E09093AA0284E0891BAE
:105070008093A90200E411E0E4E4EE2EE1E0FE2ECC
:10508000D8018D918D018F3F11F00E94160BE01613
:10509000F106B1F708E311E0F80181918F018F3F2C
:1050A00011F00E94160BF1E000341F07A9F788E009
:1050B000E2EBF2E0DF01082F1D920A95E9F7E1EA41
:1050C000F2E0DF011D928A95E9F790E080E00E940E
:1050D0005831883E9E4F11F00E94A31A82E090E062
:1050E0000E944A318093BA020E945F189093AC02EA
:1050F0008093AB0283E090E00E944A3190E00E94EE
:105100004B0F82E08093120380E8809392030E9409
:10511000A42D6DE070E08FE393E00E94A812892B2C
:10512000E9F58091120363E070E081FDD1C08CE36A
:1051300093E00E94A812892B89F56DE070E08CE263
:1051400093E00E94A812892B49F50E94F309605A46
:1051500075418F4F9F4F60936403709365038093F5
:10516000660390936703E5E9F3E080E094E0DF01F4
:105170008C011D9201501040E1F7F0939C07E093E1
:105180009B078FEF9FEF909394038093930381E0AD
:105190008093690380936803109213038091AD029A
:1051A00081113BC090E080E00E945831883E9E4FC4
:1051B00021F00E94A31A0E94461888E090E00E9405
:1051C000523160935F037093600380936103909307
:1051D000620380911F03836080931F036E7F71F4CD
:1051E0000E94461888E090E00E94523160935F036D
:1051F0007093600380936103909362030E94680A36
:105200000E94610A80915F0380FF04C060E0869580
:105210000E94081D81E08093AD029091440181E0DD
:1052200098279093CA02282F291B2093AF029091B0
:1052300044018093CB02909144018093AE0280910F
:105240004401811106C085EF8093520184EF809361
:10525000510120915201E22FE295EF70F0E061A13F
:105260002F7081E090E0AC0101C0440F2A95EAF76D
:10527000342F3095362331A322A1242B22A3209151
:105280005101E22FE295EF70F0E031A12F7001C0E3
:10529000880F2A95EAF7982F9095932391A392A1CE
:1052A000892B82A38FE891E00197F1F700C00000FD
:1052B0001091CB026CEC72E042E551E081E5E82E02
:1052C00081E0F82EFB012FC08AE0809368019CCE1C
:1052D00089E393E02ECFDA012D91AD01822F8295E3
:1052E0008F7090E0DC0190968C9190E02F7002C05E
:1052F000959587952A95E2F78170D7019D917D015B
:10530000292F22952F7030E0D90190962C9130E012
:105310009F7002C0359527959A95E2F790E020FDA1
:1053200092E0892B81938E2F861B8117A0F20E9419
:10533000A116811102C00E94ED2E85E491E09093A8
:105340006D0380936C0370E4D72E8091850300E198
:1053500012E1853009F49BC00E9469254BEBE42ED5
:1053600042E0F42E52EB852E52E0952E69EAA62EED
:1053700061E0B62E43EC52E085019401F701919172
:10538000D9018D919D01D8016D918D0186234E1714
:105390005F0709F486C0981791F30E94A116582E52
:1053A00000E0F40111914F01D5018D915D011823A9
:1053B000F70161907F01611629F16126C12C7724E4
:1053C0007394872D8621B1F05520A1F0C9860A87F4
:1053D00091E0872D812309F490E09B870E94771C40
:1053E0008160782F9D878C8749855A856B858D854F
:1053F0000E94E424C394770CF8E0CF12E2CFF701C7
:10540000319710830F5F083061F60E94F309EE2494
:10541000E39468C080918503843029F10E94D21200
:1054200010927003E8E1F0E00FB6F894A895E093CD
:1054300060000FBED092600083B7817F846083BF1D
:1054400083B7816083BF7894889583B78E7F83BF4D
:105450000FB6F894A89580916000886180936000F1
:10546000109260000FBE80918403882381F00E9417
:105470006925E2EBF2E0A9EAB1E081919D918923EF
:1054800009F04CC32AEB32E02E173F07B1F78091A9
:105490008503853009F4BECF0E94520F0E94C416C6
:1054A0005BCF98137ACF0E94771C8C018091B00259
:1054B0009091B10208171907A1F08FEF89838A83B1
:1054C0001B820E94771C8160782F9D838C83498189
:1054D0005A816B818D810E94E4241093B102009364
:1054E000B002E12C0E94A11680911E03882309F4CA
:1054F00064C080911D03E0915F03E695E81BE09393
:105500001903823009F0A2C0F0E0E65AFC4FE491A2
:105510000E2F10E03AE5A32E36E1B32E80911A0348
:10552000882361F010921A030E94E21C90931803E2
:105530008093170310921C0310921B030E94E21C1D
:10554000E0911703F09118039C012E1B3F0B2F3F96
:105550003F4798F52091C5022223B1F01092C50271
:105560002091C3023091C402821B930B8F3F9F474F
:1055700058F4205D3A483093C4022093C3028091CE
:105580001F03886080931F0380901B0390901C036F
:10559000E00FF11FF0931803E093170387E193E006
:1055A000F501099580911B0390911C03892B29F427
:1055B000892819F081E08093C502B12CF12C8091EB
:1055C000CB02B81608F49CC0F1100E940B0D80911C
:1055D0006903882351F180911403909115030E946F
:1055E000681CC29708F0FDC020919303309194038A
:1055F0002115310509F0C0C1809168038823A9F005
:105600000E94F309009164031091650320916603E1
:1056100030916703601B710B820B930B6F3F7F4FC1
:105620008F4F9F4710F40E94D212E11001C0F11079
:105630000E94ED120E94C41690911603891709F476
:1056400084CE809316030E94F3097FCE863059F4EE
:10565000F0E0E95AFC4FE4910E2F10E02AE4A22E6C
:1056600026E1B22E5BCF893061F4E695F0E0EC5A8A
:10567000FC4FE4910E2F10E09DE9A92E95E1B92E83
:105680004DCF8F3061F4E695F0E0EF5AFC4FE49196
:105690000E2F10E08FE0A82E85E1B82E3FCF853188
:1056A00059F4F0E0E25BFC4FE4910E2F10E0B7E814
:1056B000AB2EB4E1BB2E32CF08E210E0E2E0AE2E1A
:1056C000E4E1BE2E883109F429CF833249F4ECE4B9
:1056D000F3E005911491A6EFAA2EA5E1BA2E1ECFF4
:1056E00004EF11E0F2ECAF2EF3E1BF2E843209F4A7
:1056F00015CF00ED17E07EEEA72E79E0B72E0ECF86
:105700000B2D10E0F801EE5AFE4F8081E82FE29554
:10571000EF70F0E0E0A1F0E08F7002C0F595E79542
:105720008A95E2F7E170D801AF5ABE4F2C91A22FB3
:10573000A295AF70B0E090968C9190E02F7002C06F
:10574000959587952A95E2F780FD49C080E08E2BDC
:10575000D801A453BD4FEC919E2F93708917E9F1A6
:10576000EE0FEE0FE82BEC93C090CA02CB0CEF705B
:10577000F0E0EF54FE4F08531D4F8081D8019C91FB
:10578000890F8C9320E0843064F0EC2DF0E0EA5334
:10579000FD4F80818F5F808360E08C2D0E94071712
:1057A00021E0F80180818D3F64F4EC2DF0E0EA53B4
:1057B000FD4F80818150808361E08C2D0E9407170E
:1057C00021E0D8018C91082E000C990B64E070E068
:1057D0000E94B130F8018083F22AB394F0CE82E0C7
:1057E000B6CF0E94771C909315038093140385E92C
:1057F00093E090939C0780939B070E94A1168823B7
:1058000009F47CC087EE97E00E94A50E80EE97E039
:105810000E94A50E89ED97E00E94A50E81ED97E00C
:105820000E94A50E8091D0029091D1022091CE02CB
:105830003091CF02822B932B292F3327E0E02115C3
:10584000310511F0C901E8E09C0154E03695279537
:105850005A95E1F72115310511F0EC5FC9019C0162
:1058600036952795369527952115310511F0EE5F70
:10587000C90196958795892B09F0EF5F8EE897E02F
:10588000E73038F4F0E0E655FE4C0C94E73089EC54
:1058900097E00E94A50E0E94C416182F8EE797E08D
:1058A00010FF02C086E897E00E94A50E8EE697E002
:1058B00011FF02C086E797E00E94A50E8EE597E0F3
:1058C00012FF02C086E697E00E94A50E8091690350
:1058D000882309F491CE88CE81EC97E0DACF85EB6E
:1058E00097E0D7CF80EB97E0D4CF8BEA97E0D1CF8A
:1058F00081EA97E0CECF89E997E0CBCF80919B07F3
:1059000090919C07855993409C013C5F2130344025
:10591000B0F020E034E0281B390B40919303509104
:105920009403EEE5F3E0280F391F61E070E0821781
:10593000930740F05093940340939303C7CF20E024
:1059400034E0EBCF1491DC01AB56BC4F0C91101737
:1059500081F01C93DC0116E0B695A7951A95E1F746
:105960008B0102C0000F111FAA95E2F7D801402B4E
:105970005B2B01963196DBCF8091130361E070E0E1
:1059800081113ACE082F10E02B01082E02C0440CE2
:10599000551C0A94E2F7A90144215521452B09F42D
:1059A00047C09091120390FD45C08295880F880FE3
:1059B000807480935501980136952795209358015E
:1059C000815C809356011092590124E630E047E053
:1059D00050E063E571E088E70E94442E892B09F0CE
:1059E0000BCEA80136E0440F551F3A95E1F78091A0
:1059F000120380FD2DC04B565C4F04E610E020E4FE
:105A000030E060E488E70E94652E892B09F0F4CD30
:105A10000E94ED12C20180959095409093035090A2
:105A20009403482259225092940340929303E4CD68
:105A30008F5FA8CF880F880F880F80935501109231
:105A40005801895F8093560187E080935901BDCF4B
:105A5000E2EDF2E0DF010D2D1D920A95E9F729EC48
:105A600031E03F872E8701EC11E021ED822E21E00D
:105A7000922EAE85BF852D91BF87AE87F80121900C
:105A80008F01240E352E311CC1018B569C4F1C01F9
:105A9000E22FF0E0EE52FD4F30E020E097E0692E7B
:105AA000621ACC24C394022E01C0CC0C0A94EAF7EB
:105AB000510190E0D5018D915D018C21662D691B0E
:105AC0006770762E062E000C770BB82F01C0BB0F27
:105AD0007A94EAF77B2E7195619571096770772743
