:100000000C94F5020C942D030C942D030C943523C1
:100010000C942D030C942D030C942D030C942D03A0
:100020000C942D030C942D030C9470210C944822F5
:100030000C9425210C942D030C942D030C942D036A
:100040000C942D030C942D030C942D030C942D0370
:100050000C942D030C944C210C942D030C942D0323
:100060000C942D030C942D030C942D030C942D0350
:100070000C942D030C942D030C942D030C942D0340
:100080000C942D030C942D030C942D030C942D0330
:100090000C942D030C942D030C942D030C942D0320
:1000A0000C942D030C942D030C942D032B002A008B
:1000B0000000010433307C00010431307C0000007A
:1000C0000000000000000000000000000000000030
:1000D0000000000000000000000000000000000020
:1000E00000007E0F00D4FFFFFFC700000078000073
:1000F0000000000000002A2B280000000000000083
:1001000000000000000000000029000000002C1E7C
:100110003420212224342627252E362D3738271E39
:100120001F202122232425263333362E37381F045F
:1001300005060708090A0B0C0D0E0F1011121314F7
:1001400015161718191A1B1C1D2F3130232D3504B5
:1001500005060708090A0B0C0D0E0F1011121314D7
:1001600015161718191A1B1C1D2F3130354C050197
:100170000902A10185020901A10005091901290847
:100180001500250195087501810205010930093125
:100190001581257F95027508810609381581257F0F
:1001A000950175088106050C0A38021581257F9591
:1001B0000175088106C0C005010980A101850319E8
:1001C000012AB700150126B700950175108100C0FE
:1001D000050C0901A101850419012AA002150126B7
:1001E000A002950175108100C005010906A1010555
:1001F0000719E029E7150025019508750181029589
:1002000001750881010507190029FF150026FF0067
:1002100095067508810005081901290595057501E0
:100220009102950175039101C009023B0002010092
:10023000A0FA0904000001030101000921110100D5
:1002400001224000070581030800010904010001A3
:1002500003000000092111010001227B0007058233
:100260000320000112010002000000081D8D9D9D69
:1002700000010102000116034B00790072006900C1
:100280006100200072006500760032000000180353
:10029000730070006C00690074006B0062002E0037
:1002A00063006F006D0000000403090400000000FB
:1002B0000500130009001A001400000000000000EF
:1002C0000A2817221621152404000000000000004F
:1002D0001900070006001B001C00000028442C43E6
:1002E000000000000000000000000000000000000E
:1002F0000D000F0018001D002D0000000000000080
:100300001028113208210C24120000000000000007
:100310000E000B0036003700380000002B422A4147
:1003200000000000000000000000000000000000CD
:10033000000000005200000000000000000000006B
:100340004D004F00510050004A0000000000000026
:100350000000A900AA00A800AE000000E100E00033
:10036000000000000000000000000000000000008D
:10037000290000004B000000000000000000000009
:100380002A0000004E0000000000000000000000F5
:100390004C00060119011B010000000000000000D4
:1003A000000000000000000000000000000000004D
:1003B00000000000CD000000000000000000000070
:1003C0000000D000CE00CF000000000000000000C0
:1003D000000000000000000000000000000000001D
:1003E000000000000000000000000000000000000D
:1003F0000000DB00D900DC0000000000000000006D
:10040000B600D100DA00D200B70000000000000002
:100410000000060119011B0100000000000000009F
:1004200000000000000000000000000000000000CC
:100430002900000000000000000000000000000093
:100440002A001414220235002002000000000000DF
:100450004C00060119011B01000000000000000013
:10046000000000000000000000000000000000008C
:10047000230225142E002402320000000000000098
:10048000210225021F0227023002000000000000A6
:100490003000241432026400640200001E022D02A7
:1004A000000000000000000000000000000000004C
:1004B000000000000000000000000000000000003C
:1004C000000000000000000000000000000000002C
:1004D0000000060119011B010000000000000000DF
:1004E000000000000000000000000000000000000C
:1004F000000024002500260000000000000000008D
:100500000000210022002300000000000000000085
:1005100000001E001F002000000000000000270057
:1005200000000000000000000000000000000000CB
:1005300000000000000000000000000000000000BB
:100540000000007E0000000000000000000000002D
:10055000000000000000000000000000000000009B
:10056000000000000000000000000000000000008B
:1005700076004000410042004300000000000000FF
:1005800000003D003E003F0044000000000000006D
:1005900000003A003B003C00450000000000000065
:1005A00000000000000000000000000041637469CA
:1005B000766174656400010431357C0044656163D3
:1005C0007469766174656400010431357C005B5D9B
:1005D00001015000010150002727010150007B7DDF
:1005E0000101500028290101500011241FBECFEF46
:1005F000DAE0DEBFCDBF04B603FE18C08091E90289
:100600009091EA02A091EB02B091EC028730904BFE
:10061000A740B04B59F41092E9021092EA021092EE
:10062000EB021092EC02E0E0F8E3099511E0A0E0A3
:10063000B1E0EAEEFAE402C005900D92AC37B107E2
:10064000D9F722E0ACE7B1E001C01D92A93EB207A4
:10065000E1F70E94CD1D0C940D250C9400009C0127
:10066000FB019A9581159F41A8F431FB882780F9F9
:10067000A9014427547034FF08C08295880F807EFA
:10068000452B09F0806409950895880F452BD9F30F
:100690008460F9CF80E0F7CF909373028093720269
:1006A00008959C0188719927489731F4206230930E
:1006B00075022093740208952F7DF9CF21E030E078
:1006C00002C0220F331F8A95E2F780917402909145
:1006D0007502822B932B0E945103089521E030E094
:1006E00002C0220F331F8A95E2F720953095809142
:1006F000740290917502822393230E9451030895FE
:10070000282F292B283070F528E0929FF001112422
:10071000E80FF11D877041E001C0440F8A95EAF7A8
:1007200083E0F695E7958A95E1F7EE0FFF1FEE0F50
:10073000FF1FEC5BFD4F80E090E070E05191DF0126
:1007400011979B01082E02C0369527950A94E2F76F
:10075000217021952527242325272C930196843069
:10076000910561F70895292F282B283060F528E09E
:10077000929FF0011124E80FF11D982F977083E0EC
:10078000F695E7958A95E1F7EE0FFF1FEE0FFF1F35
:10079000EC5BFD4F40E050E080E0219130E0092E1D
:1007A00002C0369527950A94E2F721703327042E6C
:1007B00001C0220F0A94EAF7822B4F5F5F4F44304B
:1007C000510559F7089580E008958091FB019091BB
:1007D000FA01981301C008958F5F8770FACFE0E89F
:1007E000F1E09191891303C0DF0111971C9291E010
:1007F000E638F907B1F708952091760280958223B3
:1008000080937602982F9770911113C030E0482F93
:10081000082E000C550B2417350759F090917802DB
:1008200092FF07C08595859585950E946E0310926D
:1008300076020895982F9095809170028923809375
:1008400070020895809171028111109271020895D1
:10085000962F972B9830B0F48630A0F498E0899FBB
:10086000F0011124E70FF11D83E0EE0FFF1F8A95C1
:10087000E1F7E60FF11DEE0FFF1FE455FD4F8591E7
:100880009491089580E090E008952091770222FFEE
:1008900006C0982F98719830C1F4877F846090913A
:1008A0007802392F3170927023FF21C0482F487190
:1008B000483191F4877E84619923B1F0982F91712A
:1008C000913191F48E7E88610FC0982F947194308D
:1008D00031F78B7F8860E3CF482F4471443139F47E
:1008E0008B7E8861911118C024FD877E0895332383
:1008F00069F0382F3871383019F4877F8160DCCF88
:10090000382F3171313011F48E7F8860992361F373
:10091000982F9871983191F6877E8161E5CFCF93BA
:10092000DF93EC01803E910509F478C088F58133AE
:10093000910509F4C0C090F48932910509F4B0C062
:100940008A32910509F4BEC0019709F47AC0CE013C
:100950000497813A910508F06DC073C08933910501
:1009600009F450C08238910509F44CC085339105D3
:1009700009F491C08D3C910508F010C1883A9105A9
:1009800008F0A7C0853A910510F3A497D06459C028
:10099000843E910509F464C088F4823E910509F40F
:1009A0004CC0833E910509F450C0C83ED10508F4FF
:1009B00048C0CE019A958F3F9E41CDCF863E91058E
:1009C00009F459C0873E910509F45AC0803222E5E6
:1009D000920708F0A4C0811542E5940708F0E3C02F
:1009E000811550E5950708F484C08F710E94450475
:1009F000E5E0D695C795EA95E1F7CF709C2FEC011D
:100A0000D0691FC080917702837081110CC18091E1
:100A1000780283FF16C0C9E2D0E013C0809177024C
:100A200080FD46C09091780290FF0BC0C3EED0E0ED
:100A300084FF07C0C0E0D0E004C08091770282FD4F
:100A4000F5CFCE01DF91CF9108958091770282FD9D
:100A5000E7C09091780290FDE6C084FFF2CFEACF24
:100A60008091780281FFEDCF80917702C7EED0E0D0
:100A700084FDE0CFE6CF8091770283FDF7CFE1CF11
:100A80008091770283FDD2C09091780291FFE5CFEB
:100A9000C4EED0E0D6CF8091770285FFD2CFBBCF16
:100AA0008091770285FDC5C08091780283FFC9CF10
:100AB000C9E3D0E0C6CF8091770286FFC2CFCAE2F9
:100AC000D0E0BFCF8091770286FFBBCFC1E3D0E0FB
:100AD000B8CF885A9109499708F0ACCFC85AD0E0EE
:100AE000CC0FDD1FC75BDE4F0990D881C02DD464C9
:100AF000A8CFC11580E4D80708F052C0C11520E284
:100B0000D20708F452CF8D2F8F710E94450490E0D8
:100B1000982F882788279F718C2BEC017FC0803A03
:100B2000924550F5C03882E5D80708F066C0C03657
:100B300022E5D207B0F08C2F86958695877040E22B
:100B4000849FC0011124C37021E030E0A90102C0DC
:100B5000440F551FCA95E2F7EA01C82BD92BDA6872
:100B600070CFC03452E5D50790F5CF71D0E0DC2FBF
:100B7000CC27C16FD06A65CFC03C82E5D80708F4A6
:100B800043C0CE01805C9245809708F053CFDC2FA4
:100B9000CC27CC27DF71C06FD06A53CFD06551CF3F
:100BA000DF70D06A4ECF8695869520E2829FC00185
:100BB0001124C37021E030E0A90102C0440F551F89
:100BC000CA95E2F7EA01C82BD92BDD683ACF8C2F02
:100BD00086958695877050E2859FC0011124C37069
:100BE00021E030E0A90102C0440F551FCA95E2F789
:100BF000EA01C82BD92BDC6824CFCF71D0E0DC2FE1
:100C0000CC27C46FD06A1DCF8C2F8F710E944504F2
:100C1000C82FD0E0DC2FCC27CC27DF71D06211CFDA
:100C2000C2EED0E00ECFC0EED0E00BCFC6EED0E0EB
:100C300008CFC5E3D0E005CFA0E0B0E0E2E2F6E007
:100C40000C9459248C01E0907402F090750280910C
:100C5000720290917302E82AF92ACFE0D0E0CC2406
:100C6000C394D12CC6010C2E02C0880F991F0A9480
:100C7000E2F78E219F21892B49F4219798F7B12C17
:100C80008B2DCDB7DEB7E9E00C947524BC2EB801EE
:100C90008C2F0E9428040E948F04019771F3F0CFDB
:100CA0000F931F93CF93FC0186819781009799F44E
:100CB000828100811181882391F0662381F0C8012F
:100CC0000E941C06C82F682FC8010E948003B8012B
:100CD0008C2F0E942804CF911F910F910895C80175
:100CE0000E94B303C82FF3CFCF93DF93D82FC92F20
:100CF0000E941C066D2F7C2F0E9428040E948F04E6
:100D0000DF91CF910895FC0183819481892BD9F0E3
:100D10008181908189238F3FB1F0868197810097EF
:100D2000A1F00E948F04282F92959F709630B9F001
:100D300088F4925F9F70923030F481E0203FA1F000
:100D400058F4283E58F080E009C0808191810E94CB
:100D50007406E9CF9A5FEECF243FA9F7089581E0AA
:100D6000283E18F0213FF9CF0895089580E00895B6
:100D7000F894E82FE295EF70F0E041A18F7021E048
:100D800030E0B90102C0660F771F8A95E2F7CB0108
:100D9000962F9095942391A392A1892B82A3789466
:100DA00008958091660280FD16C081FD16C082FD07
:100DB00018C080916502882391F0803490F420E37C
:100DC000829FC001112426E0959587952A95E1F729
:100DD000009749F008958CE0089588E1089588E02F
:100DE000089580E3089581E008958091660280FD72
:100DF00017C081FD17C082FD19C08091640288234D
:100E000099F0883298F428E0829FC001112468E2AA
:100E100070E00E9487246115710551F0862F0895B6
:100E200062E0FCCF64E0FACF61E0F8CF68E0F6CF93
:100E300081E0089510928302109282028091340121
:100E4000811104C010923301109235010895AC0154
:100E50003091850260918402232F621301C00895AE
:100E6000822F90E0FC01EE0FFF1FE658FD4F01902E
:100E7000F081E02DE417F50791F467E0649FF0013D
:100E8000659FF00D1124E15DFE4F41E04483231383
:100E9000E6CF019683709927809385020895019685
:100EA000282F2370DACFA3E0B0E0E9E5F7E00C9457
:100EB00060249C018091AA019091AB018217930755
:100EC000A1F03093AB012093AA01E091F001F091E1
:100ED000F101309751F083E089833B832A830680B8
:100EE000F781E02DCE01019609952396E2E00C945E
:100EF0007C24A3E0B0E0EFE7F7E00C9460249C01D1
:100F00008091A8019091A90182179307A1F03093D5
:100F1000A9012093A801E091F001F091F10130972F
:100F200051F084E089833B832A830680F781E02D9A
:100F3000CE01019609952396E2E00C947C249C0155
:100F4000FC0132968FEF90E04191461751F08F3FB0
:100F500019F4411101C0892F9F5F9630A9F78F3F87
:100F600009F40895280F311D87FD3A95F901628330
:100F700008952FB7F8948091D9019091DA01A0914A
:100F8000DB01B091DC012FBF08950E94B9072091C9
:100F9000690230916A02232B222321F08093CE0133
:100FA0009093CF0120916B0230916C02232B22236E
:100FB00021F08093CC019093CD01E091F001F0916C
:100FC000F101309749F082E0809367020480F58157
:100FD000E02D87E692E009950895662309F44BC059
:100FE000E3E3E80FE33150F4F0E0E15FFA4D0C94F5
:100FF0009B240E94D106819580936A020E94C507B6
:1010000008950E94D106F8CF0E94D1068195809361
:101010006902F4CF0E94D106FACF0E94F5068093B0
:101020006B02ECCF0E94F5068195F9CF0E94F50680
:10103000819580936C02E2CF0E94F506FACF815D24
:10104000990B21E030E001C0220F8A95EAF78091E8
:101050006802822B80936802D1CF80916602816002
:1010600080936602CBCF809166028260F9CF809137
:1010700066028460F5CF409169028D3C59F48091FD
:101080006A0287FF0DC010926A02442359F410923D
:10109000650208C08E3C81F480916A0218169CF3A8
:1010A000442381F080916B0290916C02892B811115
:1010B000A5CF10926402A2CF8F3C41F447FFF0CF3E
:1010C0001092690280916A028823E0CF803D19F472
:1010D0001416B4F3E5CF90916B02893D29F41916EB
:1010E000FCF610926B02DCCF8A3D19F497FFD8CF43
:1010F000F8CF90916C028B3D29F497FFD1CF1092DD
:101100006C02CECF8C3D19F41916CCF3C9CF9FE2F7
:10111000980F983090F4815D990B21E030E0B9018F
:1011200002C0660F771F8A95E2F7CB0180959091F8
:101130006802892380936802B3CF8D3D31F480919A
:1011400066028E7F80936602ABCF8E3D21F4809144
:1011500066028D7FF7CF8F3D09F0A2CF80916602A6
:101160008B7FF0CFA4E0B0E0E8EBF8E00C946024D3
:101170008FB7F8942091D9013091DA014091DB01C9
:101180005091DC0129833A834B835C838FBF698153
:101190007A818B819C812496E2E00C947C249C01D2
:1011A0004FB7F8948091D9019091DA01A091DB01B9
:1011B000B091DC014FBF821B930B08958091A70172
:1011C0000895FC019B0180919D0190919E018617DD
:1011D000970740F0672B29F48091E8008E77809381
:1011E000E800C90140E0009741F4411106C0809138
:1011F000E80082FF2FC080E008952091EE012223B5
:10120000A9F12530A9F12091E80023FD2DC02091FE
:10121000E80022FDECCF2091E80020FFE4CF3091E0
:10122000F3002091F200009719F02830310558F0B2
:1012300041E02830310509F040E02091E8002E77A8
:101240002093E800D0CF41914093F10001972F5FA8
:101250003F4FE9CF8091EE01882341F0853041F086
:101260008091E80083FFC3CF81E0089582E0089574
:1012700083E008958091970187FF13C08091E80073
:1012800082FF06C08091E8008B778093E80004C05D
:101290008091EE018111F2CF08958091EE018823B3
:1012A000D9F38091E80080FFF8CF8091E8008E7735
:1012B000ECCF2091E4003091E50095E6A901809102
:1012C000EC008170882331F08091E80080FF06C037
:1012D00080E008952091E80022FD1BC08091EE017E
:1012E000882391F0853091F08091EB0085FD10C04E
:1012F0002091E4003091E5004217530701F391502B
:101300009111DCCF84E0089582E0089583E0089590
:1013100081E00895E8EDF0E080818E7F8083109277
:10132000E2001092DA001092E100A0EEB0E08C91A1
:1013300081608C9380818F77808319BCA7EDB0E0AA
:101340008C918E7F8C9380818F7E8083109296010A
:101350000895FC01AC014C5F5F4F8FEF91E3219149
:10136000822728E030E087FF0BC0880F89272150B3
:10137000310921153105B9F7E417F50781F708950B
:10138000880FF5CF982FE42FE2709093E90089132E
:1013900008C0762F242F50E0E11111C091E0980F82
:1013A000F4CF7091EC002091ED005091F00021FD00
:1013B00006C09F5F973049F78093E9000895309108
:1013C000EB003E7F3093EB003091ED003D7F30939A
:1013D000ED003091EB0031603093EB007093EC0046
:1013E0002093ED005093F0002091EE0027FDE1CF17
:1013F0000895A0E0B0E0EFEFF9E00C945A24C8EDB6
:10140000D0E088818F7E8883E7EDF0E08081816085
:10141000808384E082BF81E08093960188818E7F03
:10142000888302EE10E0F80110821092DA0081EE5B
:10143000C82ED12CF601108288818F77888388810D
:101440008068888388818F7D888319BC1092EE0123
:10145000109295011092B8011092940190EEE92E2D
:10146000F12CF70180818B7F808388818160888364
:1014700042E060E080E00E94C209F60180818E7F38
:101480008083F8018081816080838081886080838F
:10149000F70180818E7F8083888180618883CDB7CA
:1014A000DEB7E8E00C9476248091EF01811110C042
:1014B0008091D80080618093D8008AE18A95F1F705
:1014C00000C08091D90080FF0AC081E08093EF01C5
:1014D00081E09091EF01913009F080E0089582E081
:1014E0008093EF010E948A091092EE01F1CF0E94D1
:1014F000540A882359F0E091F001F091F1013097FE
:1015000029F00190F081E02D0995089580E008957B
:101510000F931F93CF93DF93EB018A019091EE011C
:10152000943079F58093E9008FEF9091E80095FD74
:1015300007C095ED9A95F1F7000081508111F5CF24
:101540008091E80085FF1DC00E945909811114C0D7
:101550008091E80085FD06C08091E8008E77809339
:10156000E800F2CF88818093F10001501109011544
:10157000110511F02196ECCF8091E8008E778093D1
:10158000E800DF91CF911F910F910895CF93DF93E2
:10159000D82FC92F48E050E0682F792F81E00E94B2
:1015A000880A88E0ED2FFC2FAFE9B1E001900D92A1
:1015B0008A95E1F7DF91CF910895BC0146E050E0B4
:1015C00082E00E94880A0895BC0143E050E082E076
:1015D0000E94880A0895A0E0B0E0E1EFFAE00C94E0
:1015E0005824F82EE92EB62EA72E8A01809192015A
:1015F000CC24C394D12C8A3018F48AE0C82ED12C84
:10160000C1E0D0E06B2D7A2D8F2D9E2DF80109952C
:10161000811116C02196CC16DD0694F0CC9FC00136
:10162000CD9F900D900D112420E030E045E34A95C8
:10163000F1F700002F5F3F4F28173907B9F7E2CFC6
:10164000CDB7DEB7EAE00C9474249091780292FB57
:10165000222720F9281779F080FB92F990937802DD
:10166000609177027091780284E090E00E94E1241A
:1016700082E00E94FC0308958091700290917902AB
:10168000892B80937E0190917102992391F0892B8F
:1016900080937E0120E080E891E0FC01308101969A
:1016A00031112F5F31E086389307B9F721110E947D
:1016B000220448E050E062EF71E08EE791E00E9482
:1016C000F724892BA9F088E0EEE7F1E0A2EFB1E082
:1016D00001900D928A95E1F7E091F001F091F1010E
:1016E000309731F00280F381E02D8EE791E009958B
:1016F0000895882321F00E941A040E943C0B08954B
:10170000882341F080959091790289238093790212
:101710000E943C0B0895882339F090917002892B28
:10172000809370020E943C0B0895882339F09091B9
:101730007902892B809379020E943C0B0895CF9304
:10174000C82F8823A9F08CEF8C0F813A98F4E0E839
:10175000F1E08191C81709F440C021E0E638F207B2
:10176000C1F76C2F8EE791E00E949F070E943C0B0F
:10177000CF91089580E28C0F883068F4C77021E023
:1017800030E001C0220FCA95EAF780917002822BE7
:1017900080937002EBCF8BE58C0F833038F42C2FC5
:1017A0002452330BC9010E945307E2CFE8E5EC0F46
:1017B000E93150F4F0E0EE0FFF1FE75BFE4F808150
:1017C00091810E947907D4CF83E38C0F833180F617
:1017D00061E08C2F0E94ED07CBCF8C2F0E94EF038E
:1017E0000E943C0BBECF882381F19CEF980F913A69
:1017F00028F40E94EF030E943C0B089590E2980F9A
:10180000983050F4877091E001C0990F8A95EAF7FB
:10181000892F0E941A04EFCF9BE5980F933028F48C
:1018200080E090E00E945307089598E5980F993161
:1018300028F480E090E00E947907089593E3980FE0
:10184000933118F460E00E94ED0708950F931F9301
:10185000CF93DF93EC0100E010E0C99711F400E5AD
:1018600010E065E97BE0CE010E942F038C2F0E94DF
:101870009F0B0115110569F48C2F0E94F30B60E892
:101880007BE0CE010E942F03DF91CF911F910F913A
:1018900008958FE99FE00197F1F700C00000015023
:1018A0001109E7CF0F931F93CF93C82F00E010E0EB
:1018B000893311F400E510E08C2F0E949F0B011575
:1018C000110539F48C2F0E94F30BCF911F910F91CA
:1018D00008958FE99FE00197F1F700C000000150E3
:1018E0001109EDCF0F931F93CF93DF93C62FD42F02
:1018F000122F8823A9F060936E020E94B90790937B
:10190000910180939001C77081E001C0880FCA9552
:10191000EAF70E948B0BDF91CF911F910F910895F1
:1019200080916E02681332C0809190019091910174
:101930000E94CF08883C910548F5CD130CC0812F3B
:101940000E94520CD77081E001C0880FDA95EAF747
:101950000E94790BE0CFC77001E0802F01C0880F93
:10196000CA95EAF70E94790B80E28D0F883050F417
:101970008D2F877001C0000F8A95EAF7802F0E9493
:101980008B0BDDCF812F0E94520CC5CFC77081E039
:1019900001C0880FCA95EAF7DBCFA0E0B0E0E3ED25
:1019A000FCE00C945B248C01F8019491992309F4D8
:1019B000AAC0913009F048C0E8012196FE01849147
:1019C000813049F42196FE0184910E94520C8E01CF
:1019D0000F5F1F4FE9CF823039F4E8012296FE01F4
:1019E00084910E949F0BF3CF833039F4E801229653
:1019F000FE0184910E94F30BEACF843041F7E801A5
:101A00002296FE01849120E030E04AE0FE0131960A
:101A10008053990B8A30910560F021153105B9F298
:101A20008FE99FE00197F1F700C0000021503109D4
:101A3000F4CF429FB001439F700D11249C01260FEB
:101A4000371F8491EF01E2CFE92FF0E0E251FF4F21
:101A5000D490292F26952695269530E0F901E2525B
:101A6000FF4F84919770F901E253FF4FE490F12CFE
:101A7000092E02C0F594E7940A94E2F7E1E0EE2221
:101A8000FF24F901E254FF4FC491D0E0092E02C0B7
:101A9000D595C7950A94E2F7C170DD27E82FF0E0ED
:101AA00002C0F595E7959A95E2F7E0FD0DC0E114C7
:101AB000F104A9F48D2D0E94520CCD2B19F08CE26B
:101AC0000E94520CE80183CF81EE0E949F0BE1142B
:101AD000F10479F48D2D0E94520C81EE07C086EE40
:101AE0000E949F0B8D2D0E94520C86EE0E94F30BDC
:101AF000E4CF86EE0E949F0B8D2D0E94520C86EE45
:101B00000E94F30BEACFCDB7DEB7E7E00C94772461
:101B1000CF9310927002C6E0E0E8F1E0DF018C2F75
:101B20001D928A95E9F780E090E00E94530780E0DB
:101B300090E00E947907109279020E943C0BE7E640
:101B4000F2E0DF011D92CA95E9F71092650210924A
:101B50006402109266020E94C507CF9108950E9408
:101B6000880D2FEF84E39CE0215080409040E1F706
:101B700000C0000088E19CE00FB6F894A89580931F
:101B800060000FBE90936000FFCFA0E0B0E0EBECF0
:101B9000FDE00C945A248C01FC0190818181238109
:101BA0003481232B09F404C189238F3F09F400C138
:101BB00061E0C8010E945006EC01F8018281C53243
:101BC000F4E1DF0709F440C108F079C0C33332E023
:101BD000D30708F440C0C43294E1D90709F415C111
:101BE0008111BBC1F80186819781009709F4F1C288
:101BF0000E948F04D82FC92FF801D280C580C294CB
:101C00002FE0C2228091760287708823C1F0FD2CDC
:101C1000DD20B1F0892F807F803421F080E28D0FAC
:101C2000883068F08091780282FF09C082E00E94CB
:101C3000FC03809176028770FF24F3948111F12CCC
:101C4000EC2FE295EF70C03C08F041C3F0E0EE5D90
:101C5000FA4D0C949B24CF31E2E0DE0728F5CE321A
:101C6000D10509F40DC1C233D10509F41EC1882381
:101C700009F4B8CF10926E02C6312CE7D20709F0F2
:101C80006EC1809170028A7A91E0811101C090E06A
:101C900090936F0269E2811165E38EE791E00E9403
:101CA0009F070E943C0B74C0FE01EF51F240E431EB
:101CB000F10508F057C0E25DFA4D0C949B24C63341
:101CC000F0E4DF0709F483C068F5C83130E4D307D6
:101CD00009F452C078F0CD32E0E4DE0741F6F801B5
:101CE0009581903108F09AC0882309F47BCF8DE26A
:101CF00092E04CC0C430F0E4DF0709F45EC0C231AA
:101D000020E4D20709F463C081116DC1C631DC47FC
:101D100009F068CF80916F0281113BC289E20E9475
:101D2000EF03BFCFC03234E4D30709F4D4C0A8F422
:101D3000C733E0E4DE0709F454C0CF31F4E4DF0731
:101D400009F04ECFF8019581903108F067C08823E3
:101D500009F448CF8FE194E119C0C1152EE7D207ED
:101D600009F4C4C0FE01E851FC47E730F10560F614
:101D7000EE5BFA4D0C949B24F8019581903108F0AC
:101D80004DC0882309F42ECF8FE290E00E94260CEC
:101D9000809176028770882359F0F8018281882328
:101DA00039F08091780282FF03C082E00E94FC0338
:101DB000CDB7DEB7E8E00C947624F8019581903138
:101DC00068F5882309F40ECF84E390E0DFCFF801B3
:101DD0009581903118F5882309F404CF83E390E0CE
:101DE000D5CFF80195819031C8F4882309F4FACE53
:101DF00083E392E0CBCF882309F4F4CE84EE95E020
:101E00000E94CD0CF8018281EBCE882309F4EACE42
:101E10008EED95E00E94CD0CF8018281882309F4B3
:101E2000E1CE10926E02DECE882309F4DBCE88ED7F
:101E300095E0E6CF882309F4D5CE84ED95E00E94A5
:101E4000CD0CF801828113CF882309F4CBCE8EEC20
:101E500095E0E0CFF8019581903108F008CF882314
:101E600009F4C0CE88E094E191CFF80195819031DA
:101E700008F0FDCE882309F4B5CE84E694E186CF40
:101E8000F8019581903150F6882309F4ABCE8EE2AB
:101E900092E07CCFF8019581903108F0E8CE88235C
:101EA00009F4A0CE8DE294E171CFF80195819031D3
:101EB00008F0B4CF882309F495CE80E394E166CF8F
:101EC000F8019581903108F0D2CE882309F48ACEAA
:101ED00085E392E05BCFF8019581903108F09ECFC9
:101EE000882309F47FCE80E294E150CF882309F45F
:101EF00079CE80916D02882349F088EC95E00E94AC
:101F0000CD0C10926D028CEB95E084CF86EB95E0C2
:101F10000E94CD0C81E080936D028CEA95E07ACF2F
:101F200026E241EE61EE0E94720C32CF27E245EECE
:101F300065EEF9CF26E241EE60EEF5CF27E245EE01
:101F400064EEF1CF26E241EE62EEEDCF27E245EE00
:101F500066EEE9CF28E241E0EBCF10926E02CA357F
:101F60003CE7D30709F431C108F015C1C1309CE743
:101F7000D90709F428C1C330ECE7DE0709F41DC115
:101F8000C115DC4709F02ECE0E94880D8FEF94E337
:101F9000ECE081509040E040E1F700C0000081E0BB
:101FA0008093E00080E28093D8001092C9008FE116
:101FB0009EE40197F1F700C0000087E090EBDC01A0
:101FC0008093E9029093EA02A093EB02B093EC02B3
:101FD00088E19CE00FB6F894A895809360000FBE4E
:101FE00090936000FFCF10926E02CE0190578397BE
:101FF00008F042CE84E090E00E94BD2490937802E5
:1020000080937702FE01E150F047E232F10520F4BF
:10201000E75BFA4D0C949B2480917702816080935A
:102020007702609177027091780284E090E00E94DC
:10203000E1240E94880DACCE809178028860809364
:102040007802EFCF809177028260E9CF80917702AA
:102050008460E5CF809177028860E1CF809178023B
:102060008160EDCF809178028260E9CF8091770224
:102070008061D5CF809177028062D1CF8091770245
:102080008064CDCF0E94880D809177028068C7CF91
:10209000809177028C60C3CF809178028360CFCF2C
:1020A000809177028E7FBBCF80917802877FC7CFE8
:1020B000809177028D7FB3CF809177028B7FAFCFF6
:1020C00080917702877FABCF809178028E7FB7CFE8
:1020D000809178028D7FB3CF809177028F7E9FCFE2
:1020E000809177028F7D9BCF809177028F7B97CFF6
:1020F0000E94880D809177028F7791CF809177022F
:10210000837F8DCF809178028C7F99CF80917702E9
:1021100082FB992790F921E0922790FB82F990FBAE
:1021200083F97DCF80917802982F909591708E7F62
:10213000892B90FB81F983CF90917702892F8F7B38
:1021400096FF80646CCF0E94880D90917702892F52
:1021500097FB87F9805863CF61E08EE090E00E94A2
:10216000C3245FCF60E0F9CF90917702892F8F7EF3
:1021700094FF806154CF90917702892F8E7F90FFDA
:1021800081604DCF90917802892F877F93FF88607F
:1021900056CF85E3C4CDCB352CE7D207C1F0CC3583
:1021A000DC4709F01FCD8091780282FB882780F9F7
:1021B00091E089270E94250B15CD6FEF7FEF80E01E
:1021C00090E00E94E1240E94AF0D81E0F3CF80E017
:1021D000F1CF8281E080F180882369F0C7010E94FD
:1021E0001C06C82F682FC7010E948003B7018C2FDF
:1021F0000E942804FDCCC7010E94B303C82FF6CF6C
:10220000FC2FFF70EF2EC03118F0E29490EFE9221E
:10221000DD20B9F0EE2069F080E28D0F883010F0FB
:10222000D11109C0809170028E29809370020E94A2
:102230003C0B8D2F44C0809179028E2980937902C6
:10224000F6CF8D2F0E94F30BEE2009F440C080E200
:102250008D0F883010F0D11104C08E2D0E941A0409
:1022600006C0E094809179028E21809379020E94C9
:102270003C0B2DC02C2F2F70E22EC07FC03219F0E6
:10228000E29480EFE822DD2351F0D13009F461C0FF
:10229000DD2009F46BC0CC2009F461C0CACF2091C5
:1022A000780222FD30C0DD2069F0EE2039F0809107
:1022B00070028E29809370020E943C0B80E00E9485
:1022C0009F0B05C080E00E94F30BE110C6CFFF20FA
:1022D000A9F08091760280FD11C0F80112828595E7
:1022E000859585950E945E03C8010E94C50D809169
:1022F00076028595859585950E946E0360E0C801FC
:102300000E94500655CDDD2099F0909171028E2DDE
:10231000892BC11003C00E948B0BD9CF31E0C312AF
:10232000FACF22FFD4CF891791F280937102CFCFD9
:10233000C11006C00E9422048E2D0E94790BC7CFC7
:1023400081E0C81621F28E2D0E94790B0E94220492
:10235000BECFDD2031F095E09C1508F4B8CF8E2D6E
:10236000DACFE4E0EC1508F4B2CFE6CFCC2021F3CD
:10237000D93349F4FFEF27EE33E0F15020403040ED
:10238000E1F700C000008D2F0E94F30BA0CF8C2F2F
:10239000869586958370882369F0813009F097CF00
:1023A0008D2F9C2F9370D11002C080E090E00E948E
:1023B00079078DCF8D2F9C2F9370D11002C080E0B4
:1023C00090E00E94530783CF6D2D8D2F0E94ED0763
:1023D0007ECF8C2F8370811142C0D1102FC04D2F22
:1023E000429546954770440F440F2D2F2F7030E0D3
:1023F000042E02C0220F331F0A94E2F780E090E01F
:10240000D4FF09C08FE090E002C0880F991F4A9561
:10241000E2F780959095C695C695C370C230B1F02D
:10242000C33089F04091720250917302C13049F07B
:10243000822B932B842395230E944C030E94770ABE
:1024400046CF242B352B822B932BF6CF822B932B2D
:10245000209172023091730282279327EDCFDD2005
:1024600091F1C0FFEBCF4D2F429546954770440F39
:10247000440F2D2F2F7030E0042E02C0220F331F87
:102480000A94E2F780E090E0D4FF09C08FE090E08A
:1024900002C0880F991F4A95E2F780959095C695DE
:1024A000C695C370C230C1F0C33099F04091740238
:1024B00050917502C13059F0822B932B84239523C0
:1024C0000E945103BBCF823008F4B8CFCCCF242B6D
:1024D000352B822B932BF4CF822B932B20917402DC
:1024E0003091750282279327EBCFCF70DD2039F032
:1024F0008C2F0E945E038D2F0E948B0B9FCF8D2F00
:102500000E94790B8C2F0E946E0398CFD23FA1F1CD
:1025100078F4D03FC1F0D13F09F447C0DD2009F481
:102520006BC0CC2009F465C08D2F0E949F0B86CF15
:10253000D33F49F1D43FA9F1D110F3CFC1106AC004
:102540008C2F8F71E0CFDD20A1F084E08C1508F492
:1025500075CFCF7181E090E0FC0102C0EE0FFF1F4C
:10256000CA95E2F780917402909175028E279F2799
:10257000A7CFF5E0CF16EBCF8C2F8F71D110C3CF43
:102580000E945E035BCF80E090E0DD2009F498CFED
:10259000CF7181E090E002C0880F991FCA95E2F7E1
:1025A0008FCF8091780282FD06C08C2F8F71DD2045
:1025B00009F4A9CFE5CFDD2089F0CF718C2F0E94DF
:1025C0005E038091780282FF07C028E0C29FC001AD
:1025D00011248360809376028C2FD2CF81E00E94F9
:1025E000FC0331E03C1508F029CF82E00E94FC0397
:1025F00025CF8C2F8F71C4CFCC2009F4A1CFD93334
:1026000049F48FEF97EEE3E081509040E040E1F72E
:1026100000C000008D2F0E94F30B10CFCF93DF93EB
:1026200080914102803108F04CC080913E028823A5
:1026300009F447C08091FB012091FA0160913C02AE
:1026400030913D02C0913F02D0914002732F76231A
:102650002817B9F190E0209709F442C07F3F09F4B0
:102660003FC0FC0143E0EE0FFF1F4A95E1F7DF0199
:10267000A450BE4F11964C91119734132BC04C911E
:10268000461328C012964C91129741111DC0139603
:102690004D915C914C1B5D0B483C5105D8F48091E9
:1026A00041028F70806180934102EF5FFD4F808116
:1026B0008F70806180838CE392E00E94C50D0E9440
:1026C000E503DF91CF91089501968770992728132C
:1026D000C8CFF7CF0196877099272813BFCFF1CFC6
:1026E00001968770B5CF8F929F92AF92BF92DF9283
:1026F000EF92FF920F931F93CF93DF93CDB7DEB787
:102700002D970FB6F894DEBF0FBECDBF8C0185E0CC
:10271000F801DE01199601900D928A95E1F7F80112
:10272000F280A380B4808CE3882E82E0982E909172
:102730003C0220913D0240913F02509140024115E0
:10274000510509F43FC1822F89238F3F09F43AC113
:10275000D0903E02B501641B750BDD2009F4FDC06D
:1027600080914102683C710508F0CFC03181803111
:1027700008F080C0EF2C32131BC02081291318C031
:1027800040914202509143022681378142175307FC
:1027900079F4F1101BC08F70806180934102C401F5
:1027A0000E94C50D80914102F8018583E12C4FC044
:1027B00089859A85AB2881F0282F29232F3F61F046
:1027C000E091FB012091FA01FF20E9F080914102A4
:1027D000816080934102EACFFF2041F3F7CF4E2F73
:1027E00050E038E0E39FF0011124E450FE4F3181C6
:1027F000391306C03081381303C032813111D6CF6E
:10280000FA013196E770E213EACF89859A850E9432
:102810007406292F22952F70903248F49F709923C7
:1028200011F08823A1F0805E883088F004C0225F18
:102830002F70223028F0C8010E94C50DED2C07C072
:102840009F70992381F3F8019581903160F78E2D67
:102850002D960FB6F894DEBF0FBECDBFDF91CF919E
:102860001F910F91FF90EF90DF90BF90AF909F90DE
:102870008F90089532131BC02081291318C04091F6
:10288000420250914302268137814217530779F45F
:10289000F1100DC08583C8010E94C50D88E0F801C4
:1028A000ACE3B2E001900D928A95E1F72BC0C8012C
:1028B0000E948306882309F481C0FF2009F47EC0AA
:1028C000809141028032A0F020913C0230913D0283
:1028D0003A8329831B82BD82AC828E83809142021F
:1028E0009091430298878F83CE0101960E94C50D77
:1028F00088E0F801ACE3B2E001900D928A95E1F72F
:102900000E940E13EE24E394A2CF803150F48CE3A6
:1029100092E00E94C50D88E0F40111928A95E9F7D2
:1029200045CF31812313C3CF20812913C0CF4091DC
:10293000420250914302268137814217530709F022
:10294000B6CFF110B4CF8583C8010E94C50D88E0D1
:10295000F40111928A95E9F7D5CF683C7105D8F654
:10296000FF2061F1818128131FC0808189131CC061
:1029700020914202309143028681978128173907BE
:1029800099F48091410280FD89CF803108F486CF8F
:102990008583982F907F903F09F47DCF982F907F6B
:1029A000905F8F70892B76CFC8010E9483068111BA
:1029B0009FCF80914102816080934102C8010E94B3
:1029C000C50DA0CFFF20D1F3C8010E948306882344
:1029D000A9F388E0F801ACE3B2E001900D928A958A
:1029E000E1F780913C0290913D020E94740688CFED
:1029F000A0E1B0E0EEEFF4E10C94602429873A877F
:102A00004B875C876D877E878F87988BCE01099671
:102A10000E947313811131C088E0FE013996DE01F6
:102A2000119601900D928A95E1F789859A85A0917A
:102A3000FA012091FB014C855D85452BF1F089233E
:102A40008F3FD9F0B0E0CD0101968770992730E033
:102A500082179307E1F093E0AA0FBB1F9A95E1F765
:102A6000A450BE4F98E0FE01319601900D929A95C8
:102A7000E1F78093FA010E94E5038091FB019091B8
:102A8000FA01891312C06096E2E00C947C240E9443
:102A9000880D1092FA011092FB0188E0ECE3F2E05D
:102AA000DF011D928A95E9F7E8CFB8E08B9FC0015E
:102AB000112484509E4F0E947313882321F3809128
:102AC000FB0190E00196877099278093FB01D5CF99
:102AD0000F931F93CF93DF938091E602E091AC01B7
:102AE000CCE081113EC0DF91CF911F910F910895ED
:102AF000D1E0DE0FD093AC010E2F10E0CE9FF0019D
:102B00001124EA57FD4F83819481892B49F18081FB
:102B1000918189238F3F21F186819781892B21F42F
:102B200080859185019689F4C09FF001C19FF00DC9
:102B30001124EA57FD4F2081318142815381648104
:102B40007581868197810E94F814C09FF001C19F12
:102B5000F00D1124EA57FD4F14821382109279026E
:102B6000ED2F8091E602E81718F21092E60210921B
:102B7000AC01B9CFA0E0B0E0E0ECF5E10C9450245A
:102B8000C091850217E0AA24A394B12C2CE0222E38
:102B90000EEF809184028C1309C00E9468150E9478
:102BA0001A07CDB7DEB7E2E10C946C24D0E0FE0149
:102BB000EE0FFF1FE658FD4F80819181189FB001F5
:102BC000199F700D1124615D7E4FFB01248121113D
:102BD0005BC06090E602A6E8B2E040E050E0712CF5
:102BE000461508F04FC01A968D909C901B97FB01DC
:102BF000408051802FEF3FEF312CC32CD12CF601B8
:102C0000EE0FFF1FE40DF51DE590F4908E149F0468
:102C100009F49601E114F10411F03394EECF2F3F43
:102C20003207C9F1F50102C0EE0FFF1F2A95E2F746
:102C30007E2A9501032C02C0220F331F0A94E2F76B
:102C400021503109E72DF0E02E173F0701F5249EB2
:102C5000F001259EF00D1124EA57FD4F189FD00179
:102C6000199FB00D1124A15DBE4F12962D913C917C
:102C70001397378326830083018391878087F1E050
:102C80001596FC930E9427072196C37082CF149655
:102C90001C921E9213974F5F5F4F1C96A1CF10920C
:102CA000E8021092E70210922E0180918402809334
:102CB00085020E941A070E9468150895A5E1B0E0F8
:102CC000E4E6F6E10C945324942F498B252F5A8B7C
:102CD0006B8B7C8B8D8B4C895D8961111092790295
:102CE0001E861F86188A85E0FE017196DE01199600
:102CF00001900D928A95E1F7452B99F092239F3F21
:102D000081F061E0CE0109960E9450067C010B859E
:102D100080352CE7920781F4002309F181E080934C
:102D20002E0129853A854B855C856D857E858F854D
:102D300098890E94F814B4C081354CE7940729F4AF
:102D4000002369F00E944F16ECCF82359C4739F47E
:102D5000002329F080912E018111F4CFDFCF409123
:102D60002F0150913001CC24CA94DC2C20E0822F1A
:102D700090E0FC01EE0FFF1FE40FF51F65917491C9
:102D8000E616F70609F46C01672B11F02F5FEFCF01
:102D90007FEFC716D706A9F490918402809185022F
:102DA000002321F09091850280918402981332C112
:102DB0000E9468151092E8021092E7020E941A071A
:102DC000B0CF809133013091340160913501811190
:102DD000E1C010912E01112309F4F3C0002309F47E
:102DE000F0C0311116C081E090E00C2C01C0880FBA
:102DF0000A94EAF7862B80933501809182029091A4
:102E00008302C29730F482E390E090938302809330
:102E1000820281E090E002C0880F991F2A95E2F7B4
:102E200001972091350130E08217930769F4809172
:102E3000E7029091E8020097B9F10E94CF08C3978A
:102E400098F181E0809333010E94B9079093E802E2
:102E50008093E7028091E602883010F591E0980FA8
:102E60009093E60298E0FE013996DE0111960190FA
:102E70000D929A95E1F7FCE08F9FC00111248A57CB
:102E80009D4F28E0FE013196DC0101900D922A95BC
:102E9000E1F72FEF3FEFFC0131872087F386E286D1
:102EA0006596EFE00C946F24109185028091840266
:102EB00060912F0170913001912FE0E0F0E057E038
:102EC000752E66246394181314C090938502EF52F4
:102ED000F14009F4B9CF90E0FC01EE0FFF1FE65876
:102EE000FD4F11821082019683709927809384028E
:102EF000ABCF212F30E0F901EE0FFF1FE658FD4F59
:102F000040815181749ED001759EB00D1124A15D48
:102F1000BE4FCD90DC901197512C912C812CE82D37
:102F2000F0E0EE0FFF1FEC0DFD1D45915491411592
:102F3000510559F5552059F1EFE2F1E0981408F0E8
:102F4000FD01648241E0EF32F40709F4BECF911332
:102F500005C0AE17BF0711F49F5F93702F5F3F4FFF
:102F6000122F1370B0CF4A155B0509F4502E9394BD
:102F7000E92DF0E0EE0FFF1FE60FF71FA590B490CC
:102F8000A114B10481F78394CACF912CF1CFE0E072
:102F9000F0E0E4CF862F90E031113FC041E050E0F7
:102FA000FA0102C0EE0FFF1F2A95E2F79F012150A0
:102FB000310928173907C1F480E090E00E94270703
:102FC00013C0862F90E0311128C041E050E0FA0193
:102FD00002C0EE0FFF1F2A95E2F79F012150310931
:102FE0008217930709F465C081E090E00C2C01C0C2
:102FF000880F0A94EAF78095909135018923809390
:1030000035010111CFCE90918502809184029817ED
:1030100009F474C00E94BA1584CEAC010C2C02C015
:10302000559547950A94E2F79C0121503109822376
:103030009323892BE1F540FF3AC0809131019091B3
:103040003201892BD1F01B821C821D821E828EEFE1
:1030500089838A830E94B9078160582F692F9D83D5
:103060008C8380913101909132018F8398872981DF
:103070003A814B817E810E94F8141092340181E0E4
:1030800090E00C2C01C0880F0A94EAF7809590918B
:1030900035018923809335010111D6CE90918402A8
:1030A00080918502981701F10E94BA15F9CE142F6C
:1030B000117081E090E00C2C01C0880F0A94EAF7AF
:1030C0008095862380933501002319F01111BCCE21
:1030D00069CE9091850280918402981731F00E9408
:1030E000BA151111DDCE1DCE11E00E9468151092A7
:1030F000E8021092E7020E941A07F3CF10E0F5CF22
:10310000AAE2B0E0E6E8F8E10C945F2487E991E0F8
:10311000FC0101962091F100208321E08F39920774
:10312000B9F780919801893009F456C0C8F482300B
:1031300009F4B2C0833009F481C0813071F180910B
:10314000E80083FFE6C080919701909198019A3042
:1031500008F0DFC0E92FF0E0E559FA4D0C949B240C
:103160008A3009F488C08B3051F780919701813201
:1031700031F780919B0190919C01892B01F78091FF
:10318000E800877F8093E8000E943A0980919901C6
:10319000809300010E94880DD2CF80919701813ADF
:1031A00071F68091E800877F8093E80080919B0111
:1031B00090919C01892B61F060E080E090E070E0EC
:1031C0000E94E1088091E8008B778093E800B7CFF8
:1031D00068E08FE991E0F3CF80919701813209F0A7
:1031E000AECF80919B0190919C01029708F0A7CFF0
:1031F0008091E800877F8093E8008091E80082FF5B
:1032000018C09091F3008091F200029731F4809100
:10321000F100813011F0863021F48091F10080932B
:10322000A7018091E8008B778093E8000E943A091B
:1032300086CF8091EE018111E0CF81CF80919701FF
:10324000813A09F07CCF80919B0190919C01892B60
:1032500009F075CF8091E800877F8093E800809126
:10326000E80080FFFCCF809100018093F100809105
:10327000E8008E77D9CF80919701813209F05FCF36
:103280008091E800877F8093E8000E943A0980914E
:103290009A018093930153CF80919701813A09F06D
:1032A0004ECF8091E800877F8093E8008091E8000E
:1032B00080FFFCCF80919301D8CF803889F082388D
:1032C00041F580919B018F70873018F58093E9005C
:1032D0008091EB0085FB882780F91092E90006C0F9
:1032E000809194019091B801911182609091E800D1
:1032F000977F9093E8008093F1001092F100809105
:10330000E8008E7723C0811116C080919901813029
:1033100011F18091E80083FF0AC08091E800877F67
:103320008093E8008091EB0080628093EB00AA9686
:10333000E3E00C947B24823061F78091990188232B
:1033400089F01092E9008091E800877F8093E8007F
:103350000E943A09DECF81E0933009F080E080934B
:10336000B801EFCF80919B018F702FEF280F26308F
:1033700080F68093E9002091EB0020FFE2CF9330AC
:1033800031F48091EB0080628093EB00DACF909172
:10339000EB0090619093EB0021E030E0A90102C0C6
:1033A000440F551F8A95E2F74093EA001092EA0015
:1033B0008091EB008860E8CF8111ABCF109199012B
:1033C0001F778091E3008078812B8093E3008091C8
:1033D000E800877F8093E8000E943A098091E80026
:1033E00080FFFCCF8091E30080688093E30083E05E
:1033F000111101C082E08093EE018BCF80588230A2
:1034000008F087CF4091990150919A014C3D83E09B
:10341000580799F583E08A838AE289834FB7F89445
:10342000DE01139620E03EE051E2E32FF0E05093FE
:103430005700849120FF03C082958F703F5F8F708B
:103440008A30C8F0895C90E08D939D932F5F243182
:1034500061F74FBF8091E800877F8093E8006AE2C0
:1034600070E0CE0101960E94E1088091E8008B7720
:103470008093E8004ECF805DE6CF20919B01309194
:103480009C01852F99278330910509F160F48130E3
:10349000910509F472C0029709F03BCF8BE390E0ED
:1034A000E9E2F2E029C08132910509F45AC082971D
:1034B00009F02FCF2115310509F469C021303105FC
:1034C00009F027CF8BE790E0EEE6F1E015C0CA01E6
:1034D00099274130B1F18230910509F43AC0892B26
:1034E00009F017CFE8EAF2E0E4918E2F90E0E8EAE5
:1034F000F2E0009709F40DCF2091E800277F209398
:10350000E80020919D0130919E018217930708F4F5
:103510009C0140E02115310509F03EC041113CC03D
:103520008091E80082FDA1CF8091EE01882309F40B
:103530009CCF853009F499CF8091E80083FFF0CFCC
:1035400094CFEEE8F2E0E4918E2F90E0EEE8F2E026
:10355000D0CFE6E7F2E0E4918E2F90E0E6E7F2E0EC
:10356000C8CF2115310571F02130310509F0D1CED8
:1035700089E090E0E4E5F2E0BFCF82E190E0E4E6AC
:10358000F2E0BACF89E090E0EBE3F2E0B5CF80E47F
:1035900090E0E9EEF1E0B0CF8091EE01882309F4EC
:1035A00064CF853009F461CF8091E80083FD5DCF61
:1035B0008091E80082FDB4CF8091E80080FFAACF1F
:1035C0009091F3008091F2002115310519F08830B7
:1035D000910550F041E0089709F040E08091E80043
:1035E0008E778093E80096CF44914093F100319616
:1035F000215031090196E8CF803809F08ACE8091B8
:10360000E800877F8093E800809195018093F10026
:1036100076CE81117ECE10919901123008F079CECC
:103620008091E800877F8093E800109395010E94C5
:103630003A09112381F084E08093EE0142E061ECCD
:1036400081E00E94C20942E261EC82E00E94C2096C
:103650008091EE015ECE8091E30087FDECCF81E0AA
:10366000EBCFA0E1B0E0E7E3FBE10C9455241A8234
:103670001982FE01339686E0DF011D928A95E9F7F3
:1036800089E0A82E81E0B82E8E010F5F1F4F480100
:10369000EE24E394F12C29E0C22E21E0D22EF50194
:1036A00081915F018F3F09F441C0F894E82FE295C2
:1036B000EF70F0E021A18F70A70102C0440F551FE9
:1036C0008A95E2F7CA01922F982B91A392A1809537
:1036D000892382A3789400C0E1E0F1E031E0712C0D
:1036E00021912F3F09F465C0A22FA295AF70A05E73
:1036F000B0E08C9190E02F7002C0959587952A9547
:10370000E2F78170811155C0832F782A330FCE16CE
:10371000DF0631F7F501319780818F3F11F00E946C
:10372000B80650EA5A95F1F7D8017C920F5F1F4F07
:10373000BDE0AB16B1E0BB0609F0B1CF48E050E008
:10374000B4018DEA91E00E94F7240091B601892B23
:1037500091F188E0F401ADEAB1E001900D928A9513
:10376000E1F781E080938F010E94B90790938E0169
:1037700080938D0180918D0190918E010E94CF08E0
:103780000597E8F010E005541E4F44E050E06DEA64
:1037900071E0C8010E94F724892B41F084E0EDEA32
:1037A000F1E0D80101900D928A95E1F710928F0116
:1037B00006C080E0AACF80918F018111DBCF0E94EB
:1037C000540AE091B601882309F488C01A86198644
:1037D0001C861B860E2F10E005541E4F809192010F
:1037E0008A3008F044C07E01E9E0EE0EF11C48E2A8
:1037F0005DE1B701C8010E94EB0A6701882309F463
:103800005BC044EB5CE1B701C8010E94EB0A88236E
:1038100009F452C0109292018091B50190E044E009
:1038200050E0B60185549E4F0E94F72421E020937A
:103830008C01892B99F580916D028823A1F088EB8A
:1038400090E00E94CD0C8DEC0E94520C8EEC0E94F8
:10385000520C82EB90E00E94CD0C8FEC0E94520C37
:1038600080ED0E94520C6096EDE00C9471248091E2
:103870008A0190918B010E94CF08843F914008F00B
:10388000B2CF80918C018823B1F2FE01399684E099
:10389000DF011D928A95E9F710928C01E091B50144
:1038A000F0E0E554FE4F89859A85AB85BC85808321
:1038B0009183A283B383BFCF809192018F3F39F46C
:1038C0000E94B90790938B0180938A01DACF8F5FB2
:1038D000809392018A3008F49FCFF2CFF0E0E55454
:1038E000FE4F80819181A281B3818093DE0190930C
:1038F000DF01A093E001B093E1018EED91E00E9421
:10390000A9098093DD01C090E201D090E301E0902D
:10391000E401F090E5018091860190918701A091EA
:103920008801B0918901C816D906EA06FB0609F498
:103930009ACFC0928601D0928701E0928801F092DE
:1039400089010E94540A81118ECF0E94B208C61AC2
:10395000D70AE80AF90AC092D101D092D201E092C6
:10396000D301F092D4017FCFA8E0B0E0EAEBFCE114
:103970000C945F244091D5015091D6016091D701FC
:103980007091D8012FB7F8948091D9019091DA0104
:10399000A091DB01B091DC012FBF841B950BA60B1E
:1039A000B70B11E084369105A105B105A8F10E947D
:1039B000540A8823B1F10E94B208462F572FBC0148
:1039C0004E5F5F4F6F4F7F4F49835A836B837C837A
:1039D000809127019091280183529E4F20912601CA
:1039E000422F50E0253010F044E050E0BE016F5F00
:1039F0007F4F0E94042582E090E00E94DB23182F75
:103A0000882351F00E94B2086093D5017093D601CB
:103A10008093D7019093D801812F2896E3E00C94EE
:103A20007B240E94B2086D837E838F8398874091A8
:103A3000D1015091D2016091D3017091D4018D8157
:103A40009E81AF81B885480F591F6A1F7B1FB8CF71
:103A5000EF92FF921F93CF93DF9300D000D00F928D
:103A6000CDB7DEB77B0180E090E00E94DB23182F0A
:103A700081111AC010E08091E6019091E701A091B8
:103A8000E801B091E901F70180839183A283B383B8
:103A9000812F0F900F900F900F900F90DF91CF918B
:103AA0001F91FF90EF90089580911901482F50E0E9
:103AB000882311F041E050E060911A0170911B01E0
:103AC00063527E4FCE0105960E9404254091EA0183
:103AD0005091EB016091EC017091ED012FB7F894DA
:103AE0008091D9019091DA01A091DB01B091DC01C4
:103AF0002FBF841B950BA60BB70B84369105A10530
:103B0000B10538F48EED91E00E94A9099D818917D5
:103B1000B9F181E090E00E94DB23882309F4AACF69
:103B200080912101482F50E0853010F044E050E0B2
:103B3000609122017091230163527E4FCE01019664
:103B40000E9404258EED91E00E94A9099D818913B0
:103B500091CF0E94B2086093EA017093EB018093C9
:103B6000EC019093ED0189819A81AB81BC818093B6
:103B7000E6019093E701A093E801B093E9017BCFC0
:103B80008091DE019091DF01A091E001B091E1010F
:103B900089839A83AB83BC83E6CFCDB7DEB72A9700
:103BA0000FB6F894DEBF0FBECDBF85B7806885BF66
:103BB00085B7806885BF84B7877F84BF0FB6F894C8
:103BC000A8958091600088618093600010926000E9
:103BD0000FBE80E890E00FB6F89480936100909358
:103BE00061000FBE86EB96E090937D0180937C018F
:103BF0000E948A090E94F9098091E2008460809302
:103C0000E20078948091EE01882399F08091E90098
:103C10001091EC001795112717958F70182B1092A3
:103C2000E9008091E80083FD0E9480181F701093C6
:103C3000E90082E084BD93E095BD9AEF97BD809343
:103C40006E001092D1011092D2011092D301109205
:103C5000D40123982B9A6E9A769825E02A95F1F74D
:103C6000000083B183FB882780F96E98769A40EA3A
:103C70004A95F1F780930D010E94540A81110E9428
:103C8000ED2280910D0181111EC084E9809309010C
:103C900086E680930A0187E980930B0186EC809386
:103CA0000C0188E0E6E3F1E0DE01119601900D924F
:103CB0008A95E1F788E0FE013196A1E0B1E001903C
:103CC0000D928A95E1F780910D0191E08927880F87
:103CD000880F8093B60194E0981B9093B50109E09A
:103CE00011E0D8018D918D018F3F11F00E94B8062F
:103CF000B1E00D301B07A9F701E011E0F801819157
:103D00008F018F3F11F00E94B806F1E009301F07C4
:103D1000A9F788E0EBEBF1E0DF01282F1D922A954F
:103D2000E9F7EDEAF1E0DF011D928A95E9F780E01D
:103D300090E00E94BD24873E9E4F09F45EC067EE6E
:103D40007EEF80E090E00E94E12460E082E090E07D
:103D50000E94C32460E083E090E00E94C32410929C
:103D600073021092720260E074E184E090E00E94BD
:103D7000E12460E086E090E00E94C3246FEF87E0DA
:103D800090E00E94C32440E050E0BA0188E090E057
:103D90000E94D52460E08DE090E00E94C32440E0C2
:103DA00050E0BA0188E190E00E94D52460E087E10C
:103DB00090E00E94C32440E050E0BA018CE190E022
:103DC0000E94D52460E070E080E290E00E94E1244F
:103DD00040E050E0BA0188E190E00E94D52440E044
:103DE00050E0BA018FE090E00E94D52440E050E01E
:103DF000BA0183E190E00E94D52482E090E00E9425
:103E0000B5248093C30184E090E00E94BD24909388
:103E100078028093770283E090E00E94B52490E0DE
:103E20000E944C030E94540A811102C00E94F02299
:103E30008EE091E09093F1018093F0012CECA22EA2
:103E400021E0B22ECE01019638E1832E912C898794
:103E50009A878091EE01853049F48091EE0185309A
:103E600009F45FC00E94880D0E94770A0E94311BEE
:103E700004EC11E08BEBC82E81E0D82E9FE3E92EF5
:103E800091E0F92EB7019601F8019191D9018D9138
:103E90009D01DB014D91BD018423AE16BF0609F4DF
:103EA00093C0981791F30E94540A282E612CF601B2
:103EB00071906F01D7018D917D017822F8013190C9
:103EC0008F01371439F13724512C44244394842D25
:103ED00083218823B9F02220A9F059826A8291E0D7
:103EE000842D8721811101C090E09B830E94B90736
:103EF0008160782F9D838C8349815A816B81892FC2
:103F00000E945E165394440CF8E05F12E0CFF80173
:103F100031977082639428E06212C9CF0E94B20880
:103F200073C08091EE01843011F11092B701E0E48A
:103F30000FB6F894A895809260000FBEE0936000E1
:103F400083B7817F846083BF83B7816083BF7894A8
:103F5000889583B78E7F83BF0FB6F894A89580911C
:103F60006000886180936000109260000FBE8091B5
:103F7000B801882309F471CF0E94311BEBEBF1E00B
:103F8000AFE3B1E081919D918923811105C021E0CA
:103F9000E33CF207B9F761CF80E189BD82E189BDD9
:103FA00009B400FEFDCF8091D8008F7D8093D800AA
:103FB0008091E00082608093E0008091E00081FDCC
:103FC000FCCF0E94880D49CF98136DCF0E94B9078E
:103FD0008C018091B9019091BA0108171907A1F0DD
:103FE0008FEF89838A831B820E94B9078160782FB3
:103FF0009D838C8349815A816B81892F0E945E1633
:104000001093BA010093B9010E94540A882321F148
:1040100080912E01882301F18091E7029091E802BE
:104020000097D1F00E94CF08209182023091830244
:104030002817390788F49091850280918402981797
:1040400009F46EC00E94BA15109283021092820287
:104050001092E8021092E70286E0E7E6F2E0A98516
:10406000BA8501900D928A95E1F71092690210923B
:104070006A0210926B0210926C028B819C81892BD8
:10408000882371F08091CE019091CF010E94CF08DA
:104090009C018091650281114CC0232B09F04FC017
:1040A0008D819E81892B882371F08091CC01909124
:1040B000CD010E94CF089C018091640281117FC0D4
:1040C000232B09F082C046E050E069857A8587E6B7
:1040D00092E00E94F724892B61F48091690290910B
:1040E0006A02892B90916B02892B90916C02892B2B
:1040F00081110E94C50786E0E985FA85A7E6B2E04E
:1041000001900D928A95E1F70E94770A9091D00173
:10411000891709F49ECE8093D0010E94B20899CEEF
:104120000E9468151092E8021092E7020E941A0796
:1041300093CF2131310508F4B3CF8F3F19F08F5F52
:10414000809365021B81112359F00E94D10691E0F2
:1041500011160CF09FEF899F802D11248093690226
:104160001C81112359F00E94D10691E011160CF028
:104170009FEF899F802D112480936A0230916902FC
:10418000332309F48DCF20916A02222309F488CFCA
:1041900045EB3403C0011124892F911101C081E046
:1041A0008093690245EB240390011124332319F015
:1041B00030936A0275CF81E080936A0271CF213516
:1041C000310508F480CF8F3F19F08F5F8093640230
:1041D0001D81112359F00E94F50691E011160CF093
:1041E0009FEF899F802D112480936B021E811123E4
:1041F00059F00E94F50691E011160CF09FEF899F8F
:10420000802D112480936C0230916B02332309F4CA
:104210005ACF20916C02222309F455CF45EB340389
:10422000C0011124892F911101C081E080936B029C
:1042300045EB240390011124332319F030936C02D1
:1042400042CF81E080936C023ECF1F921FB61F9237
:1042500011248F939F93AF93BF938091B7018111E6
:1042600013C08091D9019091DA01A091DB01B09146
:10427000DC014196A11DB11D8093D9019093DA0113
:10428000A093DB01B093DC01BF91AF919F918F911F
:104290001F901FBE1F90189578941F921FB61F92F3
:1042A00011248F939F93AF93BF938091D9019091E5
:1042B000DA01A091DB01B091DC010196A11DB11DD5
:1042C0008093D9019093DA01A093DB01B093DC01D4
:1042D000BF91AF919F918F911F901FBE1F90189516
:1042E0001F920F920FB60F9211242F933F934F936B
:1042F0005F936F937F938F939F93AF93BF93EF934E
:10430000FF938091E10082FF09C08091E20082FF6B
:1043100005C08091E1008B7F8093E1008091DA00FD
:1043200080FF24C08091D80080FF20C08091DA00F7
:104330008E7F8093DA008091D90080FF9BC080E15E
:1043400089BD82E189BD09B400FEFDCF81E0809383
:10435000EE0180919601811109C00E948A090E9494
:10436000F9098091E20084608093E2008091E1008D
:1043700080FF17C08091E20080FF13C08091E200AF
:104380008E7F8093E2008091E20080618093E20062
:104390008091D80080628093D80019BC85E080931A
:1043A000EE018091E10084FF29C08091E20084FF4A
:1043B00025C080E189BD82E189BD09B400FEFDCF41
:1043C0008091D8008F7D8093D8008091E1008F7E0E
:1043D0008093E1008091E2008F7E8093E2008091E3
:1043E000E20081608093E20080919501882309F4C6
:1043F00047C084E08093EE018091EE018091E1005E
:1044000083FF27C08091E20083FF23C08091E100F9
:10441000877F8093E10082E08093EE011092950106
:104420008091E1008E7F8093E1008091E2008E7F99
:104430008093E2008091E20080618093E20042E09C
:1044400060E080E00E94C2098091F0008860809363
:10445000F000FF91EF91BF91AF919F918F917F916C
:104460006F915F914F913F912F910F900FBE0F90E1
:104470001F90189519BC1092EE011092960176CFFC
:104480008091E30087FF02C083E0B4CF81E0B2CF28
:104490001F920F920FB60F921124FF920F931F934A
:1044A0002F933F934F935F936F937F938F939F933C
:1044B000AF93BF93CF93DF93EF93FF9309EE10E099
:1044C000F8018081C091EC00C795CC27C7958F700B
:1044D000FC2EF82A1082C0EFD0E08881877F888385
:1044E00078940E948018F8011082888188608883FF
:1044F000CF2DCF70C083FF91EF91DF91CF91BF910E
:10450000AF919F918F917F916F915F914F913F916B
:104510002F911F910F91FF900F900FBE0F901F9042
:1045200018958EE14A9B03C081508111FBCF4A9BB5
:10453000FECF08955A9880E28A95F1F75A9A089525
:10454000FC013BE03A95F1F798E020E080E031E0B3
:1045500040E14A95F1F7880F4A9B02C0816023270A
:1045600042E04A95F1F7000040E14A95F1F7915099
:104570009111EECF90E19A95F1F799B132E03A9529
:10458000F1F7000040E14A95F1F792FB992790F985
:1045900092272081920F90830895A1E0B0E0E3ED8F
:1045A000F2E20C945C2419828C017C01E60EF11C71
:1045B0000E151F0541F481E09981911180E021964B
:1045C000E6E00C9478240E949122CE0101960E948C
:1045D000A022F80181938F01EBCF529A5A9A089545
:1045E00052985A9AEA9AE9E6F0E080818F7C8083BB
:1045F00008956150770B91E001C0990F6A95EAF731
:10460000692F90E021E0611108C0992399F05A9A2E
:1046100080E28A95F1F75A980895362F382333238C
:1046200039F05A9A922730E23A95F1F76695EBCF36
:104630005A98F9CF5A98ECCFFF920F931F93CF93CC
:10464000DF93EC018C01060F111DC017D10729F46F
:10465000CDB7DEB7E5E00C947924F9900E949A2258
:1046600068E08F2D0E94F922F0CF1F920F920FB6B3
:104670000F9211240F931F932F933F934F935F93A8
:104680006F937F938F939F93AF93BF93EF93FF931A
:10469000CF93DF930F92CDB7DEB719820E9491229C
:1046A000CE0101960E94A022082F06950695069538
:1046B000982F92959570202F2570920F292F237097
:1046C00096959695920F982797708981892B8111DD
:1046D0005CC0043008F059C080E18A95F1F75A9A1D
:1046E000529A82E08A95F1F700C05A9888E0089FB4
:1046F00080011124D801AA5EBE4F1696ED91FC915F
:1047000017973097A9F0609147017091480114966E
:104710002D913C911597260F371F11968D919C91E5
:104720001297680F791F13964C9113978C910995E6
:10473000F801EA5EFE4F6381662351F02091470144
:104740003091480184819581820F931F0E941C2320
:104750000E949A2280E18A95F1F75A9852985A9AC3
:1047600080E18A95F1F7F801EA5EFE4F60816623E9
:1047700051F0209147013091480181819281820F4F
:10478000931F0E94CD220E9491220F90DF91CF9122
:10479000FF91EF91BF91AF919F918F917F916F9119
:1047A0005F914F913F912F911F910F910F900FBEED
:1047B0000F901F9018950F931F93CF93DF938C0149
:1047C00004970CF065C0F894529A5A9885E08A953F
:1047D000F1F70000C02FC695C570802F8570C80FF7
:1047E0008C2F8370C695C69593E0000F111F9A9584
:1047F000E1F7C80FC8018C2BEC010E949A2200C07F
:1048000068E08C2F0E94F92290E19A95F1F7529876
:104810005A9A4A9B35C087E090E04A9933C0F80124
:10482000EA5EFE4F6381662361F02091470130917B
:10483000480184819581820F931F0E94CD22882395
:1048400021F10E94912280E28A95F1F75A98529ABA
:1048500090E19A95F1F7F801EA5EFE4F60816623D8
:1048600051F0209147013091480181819281820F5E
:10487000931F0E941C230E949A22789481E009C011
:1048800000C0C7CF0197009749F4529A5A9A78947A
:1048900080E0DF91CF911F910F91089500C0BDCFAF
:1048A0002F923F924F925F926F927F928F929F9240
:1048B000AF92BF92CF92DF92EF92FF920F931F932E
:1048C000CF93DF93CDB7DEB7CA1BDB0B0FB6F894DF
:1048D000DEBF0FBECDBF09942A88398848885F841F
:1048E0006E847D848C849B84AA84B984C884DF8090
:1048F000EE80FD800C811B81AA81B981CE0FD11D74
:104900000FB6F894DEBF0FBECDBFED01089597FB43
:10491000072E16F4009407D077FD09D00E94A12439
:1049200007FC05D03EF4909581959F4F08957095B2
:1049300061957F4F0895EE0FFF1F0590F491E02DD4
:104940000994AA1BBB1B51E107C0AA1FBB1FA617D6
:10495000B70710F0A61BB70B881F991F5A95A9F728
:1049600080959095BC01CD010895F999FECF92BD37
:1049700081BDF89A992780B50895A8E1B0E042E09A
:1049800050E00C94E924262FF999FECF92BD81BD09
:10499000F89A019700B4021639F01FBA20BD0FB67D
:1049A000F894FA9AF99A0FBE08950396272F0E9459
:1049B000C4240E94C324252F0E94C424242F0C94B5
:1049C000C4240196272F0E94C4240C94C324DC0124
:1049D000CB01FC01F999FECF06C0F2BDE1BDF89A0A
:1049E000319600B40D9241505040B8F70895FB0144
:1049F000DC0104C08D910190801921F44150504098
:104A0000C8F7881B990B0895FB01DC0102C00190D7
:104A10000D9241505040D8F70895F894FFCFF90710
:104A2000010804080A081F081F081F081F081F089C
:104A30001F081F081F080D08120816081C082D085B
:104A400033083708001100113A113A11C711E41167
:104A500067116711E9117512861286121A0F600F1D
:104A60002A0FB20E350F4A0FFB0EB20EB20EB20E67
:104A7000B20EB20EB20EB20EB20EB20EB20EB20E36
:104A8000B20E140F9A0F9E0F900F960FA20FA60F43
:104A9000AA0F5010BB105810221026105C102A10BC
:104AA00060106C103610B4103A1070103E10741074
:104AB0009C1042107810A31048107E1086102E1003
:104AC0006410321068104C1082109210AC10B210AA
:104AD0001C105410C2105D19831989198319891982
:0A4AE000DC19FE198919FC1A091BE4
:104AEA000132363534C6976694F6F7313301DE085B
:104AFA00C60ADD0AE40A0000000100000000000006
:104B0A00000401000000040500000000000001ACE0
:104B1A00004C00000000343536323331F7F600FC21
:104B2A00FCFF2FFCFCFF2FDD01E200E900EA00B5E3
:104B3A0000B600B700CD008301CC008A019201942F
:104B4A00012102230224022502260227022A02B395
:0C4B5A0000B4006F0070009F01CB010050
:00000001FF
