:100000000C944F090C9487090C9487090C941433B1
:100010000C9487090C9487090C9487090C94870920
:100020000C9487090C9487090C9454300C942C314F
:100030000C94E6180C9487090C9487090C94870992
:100040000C9487090C9487090C9487090C948709F0
:100050000C9487090C9430300C9487090C94870910
:100060000C9487090C9487090C9487090C948709D0
:100070000C9487090C9487090C9487090C948709C0
:100080000C9487090C9487090C9487090C948709B0
:100090000C9487090C9487090C9487090C948709A0
:1000A0000C9487090C9487090C9487090104333058
:1000B0007C00010431307C0000AF00AE07087F08EF
:1000C00007003E5B4F5B3E003E6B4F6B3E001C3EAD
:1000D0007C3E1C00183C7E3C18001C577D571C00C1
:1000E0001C5E7F5E1C0000183C180000FFE7C3E7A1
:1000F000FF00001824180000FFE7DBE7FF0030488E
:100100003A060E00262979292600407F05050700BA
:10011000407F05253F005A3CE73C5A007F3E1C1CAF
:100120000800081C1C3E7F0014227F2214005F5F21
:10013000005F5F0006097F017F00006689956A0005
:1001400060606060600094A2FFA2940008047E04D6
:10015000080010207E20100008082A1C0800081C37
:100160002A0808001E10101010000C1E0C1E0C0097
:1001700030383E383000060E3E0E0600000000000B
:10018000000000005F000000000700070000147F6F
:10019000147F1400242A7F2A1200231308646200AB
:1001A000364956205000000807030000001C224179
:1001B00000000041221C00002A1C7F1C2A000808A5
:1001C0003E08080000807030000008080808080099
:1001D0000000606000002010080402003E51494504
:1001E0003E0000427F4000007249494946002141DB
:1001F000494D33001814127F10002745454539003A
:100200003C4A494931004121110907003649494911
:100210003600464949291E00000014000000004035
:1002200034000000000814224100141414141400B7
:100230000041221408000201590906003E415D599F
:100240004E007C1211127C007F49494936003E4124
:10025000414122007F4141413E007F4949494100DF
:100260007F09090901003E41415173007F080808D8
:100270007F0000417F4100002040413F01007F0896
:10028000142241007F40404040007F021C027F005A
:100290007F0408107F003E4141413E007F0909096B
:1002A00006003E4151215E007F091929460026497A
:1002B0004949320003017F0103003F4040403F00B5
:1002C0001F2040201F003F4038403F0063140814A7
:1002D00063000304780403006159494D4300007F23
:1002E00041414100020408102000004141417F00CB
:1002F000040201020400404040404000000307089F
:1003000000002054547840007F284444380038448A
:1003100044442800384444287F003854545418007A
:1003200000087E09020018A4A49C78007F08040439
:10033000780000447D4000002040403D00007F10D8
:100340002844000000417F4000007C0478047800CD
:100350007C0804047800384444443800FC18242401
:10036000180018242418FC007C08040408004854D1
:100370005454240004043F4424003C4040207C00AA
:100380001C2040201C003C4030403C0044281028E9
:1003900044004C9090907C004464544C440000080D
:1003A00036410000000077000000004136080000E0
:1003B0000201020402003C2623263C00000000004B
:1003C0000000404040F0F8F8FF38FFF8F83FF8F838
:1003D000FF38FFF8F8F040404000000000000080C7
:1003E000C0C0C0800000C0C08000000080C0C0004D
:1003F000C0C0000080C0C00000000000C0C0C0C07D
:10040000C000C0C0000000000000000000000000AC
:1004100000000000000000000000000000000000DC
:1004200000000000000000000000000000000000CC
:100430000000000000000000000000C0F0F8FC3EDA
:100440001E06010000007F4141417F007F41414184
:100450007F000080C0E07E5B4F5BFEC00000C000FC
:10046000DCD7DEDEDED7DC00C000000000000000CC
:10047000000000000000000000000000000000007C
:100480000000494949FFFFFFFFE0DFBFBF00BFBFDA
:10049000DFE0FFFFFFFF49494900000000001F3F68
:1004A0006060E0BF1F007F7F071E381E077F7F0050
:1004B0007F7F0E1F3B716000000000007F7F0C0CEF
:1004C0000C007E7E007F7E0303007F7E03037E7E22
:1004D00003037F7E000F3E703C063C703E0F0032EF
:1004E0007B49493F7E007F7E0303001E3F69696FA1
:1004F0002600000000000000000000030F1F3F3C2A
:100500007870600000007F4141417F007F414141A0
:100510007F00307B7F7830202030787F3B000300E5
:100520000F7F0F0F0F7F0F0003000000000000007F
:1005300000000000000000000000000000000000BB
:100540000000010101070F0F7F0F7F0F0F7E0F0FBC
:100550007F0F7F0F0F070101010000000000000066
:100560000000000101000000000000000000000089
:10057000000000000000000000000000000000007B
:10058000000000000000000000000000000000006B
:10059000000000000000000000000000000000005B
:1005A000000000000000000000000000000000004B
:1005B000000000000000000000000000000000003B
:1005C000000000000000000000000000000000002B
:1005D000000000000000000000000000000000001B
:1005E000000000000000000000000000000000000B
:1005F00000000000000000000000000000000000FB
:1006000000000000000000000000000000000000EA
:1006100000000000000000000000000000000000DA
:100620007E0F00D4FFFFFFC700000078000000002D
:10063000000000002A2B280000000000000000003D
:100640000000000000000029000000002C1E3420E3
:10065000212224342627252E362D3738271E1F2009
:100660002122232425263333362E37381F0405064E
:100670000708090A0B0C0D0E0F1011121314151692
:100680001718191A1B1C1D2F3130232D3504050690
:100690000708090A0B0C0D0E0F1011121314151672
:1006A0001718191A1B1C1D2F3130354C0501090272
:1006B000A10185020901A1000509190129081500F8
:1006C000250195087501810205010930093115815F
:1006D000257F95027508810609381581257F9501CA
:1006E00075088106050C0A38021581257F9501756C
:1006F000088106C0C005010980A101850319012AEE
:10070000B700150126B700950175108100C0050CD2
:100710000901A101850419012AA002150126A002E0
:10072000950175108100C005010906A10105071991
:10073000E029E715002501950875018102950175ED
:100740000881010507190029FF150026FF009506FD
:1007500075088100050819012905950575019102A3
:10076000950175039101C009023B00020100A0FA46
:100770000904000001030101000921110100012207
:10078000400007058103080001090401000103007E
:100790000000092111010001227B000705820320CE
:1007A000000112010002000000081D8D9D9D020045
:1007B0000102000116034B0079007200690061001C
:1007C0002000720065007600320000001003730004
:1007D00070006C00690074006B006200000004038C
:1007E00009042223252628292A2C2D2F303233359F
:1007F00036383A3B3D3E4042434547494A4C4E50CD
:1008000051535557595A5C5E6062646668696B6DF6
:100810006F71737577797B7D7F81838587898A8CFA
:100820008E90929496989A9C9E9FA1A3A5A7A8AA01
:10083000ACAEAFB1B3B4B6B8B9BBBCBEBFC1C2C336
:10084000C5C6C7C9CACBCCCDCED0D1D2D2D3D4D5D0
:10085000D6D7D7D8D9D9DADADBDBDBDCDCDCDCDCF9
:10086000DDDDDDDDDCDCDCDCDCDBDBDBDADAD9D9D1
:10087000D8D7D7D6D5D4D3D2D2D1D0CECDCCCBCA5F
:10088000C9C7C6C5C3C2C1BFBEBCBBB9B8B6B4B385
:10089000B1AFAEACAAA8A7A5A3A19F9E9C9A98961B
:1008A0009492908E8C8A89878583817F7D7B7977EE
:1008B0007573716F6D6B6968666462605E5C5A59CE
:1008C00057555351504E4C4A4947454342403E3D8F
:1008D0003B3A3836353332302F2D2C2A292826251D
:1008E0002322FFAA7F5540000101010101010101FE
:1008F00001020202020202020202030303030303D3
:1009000003030404040404040405050505050606A0
:10091000060606070707070708080808090909095E
:100920000A0A0A0B0B0B0C0C0C0D0D0D0E0E0E0F04
:100930000F0F101011111112121313141415151694
:10094000161717181819191A1A1B1B1C1D1D1E1E05
:100950001F20202122222324242526262728292956
:100960002A2B2C2D2D2E2F30313232333435363781
:1009700038393A3B3C3D3E3F40414243444546477F
:1009800048494A4C4D4E4F50515354555658595A58
:100990005B5D5E5F616264656668696B6C6D6F70FC
:1009A00072737577787A7B7D7E8082838587888A6B
:1009B0008C8E8F91939596989A9C9EA0A2A3A5A7A2
:1009C000A9ABADAFB1B3B5B7BABCBEC0C2C4C6C99E
:1009D000CBCDCFD1D4D6D8DBDDDFE2E4E7E9EBEE57
:1009E000F0F3F5F8FAFDFF00DA1281FFD9F1DB2010
:1009F000A4A62EAF00A0C000A1C800AED580A83F1D
:100A0000D300408D14200000047F3F1F6432146423
:100A10003214783C1E1E140A05000000000000007D
:100A20000000000000008080C0E0F07078383C1CBE
:100A30001E0E0E0E0707070707070707070707071A
:100A4000070707070E0E0E1E1C3C387870F0E0C03A
:100A50008080000000000000000000000000000096
:100A60000000000000000000000000000000000086
:100A70000000000000000000000000000000000076
:100A80000000000000000000000000000000000066
:100A90000000000000000000000000000000000056
:100AA000C0E0F07C3E1F0F07030180C0E0F0783803
:100AB0003C1C1E0E0E070787E77F1FFFFF1F7FE707
:100AC0008707070E0E1E1C3C3878F0E0C08001033B
:100AD000070F1F3E7CF0E0C0000000000000000097
:100AE0000000000000000000000000000000000006
:100AF00000000000000000000000000000000000F6
:100B000000000000000000000000000000000000E5
:100B100000000000000000000000000000F0FCFFEA
:100B20001F07010000C0F0FCFEFFF7F3B1B030304A
:100B3000303030303078FE87010000FFFF000001C8
:100B400087FE7830303030303030B0B1F3F7FFFE10
:100B5000FCF0C0000001071FFFFCF00000000000D7
:100B60000000000000000000000000000000000085
:100B70000000000000000000000000000000000075
:100B80000000000000000000000000000000000065
:100B9000000000000000000000000000FFFFFF0058
:100BA00000000000FEFFFF0101071E78E181838342
:100BB00086868C8C9898B1B7FEF8E0FFFFE0F8FECF
:100BC000B7B198988C8C8686838381E1781E070163
:100BD00001FFFFFE0000000000FFFFFF000000001B
:100BE000FFFF0000C0C030300000F0F00000000047
:100BF0000000F0F00000F0F0C0C030303030C0C075
:100C000000003030F3F300000000000030303030DE
:100C10003030C0C00000000000000000FFFFFF00F7
:100C2000000000007FFFFF8080E0781E8781C1C147
:100C30006161313119198DED7F1F07FFFF071F7F9C
:100C4000ED8D191931316161C1C181871E78E08054
:100C500080FFFF7F0000000000FFFFFF000000009A
:100C60003F3F03030C0C30300000000033333333BC
:100C700033330F0F00003F3F000000000000000072
:100C8000000030303F3F303000000C0C3333333342
:100C900033333F3F0000000000000000000F3FFF23
:100CA000F8E0800000030F3F7FFFEFCF8D0D0C0CAD
:100CB0000C0C0C0C0C1E7FE1800000FFFF0000807C
:100CC000E17F1E0C0C0C0C0C0C0C0D8DCFEFFF7F7C
:100CD0003F0F03000080E0F8FF3F0F00000000001E
:100CE0000000000000000000000000000000000004
:100CF00000000000000000000000000000000000F4
:100D000000000000000000000000000000000000E3
:100D100000000000000000000000000000000000D3
:100D200003070F3E7CF8F0E0C0800103070F1E1C94
:100D30003C38787070E0E0E1E7FEF8FFFFF8FEE78E
:100D4000E1E0E0707078383C1C1E0F07030180C0A2
:100D5000E0F0F87C3E0F07030000000000000000F8
:100D60000000000000000000000000000000000083
:100D70000000000000000000000000000000000073
:100D80000000000000000000000000000000000063
:100D90000000000000000000000000000000000053
:100DA000000000000000010103070F0E1E1C3C386C
:100DB00078707070E0E0E0E0E0E0E0E0E0E0E0E0EB
:100DC000E0E0E0E070707078383C1C1E0E0F070306
:100DD0000101000000000000000000000000000011
:100DE0000000000000000000000000000000000003
:100DF00000000000000000000000000000000000F3
:100E000000000000000000000000000000000000E2
:100E100000000000000000000020202020202020F2
:100E2000005343524C434B20002020202020202000
:100E3000004341504C434B20002020202020202004
:100E4000004E554D4C434B2000556E646566696EEF
:100E500065640A0041646A7573740A0046756E63BE
:100E600074696F6E0A0053796D0A004E61760A004C
:100E7000436F6C656D616B2D44480A0044766F7258
:100E8000616B0A005157455254590A004C6179650B
:100E9000723A2000726576320A0A004B79726961F3
:100EA0002000808182838485868788898A8B8C8DC7
:100EB0008E8F9091929394A0A1A2A3A4A5A6A7A877
:100EC000A9AAABACADAEAFB0B1B2B3B4C0C1C2C3EE
:100ED000C4C5C6C7C8C9CACBCCCDCECFD0D1D2D35A
:100EE000D400000000000500130009001A001400DF
:100EF0002B44000000000A4517211624152804225F
:100F0000E100294429451900074406001B001C0084
:100F1000E00028452C44E200E3000000AE000000A1
:100F20000000000000000D000F0018001D0033003D
:100F30002F34000000001045112108240C28123223
:100F400034323E453E440E000B4436003700380034
:100F50002D3128442C452A004C000000A800000038
:100F60000000000000001A0006000F0019001B001E
:100F70002B44000000001245082104240C281822EC
:100F8000E100245229451C001344340033002F0093
:100F9000E00028452C44E200E3000000AE00000021
:100FA0000000000000000E000B000A000900140001
:100FB0002D340000000016451121152417280722A2
:100FC0001D323E453E4405001044360037000D00FA
:100FD000383128442C452A004C000000A8000000AD
:100FE0000000000000001700150008001A0014009F
:100FF0002B44000000000A4509210724162804227A
:10100000E100294429450500194406001B001D0084
:10101000E00028452C44E200E3000000AE000000A0
:101020000000000000001C0018000C00120013005B
:101030002F34000000000B450D210E240F28333201
:1010400034323E453E44110010443600370038002B
:101050002D3128442C452A004C000000A800000037
:10106000000000000000080007001A00040014003F
:101070002B00000000001500070016000400E1002E
:101080001B00290029000900190006001B00E000D0
:101090001C0028002C00E200E3000000AE0000006D
:1010A0000000000000001C00500052004F00130020
:1010B0002F34000000000B00500051004F0033009F
:1010C000343226523E4411001000360037003800FA
:1010D0002D3128442C452A004C000000A8000000B7
:1010E00000000000000035002614251438023502E7
:1010F00001000000000030022714241424022D14E3
:101100000100010001002E0230146414210232009B
:1011100001000100010001000100000001000000C9
:101120000000000000001E02640064022702230287
:101130002002000000002D0225022602380037029E
:10114000141401000100300022021F023202360294
:10115000081401000100010001000000010000006E
:101160000000000000004E004C0052002A004B001E
:101170002900000000004D004F00510050004A00BF
:101180000100D900D000CD00010049002B0029004A
:1011900001000100CE00CF000100000001000000AE
:1011A000000000000000300224002500260030006E
:1011B0003800000000002402210022002300370034
:1011C0003602D100D20037021E001F002000360078
:1011D0002702DA002700DD00DE000000DF0000004B
:1011E000000000000000BD00BE0000000000000084
:1011F0004252000000002178277823782578207853
:1012000041520100010022782878247826780000D5
:10121000405201000100AB00AC00000001000000E2
:1012200000000000000000004000410042004300B8
:10123000000000000000A9003D003E003F00440007
:10124000000000000100AA003A003B003C004500FD
:10125000000001000100AC00AB0000000100000034
:1012600000004D6F7573654A6967676C657320612F
:10127000637469766174656400010431357C004DE6
:101280006F7573654A6967676C6573206465616330
:101290007469766174656400010431357C00112441
:1012A0001FBECFEFDAE0DEBFCDBF04B603FE18C02D
:1012B0008091A6079091A707A091A807B091A907D0
:1012C0008730904BA740B04B59F41092A60710926C
:1012D000A7071092A8071092A907E0E0F8E3099584
:1012E00011E0A0E0B1E0EAECFBE602C005900D924F
:1012F000A43FB107D9F727E0A4EFB1E001C01D92E8
:10130000A63AB207E1F70E9403290C9475350C94B4
:101310000000909367078093660708959C0180738F
:101320009927C09731F420643093690720936807A8
:1013300008952F7BF9CF21E030E002C0220F331F48
:101340008A95E2F78091680790916907822B932B29
:101350000E948E09089521E030E002C0220F331F61
:101360008A95E2F7209530958091680790916907FA
:10137000822393230E948E090895282F292B283039
:1013800070F528E0929FF0011124E80FF11D87709D
:1013900041E001C0440F8A95EAF783E0F695E795AE
:1013A0008A95E1F7EE0FFF1FEE0FFF1FE05DF84F8C
:1013B00080E090E070E05191DF0111979B01082ED1
:1013C00002C0369527950A94E2F7217021952527CA
:1013D000242325272C9301968430910561F70895E5
:1013E000292F282B283060F528E0929FF001112446
:1013F000E80FF11D982F977083E0F695E7958A9591
:10140000E1F7EE0FFF1FEE0FFF1FE05DF84F40E02A
:1014100050E080E0219130E0092E02C036952795FA
:101420000A94E2F721703327042E01C0220F0A9498
:10143000EAF7822B4F5F5F4F4430510559F708950B
:1014400080E0089580916F0790916E07981301C016
:1014500008958F5F8770FACFE8EFF1E091918913DB
:1014600003C0DF0111971C9291E0EE3FF907B1F73D
:10147000089520916A078095822380936A07982FA8
:101480009770911113C030E0482F082E000C550BB7
:101490002417350759F090916C0792FF07C0859586
:1014A000859585950E94AB0910926A070895982F3B
:1014B00090958091640789238093640708958091B3
:1014C00065078111109265070895962F972B983024
:1014D000B0F48730A0F498E0899FF0011124E70F61
:1014E000F11D83E0EE0FFF1F8A95E1F7E60FF11D76
:1014F000EE0FFF1FEE51F14F85919491089580E01A
:1015000090E0089520916B0722FF06C0982F9871F4
:101510009830C1F4877F846090916C07392F3170C7
:10152000927023FF21C0482F4871483191F4877E83
:1015300084619923B1F0982F9171913191F48E7E4D
:1015400088610FC0982F9471943031F78B7F886039
:10155000E3CF482F4471443139F48B7E8861911177
:1015600018C024FD877E0895332369F0382F387121
:10157000383019F4877F8160DCCF382F31713130FA
:1015800011F48E7F8860992361F3982F98719831B8
:1015900091F6877E8161E5CFCF93DF93EC01803EAA
:1015A000910509F478C088F58133910509F4C0C02C
:1015B00090F48932910509F4B0C08A32910509F49A
:1015C000BEC0019709F47AC0CE010497813A910513
:1015D00008F06DC073C08933910509F450C082389A
:1015E000910509F44CC08533910509F491C08D3CF7
:1015F000910508F010C1883A910508F0A7C0853A16
:10160000910510F3A497D06459C0843E910509F464
:1016100064C088F4823E910509F44CC0833E910574
:1016200009F450C0C83ED10508F448C0CE019A95CF
:101630008F3F9E41CDCF863E910509F459C0873E2C
:10164000910509F45AC0803222E5920708F0A4C03F
:10165000811542E5940708F0E3C0811550E5950730
:1016600008F484C08F710E94820AE5E0D695C79580
:10167000EA95E1F7CF709C2FEC01D0691FC08091F3
:101680006B07837081110CC180916C0783FF16C0BA
:10169000C9E2D0E013C080916B0780FD46C09091F5
:1016A0006C0790FF0BC0C3EED0E084FF07C0C0E022
:1016B000D0E004C080916B0782FDF5CFCE01DF91B1
:1016C000CF91089580916B0782FDE7C090916C07E0
:1016D00090FDE6C084FFF2CFEACF80916C0781FFD6
:1016E000EDCF80916B07C7EED0E084FDE0CFE6CF71
:1016F00080916B0783FDF7CFE1CF80916B0783FD6E
:10170000D2C090916C0791FFE5CFC4EED0E0D6CF68
:1017100080916B0785FFD2CFBBCF80916B0785FD92
:10172000C5C080916C0783FFC9CFC9E3D0E0C6CFA5
:1017300080916B0786FFC2CFCAE2D0E0BFCF809115
:101740006B0786FFBBCFC1E3D0E0B8CF885A9109C1
:10175000499708F0ACCFC85AD0E0CC0FDD1FCE536C
:10176000DE4F0990D881C02DD464A8CFC11580E484
:10177000D80708F052C0C11520E2D20708F452CFB2
:101780008D2F8F710E94820A90E0982F88278827DA
:101790009F718C2BEC017FC0803A924550F5C03888
:1017A00082E5D80708F066C0C03622E5D207B0F05F
:1017B0008C2F86958695877040E2849FC001112406
:1017C000C37021E030E0A90102C0440F551FCA9543
:1017D000E2F7EA01C82BD92BDA6870CFC03452E5A2
:1017E000D50790F5CF71D0E0DC2FCC27C16FD06A40
:1017F00065CFC03C82E5D80708F443C0CE01805CC9
:101800009245809708F053CFDC2FCC27CC27DF718F
:10181000C06FD06A53CFD06551CFDF70D06A4ECF42
:101820008695869520E2829FC0011124C37021E035
:1018300030E0A90102C0440F551FCA95E2F7EA0142
:10184000C82BD92BDD683ACF8C2F8695869587706B
:1018500050E2859FC0011124C37021E030E0A9014E
:1018600002C0440F551FCA95E2F7EA01C82BD92BD5
:10187000DC6824CFCF71D0E0DC2FCC27C46FD06AD6
:101880001DCF8C2F8F710E94820AC82FD0E0DC2FD1
:10189000CC27CC27DF71D06211CFC2EED0E00ECFC3
:1018A000C0EED0E00BCFC6EED0E008CFC5E3D0E06D
:1018B00005CFA0E0B0E0EFE5FCE00C944C348C01E7
:1018C000E0906807F090690780916607909167073C
:1018D000E82AF92ACFE0D0E0CC24C394D12CC60169
:1018E0000C2E02C0880F991F0A94E2F78E219F21C7
:1018F000892B49F4219798F7B12C8B2DCDB7DEB702
:10190000E9E00C946834BC2EB8018C2F0E94650A63
:101910000E94CC0A019771F3F0CF0F931F93CF93DE
:10192000FC01828100811181882391F0662381F07E
:10193000C8010E94590CC82F682FC8010E94BD0918
:10194000B8018C2F0E94650ACF911F910F910895C5
:10195000C8010E94F009C82FF3CFCF93DF93D82F8F
:10196000C92F0E94590C6D2F7C2F0E94650A0E947E
:10197000CC0ADF91CF910895FC0183819481892B5A
:10198000C9F08181908189238F3FA1F0808191816D
:101990000E94AD0C282F92959F70963091F060F4C4
:1019A000925F9F70923030F481E0203F79F030F404
:1019B000283E30F080E004C09A5FF3CF243FD1F797
:1019C000089581E0283E18F0213FF9CF0895089549
:1019D00080E00895F894E82FE295EF70F0E041A1DF
:1019E0008F7021E030E0B90102C0660F771F8A9541
:1019F000E2F7CB01962F9095942391A392A1892B86
:101A000082A37894089508958091520780FD16C0AE
:101A100081FD16C082FD18C080915107882391F086
:101A2000803490F420E3829FC001112426E0959534
:101A300087952A95E1F7009749F008958CE008957D
:101A400088E1089588E0089580E3089581E008958D
:101A50008091520780FD17C081FD17C082FD19C01B
:101A600080915007882399F0883298F428E0829F6B
:101A7000C001112468E270E00E9494346115710580
:101A800051F0862F089562E0FCCF64E0FACF61E068
:101A9000F8CF68E0F6CF81E00895A0E0B0E0E3E59C
:101AA000FDE00C944B34E901E42FF0E0E951F74FED
:101AB00061110BC0E4919E2F8E2F8983E8839A8356
:101AC000CDB7DEB7EAE00C946734282F30E0062F5C
:101AD00010E0F491EF2F86E0829F6001839FD00C8D
:101AE0001124EE24EA94F12CC601B7010E942F3490
:101AF000220F331F45E5469FC001479F900D1124DB
:101B0000281B390B822F880F280FC701801B910BD0
:101B1000F89FA001F99F500D1124952F209F50018F
:101B2000219FB00C1124AB2CBB24D701AA19BB09EF
:101B30005D01FA9DD001FB9DB00D11248B2F570143
:101B4000A21AB1089501209F5001219FB00C309F2F
:101B5000B00C1124AB2CBB24EA18FB08FE9D9001AD
:101B6000FF9D300D112463307105C9F01CEFC116C3
:101B700013E0D10650F46130710509F49ECF623054
:101B8000710589F08E2FE32F98CF6430710571F0C5
:101B900066307105B9F3E52F9B2F8F2F8ECFEB2F7A
:101BA000852F9F2F8ACF852F932F87CF832FE52FC8
:101BB000F8CF80915F07823060F4817082608093FB
:101BC0005F0780916207873918F086E98093620782
:101BD00008958A34B0F381708864F1CFECE5F7E0C2
:101BE00011828281846082830895FA01882311F032
:101BF00009950895FB01FCCFFC01680F791F8FEF59
:101C000091E3E617F70709F408952191822728E068
:101C100030E087FF08C0880F89272150310921153E
:101C20003105B9F7EECF880FF8CFA3E0B0E0EBE1D4
:101C3000FEE00C9453349C0180912802909129027B
:101C400082179307A1F03093290220932802E09194
:101C50002607F0912707309751F083E089833B8373
:101C60002A830680F781E02DCE01019609952396FF
:101C7000E2E00C946F34A3E0B0E0E1E4FEE00C9409
:101C800053349C018091260290912702821793077A
:101C9000A1F03093270220932602E0912607F091CD
:101CA0002707309751F084E089833B832A8306809D
:101CB000F781E02DCE01019609952396E2E00C9480
:101CC0006F349C01FC0132968FEF90E041914617F2
:101CD00051F08F3F19F4411101C0892F9F5F963059
:101CE000A9F78F3F09F40895280F311D87FD3A9514
:101CF000F90162830895A4E0B0E0E1E8FEE00C940D
:101D000053348FB7F8942091080730910907409118
:101D10000A0750910B0729833A834B835C838FBF5B
:101D200069817A818B819C812496E2E00C946F34E6
:101D30000E947B0E0895809125020895FC019B016D
:101D400080911B0290911C028617970740F0672B29
:101D500029F48091E8008E778093E800C90140E083
:101D6000009741F4411106C08091E80082FF2FC026
:101D700080E00895209120072223A9F12530A9F1C0
:101D80002091E80023FD2DC02091E80022FDECCF3A
:101D90002091E80020FFE4CF3091F3002091F20081
:101DA000009719F02830310558F041E0283031050E
:101DB00009F040E02091E8002E772093E800D0CF92
:101DC00041914093F10001972F5F3F4FE9CF809100
:101DD0002007882341F0853041F08091E80083FF9F
:101DE000C3CF81E0089582E0089583E00895809153
:101DF000150287FF13C08091E80082FF06C0809122
:101E0000E8008B778093E80004C08091200781115F
:101E1000F2CF0895809120078823D9F38091E800BC
:101E200080FFF8CF8091E8008E77ECCF2091E4001E
:101E30003091E50095E6A9018091EC00817088233E
:101E400031F08091E80080FF06C080E00895209185
:101E5000E80022FD1BC080912007882391F0853087
:101E600091F08091EB0085FD10C02091E40030914D
:101E7000E5004217530701F391509111DCCF84E044
:101E8000089582E0089583E0089581E00895E8EDE3
:101E9000F0E080818E7F80831092E2001092DA0061
:101EA0001092E100A0EEB0E08C9181608C93808173
:101EB0008F77808319BCA7EDB0E08C918E7F8C93D7
:101EC00080818F7E8083109214020895982FE42FD2
:101ED000E2709093E900891308C0762F242F50E018
:101EE000E11111C091E0980FF4CF7091EC002091B6
:101EF000ED005091F00021FD06C09F5F973049F73B
:101F00008093E90008953091EB003E7F3093EB0021
:101F10003091ED003D7F3093ED003091EB0031606A
:101F20003093EB007093EC002093ED005093F000A1
:101F30002091EE0027FDE1CF0895A0E0B0E0E3EAB4
:101F4000FFE00C944D34C8EDD0E088818F7E88830B
:101F5000E7EDF0E080818160808384E082BF81E0F2
:101F60008093140288818E7F888302EE10E0F8014E
:101F700010821092DA0081EEC82ED12CF601108268
:101F800088818F77888388818068888388818F7D26
:101F9000888319BC109220071092130210927502C8
:101FA0001092120290EEE92EF12CF70180818B7FC6
:101FB000808388818160888342E060E080E00E94C5
:101FC000660FF60180818E7F8083F80180818160B9
:101FD0008083808188608083F70180818E7F808309
:101FE000888180618883CDB7DEB7E8E00C946934DE
:101FF00080912107811110C08091D8008061809369
:10200000D8008AE18A95F1F700C08091D90080FF5D
:102010000AC081E08093210781E0909121079130EF
:1020200009F080E0089582E0809321070E94470F25
:1020300010922007F1CFA4E0B0E0E1E2F0E10C94CF
:1020400053340E94F80F882371F00E947B0E69833D
:102050007A838B839C8369817A818B819C8124968E
:10206000E2E00C946F340E947B0E69837A838B8349
:102070009C838091220790912307A0912407B0911F
:10208000250729813A814B815C81280F391F4A1F1E
:102090005B1F29833A834B835C83DDCF0E94F80F5B
:1020A000882359F0E0912607F0912707309729F00F
:1020B0000190F081E02D0995089580E00895409108
:1020C000100180915F0780FF24C020910F0130E054
:1020D000C901880F991F820F931F835D9D4F539AEB
:1020E0006BB1677F7BB17860EFB7F89450E09A01ED
:1020F000220F331F240F351F280F391F28173907C8
:10210000E9F4EFBF8FE594E00197F1F700C000001C
:1021100008958091110190911201282F30E0F9016A
:10212000EE0FFF1FE20FF31FE35DFD4F891768F607
:102130001182108212828F5F3396F8CFDC014D91AD
:10214000CD0158E07BB9000000C047FF6BB9440FD8
:10215000000000C000C000C06BB900C05A9591F7E4
:10216000CDCF0F931F93CF93DF93EC0100E010E0EE
:1021700040911301842F90E0081719076CF00E941A
:102180005F108C8190E00196817099278C83DF919C
:10219000CF911F910F91089580911101800F912F80
:1021A000911D9C01220F331F280F391F235D3D4FC6
:1021B0009C816091610780916007469550E004170B
:1021C000150764F4992361F040916207473908F0DC
:1021D00046E90E944D0D0F5F1F4FCACF9923A1F30F
:1021E00040E0F7CFEF92FF921F93CF93DF93EC0184
:1021F00010E0EE24EA94F12C60911301161770F0B0
:102200000E945F109A818C8190FF28C08F5F8C8321
:10221000DF91CF911F91FF90EF9008958091110170
:10222000810F9927991F9C01220F331F280F391FF7
:10223000235D3D4F40916207473908F046E970E061
:10224000C7010E949434962F8C8160916107199F79
:10225000800D11240E944D0D1F5FCECF8150D7CF2E
:10226000A0E0B0E0E6E3F1E10C944A34EC01A09088
:1022700013018C819A8190FD0DC0BB24B394811110
:102280000DC08FEF8A0DBB24B39480932C0281E0A4
:102290008C8304C0BB24BA948823B9F3E12CF12CBD
:1022A000EA14B8F00E945F1090912C02E1E0BE1297
:1022B00057C0809113018150992319F08FEF890F36
:1022C00091E080932C029C83CDB7DEB7EBE00C94B9
:1022D0006634809111018E0D9F2D911D8C01000F90
:1022E000111F080F191F035D1D4FF8011182108285
:1022F000128234E0C32ED12C912C80912C02890DB6
:10230000853154F164E10E948634892F082E000C37
:10231000990B8E159F05A9F4809162078C9DA001F1
:102320008D9D500D112455954795559547954739E5
:1023300008F046E9980160916107809160070E946A
:102340004D0D9B0CF1E0CF1AD108C114D104A9F6B0
:102350008FEFE81AF80AA4CF87FFD8CF8A0DD6CF1F
:10236000892F90E001966091130170E00E949434EF
:10237000982FA7CF0F931F93CF93DF93EC018C81FE
:10238000811109C081E08C8310922B0292E090931E
:102390000301809302011091110120911201812FFC
:1023A00090E0FC01EE0FFF1FE80FF91FE35DFD4F0A
:1023B000821750F100E060911301061758F10E9456
:1023C0005F108091020120912B02280F20932B0295
:1023D00090910301980F90930301191654F4022E63
:1023E000000C330B409113014150550B2417350756
:1023F00034F0819580930201813009F41C82DF91D1
:10240000CF911F910F9108951182108212828F5FD8
:102410003396CECF202F30E070E0C9010E94943473
:10242000810F90E040912B02042E000C550BFC0113
:10243000EE0FFF1FE80FF91F24173507C4F0409176
:102440000301042E000C550B4217530784F09F0123
:10245000235D3D4F40916207473908F046E960919E
:102460006107809160070E944D0D0F5FA4CFE35D6F
:10247000FD4F118210821282F8CFAEE0B0E0E3E4AB
:10248000F2E10C944F348D879E87AD85BE851496FE
:102490001C91212F30E0D9010E94D8349B01AC015E
:1024A0000E94EE3469837A838B839C83E0E2F0E0C0
:1024B000E11BF109A5E5B0E09B01AC010E94EE34FF
:1024C00069877A878B879C879F01DF010E94D034C0
:1024D0009B01AC010E94F9346D837E838F839887C2
:1024E0009B01AC0189819A81AB81BC81280F391F86
:1024F0004A1F5B1F69857A858B859C850E94A8345D
:10250000022F30E00A3248F5C901880F991F820F67
:10251000931F95958795F82EF09410E085E5E82EA9
:10252000E01A80911301181730F10E945F10ED85B9
:10253000FE85948181E0992319F0903219F48FEF90
:102540008093010180910101890FAD85BE851496AC
:102550008C932E96E6E00C946B3485E590E0DC01DC
:10256000A21BB30BCD01880F991F8A0F9B1F97FFEA
:10257000D0CF0196CECF8E2D11FD802F409111012D
:10258000410F5527551F9A01220F331F240F351F66
:10259000235D3D4F4F2DB6E9BF1508F446E9609124
:1025A00061070E944D0D1F5FBCCF90915F0790FFA8
:1025B00011C09091110150911201292F30E0F901C1
:1025C000EE0FFF1FE20FF31FE35DFD4F951718F0AD
:1025D0000E945F1008958183608342839F5F3396DA
:1025E000F5CFA3E0B0E0E7EFF2E10C9451348C01B9
:1025F00080912A0281110AC09E012F5F3F4F46E958
:102600006FEF0E944D0D8A8180932A02F801648148
:10261000613049F06230D1F080912A0240E06623B7
:1026200031F040E015C060912A0240E080E00E9455
:10263000D512F801848190E0019663E070E00E9479
:10264000943484832396E4E00C946D3440912A0200
:1026500080E060E0ECCFA3E0B0E0E1E3F3E10C94D4
:10266000533490915F0790FF0DC0473908F046E959
:102670009E012F5F3F4F0E944D0D4B8169818A81E2
:102680000E94D5122396E2E00C946F34CF93DF932F
:10269000EC01EC81F0E0EE51F84F4491EFE5F7E00A
:1026A000628181810E942B138C818F5F8C83DF91EB
:1026B000CF910895CF93DF93EC01EFE5F7E04381ED
:1026C00062818C810E942B138C818F5F8C83DF91C0
:1026D000CF9108950F931F93CF93DF93EB018A015E
:1026E00090912007943079F58093E9008FEF9091D5
:1026F000E80095FD07C095ED9A95F1F7000081502F
:102700008111F5CF8091E80085FF1DC00E94160F52
:10271000811114C08091E80085FD06C08091E80019
:102720008E778093E800F2CF88818093F10001508A
:1027300011090115110511F02196ECCF8091E800E7
:102740008E778093E800DF91CF911F910F910895CC
:10275000CF93DF93D82FC92F48E050E0682F792F0F
:1027600081E00E946A1388E0ED2FFC2FADE1B2E01A
:1027700001900D928A95E1F7DF91CF910895BC0108
:1027800046E050E082E00E946A130895BC0143E0F5
:1027900050E082E00E946A130895A0E0B0E0E3ED0B
:1027A000F3E10C944B34F82EE92EB62EA72E8A01B5
:1027B00080911002CC24C394D12C8A3018F48AE082
:1027C000C82ED12CC1E0D0E06B2D7A2D8F2D9E2DFF
:1027D000F8010995811116C02196CC16DD0694F0FA
:1027E000CC9FC001CD9F900D900D112420E030E0D2
:1027F00045E34A95F1F700002F5F3F4F281739074F
:10280000B9F7E2CFCDB7DEB7EAE00C946734909128
:102810006C0792FB222720F9281779F080FB92F9A8
:1028200090936C0760916B0770916C0784E090E067
:102830000E945F3582E00E94390A08958091640702
:1028400090916D07892B8093F601909165079923EC
:1028500091F0892B8093F60120E088EF91E0FC0154
:102860003081019631112F5F31E08E3F9307B9F728
:1028700021110E945F0A48E050E068E277E086EFAD
:1028800091E00E941735892BA9F088E0E6EFF1E08E
:10289000A8E2B7E001900D928A95E1F7E091260752
:1028A000F0912707309731F00280F381E02D86EF19
:1028B00091E009950895882339F090916407892B58
:1028C000809364070E941E140895882321F00E94BB
:1028D000570A0E941E14089567EE7EEF80E090E094
:1028E0000E945F3560E082E090E00E94413560E048
:1028F00083E090E00E9441351092670710926607CE
:1029000060E074E184E090E00E945F3560E086E082
:1029100090E00E9441356FEF87E090E00E944135E2
:1029200040E050E0BA0188E090E00E94533560E05A
:102930008DE090E00E94413540E050E0BA0188E12E
:1029400090E00E94533560E087E190E00E944135BD
:1029500040E050E0BA018CE190E00E94533560E025
:1029600070E080E290E00E945F3540E050E0BA0104
:1029700088E190E00E94533540E050E0BA018FE0DA
:1029800090E00E94533540E050E0BA0183E190E0CE
:102990000E94533508950F931F93CF93DF938B01BC
:1029A000D82FC92F0E94D90DA8016D2F7C2F88E048
:1029B00090E00E945335DF91CF911F910F910895C0
:1029C000EFE5F7E083E0808311828FEF828386E971
:1029D00083831482ECE5F7E082818360828363E085
:1029E00070E08FEF96E90E94CB140895A4E0B0E068
:1029F000ECEFF4E10C94533480916307833018F4C6
:102A00008F5F8093630780915F0790916007A0912B
:102A10006107B0916207BC01CD010E94CB142496DE
:102A2000E2E00C946F34A4E0B0E0E9E1F5E10C944D
:102A3000533480916307882319F081508093630792
:102A400080915F0790916007A0916107B091620744
:102A5000BC01CD010E94CB142496E2E00C946F34AB
:102A6000A7E0B0E0E6E3F5E10C944B34E82ED62E77
:102A7000F42EB22E20915F0720FF43C080916007A3
:102A80008E1108C090916107961304C0909162075F
:102A9000941729F090915E07926090935E07E22F61
:102AA000E695AE2FB0E0AD58BE4F9C9190935C0779
:102AB0002E7F223051F54F2D86E98F1508F446E917
:102AC0009E012F5F3F4F6D2D8E2D0E944D0D4B812E
:102AD00069818A810E94D5128E2D80936007D092E1
:102AE0006107F0926207BB2061F080915F079091CF
:102AF0006007A0916107B0916207BC01CD010E94FF
:102B0000CB142796EAE00C946734923019F4F090D5
:102B10006207E2CF963009F39930F9F29931E1F684
:102B2000E9519E2F9170A92EE695F0E0EE51F74FF6
:102B3000E491C12C0E2F10E060911301C61618F01D
:102B40000E945F10C9CF2C2D30E0C09EC001C19EF5
:102B5000900D112470E00E942F348E2DA11017C00B
:102B6000860F90911101A901490F511D9A01220F61
:102B7000331F240F351F235D3D4F4F2DA6E9AF15A1
:102B800008F446E96D2D0E944D0DC394D5CF861BE8
:102B9000E8CFEFE5F7E0818121E043816281885F42
:102BA0000E9430150895EFE5F7E0818121E043812F
:102BB000628188500E9430150895EFE5F7E0628148
:102BC00028E0620F08F46FEF21E0438181810E94C9
:102BD00030150895EFE5F7E0628128E0621B08F404
:102BE00060E021E0438181810E9430150895EFE586
:102BF000F7E0438128E0420F08F44FEF21E06281C3
:102C000081810E9430150895EFE5F7E0438128E0C7
:102C1000421B08F440E021E0628181810E9430156E
:102C20000895A0E0B0E0E7E1F6E10C944D34FA013C
:102C300069017801C82F880FDD0B3097B1F0DE01F4
:102C400093E0AA0FBB1F9A95E1F7AE5CBE4F1196B9
:102C50008D919C911297845F984F4C9150E0E417AE
:102C6000F50708F4AF010E942435CE010E94BA3363
:102C7000182F8823D1F0E114F104B9F083E0CC0FD0
:102C8000DD1F8A95E1F7FE01EE5CFE4F438150E0C7
:102C9000E416F50608F4A701CE5CDE4F6C817D8159
:102CA000645F784FC6010E942435812FCDB7DEB70F
:102CB000E8E00C946934A1E0B0E0E1E6F6E10C94C0
:102CC0004834762E6A014901580101E010E09E0166
:102CD0002F5F3F4F40E050E060E070E00E9411162F
:102CE000182F882309F442C0D6014D915D916D9152
:102CF0007C912FB7F8948091080790910907A091D3
:102D00000A07B0910B072FBF841B950BA60BB70BBF
:102D100084369105A105B10538F4B701C5010E94BB
:102D2000FC0D9981891711F18701940140E050E071
:102D300060E070E0872D0E941116182FB701C501C1
:102D40000E94FC0D9981981731F010E0812F219697
:102D5000EDE00C94643411701123C1F30E947B0EDA
:102D6000F6016083718382839383F0CFA701B5015D
:102D7000C4010E942435EACFA4E0B0E0E2ECF6E121
:102D80000C944D346B0184E0E82EF12C0DE017E03B
:102D90009E012F5F3F4F44E057E061E080E00E94DA
:102DA0005B16882361F049815A816B817C81409355
:102DB0000007509301076093020770930307409147
:102DC0000007509101076091020770910307F60117
:102DD00040835183628373832496E8E00C946934C2
:102DE000A0E0B0E0E6EFF6E10C944D34EB01942F57
:102DF000B901A801C880D980EA80FB80EFB7F894B8
:102E0000009108071091090720910A0730910B07DC
:102E1000EFBF0C191D092E093F09043611052105C4
:102E2000310510F4992371F000E010E020E030E06B
:102E30000E941116882339F00E947B0E68837983E3
:102E40008A839B8381E0CDB7DEB7E8E00C946934D8
:102E5000A8E0B0E0EEE2F7E10C94513425E0EFE5B4
:102E6000F7E0CE010196DC0101900D922A95E1F781
:102E700030915C0720915D0750915E073E832F8360
:102E8000588741E09C01511101C040E008E010E08A
:102E900060EF76E085E00E94F016811110925E07E7
:102EA0002896E4E00C946D34A1E0B0E0EAE5F7E1A7
:102EB0000C9451348091EB06898320911F0730E0F8
:102EC00090E041E02817390709F440E001E010E004
:102ED0009E012F5F3F4F6CEE76E086E00E94F01679
:102EE0002196E4E00C946D34A8E0B0E0EAE7F7E165
:102EF0000C9451344091F4065091F5066091F60619
:102F00007091F7062FB7F894809108079091090700
:102F1000A0910A07B0910B072FBF841B950BA60B3E
:102F2000B70B11E084369105A105B10520F10E948F
:102F30001B10DC01CB010296A11DB11D89839A8370
:102F4000AB83BC8300E010E020E030E044E050E0E0
:102F5000BE016F5F7F4F84E00E941116182F8823F7
:102F600051F00E947B0E6093F4067093F5068093F7
:102F7000F6069093F706812F2896E4E00C946D34C2
:102F8000A0E0B0E0E6ECF7E10C944D346C017B017D
:102F900064E670E088E70E947B31EC0197FD11C088
:102FA0008601EC0CFD1CF801849164E670E00E943F
:102FB000EA31EC01892B29F40F5F1F4F0E151F0515
:102FC00091F70E946C32CE01CDB7DEB7E8E00C94E9
:102FD00069348091E506882371F08091EB0688239F
:102FE00051F062E070E08AEB90E00E94C017892BFC
:102FF00011F41092EB060895A4E0B0E0E2E0F8E1ED
:103000000C9453348091E5068823F9F00E947B0EDE
:10301000DC01CB01805A9541AF4FBF4F8093DF0653
:103020009093E006A093E106B093E2068091EB0650
:1030300081110BC062E070E088EB90E00E94C01745
:10304000892B19F481E08093EB062496E2E00C943E
:103050006F34CF93DF93682F8091990290919A02F9
:103060006A30B9F4209198028B5D9240622F70E033
:103070000E942F34281B822F66E00E947A34C82FCA
:10308000C15018F4DF91CF91089580E20E94291871
:10309000F7CF6D30F9F49C012B5D324040919802DE
:1030A000642F70E0C9010E942F34481B842FA901AE
:1030B000480F511D4115544018F080E020E030E0E9
:1030C000820F932F911D85529D4F90939A0280936A
:1030D0009902D8CF26E0FC01AAE0B2E001900D925F
:1030E0002A95E1F7603E08F458C026E0FC011192F1
:1030F0002A95E9F7C0919902D0919A0246E050E0F2
:10310000BE018AE092E00E9417359E012B5D32409D
:10311000892B41F1C90146E0969587954A95E1F7DB
:1031200041E050E0BA0102C0660F771F8A95E2F7CE
:10313000CB016091DD067091DE06862B972BB901DD
:103140006B5F7F4FE6E076956795EA95E1F702C001
:10315000440F551F6A95E2F7842B952B9093DE065A
:103160008093DD062A5F3F4F40919802642F70E004
:10317000C9010E942F34481B463010F4240F311D22
:10318000211574E0370710F020E030E025523D4F64
:1031900030939A022093990275CFF6E06F9FB001A9
:1031A000112464547F4F46E050E00E940135A2CFC5
:1031B000CF93DF93EC01FE018491811103C0DF9175
:1031C000CF9108950E9429182196F5CF1F921FB61E
:1031D0001F9211248F939F93AF93BF93809174029A
:1031E000811113C08091080790910907A0910A07E7
:1031F000B0910B074196A11DB11D809308079093D4
:103200000907A0930A07B0930B07BF91AF919F9155
:103210008F911F901FBE1F9018952FB7F894809123
:10322000080790910907A0910A07B0910B072FBFDB
:1032300008950E94F80F882319F00E940D1908952F
:103240000E941B10CB01089560915F07669570E0A6
:103250004BE050E084E091E00E940A35892B19F49C
:1032600081E080935D070E94191990938D028093ED
:103270008C0280915E07846080935E070895A4E0CD
:10328000B0E0E5E4F9E10C94533490915F0790FFCE
:1032900039C08823D9F18532D8F58F77880F90917E
:1032A0005F079170892B80935F0780915E07816033
:1032B00080935E07662361F080915F0790916007BD
:1032C000A0916107B0916207BC01CD010E94CB14AF
:1032D00060915F07669570E04BE050E084E091E01C
:1032E0000E940A35892BB1F00E94EE0D81E0809397
:1032F0008F0220E040916207609161078091600732
:103300000E9430152496E2E00C946F3481E0C6CF21
:1033100084E2C4CF0E942419E9CF80915F0786958B
:103320008F5F853208F081E061E00E943F190895C7
:1033300090915F0796958FEF890F913009F484E2A1
:1033400061E00E943F19089590915F0790FF08C0C7
:103350009695981728F0961718F40E948D190895DD
:1033600061E00E943F1908950E940D1920915507B0
:1033700030915607232B222321F08093E806909367
:10338000E9062091570730915807232B222321F07B
:103390008093E6069093E706E0912607F0912707D1
:1033A000309749F082E0809353070480F581E02D47
:1033B00083E597E009950895662309F44BC0E3E39C
:1033C000E80FE33150F4F0E0E958FA4C0C94CA34B9
:1033D0000E94040D8195809356070E94B4190895A8
:1033E0000E94040DF8CF0E94040D8195809355072B
:1033F000F4CF0E94040DFACF0E94280D8093570746
:10340000ECCF0E94280D8195F9CF0E94280D81955F
:1034100080935807E2CF0E94280DFACF815D990B67
:1034200021E030E001C0220F8A95EAF7809154072D
:10343000822B80935407D1CF809152078160809373
:103440005207CBCF809152078260F9CF809152070B
:103450008460F5CF409155078D3C59F48091560713
:1034600087FF0DC010925607442359F4109251075C
:1034700008C08E3C81F48091560718169CF34423B3
:1034800081F08091570790915807892B8111A5CF22
:1034900010925007A2CF8F3C41F447FFF0CF10921B
:1034A0005507809156078823E0CF803D19F4141604
:1034B000B4F3E5CF90915707893D29F41916FCF62E
:1034C00010925707DCCF8A3D19F497FFD8CFF8CF79
:1034D000909158078B3D29F497FFD1CF1092580750
:1034E000CECF8C3D19F41916CCF3C9CF9FE2980FBB
:1034F000983090F4815D990B21E030E0B90102C071
:10350000660F771F8A95E2F7CB018095909154075B
:10351000892380935407B3CF8D3D31F480915207B6
:103520008E7F80935207ABCF8E3D21F4809152075E
:103530008D7FF7CF8F3D09F0A2CF809152078B7F0F
:10354000F0CFCF93C82F8823A9F08CEF8C0F813A4E
:1035500098F4E8EFF1E08191C81709F440C021E048
:10356000EE3FF207C1F76C2F86EF91E00E94610EEB
:103570000E941E14CF91089580E28C0F883068F469
:10358000C77021E030E001C0220FCA95EAF78091B0
:103590006407822B80936407EBCF8BE58C0F83301D
:1035A00038F42C2F2452330BC9010E94150EE2CFA0
:1035B000E8E5EC0FE93150F4F0E0EE0FFF1FEE53B9
:1035C000FE4F808191810E943B0ED4CF83E38C0F0C
:1035D000833180F661E08C2F0E94DC19CBCF8C2FD9
:1035E0000E942C0A0E941E14BECF882381F19CEFFA
:1035F000980F913A28F40E942C0A0E941E140895F4
:1036000090E2980F983050F4877091E001C0990FC4
:103610008A95EAF7892F0E94570AEFCF9BE5980F0A
:10362000933028F480E090E00E94150E089598E50C
:10363000980F993128F480E090E00E943B0E0895A5
:1036400093E3980F933118F460E00E94DC19089519
:103650000F931F93CF93C82F00E010E0893311F42C
:1036600000E510E08C2F0E94A11A0115110539F414
:103670008C2F0E94F51ACF911F910F9108958FE919
:103680009FE00197F1F700C0000001501109EDCF54
:10369000811107C089EA611101C08AEA0E94281BD2
:1036A00008958130E9F78EE46111F8CF8BE4F6CF0D
:1036B000A1E0B0E0EEE5FBE10C944C34EE24E394A1
:1036C000F12C02E117E09E012F5F3F4F4CEF56E0D7
:1036D00063E082E00E945B16082F882339F1D12C29
:1036E00080E01DC0C090FB06CD0C2C2D30E0A90160
:1036F0004750594F7A01E1E0F0E0EC0FFD1FED0D6E
:10370000F11D1081FA019081191BB12E1B149CF040
:10371000912F17FD90E0191B111118C0D3949091AF
:10372000F806D916F8F281110E94980E802F219682
:10373000E9E00C946834BA94F70180818F5F80834C
:1037400060E08C2D0E94481B802FE0CF1F5FF701A7
:1037500080818150808361E08C2D0E94481B802FE6
:10376000DBCFA0E0B0E0E7EBFBE10C944E348C0142
:10377000F8019491992309F4AAC0913009F048C046
:10378000E8012196FE018491813049F42196FE01E1
:1037900084910E94281B8E010F5F1F4FE9CF82305A
:1037A00039F4E8012296FE0184910E94A11AF3CF18
:1037B000833039F4E8012296FE0184910E94F51AC3
:1037C000EACF843041F7E8012296FE01849120E09F
:1037D00030E04AE0FE0131968053990B8A30910522
:1037E00060F021153105B9F28FE99FE00197F1F7FB
:1037F00000C0000021503109F4CF429FB001439F27
:10380000700D11249C01260F371F8491EF01E2CF28
:10381000E92FF0E0E45DF94FD490292F2695269505
:10382000269530E0F901E45EF94F84919770F90133
:10383000E45FF94FE490F12C092E02C0F594E7946F
:103840000A94E2F7E1E0EE22FF24F901E450FA4F96
:10385000C491D0E0092E02C0D595C7950A94E2F72D
:10386000C170DD27E82FF0E002C0F595E7959A9545
:10387000E2F7E0FD0DC0E114F104A9F48D2D0E94E2
:10388000281BCD2B19F08CE20E94281BE80183CF66
:1038900081EE0E94A11AE114F10479F48D2D0E94A9
:1038A000281B81EE07C086EE0E94A11A8D2D0E9472
:1038B000281B86EE0E94F51AE4CF86EE0E94A11A1C
:1038C0008D2D0E94281B86EE0E94F51AEACFCDB7F7
:1038D000DEB7E7E00C946A34CF9310926407C6E039
:1038E000E8EFF1E0DF018C2F1D928A95E9F780E087
:1038F00090E00E94150E80E090E00E943B0E109236
:103900006D070E941E14E3E5F7E0DF011D92CA95E2
:10391000E9F71092510710925007109252070E9437
:10392000B419CF9108950E946C1C2FEF84E39CE0A2
:10393000215080409040E1F700C0000088E19CE009
:103940000FB6F894A895809360000FBE9093600026
:10395000FFCFAAE2B0E0EFEAFCE10C94523485E13B
:1039600092E0FC0101962091F100208322E08D314C
:103970009207B9F780911602893009F456C0C8F44D
:10398000823009F4B2C0833009F481C0813071F112
:103990008091E80083FFE6C08091150290911602A5
:1039A0009A3008F0DFC0E92FF0E0E657FA4C0C94AB
:1039B000CA348A3009F488C08B3051F780911502DF
:1039C000813231F78091190290911A02892B01F707
:1039D0008091E800877F8093E8000E94F70E809135
:1039E0001702809300010E946C1CD2CF80911502B7
:1039F000813A71F68091E800877F8093E80080919A
:103A0000190290911A02892B61F060E080E090E049
:103A100070E00E949E0E8091E8008B778093E80012
:103A2000B7CF68E08DE192E0F3CF8091150281324B
:103A300009F0AECF8091190290911A02029708F016
:103A4000A7CF8091E800877F8093E8008091E8000D
:103A500082FF18C09091F3008091F200029731F438
:103A60008091F100813011F0863021F48091F100D5
:103A7000809325028091E8008B778093E8000E9474
:103A8000F70E86CF809120078111E0CF81CF809102
:103A90001502813A09F07CCF8091190290911A02A7
:103AA000892B09F075CF8091E800877F8093E8002B
:103AB0008091E80080FFFCCF809100018093F100AD
:103AC0008091E8008E77D9CF80911502813209F07C
:103AD0005FCF8091E800877F8093E8000E94F70E17
:103AE000809118028093110253CF80911502813A80
:103AF00009F04ECF8091E800877F8093E8008091A5
:103B0000E80080FFFCCF80911102D8CF803889F087
:103B1000823841F5809119028F70873018F58093B3
:103B2000E9008091EB0085FB882780F91092E9007D
:103B300006C080911202909175029111826090915D
:103B4000E800977F9093E8008093F1001092F100D5
:103B50008091E8008E7723C0811116C080911702F2
:103B6000813011F18091E80083FF0AC08091E80064
:103B7000877F8093E8008091EB0080628093EB0068
:103B8000AA96E3E00C946E34823061F780911702BC
:103B9000882389F01092E9008091E800877F809364
:103BA000E8000E94F70EDECF81E0933009F080E05C
:103BB00080937502EFCF809119028F702FEF280F3D
:103BC000263080F68093E9002091EB0020FFE2CFC1
:103BD000933031F48091EB0080628093EB00DACF78
:103BE0009091EB0090619093EB0021E030E0A9010F
:103BF00002C0440F551F8A95E2F74093EA001092E5
:103C0000EA008091EB008860E8CF8111ABCF109182
:103C100017021F778091E3008078812B8093E30067
:103C20008091E800877F8093E8000E94F70E8091E2
:103C3000E80080FFFCCF8091E30080688093E30080
:103C400083E0111101C082E0809320078BCF805860
:103C5000823008F087CF40911702509118024C3DF6
:103C600083E0580799F583E08A838AE289834FB716
:103C7000F894DE01139620E03EE051E2E32FF0E0FD
:103C800050935700849120FF03C082958F703F5F4F
:103C90008F708A30C8F0895C90E08D939D932F5F80
:103CA000243161F74FBF8091E800877F8093E8005F
:103CB0006AE270E0CE0101960E949E0E8091E800BB
:103CC0008B778093E8004ECF805DE6CF209119027C
:103CD00030911A02852F99278330910509F160F4FC
:103CE0008130910509F472C0029709F03BCF8BE354
:103CF00090E0E7E6F7E029C08132910509F45AC067
:103D0000829709F02FCF2115310509F469C02130C0
:103D1000310509F027CF8BE790E0ECEAF6E015C01B
:103D2000CA0199274130B1F18230910509F43AC0B6
:103D3000892B09F017CFEEEDF7E0E4918E2F90E09C
:103D4000EEEDF7E0009709F40DCF2091E800277F12
:103D50002093E80020911B0230911C0282179307E8
:103D600008F49C0140E02115310509F03EC04111E5
:103D70003CC08091E80082FDA1CF8091200788237C
:103D800009F49CCF853009F499CF8091E80083FF36
:103D9000F0CF94CFECECF7E0E4918E2F90E0ECECD8
:103DA000F7E0D0CFE4EBF7E0E4918E2F90E0E4EB86
:103DB000F7E0C8CF2115310571F02130310509F048
:103DC000D1CE89E090E0E2E9F7E0BFCF82E190E078
:103DD000E2EAF7E0BACF89E090E0E9E7F7E0B5CFB3
:103DE00080E490E0E7E2F7E0B0CF809120078823FD
:103DF00009F464CF853009F461CF8091E80083FD38
:103E00005DCF8091E80082FDB4CF8091E80080FF13
:103E1000AACF9091F3008091F2002115310519F09D
:103E20008830910550F041E0089709F040E080911A
:103E3000E8008E778093E80096CF44914093F1009C
:103E40003196215031090196E8CF803809F08ACEA9
:103E50008091E800877F8093E8008091130280932F
:103E6000F10076CE81117ECE10911702123008F04B
:103E700079CE8091E800877F8093E8001093130249
:103E80000E94F70E112381F084E08093200742E026
:103E900061EC81E00E94660F42E261EC82E00E94E8
:103EA000660F809120075ECE8091E30087FDECCF06
:103EB00081E0EBCF9C014FB7F89480910807909177
:103EC0000907A0910A07B0910B074FBF821B930B04
:103ED00008950F931F93CF93DF93C62FD42F122FE4
:103EE0008823A9F060935A070E940D199093090244
:103EF00080930802C77081E001C0880FCA95EAF775
:103F00000E945B14DF91CF911F910F9108958091D2
:103F10005A07681332C080910802909109020E94EA
:103F20005A1F883C910548F5CD130CC0812F0E9483
:103F3000281BD77081E001C0880FDA95EAF70E944C
:103F40006514E0CFC77001E0802F01C0880FCA95CB
:103F5000EAF70E94651480E28D0F883050F48D2FAF
:103F6000877001C0000F8A95EAF7802F0E945B14CA
:103F7000DDCF812F0E94281BC5CFC77081E001C013
:103F8000880FCA95EAF7DBCFA5E0B0E0EAECFFE1E5
:103F90000C944D348C01DC019C9111968C911197FD
:103FA00013962D913C91232B09F4A1C089238F3FB7
:103FB00009F49DC061E0C8010E948D0C89839A8339
:103FC000F801828129813A81232B09F06FC088236F
:103FD00009F4AFC180915907882309F459C088E9D1
:103FE00092E10E94B11B109259078FE792E10E9463
:103FF000B11BD80112968C918111A4C0F801828165
:10400000E080F180882309F483C2C7010E94590C23
:104010008983682FC7010E94BD09B70189810E9469
:10402000650A0E94CC0A8D839983D8011296DC9090
:1040300012971596CC90C2942FE0C22280916A0705
:1040400087708823C1F0FD2CDD20B1F0892F807F9F
:10405000803421F08D81805E883068F080916C071B
:1040600082FF09C082E00E94390A80916A07877046
:10407000FF24F3948111F12CE981E295EF70B9816D
:10408000B03C08F0B6C2F0E0EC56FA4C0C94CA34DE
:1040900089E792E10E94B11B81E08093590782E693
:1040A00092E10E94B11BF8018281A6CFE981FA81D9
:1040B000E851FC47E730F105A8F5E056FA4C0C94BE
:1040C000CA3426E241EE61EE0E94691F80916A07C0
:1040D0008770882361F0D80112968C91882339F07B
:1040E00080916C0782FF03C082E00E94390A259606
:1040F000E8E00C94693427E245EE65EEE5CF26E270
:1041000041EE60EEE1CF27E245EE64EEDDCF26E240
:1041100041EE62EED9CF27E245EE66EED5CF28E23A
:1041200041E0EBCF811111C029813A8126313C4712
:1041300009F0FFC080915B078111F9C089E20E94FC
:104140002C0AF2C010925A0759CF10925A0789814F
:104150009A819057839708F0D0C084E090E00E9445
:104160003B3590936C0780936B07E981FA81E150AE
:10417000F047E232F10520F4E955FA4C0C94CA34C8
:1041800080916B07816080936B0760916B077091E2
:104190006C0784E090E00E945F350E946C1C96CF13
:1041A00080916C07886080936C07EFCF80916B07DC
:1041B0008260E9CF80916B078460E5CF80916B07C7
:1041C0008860E1CF80916C078160EDCF80916C07B2
:1041D0008260E9CF80916B078061D5CF80916B07BA
:1041E0008062D1CF80916B078064CDCF0E946C1C20
:1041F00080916B078068C7CF80916B078C60C3CFBD
:1042000080916C078360CFCF80916B078E7FBBCF8F
:1042100080916C07877FC7CF80916B078D7FB3CF6D
:1042200080916B078B7FAFCF80916B07877FABCF80
:1042300080916C078E7FB7CF80916C078D7FB3CF55
:1042400080916B078F7E9FCF80916B078F7D9BCF77
:1042500080916B078F7B97CF0E946C1C80916B07BE
:104260008F7791CF80916B07837F8DCF80916C0783
:104270008C7F99CF80916B0782FB992790F921E081
:10428000922790FB82F990FB83F97DCF80916C0798
:10429000982F909591708E7F892B90FB81F983CF19
:1042A00090916B07892F8F7B96FF80646CCF0E9463
:1042B0006C1C90916B07892F97FB87F9805863CF0F
:1042C00061E08EE090E00E9441355FCF60E0F9CF81
:1042D00090916B07892F8F7E94FF806154CF9091CE
:1042E0006B07892F8E7F90FF81604DCF90916C0777
:1042F000892F877F93FF886056CF89819A81863185
:104300009C4709F09FC0809164078A7A91E08111EF
:1043100001C090E090935B0765E3811101C069E201
:1043200086EF91E00E94610E0E941E14CFCE85E3BD
:1043300006CF809164078272E981FA81E052F847E2
:10434000E531F10508F05ACEE753FA4C0C94CA3423
:1043500080915F0780FF1DC08E7F80935F078091F3
:104360005F0790916007A0916107B0916207898310
:104370009A83AB83BC83BC01CD010E94CB140E9405
:10438000EE0D80915E07816080935E070E945F1052
:104390009DCE816080935F0761E086950E943F1902
:1043A00095CE48E959E16DE879E10E94F50D8ECE90
:1043B0004DE859E168E979E1F8CF43ED55E169EC61
:1043C00075E1F3CF49EC55E163ED75E1EECF4AEECF
:1043D00055E16DED75E1E9CF4DED55E16AEE75E121
:1043E000E4CF44E056E167EF75E1DFCF47EF55E1F9
:1043F00064E076E1DACF43E155E166EF74E1D5CFD1
:1044000046EF54E163E175E1D0CF61E081E0C6CFD2
:1044100065E082E00E94A41959CE68E086E0FACFF8
:104420006EE089E0F7CF64E18FE0F4CF67E185E1EA
:10443000F1CF61E088E1B2CF62E289E1EBCF61E0E8
:1044400083E2ACCFA981BA81AA35ECE7BE0709F4B3
:104450005BC008F03DC0A1302CE7B20709F452C0A0
:10446000A3303CE7B30709F447C0A115BC4709F0E6
:10447000C5CD0E946C1CEFEFF4E32CE0E150F0405E
:104480002040E1F700C0000081E08093E00080E27E
:104490008093D8001092C9008FE19EE40197F1F754
:1044A00000C0000087E090EBDC018093A6079093AA
:1044B000A707A093A807B093A90788E19CE00FB6CF
:1044C000F894A895809360000FBE90936000FFCF92
:1044D00089819A818B35ACE79A07C1F08C359C476E
:1044E00009F08CCD80916C0782FB882780F991E0E0
:1044F00089270E94071482CD6FEF7FEF80E090E064
:104500000E945F350E94931C81E0F3CF80E0F1CFE1
:10451000C7010E94F009898380CDE981EF70EE2EFA
:10452000F981F03118F0E29490EFE922DD20C1F03A
:10453000EE2071F08D81805E883018F02D81211180
:1045400009C0809164078E29809364070E941E141D
:104550008D8147C080916D078E2980936D07F6CFBE
:104560008D810E94F51AEE2009F443C08D81805E92
:10457000883018F03D81311104C08E2D0E94570AF9
:1045800006C0E09480916D078E2180936D070E9494
:104590001E142FC049814F70E42E6981607F603204
:1045A00019F0E29480EFE8228D81882351F0813068
:1045B00009F461C0DD2009F46BC0CC2009F461C0AE
:1045C000C7CF20916C0722FD30C0DD2069F0EE20BE
:1045D00039F0809164078E29809364070E941E142D
:1045E00080E00E94A11A05C080E00E94F51AE11047
:1045F000C4CFFF20A9F080916A0780FD11C0F801A7
:1046000012828595859585950E949B09C8010E9417
:10461000C41F80916A078595859585950E94AB0991
:1046200060E0C8010E948D0C62CDDD2099F0909170
:104630006507892F8E29C11003C00E945B14D9CF52
:10464000A1E0CA12FACF22FFD4CF981791F280933B
:104650006507CFCFC11006C00E945F0A8E2D0E9451
:104660006514C7CFB1E0CB1621F28E2D0E946514E0
:104670000E945F0ABECFDD2031F0E5E0EC1508F4C2
:10468000B8CF8E2DDACFF4E0FC1508F4B2CFE6CF28
:10469000CC2021F32D81293349F43FEF47EE63E02D
:1046A000315040406040E1F700C000008D810E9421
:1046B000F51A9FCF8981869586958370882369F046
:1046C000813009F096CF8D8199819370D11002C00D
:1046D00080E090E00E943B0E8CCF8D819981937099
:1046E000D11002C080E090E00E94150E82CF6D2DA7
:1046F0008D810E94DC197DCF89818370811145C035
:10470000D1102FC04D81429546954770440F440FFC
:104710002D812F7030E0042E02C0220F331F0A9427
:10472000E2F78D8184FF20C08FE090E002C0880F07
:10473000991F4A95E2F780959095A981A695A6952F
:10474000A370A230C9F0A330A1F040916607509148
:104750006707A13061F0822B932B842395230E945D
:1047600089090E944E1045CF80E090E0E6CF242BCF
:10477000352B822B932BF3CF822B932B2091660723
:104780003091670782279327EACFDD20A9F1B9810D
:10479000B0FFE7CF4D81429546954770440F440FD7
:1047A0002D812F7030E0042E02C0220F331F0A9497
:1047B000E2F7ED8180E090E0E4FF09C08FE090E057
:1047C00002C0880F991F4A95E2F780959095F9816C
:1047D000F695F695F370F230C1F0F33099F0409110
:1047E000680750916907F13059F0822B932B84238D
:1047F00095230E948E09B5CF823008F4B2CFCACF7C
:10480000242B352B822B932BF4CF822B932B2091AF
:1048100068073091690782279327EBCF29812F7092
:104820002983DD2039F0822F0E949B098D810E940F
:104830005B1497CF8D810E94651489810E94AB091A
:1048400090CF3D81323FC1F178F4303FC9F0313F24
:1048500009F44CC0DD2009F475C0CC2009F46FC008
:104860008D810E94A11A7DCF4D81433F61F1443F6C
:10487000C9F1D110F2CFC11074C089818F71DECF20
:10488000DD20B9F064E06C1508F46BCF89818F717D
:10489000898381E090E0DC01098002C0AA0FBB1F80
:1048A0000A94E2F780916807909169078A279B270D
:1048B000A0CFB5E0CB16E8CF89818F71D110BECFE4
:1048C0000E949B094ECF80E090E0DD2009F491CF5B
:1048D000E981EF7181E090E002C0880F991FEA95AD
:1048E000E2F787CF80916C0782FD06C089818F71C6
:1048F000DD2009F4A3CFE4CFDD20B1F0F981FF7111
:10490000F9838F2F0E949B0980916C0782FF0AC058
:10491000398128E0329FC0011124836080936A07A7
:10492000832FCECF8981CCCF81E00E94390A41E02C
:104930004C1508F016CF82E00E94390A12CF898107
:104940008F71BECFCC2009F498CF6D81693349F4C3
:104950008FEF97EEA3E081509040A040E1F700C0B8
:1049600000008D810E94F51AFCCE1F93CF93DF9338
:104970008091A507803108F04CC08091A207882360
:1049800009F447C080916F0720916E076091A007DE
:104990003091A107C091A307D091A407732F76236C
:1049A0002817B9F190E0209709F443C016E07F3F43
:1049B00009F43FC0189FF001199FF00D1124DF0189
:1049C000A059B84F11964C91119734132CC04C91AB
:1049D000461329C012964C91129741111EC013968E
:1049E0004D915C914C1B5D0B483C5105E0F480916E
:1049F000A5078F7080618093A507EB58F84F8081E1
:104A00008F708061808380EA97E00E94C41F0E94BB
:104A1000220ADF91CF911F910895019687709927FF
:104A20002813C8CFF6CF0196877099272813BFCFD8
:104A3000F0CF01968770B4CF8F929F92AF92BF92C2
:104A4000DF92EF92FF920F931F93CF93DF93CDB737
:104A5000DEB72B970FB6F894DEBF0FBECDBF8C012B
:104A600085E0F801DE01179601900D928A95E1F735
:104A7000F801F280A380B48080EA882E87E0982E27
:104A80009091A0072091A1074091A3075091A407FE
:104A90004115510509F414C1822F89238F3F09F470
:104AA0000FC1D090A207B501641B750BDD2009F47E
:104AB000DBC08091A507683C710508F0B7C0318163
:104AC000803108F077C0EF2C321312C020812913F7
:104AD0000FC0F1101CC08F7080618093A507C401C6
:104AE0000E94C41F8091A507F8018583E12C4FC067
:104AF0008F819885AB2889F0282F29232F3F69F0D3
:104B0000E0916F0720916E0736E0FF20E1F0809181
:104B1000A50781608093A507E9CFFF2039F3F7CF80
:104B20004E2F50E03E9FF0011124E059F84F618173
:104B3000691306C06081681303C062816111D6CF1A
:104B4000FA013196E770E213EBCF8F8198850E94CE
:104B5000AD0C292F22952F70903248F49F70992325
:104B600011F08823A1F0805E883088F004C0225FB5
:104B70002F70223028F0C8010E94C41FED2C07C0FE
:104B80009F70992381F3F8019581903160F78E2D04
:104B90002B960FB6F894DEBF0FBECDBFDF91CF913D
:104BA0001F910F91FF90EF90DF90BF90AF909F907B
:104BB0008F900895321312C0208129130FC0F11075
:104BC0000DC08583C8010E94C41F86E0F801A0EAD9
:104BD000B7E001900D928A95E1F725C0C8010E94C7
:104BE000BC0C882309F468C0FF2009F465C08091DB
:104BF000A507803270F02091A0073091A1073A8379
:104C000029831B82BD82AC828E83CE0101960E94D5
:104C1000C41F86E0F801A0EAB7E001900D928A95E2
:104C2000E1F70E94B524EE24E394B1CF803150F433
:104C300080EA97E00E94C41F86E0F40111928A95F1
:104C4000E9F754CF31812313C9CF20812913C6CF6F
:104C5000F110C4CF8583C8010E94C41F86E0F4010F
:104C600011928A95E9F7DFCF683C710528F7FF209C
:104C700019F18181281316C08081891313C0809196
:104C8000A50780FDA2CF803108F49FCF8583807F68
:104C9000803F09F497CF8581982F907F905F8F7028
:104CA000892B8FCFC8010E94BC0C8111B2CF80919B
:104CB000A50781608093A507C8010E94C41FB3CFD8
:104CC000FF20D1F3C8010E94BC0C8823A9F386E021
:104CD000F801A0EAB7E001900D928A95E1F7809182
:104CE000A0079091A1070E94AD0C9BCFA7E1B0E077
:104CF000ECE7F6E20C9452344B8B5C8B962F6D8B69
:104D00007E8B8F8B611110926D071A8A85E0FE01F0
:104D10007396DE011D9601900D928A95E1F79F87AB
:104D200086E0FE013D96DE01179601900D928A9570
:104D3000E1F7CE0107960E941C25811131C086E063
:104D4000FE013796DE01119601900D928A95E1F7EA
:104D50008F81988520916E0740916F076A857B85CA
:104D6000672BF1F089238F3FD9F030E0C90101961C
:104D70008770992750E084179507E9F096E0929F95
:104D8000D001939FB00D1124A059B84FFE01319668
:104D900001900D929A95E1F780936E070E94220A86
:104DA00016E080916F0790916E07891312C0679685
:104DB000E3E00C946E340E946C1C10926E0710920B
:104DC0006F0786E0E0EAF7E0DF011D928A95E9F7D8
:104DD000E7CF189FC00111248059984F0E941C25CD
:104DE000882329F380916F0790E0019687709927B7
:104DF00080936F07D6CFA4E1B0E0E1E0F7E20C9436
:104E000048341A861986FE013B9686E0DF011D9222
:104E10008A95E9F78CE1A82E81E0B82E8E01075F14
:104E20001F4F4801EE24E394F12C2CE1C22E21E027
:104E3000D22EF50181915F018F3F09F441C0F894B2
:104E4000E82FE295EF70F0E021A18F70A70102C07A
:104E5000440F551F8A95E2F7CA01922F982B91A310
:104E600092A18095892382A3789400C0E4E1F1E0C7
:104E700031E0712C21912F3F09F465C0A22FA2953A
:104E8000AF70A05EB0E08C9190E02F7002C095955D
:104E900087952A95E2F78170811155C0832F782A72
:104EA000330FCE16DF0631F7F501319780818F3F42
:104EB00011F00E94EA0C50EA5A95F1F7D8017C9261
:104EC0000F5F1F4FB0E2AB16B1E0BB0609F0B1CFE8
:104ED00048E050E0B40189E692E00E941735009165
:104EE0007202892B91F188E0F401A9E6B2E0019009
:104EF0000D928A95E1F781E0809307020E940D19D7
:104F0000909306028093050280910502909106021B
:104F10000E945A1F0597E8F010E008581D4F44E022
:104F200050E069E672E0C8010E941735892B41F014
:104F300084E0E9E6F2E0D80101900D928A95E1F76C
:104F40001092070206C080E0AACF8091070281116B
:104F5000DBCF0E94F80FE0917202882309F4A2C00F
:104F60001A8219821C821B820E2F10E008581D4FD6
:104F7000809110028A3008F05EC04CEB56E1FE01D1
:104F800031967F01BF01C8010E94CD1367018823BC
:104F900009F476C048E55BE1B701C8010E94CD1372
:104FA000882309F46DC044E757E1B701C8010E94A6
:104FB000CD13882309F464C048E257E1B701C80162
:104FC0000E94CD13882309F45BC044E557E1B70183
:104FD000C8010E94CD13882309F452C01092100218
:104FE0008091710290E044E050E0B60188589D4FF6
:104FF0000E94173521E020930402892B99F58091B6
:1050000059078823A1F082EB90E00E94B11B8DEC40
:105010000E94281B8EEC0E94281B8CEA90E00E94C4
:10502000B11B8FEC0E94281B80ED0E94281B649608
:10503000EDE00C94643480910202909103020E948E
:105040005A1F843F914008F098CF80910402882332
:10505000B1F284E0FE013196DF011D928A95E9F7F5
:1050600010920402E0917102F0E0E858FD4F89814E
:105070009A81AB81BC8180839183A283B383BFCFAC
:10508000809110028F3F39F40E940D199093030212
:1050900080930202DACF8F5F809310028A3008F487
:1050A0009FCFF2CFF0E0E858FD4F80819181A2813F
:1050B000B38180930D0790930E07A0930F07B093D1
:1050C000100764E070E08DE097E00E94FC0D809393
:1050D0000C074091950250E06091940270E0675097
:1050E000794F8E010F5F1F4FC8010E9424358981BF
:1050F0008093120761E070E0C8010E94FC0D80936C
:105100001107C0901307D0901407E0901507F09096
:1051100016078091FE019091FF01A0910002B091CD
:105120000102C816D906EA06FB06D1F0C092FE01BC
:10513000D092FF01E0920002F09201020E94F80F6B
:1051400081110EC00E947B0EC61AD70AE80AF90A1E
:10515000C0922207D0922307E0922407F0922507FD
:1051600088E0E7E1F7E0D80101900D928A95E1F738
:10517000809117078695F0901807E0901907D09056
:105180001A0700911D0710911E0710921E07112388
:1051900001F110FF0BC0298190915F0720FF20C013
:1051A000916090935F0760E00E943F1911FF06C075
:1051B00020E04D2D6E2D8F2D0E94301512FF04C062
:1051C0000023D9F00E94241913FF03C081E08093CB
:1051D0008F0280911F07882399F00E94FC1727CF28
:1051E0009E7F90935F070E94EE0D80915E07816025
:1051F00080935E070E945F10D9CF0E94EE0DE4CF2E
:105200000E94E91714CFCDB7DEB761970FB6F894B7
:10521000DEBF0FBECDBF85B7806885BF85B780680C
:1052200085BF84B7877F84BF0FB6F894A895809117
:105230006000886180936000109260000FBE80E87B
:1052400090E00FB6F89480936100909361000FBED8
:1052500088EE9CE09093F5018093F4010E94470F43
:105260000E949D0F8091E20084608093E200789418
:1052700080912007882399F08091E9001091EC003B
:105280001795112717958F70182B1092E9008091B0
:10529000E80083FD0E94A91C1F701093E90082E0C2
:1052A00084BD93E095BD9AEF97BD80936E001092F8
:1052B00022071092230710922407109225072398A3
:1052C0002B9A6E9A769825E02A95F1F7000083B123
:1052D00083FB882780F96E98769A30EA3A95F1F741
:1052E00080932001809120018111F6C18AE0809392
:1052F0000F018AE0809310010E94F80F81110E9433
:10530000CC328091200191E0892780939402492F2B
:10531000481B4093FB068091200190939502809159
:1053200020019093F80680912001811106C085EF3D
:1053300080932A0184EF8093290180912A01E82F2C
:10534000E295EF70F0E041A18F7021E030E0B9010B
:1053500002C0660F771F8A95E2F7CB01962F9095D2
:10536000942391A392A1892B82A380912901E82FF4
:10537000E295EF70F0E041A18F70D90102C0AA0F51
:10538000BB1F8A95E2F7CD019A2F9095942391A3A4
:1053900092A1892B82A3EFE8F1E03197F1F700C0E9
:1053A0000000109195026AE271E049E251E026E9BD
:1053B000E22E22E0F22EFB018E2F861B811708F4CD
:1053C0008DC18091200181111EC084E980931C0150
:1053D00086E680931D0187E980931E0186EC809309
:1053E0001F0188E0EAE6F1E0DE01119601900D92DE
:1053F0008A95E1F788E0FE013196A4E1B1E00190E1
:105400000D928A95E1F78091200191E08927880F1C
:10541000880F8093720294E0981B909371020CE1C4
:1054200011E090E2E92E91E0F92EF80181918F01CF
:105430008F3F11F00E94EA0CE016F106B1F704E18B
:1054400011E08CE1E82E81E0F82ED8018D918D01DC
:105450008F3F11F00E94EA0CE016F106B1F788E0E8
:10546000E8E7F2E0DF01282F1D922A95E9F7E9E647
:10547000F2E0DF011D928A95E9F780E090E00E945A
:105480003B35873E9E4F11F00E946C1482E090E005
:105490000E942D358093800284E090E00E943B358D
:1054A00090936C0780936B0783E090E00E942D350A
:1054B00090E00E94890982E08093DB0680E8809377
:1054C00098020E9475316DE070E08AEF99E00E94C9
:1054D000C017892B09F043C08091DB0663E070E0C0
:1054E00081FD24C187EF99E00E94C017892BB9F58F
:1054F0006DE070E087EE99E00E94C017892B79F586
:105500000E947B0E69877A878B879C87DC01CB01A1
:10551000805A9541AF4FBF4F8093DF069093E006CE
:10552000A093E106B093E206EBEDF2E080E094E0B8
:10553000DF019C011D9221503040E1F7F0939A0267
:10554000E09399028FEF9FEF9093DE068093DD0644
:1055500081E08093E5068093EB061092DC06809153
:10556000730281113BC080E090E00E943B35873E92
:105570009E4F21F00E946C140E94E01488E090E09D
:105580000E94353560935F077093600780936107D1
:105590009093620780915E07836080935E0762301C
:1055A00070F40E94E01488E090E00E94353560932A
:1055B0005F077093600780936107909362070E9472
:1055C000D90D0E94EE0D80915F0780FF04C060E05E
:1055D00086950E943F1981E0809373020E94F80F24
:1055E000811102C00E94CF3281E291E0909327079F
:1055F00080932607CE010196B0E4BB2E89879D8754
:1056000080912007853049F480912007853009F486
:1056100090C00E946C1C0E944E100E94FB2601E864
:1056200012E0F8E7CF2EF2E0DF2EA8E9EA2EA1E0A3
:10563000FA2EB7019601F8019191D9018D919D0142
:10564000DB014D91BD01842349E852E04E175F070D
:1056500009F4C6C0981781F30E94F80F582E912CB8
:10566000D601AD906D01F70181917F01A822D8018B
:105670006D908D016A1439F16A24812C772473941A
:10568000872D86218823B9F05520A9F089829A8236
:1056900091E0872D8A21811101C090E09B830E94B7
:1056A0000D198160782F9D838C8349815A816B818C
:1056B000892F0E9476268394770CB8E08B12E0CF76
:1056C000F8013197A0829394E8E09E12C9CF0E941E
:1056D0007B0ECC24C394A5C080E009CE0191802F1D
:1056E00082958F70805E90E0DC012C91DA013D9113
:1056F000AD01832F82958F70805E90E0DC018C91EC
:1057000090E03F7002C0959587953A95E2F78170D9
:10571000880F30E00F7002C0359527950A95E2F7A3
:105720002170822BD7018D937D0146CE84EF99E0C5
:10573000DBCE80912007843029F10E94E917109276
:10574000740248E150E00FB6F894A89540936000C9
:105750000FBEB092600083B7817F846083BF83B740
:10576000816083BF7894889583B78E7F83BF0FB69F
:10577000F894A895809160008861809360001092F1
:1057800060000FBE80917502882309F43DCF0E940E
:10579000FB26E8E7F2E0A8E9B1E020E832E08191F9
:1057A0009D918923811104C02E173F07C1F72CCF8B
:1057B00080E189BD82E189BD09B400FEFDCF809101
:1057C000D8008F7D8093D8008091E0008260809324
:1057D000E0008091E00081FDFCCF0E946C1C14CFA2
:1057E00098133ACF0E940D198C0180917602909106
:1057F000770208171907A1F08FEF89838A831B822C
:105800000E940D198160782F9D838C8349815A8174
:105810006B81892F0E94762610937702009376027F
:10582000C12C0E94F80F80915D07882309F465C0A0
:1058300080915C07E0915F07E695E81BE0938E029C
:10584000823009F05DC0F0E0EB5EF54FE4910E2F81
:1058500010E0E6E48E2EE3E19E2E80918F028823F5
:1058600061F010928F020E94191990938D0280931B
:105870008C0210929102109290020E9419199C01C0
:1058800080918C0290918D02A901481B590B4F3FCA
:105890005F4798F540918B024423B1F010928B0240
:1058A0004091890250918A02241B350B2F3F3F47BC
:1058B00058F4405D5A4850938A02409389022091DF
:1058C0005E07286020935E07E0909002F0909102BE
:1058D000800F911F90938D0280938C028CE892E050
:1058E000F40109958091900290919102892B29F4FD
:1058F000EF2819F081E080938B02E12CD12CD4C0E9
:10590000853109F446C068F4893059F18F30A9F126
:105910008630E1F000ED17E073E0872E7DE0972EF2
:105920009CCF833209F440C004EF11E091EB892E43
:1059300090E1992E843209F490CF883159F708E22A
:1059400010E08DE3882E82E1982E87CFF0E0EE5EA6
:10595000F54FE4910E2F10E06AE5862E63E1962E56
:105960007CCFE695F0E0E15FF54FE4910E2F10E07B
:1059700052EF852E50E1952E70CFE695F0E0E45F72
:10598000F54FE4910E2F10E040E3842E41E1942E78
:1059900064CFF0E0E75FF54FE4910E2F10E03AEBB3
:1059A000832E31E1932E59CFE7E0FAE0059114916F
:1059B00021EF822E22E1922E50CF0E2D10E0F80121
:1059C000E65DFE4F4081E42FE295EF70E05EF0E08F
:1059D0002081F801E75DFE4F3081E32FE295EF7003
:1059E000E05EF0E0808190E03F7002C09595879581
:1059F0003A95E2F78170880F30E04F7002C035951C
:105A000027954A95E2F72170822BD801AA56BD4FFF
:105A1000EC919E2F9370891709F445C0EE0FEE0F9D
:105A2000E82BEC93F0909402FE0CEF70F0E0E0565F
:105A3000FE4F0E561D4F8081D8019C91890F8C938B
:105A400020E0843084F0EF2DF0E0E750F94F8081C2
:105A50008F5F80830E94F80F882321F060E08F2DF4
:105A60000E94481B21E0F80180818D3F84F4EF2DD6
:105A7000F0E0E750F94F8081815080830E94F80F59
:105A8000882321F061E08F2D0E94481B21E0D8017E
:105A90008C91082E000C990B64E070E00E94943405
:105AA000F8018083D22AE39480919502E81608F4E5
:105AB00084CF1091E506DD2009F46AC00E94980E9B
:105AC00011116CC00E94FC1786E0E3E5F7E0A985A0
:105AD000BD8501900D928A95E1F7109255071092BD
