:100000000C944B030C9483030C9483030C945C209A
:100010000C9483030C9483030C9483030C94830348
:100020000C9483030C9483030C94971E0C946F1F01
:100030000C944C1E0C9483030C9483030C94830344
:100040000C9483030C9483030C9483030C94830318
:100050000C9483030C94731E0C9483030C948303FD
:100060000C9483030C9483030C9483030C948303F8
:100070000C9483030C9483030C9483030C948303E8
:100080000C9483030C9483030C9483030C948303D8
:100090000C9483030C9483030C9483030C948303C8
:1000A0000C9483030C9483030C9483030104333076
:1000B0007C00010431307C000000000000000000E2
:1000C0000000000000000000000000000000000030
:1000D0000000000000000000000000007E0F00D4BF
:1000E000FFFFFFC7000000780000000000000000D4
:1000F0002A2B280000000000000000000000000083
:1001000000000029000000002C1E3420212224348D
:100110002627252E362D3738271E1F20212223245F
:1001200025263333362E37381F0405060708090AFB
:100130000B0C0D0E0F101112131415161718191A97
:100140001B1C1D2F3130232D350405060708090A15
:100150000B0C0D0E0F101112131415161718191A77
:100160001B1C1D2F3130354C05010902A1018502F0
:100170000901A100050919012908150025019508A3
:10018000750181020501093009311581257F95022C
:100190007508810609381581257F95017508810646
:1001A000050C0A38021581257F950175088106C066
:1001B000C005010980A101850319012AB7001501B5
:1001C00026B700950175108100C0050C0901A10139
:1001D000850419012AA002150126A00295017510B7
:1001E0008100C005010906A101050719E029E715ED
:1001F00000250195087501810295017508810105A9
:1002000007190029FF150026FF00950675088100D3
:1002100005081901290595057501910295017503D8
:100220009101C009023B00020100A0FA090400008C
:10023000010301010009211101000122400007050D
:1002400081030800010904010001030000000921E5
:1002500011010001227B0007058203200001120129
:100260000002000000081D8D9D9D0001010200019B
:1002700016034B00790072006900610020007200D3
:1002800065007600320000001803730070006C00F7
:10029000690074006B0062002E0063006F006D0047
:1002A0000000040309040000000005001300090019
:1002B0001A0014000000000000000A28172216216E
:1002C000152404400000000000001900070006008B
:1002D0001B001C00000000002C432844000000000C
:1002E000000000000000000000000D000F0018409A
:1002F0001D002D0000000000000010281132082110
:100300000C2412400000000000000E000B003640DC
:1003100037403840000000002A412B420000000016
:10032000000000000000000000000000000052007B
:10033000000000000000000000004D004F005100D0
:1003400050004A000000000000000000A900AA00C0
:10035000A800AE0000000000E100E0000000000086
:1003600000000000000000000000290000004B0019
:10037000000000000000000000004C0000004E00E3
:10038000000000000000000000002A000601190122
:100390001B01007C000000000100000000000000C4
:1003A0000000000000000000000000000000CD0080
:1003B000000000000000000000000000D000CE009F
:1003C000CF0000000000000000000000000000005E
:1003D000000000000000000000000000000000001D
:1003E000000000000000000000000000DB00D90059
:1003F000DC00407E000000000000B600D100DA0002
:10040000D200B70000000000000000000601190142
:100410001B010000000000000000010000000000BF
:1004200000000000000000000000290000000000A3
:10043000000000000000000000004C001414220224
:10044000350023430000000000002A0006011901C6
:100450001B0100000000000001000100000000007E
:10046000000000000000000000001F43254320435F
:10047000214322430000000000001E4324431F02CA
:100480002702300200000000000030002643320244
:1004900064006402000000002D021E020000000043
:1004A000000000000000000000000000000000004C
:1004B000000000000000000000000000000000003C
:1004C000000000000000000000000000060119010B
:1004D0001B010000000000000100010000000000FE
:1004E00000000000000000000000000024002500C3
:1004F0002600000000000000000000002100220093
:100500002300000000000000000000001E001F4447
:100510002044000000000000270000000000000050
:10052000000000000000000000000000467E477E42
:100530004D7E4C7E0000000000000000417E427EA7
:10054000437E447E0000000000004A7E457E487ED7
:10055000497E4B7E00000000010001000000000009
:10056000000000000000000000000000400041000A
:100570004200430000000000000000003D003E007B
:100580003F00440000000000000000003A003B0073
:100590003C004500000000000000000000000000DA
:1005A0000000000000003100676974207265736507
:1005B000742048454144006769742073746173680E
:1005C00020706F7000676974207374617368002015
:1005D000676974206272616E6368202F61767600AD
:1005E000206769742072656D6F7465207072756E16
:1005F00065206F726967696E002067697420707585
:100600006C6C0067697420636865636B6F75742038
:100610006D61737465720067697420726573746FBD
:100620007265202E0067697420636865636B6F755F
:10063000742000676974206272616E6368202F61A4
:100640007676006769742070757368006769742036
:1006500070756C6C0067697420616464202F702071
:100660002E0067697420636F6D6D6974202F616D52
:100670002000676974206469666600676974207386
:100680007461747573003100010431357C003000F1
:10069000010431357C0011241FBECFEFDAE0DEBF4C
:1006A000CDBF04B603FE18C080916302909164022E
:1006B000A0916502B09166028730904BA740B04B85
:1006C00059F4109263021092640210926502109223
:1006D0006602E0E0F8E3099511E0A0E0B1E0EAE3AA
:1006E000F5E402C005900D92A837B107D9F722E0D2
:1006F000A8E7B1E001C01D92A336B207E1F70E945E
:10070000371B0C9434220C9400009C01FB019A9539
:1007100081159F41A8F431FB882780F9A90144275E
:10072000547034FF08C08295880F807E452B09F0F5
:10073000806409950895880F452BD9F38460F9CF1B
:1007400080E0F7CF909324028093230208959C01C8
:1007500088719927489731F42062309326022093BC
:10076000250208952F7DF9CF21E030E002C0220F4D
:10077000331F8A95E2F78091250290912602822B01
:10078000932B0E94A703089521E030E002C0220FBE
:10079000331F8A95E2F7209530958091250290913C
:1007A0002602822393230E94A7030895282F292B32
:1007B000283070F528E0929FF0011124E80FF11D18
:1007C000877041E001C0440F8A95EAF783E0F6950F
:1007D000E7958A95E1F7EE0FFF1FEE0FFF1FEB5035
:1007E000FE4F80E090E070E05191DF0111979B0196
:1007F000082E02C0369527950A94E2F721702195BC
:100800002527242325272C9301968430910561F711
:100810000895292F282B283060F528E0929FF001B9
:100820001124E80FF11D982F977083E0F695E79556
:100830008A95E1F7EE0FFF1FEE0FFF1FEB50FE4F03
:1008400040E050E080E0219130E0092E02C0369572
:1008500027950A94E2F721703327042E01C0220F56
:100860000A94EAF7822B4F5F5F4F4430510559F7E6
:10087000089580E0089580912C0290912B029813A6
:1008800001C008958F5F8770FACFECE7F1E0919196
:10089000891303C0DF0111971C9291E0E238F90738
:1008A000B1F7089520912702809582238093270233
:1008B000982F9770911113C030E0482F082E000C2C
:1008C000550B2417350759F09091290292FF07C064
:1008D0008595859585950E94C403109227020895F9
:1008E000982F909580912102892380932102089569
:1008F000809122028111109222020895962F972B47
:100900009830B0F48630B8F498E0899FF001112453
:10091000E70FF11D83E0EE0FFF1F8A95E1F7E60F69
:10092000F11DEE0FFF1FEA55FD4F8591949108953B
:1009300080E090E0089581E0FCCF803E9105D1F108
:10094000C8F48133910509F47FC048F489329105D8
:1009500009F46FC08A32910509F47DC00895893386
:100960009105E1F082389105C9F08533910509F4CC
:100970005BC00895843E9105D1F148F4823E910513
:1009800031F1833E910541F181EE90E00895863E7C
:100990009105C1F1873E9105E1F10895209128026A
:1009A0002370211165C02091290223FF14C089E220
:1009B00090E008952091280220FD43C03091290243
:1009C00030FF09C024FF4EC080E090E008952091E0
:1009D000280222FDF7CF08952091280222FD45C06C
:1009E0003091290230FD44C024FFF5CFEDCF209196
:1009F000290221FFF0CF8091280284FDE5CF87EE08
:100A000090E008952091280223FFE5CF24FDDCCF5C
:100A1000F6CF2091280223FD2EC03091290231FF0C
:100A2000E3CF84EE90E008952091280225FFD3CFF4
:100A3000BECF2091280225FD21C02091290223FF4D
:100A4000CACF89E390E008952091280226FFC3CF02
:100A50008AE290E008952091280226FFBCCF81E32E
:100A600090E0089583EE90E0089582EE90E008957E
:100A700080EE90E0089586EE90E0089585E390E0A2
:100A8000AACF2091280222FF06C0982F9871983093
:100A9000C1F4877F846090912902392F3170927060
:100AA00023FF21C0482F4871483191F4877E84612B
:100AB0009923B1F0982F9171913191F48E7E8861D4
:100AC0000FC0982F9471943031F78B7F8860E3CFFB
:100AD000482F4471443139F48B7E8861911118C0DC
:100AE00024FD877E0895332369F0382F387138301C
:100AF00019F4877F8160DCCF382F3171313011F4E8
:100B00008E7F8860992361F3982F9871983191F6C0
:100B1000877E8161E5CF1F93CF93DF930E949D0471
:100B2000EC01811522E5920708F053C0811540E5DC
:100B3000940708F0DDC0803E9105F8F48D3C9105E6
:100B400008F0AEC0883A910580F4853A910508F026
:100B500099C08130910521F00497813A910550F4B4
:100B6000CE01DF91CF911F910895885A91094B973B
:100B700008F48BC0C0E0D0E0F3CF811550E49507B6
:100B8000F8F4C11580E2D80708F0CBC0C83ED10503
:100B900038F3CE019A9581159F4160F78D2F0E9401
:100BA0004105182FCE0199270E949D04212F30E086
:100BB000322F2227E901CC27DF71C82BD92BD0CFC8
:100BC00099270E949D04CC27DF70C82BD92BD06AAF
:100BD000C7CF803842E59407C8F5803652E59507BF
:100BE00008F067C0C03482E5D807B0F08C2F869536
:100BF0008695877020E2829FC0011124C37021E096
:100C000030E0A90102C0440F551FCA95E2F7EA017E
:100C1000C82BD92BDC68A4CFC03252E5D50708F029
:100C200041C08C2F8695869520E2829FC0011124B9
:100C3000C37021E030E0A90102C0440F551FCA95DE
:100C4000E2F7EA01C82BD92BDD688ACF803C52E558
:100C5000950760F48F71C03AD24508F03FC090E02C
:100C6000982F8827EC01C46FD06A7ACF805C9245B8
:100C7000809708F07FCFDC2FCC27CC27DF71C06FA7
:100C8000D06A6ECFA497D0646BCFC85AD0E0CC0F97
:100C9000DD1FCF5BDE4F0990D881C02DD46460CFBB
:100CA000D0655ECFCF71D0E0DC2FCC27C16FD06A8A
:100CB00057CF86958695877020E2829FC0011124C8
:100CC000C37021E030E0A90102C0440F551FCA954E
:100CD000E2F7EA01C82BD92BDA6842CF0E9441051E
:100CE000C82FD0E0DC2FCC27CC27DF71D06238CFE3
:100CF0008F710E94410565E0D695C7956A95E1F729
:100D0000CF70D0E0DC2FCC27282F30E084FF05C047
:100D100054E0220F331F5A95E1F7C22BD32BD06931
:100D20001FCF8D2F8F710E944105182FCE0199275B
:100D30000E949D04212F30E0322F222722273F716D
:100D4000282B392BE901D2CFA0E0B0E0EAEAF6E0A7
:100D50000C9480218C01E0902502F0902602809175
:100D6000230290912402E82AF92ACFE0D0E0CC2493
:100D7000C394D12CC6010C2E02C0880F991F0A946F
:100D8000E2F78E219F21892B49F4219798F7B12C06
:100D90008B2DCDB7DEB7E9E00C949C21BC2EB801B9
:100DA0008C2F0E947E040E948B05019771F3F0CF77
:100DB0000F931F93CF93FC018281008111818823BF
:100DC00091F0662381F0C8010E94A406C82F682F05
:100DD000C8010E94D603B8018C2F0E947E04CF91D7
:100DE0001F910F910895C8010E940904C82FF3CFE5
:100DF000CF93DF93D82FC92F0E94A4066D2F7C2F8D
:100E00000E947E040E948B05DF91CF910895FC0122
:100E100083819481892BC9F08181908189238F3FBF
:100E2000A1F0808191810E94F806282F92959F70F1
:100E3000963091F060F4925F9F70923030F481E0D0
:100E4000203F79F030F4283E30F080E004C09A5F13
:100E5000F3CF243FD1F7089581E0283E18F0213FD9
:100E6000F9CF0895089580E00895F894E82FE29569
:100E7000EF70F0E041A18F7021E030E0B90102C0D5
:100E8000660F771F8A95E2F7CB01962F90959423F2
:100E900091A392A1892B82A378940895809117023F
:100EA00080FD16C081FD16C082FD18C0809116021B
:100EB000882391F0803490F420E3829FC0011124B4
:100EC00026E0959587952A95E1F7009749F00895D2
:100ED0008CE0089588E1089588E0089580E30895FE
:100EE00081E008958091170280FD17C081FD17C031
:100EF00082FD19C080911502882399F0883298F4F8
:100F000028E0829FC001112468E270E00E94AE21B7
:100F10006115710551F0862F089562E0FCCF64E001
:100F2000FACF61E0F8CF68E0F6CF81E00895A3E062
:100F3000B0E0EDE9F7E00C9487219C018091A601D7
:100F40009091A70182179307A1F03093A7012093F6
:100F5000A601E091EB01F091EC01309751F083E0B4
:100F600089833B832A830680F781E02DCE01019699
:100F700009952396E2E00C94A321A3E0B0E0E3EC12
:100F8000F7E00C9487219C018091A4019091A50128
:100F900082179307A1F03093A5012093A401E0915B
:100FA000EB01F091EC01309751F084E089833B83B1
:100FB0002A830680F781E02DCE01019609952396BC
:100FC000E2E00C94A3219C01FC0132968FEF90E0AB
:100FD0004191461751F08F3F19F4411101C0892FFB
:100FE0009F5F9630A9F78F3F09F40895280F311DB0
:100FF00087FD3A95F901628308952FB7F89480919F
:10100000D2019091D301A091D401B091D5012FBF0D
:1010100008950E94FD0720911A0230911B02232B94
:10102000222321F08093C7019093C80120911C02D4
:1010300030911D02232B222321F08093C501909330
:10104000C601E091EB01F091EC01309749F082E0AC
:10105000809318020480F581E02D88E192E00995E3
:101060000895662309F44BC0E3E3E80FE33150F43D
:10107000F0E0EA5CFD4D0C94C2210E944E07819580
:1010800080931B020E94090808950E944E07F8CF22
:101090000E944E07819580931A02F4CF0E944E075A
:1010A000FACF0E94720780931C02ECCF0E94720755
:1010B0008195F9CF0E947207819580931D02E2CF3E
:1010C0000E947207FACF815D990B21E030E001C0E8
:1010D000220F8A95EAF780911902822B80931902D8
:1010E000D1CF80911702816080931702CBCF80917E
:1010F00017028260F9CF809117028460F5CF40918A
:101100001A028D3C59F480911B0287FF0DC010928A
:101110001B02442359F41092160208C08E3C81F43D
:1011200080911B0218169CF3442381F080911C02CD
:1011300090911D02892B8111A5CF10921502A2CF8B
:101140008F3C41F447FFF0CF10921A0280911B02AE
:101150008823E0CF803D19F41416B4F3E5CF9091C5
:101160001C02893D29F41916FCF610921C02DCCFF2
:101170008A3D19F497FFD8CFF8CF90911D028B3D8F
:1011800029F497FFD1CF10921D02CECF8C3D19F4D8
:101190001916CCF3C9CF9FE2980F983090F4815D77
:1011A000990B21E030E0B90102C0660F771F8A95E4
:1011B000E2F7CB018095909119028923809319025F
:1011C000B3CF8D3D31F4809117028E7F809317024B
:1011D000ABCF8E3D21F4809117028D7FF7CF8F3DED
:1011E00009F0A2CF809117028B7FF0CFA4E0B0E08E
:1011F000ECEFF8E00C9487218FB7F8942091D2019E
:101200003091D3014091D4015091D50129833A8383
:101210004B835C838FBF69817A818B819C8124960B
:10122000E2E00C94A3219C014FB7F8948091D20185
:101230009091D301A091D401B091D5014FBF821BF1
:10124000930B08958091A3010895FC019B01809167
:10125000990190919A018617970740F0672B29F41E
:101260008091E8008E778093E800C90140E0009704
:1012700041F4411106C08091E80082FF2FC080E058
:1012800008952091E7012223A9F12530A9F12091A9
:10129000E80023FD2DC02091E80022FDECCF209135
:1012A000E80020FFE4CF3091F3002091F200009796
:1012B00019F02830310558F041E02830310509F0A7
:1012C00040E02091E8002E772093E800D0CF4191B4
:1012D0004093F10001972F5F3F4FE9CF8091E701E5
:1012E000882341F0853041F08091E80083FFC3CF2F
:1012F00081E0089582E0089583E00895809193014C
:1013000087FF13C08091E80082FF06C08091E8004B
:101310008B778093E80004C08091E7018111F2CFC0
:1013200008958091E7018823D9F38091E80080FF38
:10133000F8CF8091E8008E77ECCF2091E4003091D7
:10134000E50095E6A9018091EC008170882331F0D9
:101350008091E80080FF06C080E008952091E800B9
:1013600022FD1BC08091E701882391F0853091F028
:101370008091EB0085FD10C02091E4003091E500E4
:101380004217530701F391509111DCCF84E0089587
:1013900082E0089583E0089581E00895E8EDF0E0AB
:1013A00080818E7F80831092E2001092DA0010928A
:1013B000E100A0EEB0E08C9181608C9380818F770A
:1013C000808319BCA7EDB0E08C918E7F8C938081D7
:1013D0008F7E8083109292010895FC01AC014C5FD6
:1013E0005F4F8FEF91E32191822728E030E087FF64
:1013F0000BC0880F89272150310921153105B9F714
:10140000E417F50781F70895880FF5CF982FE42F9B
:10141000E2709093E900891308C0762F242F50E0E2
:10142000E11111C091E0980FF4CF7091EC00209180
:10143000ED005091F00021FD06C09F5F973049F705
:101440008093E90008953091EB003E7F3093EB00EC
:101450003091ED003D7F3093ED003091EB00316035
:101460003093EB007093EC002093ED005093F0006C
:101470002091EE0027FDE1CF0895A0E0B0E0E3E485
:10148000FAE00C948121C8EDD0E088818F7E8883BA
:10149000E7EDF0E080818160808384E082BF81E0BD
:1014A0008093920188818E7F888302EE10E0F8019C
:1014B00010821092DA0081EEC82ED12CF601108233
:1014C00088818F77888388818068888388818F7DF1
:1014D000888319BC1092E701109291011092B30118
:1014E0001092900190EEE92EF12CF70180818B7F14
:1014F000808388818160888342E060E080E00E9490
:10150000060AF60180818E7F8083F80180818160E8
:101510008083808188608083F70180818E7F8083D3
:10152000888180618883CDB7DEB7E8E00C949D2187
:10153000E0912C0290912B0226E0E91302C080E09A
:101540000895AE2FB0E02E9FF0011124E35DFD4F12
:101550003181361306C03081381303C03281341311
:1015600004C0FD013196E770E8CF81E008958091D5
:10157000E801811110C08091D80080618093D8006B
:101580008AE18A95F1F700C08091D90080FF0AC0F6
:1015900081E08093E80181E09091E801913009F0C9
:1015A00080E0089582E08093E8010E94CE091092C5
:1015B000E701F1CF0E94B70A882359F0E091EB01CF
:1015C000F091EC01309729F00190F081E02D099520
:1015D000089580E008950F931F93CF93DF93EB015D
:1015E0008A019091E701943079F58093E9008FEFBB
:1015F0009091E80095FD07C095ED9A95F1F70000F0
:1016000081508111F5CF8091E80085FF1DC00E94B7
:101610009D09811114C08091E80085FD06C080916C
:10162000E8008E778093E800F2CF88818093F10004
:10163000015011090115110511F02196ECCF80918F
:10164000E8008E778093E800DF91CF911F910F9192
:101650000895CF93DF93D82FC92F48E050E0682F2B
:10166000792F81E00E94EB0A88E0ED2FFC2FABE997
:10167000B1E001900D928A95E1F7DF91CF91089545
:10168000BC0146E050E082E00E94EB0A0895BC01F4
:1016900043E050E082E00E94EB0A0895A0E0B0E051
:1016A000E4E5FBE00C947F21F82EE92EB62EA72E60
:1016B0008A0180918E01CC24C394D12C8A3018F4F5
:1016C0008AE0C82ED12CC1E0D0E06B2D7A2D8F2D71
:1016D0009E2DF8010995811116C02196CC16DD06C4
:1016E00094F0CC9FC001CD9F900D900D112420E06F
:1016F00030E045E34A95F1F700002F5F3F4F281790
:101700003907B9F7E2CFCDB7DEB7EAE00C949B21F9
:101710009091290292FB222720F9281779F080FB6B
:1017200092F990932902609128027091290284E035
:1017300090E00E94082282E00E9452040895809165
:10174000210290912A02892B80937A0190912202A2
:10175000992391F0892B80937A0120E08CE791E026
:10176000FC013081019631112F5F31E082389307FF
:10177000B9F721110E94780448E050E06DEE71E065
:101780008AE791E00E941E22892BA9F088E0EAE70F
:10179000F1E0ADEEB1E001900D928A95E1F7E091B4
:1017A000EB01F091EC01309731F00280F381E02DF4
:1017B0008AE791E009950895882339F090912102F4
:1017C000892B809321020E949F0B0895882339F072
:1017D00090912A02892B80932A020E949F0B0895E0
:1017E000882321F00E9470040E949F0B0895882393
:1017F00041F0809590912A02892380932A020E94C9
:101800009F0B0895CF93C82F8823A9F08CEF8C0FDE
:10181000813A98F4ECE7F1E08191C81709F440C0EF
:1018200021E0E238F207C1F76C2F8AE791E00E94CD
:10183000E3070E949F0BCF91089580E28C0F8830C0
:1018400068F4C77021E030E001C0220FCA95EAF7C2
:1018500080912102822B80932102EBCF8BE58C0FAC
:10186000833038F42C2F2452330BC9010E94970780
:10187000E2CFE8E5EC0FEB3150F4F0E0EE0FFF1FA4
:10188000EF5BFE4F808191810E94BD07D4CF83E33F
:101890008C0F833180F661E08C2F0E943108CBCF12
:1018A0008C2F0E9445040E949F0BBECFCF93C82F60
:1018B00066EE7BE00E9485038C2F0E94020CCF9184
:1018C0000895882381F19CEF980F913A28F40E94A3
:1018D00045040E949F0B089590E2980F983050F4B1
:1018E000877091E001C0990F8A95EAF7892F0E94CD
:1018F0007004EFCF9BE5980F933028F480E090E0E0
:101900000E949707089598E5980F9B3128F480E08E
:1019100090E00E94BD07089593E3980F933118F467
:1019200060E00E9431080895CF93DF93EC010E949C
:10193000610C67EF7BE0CE010E948503DF91CF91C0
:1019400008950F931F93CF93DF93EC0100E010E015
:10195000C99711F400E510E0CE010E94560C011564
:10196000110541F4CE010E94940CDF91CF911F919B
:101970000F9108958FE99FE00197F1F700C00000F3
:1019800001501109ECCF282FCA01603128F4211130
:101990000E94A10C80E0089581E00895782FCA018B
:1019A000603130F0772331F00E94560C80E00895CA
:1019B000C901F8CF0E94940CF9CF0F931F93CF93D6
:1019C000C82F00E010E0893311F400E510E08C2FFF
:1019D0000E94020C0115110539F48C2F0E94610C34
:1019E000CF911F910F9108958FE99FE00197F1F733
:1019F00000C0000001501109EDCF0F931F93CF934A
:101A0000DF93C62FD42F122F8823A9F060931F02D3
:101A10000E94FD0790938D0180938C01C77081E037
:101A200001C0880FCA95EAF70E94DC0BDF91CF91C5
:101A30001F910F91089580911F02681332C0809109
:101A40008C0190918D010E941309883C910548F505
:101A5000CD130CC0812F0E94DD0CD77081E001C036
:101A6000880FDA95EAF70E94F00BE0CFC77001E02B
:101A7000802F01C0880FCA95EAF70E94F00B80E220
:101A80008D0F883050F48D2F877001C0000F8A951C
:101A9000EAF7802F0E94DC0BDDCF812F0E94DD0C46
:101AA000C5CFC77081E001C0880FCA95EAF7DBCFC8
:101AB000A0E0B0E0EEE5FDE00C9482218C01F8019D
:101AC0009491992309F4AAC0913009F048C0E80123
:101AD0002196FE018491813049F42196FE01849182
:101AE0000E94DD0C8E010F5F1F4FE9CF823039F469
:101AF000E8012296FE0184910E94020CF3CF83300C
:101B000039F4E8012296FE0184910E94610CEACF2B
:101B1000843041F7E8012296FE01849120E030E014
:101B20004AE0FE0131968053990B8A30910560F0AE
:101B300021153105B9F28FE99FE00197F1F700C057
:101B4000000021503109F4CF429FB001439F700D36
:101B500011249C01260F371F8491EF01E2CFE92F5A
:101B6000F0E0E851FF4FD490292F26952695269531
:101B700030E0F901E852FF4F84919770F901E85382
:101B8000FF4FE490F12C092E02C0F594E7940A94DB
:101B9000E2F7E1E0EE22FF24F901E854FF4FC4919F
:101BA000D0E0092E02C0D595C7950A94E2F7C1701E
:101BB000DD27E82FF0E002C0F595E7959A95E2F76A
:101BC000E0FD0DC0E114F104A9F48D2D0E94DD0C9F
:101BD000CD2B19F08CE20E94DD0CE80183CF81EE61
:101BE0000E94020CE114F10479F48D2D0E94DD0CA9
:101BF00081EE07C086EE0E94020C8D2D0E94DD0C46
:101C000086EE0E94610CE4CF86EE0E94020C8D2DC0
:101C10000E94DD0C86EE0E94610CEACFCDB7DEB7E4
:101C2000E7E00C949E21CF9310922102C6E0ECE7EE
:101C3000F1E0DF018C2F1D928A95E9F780E090E0BA
:101C40000E94970780E090E00E94BD0710922A0250
:101C50000E949F0BE8E1F2E0DF011D92CA95E9F7CF
:101C60001092160210921502109217020E94090893
:101C7000CF9108950E94130E2FEF84E39CE0215032
:101C800080409040E1F700C0000088E19CE00FB682
:101C9000F894A895809360000FBE90936000FFCFEA
:101CA000A0E0B0E0E6E5FEE00C948121EC01988133
:101CB00089812B813C81232B09F409C289238F3F21
:101CC00009F405C261E0CE010E94D8068C018F3173
:101CD00024E4920709F445C108F0A6C0073283E462
:101CE000180708F44CC08A8181110DC28A81E880EE
:101CF000F980882309F417C3C7010E94A406182F8E
:101D0000682FC7010E94D603B701812F0E947E046D
:101D10000E948B058C01FA80ED80E2942FE0E22294
:101D20008091270287708823F1F0DF2CFF20E1F0FB
:101D3000812F807F803451F080E2800F883098F0CE
:101D4000E11004C0812F807E803269F080912902E9
:101D500082FF09C082E00E945204809127028770AE
:101D6000DD24D3948111D12CE12FE295EF70103C4A
:101D700008F016C3F0E0E75BFD4D0C94C2210E3174
:101D800093E4190740F5063320E4120709F466C00E
:101D900088F5023180E4180709F45DC04FE250E095
:101DA000083190E4190739F044E350E0043020E4AE
:101DB000120709F098CF6D818A810E94C30C5CC024
:101DC000F801E154FE47ED30F10508F0D0C0EB5AC0
:101DD000FD4D0C94C221F801EF51F34428E034E1A9
:101DE00041E252E0E830F10508F042C0EE59FD4D05
:101DF0000C94C221073330E4130799F148E352E011
:101E0000083380E41807B9F28A8181117FC1063155
:101E10002CE7120709F06ACF80912002811163C27A
:101E200089E20E9445048DC1003294E4190709F447
:101E30009BC08A81980120543E472E30310508F41A
:101E4000BFCFF801E851FC47E730F105E8F6E65965
:101E5000FD4D0C94C22143E350E0ADCF46E352E088
:101E6000AACF47E352E0A7CF26E232E045E252E0B4
:101E70006D818A810E94CE0C882309F419C18A8160
:101E8000882309F433CF10921F02C801905783971B
:101E900008F45AC10A358CE7180709F440C208F063
:101EA00024C201302CE7120709F437C203303CE7A3
:101EB000130709F42CC201151C4709F017CF0E9423
:101EC000130E3FEF84E39CE0315080409040E1F7F7
:101ED00000C0000081E08093E00080E28093D800A1
:101EE0001092C9008FE19EE40197F1F700C0000055
:101EF00087E090EBDC018093630290936402A093EF
:101F00006502B093660288E19CE00FB6F894A8954C
:101F1000809360000FBE90936000FFCF26E234E113
:101F200045E254E1A5CF27E234E144E254E1A0CFF9
:101F300024E634E143E252E09BCF2EE232E04EE26F
:101F400050E096CF2DE234E144E252E091CF20E31D
:101F500034E142E350E08CCF25E332E040E252E04E
:101F600087CF4FE154E127CF40E254E124CF8823CB
:101F700009F485CF80911E02882359F080E996E00C
:101F80000E94580D10921E028EE896E00E94580D95
:101F9000AACE88E896E00E94580D81E080931E0248
:101FA00086E896E0F3CF882309F469CF8BE796E0C3
:101FB0000E94580D88E290E00E94A10C94CE8823E4
:101FC00009F45DCF82E796E0F3CF882309F457CF79
:101FD00082E696E00E94580D8FE192E00E94A10CEB
:101FE0008FE192E00E94A10C80E590E0E5CF88238C
:101FF00009F445CF85E596E0DBCF882309F43FCF90
:102000008CE496E0D5CF882309F439CF83E496E0B9
:10201000BDCF882309F433CF83E396E0C9CF88236B
:1020200009F42DCF85E296E0B1CF882309F427CFBC
:1020300087E196E0ABCF882309F421CF83E096E0D7
:102040000E94580D86E392E00E94A10C89EF95E072
:102050000E94580D86E392E00E94A10C80EE95E06C
:102060000E94580D86E392E00E94A10C8FEC95E04F
:102070009FCF882309F403CF85EC95E099CF88237F
:1020800009F4FDCE87EB95E093CF882309F4F7CED2
:1020900088EA95E00E94580D80E394E10E94A10C2B
:1020A00086EA95E073CF26E241EE61EE0E94FD0CD8
:1020B000809127028770882351F08A81882339F024
:1020C0008091290282FF03C082E00E945204CDB7B2
:1020D000DEB7E8E00C949D2127E245EE65EEE6CF01
:1020E00026E241EE60EEE2CF27E245EE64EEDECF7F
:1020F00026E241EE62EEDACF27E245EE66EED6CF7B
:1021000028E241E0EBCF10921F02C4CE10921F02D2
:10211000C80190578397C0F006313CE7130709F0D8
:10212000B9CE809121028A7A91E0811101C090E0BC
:102130009093200269E2811165E38AE791E00E94B1
:10214000E3070E949F0BB4CF84E090E00E94E4215B
:102150009093290280932802F801E150F047E2327F
:10216000F10520F4EF58FD4D0C94C2218091280216
:10217000816080932802609128027091290284E096
:1021800090E00E9408220E94130E92CF80912902B3
:10219000886080932902EFCF809128028260E9CF86
:1021A000809128028460E5CF809128028860E1CF89
:1021B000809129028160EDCF809129028260E9CF70
:1021C000809128028061D5CF809128028062D1CF92
:1021D000809128028064CDCF0E94130E8091280246
:1021E0008068C7CF809128028C60C3CF809129027C
:1021F0008360CFCF809128028E7FBBCF8091290250
:10220000877FC7CF809128028D7FB3CF809128022E
:102210008B7FAFCF80912802877FABCF809129023F
:102220008E7FB7CF809129028D7FB3CF8091280216
:102230008F7E9FCF809128028F7D9BCF8091280237
:102240008F7B97CF0E94130E809128028F7791CFBA
:1022500080912802837F8DCF809129028C7F99CF36
:102260008091280282FB992790F921E0922790FB28
:1022700082F990FB83F97DCF80912902982F909568
:1022800091708E7F892B90FB81F983CF90912802EA
:10229000892F8F7B96FF80646CCF0E94130E9091E4
:1022A0002802892F97FB87F9805863CF61E08EE081
:1022B00090E00E94EA215FCF60E0F9CF9091280280
:1022C000892F8F7E94FF806154CF90912802892FAF
:1022D0008E7F90FF81604DCF90912902892F877F5B
:1022E00093FF886056CF85E39CCD0B359CE719079B
:1022F000C1F00C351C4709F0F9CC8091290282FB12
:10230000882780F991E089270E94880BEFCC6FEF36
:102310007FEF80E090E00E9408220E943A0E81E068
:10232000F3CF80E0F1CFC7010E940904182FECCC55
:10233000912F9F70E92E103118F0E29490EFE9226E
:10234000FF20B9F0EE2069F080E2800F883010F0B5
:10235000011109C0809121028E29809321020E94DF
:102360009F0B802F5DC080912A028E2980932A02C4
:10237000F6CF802F0E94610CEE2091F080E2800F5A
:10238000883010F0011104C08E2D0E94700406C028
:10239000E09480912A028E2180932A020E949F0B52
:1023A000DD20A1F08091270280FD10C01A82859562
:1023B000859585950E94B403CE010E94500E8091B0
:1023C00027028595859585950E94C40360E0CE011E
:1023D0000E94D8067CCE212F2F70C22E107F103283
:1023E00019F0C29480EFC822002351F0013009F4A3
:1023F0004AC0FF2009F454C0EE2009F44AC0B1CF0E
:102400002091290222FD17C0FF2069F0CC2039F06D
:10241000809121028C29809321020E949F0B80E0F1
:102420000E94020CBDCF80E00E94610CCC2009F418
:10243000B7CF8C2DAACFFF20A1F0909122028C2D36
:10244000892BE11003C00E94DC0BAACF31E0E3121C
:10245000FACF22FFA5CF981709F4A2CF80932202CA
:102460009FCFE11006C00E9478048C2D0E94F00BD3
:1024700097CF81E0E81609F493CF8C2D0E94F00BE2
:102480000E9478048DCFFF2031F095E09E1508F46E
:1024900087CF8C2DD8CF24E02E1508F481CFE5CF3F
:1024A000EE2019F3093349F43FEF87EE93E0315002
:1024B00080409040E1F700C00000802F0E94610C36
:1024C0006FCF812F869586958370882361F0813048
:1024D00009F066CFC8019370F11002C080E090E06F
:1024E0000E94BD075DCFC8019370F11002C080E06B
:1024F00090E00E94970754CF6F2D802F0E943108E3
:102500004FCF812F8370811142C0F1102FC0402F17
:10251000429546954770440F440F202F2F7030E0AE
:10252000042E02C0220F331F0A94E2F780E090E0ED
:1025300004FF09C08FE090E002C0880F991F4A9500
:10254000E2F7809590951695169513701230B1F0BC
:10255000133089F04091230250912402113049F048
:10256000822B932B842395230E94A2030E94DA0AD4
:1025700017CF242B352B822B932BF6CF822B932B2B
:10258000209123023091240282279327EDCFFF2050
:1025900091F110FFEBCF402F429546954770440FC5
:1025A000440F202F2F7030E0042E02C0220F331F63
:1025B0000A94E2F780E090E004FF09C08FE090E029
:1025C00002C0880F991F4A95E2F78095909516955D
:1025D000169513701230C1F0133099F04091250216
:1025E00050912602113059F0822B932B842395238E
:1025F0000E94A703BBCF823008F4B8CFCCCF242BE6
:10260000352B822B932BF4CF822B932B20912502F9
:102610003091260282279327EBCF1F70FF2039F0DD
:10262000812F0E94B403802F0E94DC0B9FCF802F4C
:102630000E94F00B812F0E94C40398CF023F71F1DA
:1026400078F4003FC1F0013F09F442C0FF2009F4D3
:1026500066C0EE2009F460C0802F0E94020C86CF75
:10266000033F19F1043F81F1F110F3CFE11065C090
:10267000812F8F71E0CFFF2071F024E02E1508F438
:1026800075CF1F7181E090E0012E02C0880F991F65
:102690000A94E2F7BBCF35E0E316F1CF812F8F71BB
:1026A000F110C9CF0E94B40361CF80E090E0FF2019
:1026B00009F49ECF1F7181E090E0012E02C0880FC7
:1026C000991F0A94E2F794CF8091290282FD06C0F7
:1026D000812F8F71FF2009F4AECFE4CFFF2089F066
:1026E0001F71812F0E94B4038091290282FF07C0CD
:1026F00028E0129FC0011124836080932702812F5C
:10270000D1CF81E00E94520431E03E1508F02ECF77
:1027100082E00E9452042ACF812F8F71C3CFEE2016
:1027200009F4A6CF093349F48FEF97EE23E08150E7
:1027300090402040E1F700C00000802F0E94610C13
:1027400015CF1F93CF93DF9380916202803108F001
:102750004CC080915F02882309F447C080912C020D
:1027600020912B0230915D0260915E02C091600267
:10277000D0916102732F76232817B9F190E020974A
:1027800009F443C016E07F3F09F43FC0189FF001F1
:10279000199FF00D1124DF01A35DBD4F11964C91DF
:1027A000119746132CC04C91431329C012964C919B
:1027B000129741111EC013964D915C914C1B5D0BFD
:1027C000483C5105E0F4809162028F7080618093F3
:1027D0006202EE5CFD4F80818F70806180838DE5A9
:1027E00092E00E94500E0E943B04DF91CF911F9116
:1027F00008950196877099272813C8CFF6CF0196C0
:10280000877099272813BFCFF0CF01968770B4CF78
:10281000ABE0B0E0EEE0F4E10C947F218C0185E0C8
:10282000F801DE01179601900D928A95E1F7F80103
:10283000F280C380D4808DE5A82E82E0B82E9091DE
:102840005D0220915E02409160025091610241154B
:10285000510509F4FEC0892F82238F3F09F4F9C086
:10286000E0905F02B601641B750BEE2009F4C5C051
:1028700080916202683C710508F0A1C0B18080318E
:1028800008F061C02B1113C02081291310C0F11072
:102890003EC08F708061809362028DE592E00E945D
:1028A000500E80916202F8018583F12C29C0AF801F
:1028B000C114D10451F18A2D8B218F3F31F1F110D8
:1028C00026C040E06B2D8A2D0E94980A40E06B2DB7
:1028D0008A2D0E94980AF82E8111E7CF8F81988562
:1028E0000E94F806292F22952F709034B0F49F7023
:1028F0002230E0F09923F1F0F80195819031D0F485
:102900008F2D2B96EAE00C949B21FF2071F2809191
:102910006202816080936202C8CF2A5F2F702230EA
:1029200068F0C8010E94500EFE2CEACF992311F0E6
:10293000882331F3805E883018F3F3CF803F00F3B3
:10294000815F8230F9CF2B1112C0208129130FC073
:10295000F1100DC08583C8010E94500E86E0F80179
:10296000ADE5B2E001900D928A95E1F725C0C8016E
:102970000E940707882309F468C0FF2009F465C096
:1029800080916202803270F020915D0230915E028F
:102990003A8329831B82DD82CC828E83CE0101960D
:1029A0000E94500E86E0F801ADE5B2E001900D9274
:1029B0008A95E1F70E94A113FF24F394A1CF8031FF
:1029C00050F48DE592E00E94500E86E0F5011192E0
:1029D0008A95E9F76ACF31813213C9CF2081291353
:1029E000C6CFF110C4CF8583C8010E94500E86E087
:1029F000F50111928A95E9F7DFCF683C710528F758
:102A0000FF2019F18181821316C08081891313C0C0
:102A10008091620280FDA2CF803108F49FCF858330
:102A2000807F803F09F497CF8581982F907F905FBA
:102A30008F70892B8FCFC8010E9407078111B2CFF9
:102A400080916202816080936202C8010E94500EF0
:102A5000B3CFFF20D1F3C8010E9407078823A9F351
:102A600086E0F801ADE5B2E001900D928A95E1F7BC
:102A700080915D0290915E020E94F8069BCFA7E1D3
:102A8000B0E0E5E4F5E10C9486214B8B5C8B962F4E
:102A90006D8B7E8B8F8B611110922A021A8A85E0D2
:102AA000FE017396DE011D9601900D928A95E1F765
:102AB0009F8786E0FE013D96DE01179601900D92FC
:102AC0008A95E1F7CE0107960E940814811131C062
:102AD00086E0FE013796DE01119601900D928A95EF
:102AE000E1F78F81988520912B0240912C026A8515
:102AF0007B85672BF1F089238F3FD9F030E0C90146
:102B000001968770992750E084179507E9F096E0C1
:102B1000929FD001939FB00D1124A35DBD4FFE0184
:102B2000319601900D929A95E1F780932B020E94C5
:102B30003B0416E080912C0290912B02891312C065
:102B40006796E3E00C94A2210E94130E10922B02D0
:102B500010922C0286E0EDE5F2E0DF011D928A95ED
:102B6000E9F7E7CF189FC0011124835D9D4F0E94B4
:102B70000814882329F380912C0290E00196877035
:102B8000992780932C02D6CFA5E0B0E0EAECF5E1DE
:102B90000C9485210E94FD078C018091E9019091A0
:102BA000EA018017910791F08FEF89838A831B8256
:102BB0000E94FD078160782F49815A816B81892F9E
:102BC0000E943F151093EA010093E9012596E4E085
:102BD0000C94A121AAE2B0E0E0EFF5E10C9486218B
:102BE00083E991E0FC0101962091F100208321E02E
:102BF0008B399207B9F780919401893009F456C056
:102C0000C8F4823009F4B2C0833009F481C0813045
:102C100071F18091E80083FFE6C08091930190916B
:102C200094019A3008F0DFC0E92FF0E0ED56FD4D39
:102C30000C94C2218A3009F488C08B3051F78091FE
:102C40009301813231F78091970190919801892BFE
:102C500001F78091E800877F8093E8000E947E0959
:102C600080919501809300010E94130ED2CF809134
:102C70009301813A71F68091E800877F8093E800A4
:102C80008091970190919801892B61F060E080E03C
:102C900090E070E00E9425098091E8008B77809396
:102CA000E800B7CF68E08BE991E0F3CF8091930122
:102CB000813209F0AECF80919701909198010297EF
:102CC00008F0A7CF8091E800877F8093E80080918B
:102CD000E80082FF18C09091F3008091F200029703
:102CE00031F48091F100813011F0863021F480912F
:102CF000F1008093A3018091E8008B778093E80036
:102D00000E947E0986CF8091E7018111E0CF81CFBB
:102D100080919301813A09F07CCF80919701909145
:102D20009801892B09F075CF8091E800877F809307
:102D3000E8008091E80080FFFCCF80910001809343
:102D4000F1008091E8008E77D9CF80919301813294
:102D500009F05FCF8091E800877F8093E8000E94B0
:102D60007E098091960180938F0153CF80919301CA
:102D7000813A09F04ECF8091E800877F8093E80088
:102D80008091E80080FFFCCF80918F01D8CF803800
:102D900089F0823841F5809197018F70873018F55E
:102DA0008093E9008091EB0085FB882780F91092E1
:102DB000E90006C0809190019091B3019111826069
:102DC0009091E800977F9093E8008093F100109233
:102DD000F1008091E8008E7723C0811116C08091A8
:102DE0009501813011F18091E80083FF0AC0809144
:102DF000E800877F8093E8008091EB0080628093F9
:102E0000EB00AA96E3E00C94A221823061F7809156
:102E10009501882389F01092E9008091E800877F6E
:102E20008093E8000E947E09DECF81E0933009F0B4
:102E300080E08093B301EFCF809197018F702FEFE7
:102E4000280F263080F68093E9002091EB0020FFC8
:102E5000E2CF933031F48091EB0080628093EB00FD
:102E6000DACF9091EB0090619093EB0021E030E09D
:102E7000A90102C0440F551F8A95E2F74093EA006A
:102E80001092EA008091EB008860E8CF8111ABCF0F
:102E9000109195011F778091E3008078812B8093BA
:102EA000E3008091E800877F8093E8000E947E091C
:102EB0008091E80080FFFCCF8091E30080688093E0
:102EC000E30083E0111101C082E08093E7018BCF22
:102ED0008058823008F087CF40919501509196013B
:102EE0004C3D83E0580799F583E08A838AE2898321
:102EF0004FB7F894DE01139620E03EE051E2E32F55
:102F0000F0E050935700849120FF03C082958F70AA
:102F10003F5F8F708A30C8F0895C90E08D939D93FD
:102F20002F5F243161F74FBF8091E800877F809346
:102F3000E8006AE270E0CE0101960E9425098091C6
:102F4000E8008B778093E8004ECF805DE6CF20913C
:102F5000970130919801852F99278330910509F1C8
:102F600060F48130910509F472C0029709F03BCFFB
:102F70008BE390E0E3E2F2E029C08132910509F4AD
:102F80005AC0829709F02FCF2115310509F469C085
:102F90002130310509F027CF8BE790E0E8E6F1E03A
:102FA00015C0CA0199274130B1F18230910509F469
:102FB0003AC0892B09F017CFE2EAF2E0E4918E2FB4
:102FC00090E0E2EAF2E0009709F40DCF2091E800EA
:102FD000277F2093E8002091990130919A01821770
:102FE000930708F49C0140E02115310509F03EC02B
:102FF00041113CC08091E80082FDA1CF8091E701A2
:10300000882309F49CCF853009F499CF8091E8009A
:1030100083FFF0CF94CFE8E8F2E0E4918E2F90E0C8
:10302000E8E8F2E0D0CFE0E7F2E0E4918E2F90E024
:10303000E0E7F2E0C8CF2115310571F0213031050C
:1030400009F0D1CE89E090E0EEE4F2E0BFCF82E17A
:1030500090E0EEE5F2E0BACF89E090E0E5E3F2E05F
:10306000B5CF80E490E0E3EEF1E0B0CF8091E701EE
:10307000882309F464CF853009F461CF8091E8009A
:1030800083FD5DCF8091E80082FDB4CF8091E800A0
:1030900080FFAACF9091F3008091F20021153105B5
:1030A00019F08830910550F041E0089709F040E0B0
:1030B0008091E8008E778093E80096CF449140930A
:1030C000F1003196215031090196E8CF803809F09E
:1030D0008ACE8091E800877F8093E80080919101FB
:1030E0008093F10076CE81117ECE10919501123041
:1030F00008F079CE8091E800877F8093E8001093F4
:1031000091010E947E09112381F084E08093E70100
:1031100042E061EC81E00E94060A42E261EC82E05A
:103120000E94060A8091E7015ECE8091E30087FD50
:10313000ECCF81E0EBCFA0E1B0E0E1EAF8E10C9464
:103140007C211A821982FE01339686E0DF011D92EE
:103150008A95E9F789E0A82E81E0B82E8E010F5FED
:103160001F4F4801EE24E394F12C29E0C22E21E008
:10317000D22EF50181915F018F3F09F441C0F8948F
:10318000E82FE295EF70F0E021A18F70A70102C057
:10319000440F551F8A95E2F7CA01922F982B91A3ED
:1031A00092A18095892382A3789400C0E1E0F1E0A8
:1031B00031E0712C21912F3F09F465C0A22FA29517
:1031C000AF70A05EB0E08C9190E02F7002C095953A
:1031D00087952A95E2F78170811155C0832F782A4F
:1031E000330FCE16DF0631F7F501319780818F3F1F
:1031F00011F00E94350750EA5A95F1F7D8017C92F8
:103200000F5F1F4FBDE0AB16B1E0BB0609F0B1CFB9
:1032100048E050E0B40188EA91E00E941E2200914B
:10322000B101892B91F188E0F401A8EAB1E00190A5
:103230000D928A95E1F781E080938B010E94FD0752
:1032400090938A01809389018091890190918A01EC
:103250000E9413090597E8F010E00C541E4F44E05B
:1032600050E068EA71E0C8010E941E22892B41F0FB
:1032700084E0E8EAF1E0D80101900D928A95E1F747
:1032800010928B0106C080E0AACF80918B01811142
:10329000DBCF0E94B70AE091B101882309F488C00E
:1032A0001A8619861C861B860E2F10E00C541E4FA2
:1032B00080918E018A3008F044C07E01E9E0EE0E74
:1032C000F11C42E95AE1B701C8010E944E0B6701A7
:1032D000882309F45BC04EE15AE1B701C8010E949E
:1032E0004E0B882309F452C010928E018091B001D8
:1032F00090E044E050E0B6018C549E4F0E941E22A4
:1033000021E020938801892B99F580911E02882362
:10331000A1F082EB90E00E94580D8DEC0E94DD0C34
:103320008EEC0E94DD0C8CEA90E00E94580D8FEC30
:103330000E94DD0C80ED0E94DD0C6096EDE00C94A7
:10334000982180918601909187010E941309843F02
:10335000914008F0B2CF809188018823B1F2FE013C
:10336000399684E0DF011D928A95E9F71092880171
:10337000E091B001F0E0EC54FE4F89859A85AB8571
:10338000BC8580839183A283B383BFCF80918E015C
:103390008F3F39F40E94FD07909387018093860147
:1033A000DACF8F5F80938E018A3008F49FCFF2CFFF
:1033B000F0E0EC54FE4F80819181A281B381809333
:1033C000D7019093D801A093D901B093DA0187ED8A
:1033D00091E00E94ED098093D601C090DB01D0906E
:1033E000DC01E090DD01F090DE018091820190919E
:1033F0008301A0918401B0918501C816D906EA061F
:10340000FB0609F49ACFC0928201D0928301E09228
:103410008401F09285010E94B70A81118ECF0E942B
:10342000F608C61AD70AE80AF90AC092CA01D09269
:10343000CB01E092CC01F092CD017FCFA8E0B0E0CB
:10344000E4E2FAE10C9486214091CE015091CF0143
:103450006091D0017091D1012FB7F8948091D20181
:103460009091D301A091D401B091D5012FBF841BBD
:10347000950BA60BB70B11E084369105A105B1059C
:10348000A8F10E94B70A8823B1F10E94F608462FDE
:10349000572FBC014E5F5F4F6F4F7F4F49835A8359
:1034A0006B837C8380912701909128018A529E4FE3
:1034B00020912601422F50E0253010F044E050E0EA
:1034C000BE016F5F7F4F0E942B2282E090E00E943E
:1034D0000221182F882351F00E94F6086093CE0134
:1034E0007093CF018093D0019093D101812F2896C2
:1034F000E3E00C94A2210E94F6086D837E838F8303
:1035000098874091CA015091CB016091CC01709194
:10351000CD018D819E81AF81B885480F591F6A1FEB
:103520007B1FB8CFEF92FF921F93CF93DF9300D012
:1035300000D00F92CDB7DEB77B0180E090E00E9413
:103540000221182F81111AC010E08091DF019091A3
:10355000E001A091E101B091E201F7018083918344
:10356000A283B383812F0F900F900F900F900F9035
:10357000DF91CF911F91FF90EF90089580911901F5
:10358000482F50E0882311F041E050E060911A018B
:1035900070911B016A527E4FCE0105960E942B222C
:1035A0004091E3015091E4016091E5017091E601E1
:1035B0002FB7F8948091D2019091D301A091D401BA
:1035C000B091D5012FBF841B950BA60BB70B84368A
:1035D0009105A105B10538F487ED91E00E94ED0950
:1035E0009D818917B9F181E090E00E940221882332
:1035F00009F4AACF80912101482F50E0853010F0C6
:1036000044E050E060912201709123016A527E4FA4
:10361000CE0101960E942B2287ED91E00E94ED09D8
:103620009D81891391CF0E94F6086093E301709306
:10363000E4018093E5019093E60189819A81AB8151
:10364000BC818093DF019093E001A093E101B093EE
:10365000E2017BCF8091D7019091D801A091D9014F
:10366000B091DA0189839A83AB83BC83E6CFCDB76F
:10367000DEB72C970FB6F894DEBF0FBECDBF85B76F
:10368000806885BF85B7806885BF84B7877F84BF22
:103690000FB6F894A89580916000886180936000CF
:1036A000109260000FBE80E890E00FB6F89480930F
:1036B0006100909361000FBE83E397E090937901DE
:1036C000809378010E94CE090E943D0A8091E20019
:1036D00084608093E20078948091E701882399F0D8
:1036E0008091E9001091EC001795112717958F70C4
:1036F000182B1092E9008091E80083FD0E94EA15E2
:103700001F701093E90082E084BD93E095BD9AEFAD
:1037100097BD80936E001092CA011092CB01109257
:10372000CC011092CD0123982B9A6E9A769825E0C1
:103730002A95F1F7000083B183FB882780F96E9802
:10374000769A40EA4A95F1F780930D010E94B70AF4
:1037500081110E94142080910D0181111EC084E905
:103760008093090186E680930A0187E980930B0123
:1037700086EC80930C0188E0EEE2F1E0DE01119628
:1037800001900D928A95E1F788E0FE013196A1E063
:10379000B1E001900D928A95E1F780910D0191E0E1
:1037A0008927880F880F8093B10194E0981B90932C
:1037B000B00109E011E0D8018D918D018F3F11F02A
:1037C0000E943507B1E00D301B07A9F701E011E0B9
:1037D00059E0E52E51E0F52EF80181918F018F3FE0
:1037E00011F00E943507E016F106B1F788E0E4EB2E
:1037F000F1E0DF01282F1D922A95E9F7E8EAF1E0D0
:10380000DF011D928A95E9F780E090E00E94E421B3
:10381000873E9E4F09F45EC067EE7EEF80E090E049
:103820000E94082260E082E090E00E94EA2160E0CD
:1038300083E090E00E94EA21109224021092230279
:1038400060E074E184E090E00E94082260E086E09D
:1038500090E00E94EA216FEF87E090E00E94EA2169
:1038600040E050E0BA0188E090E00E94FC2160E076
:103870008DE090E00E94EA2140E050E0BA0188E14A
:1038800090E00E94FC2160E087E190E00E94EA2144
:1038900040E050E0BA018CE190E00E94FC2160E041
:1038A00070E080E290E00E94082240E050E0BA011F
:1038B00088E190E00E94FC2140E050E0BA018FE0F6
:1038C00090E00E94FC2140E050E0BA0183E190E0EA
:1038D0000E94FC2182E090E00E94DC218093BC01E8
:1038E00084E090E00E94E4219093290280932802D2
:1038F00083E090E00E94DC2190E00E94A2030E94FD
:10390000B70A811102C00E9417208EE091E09093C7
:10391000EC018093EB0125EC622E21E0722ECE01AA
:10392000019638E1A32EB12C4CEB842E41E0942E6D
:1039300089879A878091E701853049F48091E70172
:10394000853009F461C00E94130E0E94DA0A0E94B9
:103950009B180DEB11E084EBC82E81E0D82E97E385
:10396000E92E91E0F92EB7019601F8019191D90164
:103970008D919D01DB014D91BD0184236E167F0663
:1039800009F494C0981791F30E94B70A8C87412CD0
:10399000F60151906F01D7018D917D015822F801F8
:1039A00081918F01851549F185258B87312C222442
:1039B00023948B8582218823C1F0FC85FF23A9F005
:1039C00039824A8291E0822D8521811101C090E0E7
:1039D0009B830E94FD078160782F9D838C834981A2
:1039E0005A816B81892F0E943F153394220C28E065
:1039F0003212DFCFF80131975082439448E04412ED
:103A0000C7CF0E94F60856C08091E701843011F1BB
:103A10001092B201E0E40FB6F894A895A09260006D
:103A20000FBEE093600083B7817F846083BF83B75C
:103A3000816083BF7894889583B78E7F83BF0FB6EC
:103A4000F894A8958091600088618093600010923E
:103A500060000FBE8091B301882309F46FCF0E94EC
:103A60009B18E4EBF1E0A7E3B1E081919D918923FC
:103A7000811104C08E169F06C1F760CF80E189BD19
:103A800082E189BD09B400FEFDCF8091D8008F7D11
:103A90008093D8008091E00082608093E000809164
:103AA000E00081FDFCCF0E94130E48CF98136CCF2D
:103AB0000E94C4150E94B70A86E0E8E1F2E0A985F9
:103AC000BA8501900D928A95E1F710921A02109230
:103AD0001B0210921C0210921D028B819C81892B6B
:103AE000882371F08091C7019091C8010E94130949
:103AF0009C0180911602811143C0232B09F046C01E
:103B00008D819E81892B882371F08091C5019091D0
:103B1000C6010E9413099C0180911502811176C093
:103B2000232B09F079C046E050E069857A8588E169
:103B300092E00E941E22892B61F480911A029091DA
:103B40001B02892B90911C02892B90911D02892BBD
:103B500081110E94090886E0E985FA85A8E1B2E0B2
:103B600001900D928A95E1F70E94DA0A9091C901BD
:103B7000891709F4DFCE8093C9010E94F608DACED6
:103B80002131310508F4BCCF8F3F19F08F5F80934E
:103B900016021B81112359F00E944E0791E0111665
:103BA0000CF09FEF899F802D112480931A021C81B5
:103BB000112359F00E944E0791E011160CF09FEF6F
:103BC000899F802D112480931B0230911A02332388
:103BD00009F496CF20911B02222309F491CF45EBE3
:103BE0003403C0011124892F911101C081E0809319
:103BF0001A0245EB240390011124332319F030936A
:103C00001B027ECF81E080931B027ACF21353105E4
:103C100008F489CF8F3F19F08F5F809315021D81C3
:103C2000112359F00E94720791E011160CF09FEFDA
:103C3000899F802D112480931C021E81112359F02D
:103C40000E94720791E011160CF09FEF899F802D62
:103C5000112480931D0230911C02332309F463CF99
:103C600020911D02222309F45ECF45EB3403C001ED
:103C70001124892F911101C081E080931C0245EB32
:103C8000240390011124332319F030931D024BCFEC
:103C900081E080931D0247CF1F921FB61F9211240F
:103CA0008F939F93AF93BF938091B201811113C003
:103CB0008091D2019091D301A091D401B091D5010E
:103CC0004196A11DB11D8093D2019093D301A09381
:103CD000D401B093D501BF91AF919F918F911F9067
:103CE0001FBE1F90189578941F921FB61F92112423
:103CF0008F939F93AF93BF938091D2019091D30103
:103D0000A091D401B091D5010196A11DB11D809360
:103D1000D2019093D301A093D401B093D501BF9168
:103D2000AF919F918F911F901FBE1F9018951F926A
:103D30000F920FB60F9211242F933F934F935F93DF
:103D40006F937F938F939F93AF93BF93EF93FF9363
:103D50008091E10082FF09C08091E20082FF05C0EE
:103D60008091E1008B7F8093E1008091DA0080FFF9
:103D700024C08091D80080FF20C08091DA008E7F1F
:103D80008093DA008091D90080FF9BC080E189BDDB
:103D900082E189BD09B400FEFDCF81E08093E70197
:103DA00080919201811109C00E94CE090E943D0AB2
:103DB0008091E20084608093E2008091E10080FFC6
:103DC00017C08091E20080FF13C08091E2008E7FD7
:103DD0008093E2008091E20080618093E200809114
:103DE000D80080628093D80019BC85E08093E701F9
:103DF0008091E10084FF29C08091E20084FF25C00A
:103E000080E189BD82E189BD09B400FEFDCF8091CA
:103E1000D8008F7D8093D8008091E1008F7E8093C1
:103E2000E1008091E2008F7E8093E2008091E200C9
:103E300081608093E20080919101882309F447C05A
:103E400084E08093E7018091E7018091E10083FFA6
:103E500027C08091E20083FF23C08091E100877F2B
:103E60008093E10082E08093E701109291018091BC
:103E7000E1008E7F8093E1008091E2008E7F80934D
:103E8000E2008091E20080618093E20042E060E025
:103E900080E00E94060A8091F00088608093F00024
:103EA000FF91EF91BF91AF919F918F917F916F9112
:103EB0005F914F913F912F910F900FBE0F901F90E8
:103EC000189519BC1092E7011092920176CF80915B
:103ED000E30087FF02C083E0B4CF81E0B2CF1F923E
:103EE0000F920FB60F921124FF920F931F932F93EF
:103EF0003F934F935F936F937F938F939F93AF9372
:103F0000BF93CF93DF93EF93FF9309EE10E0F80197
:103F10008081C091EC00C795CC27C7958F70FC2E8F
:103F2000F82A1082C0EFD0E08881877F8883789458
:103F30000E94EA15F8011082888188608883CF2D5D
:103F4000CF70C083FF91EF91DF91CF91BF91AF917F
:103F50009F918F917F916F915F914F913F912F91A1
:103F60001F910F91FF900F900FBE0F901F9018950B
:103F70008EE14A9B03C081508111FBCF4A9BFECF4B
:103F800008955A9880E28A95F1F75A9A0895FC01AB
:103F90003BE03A95F1F798E020E080E031E040E145
:103FA0004A95F1F7880F4A9B02C08160232742E0BF
:103FB0004A95F1F7000040E14A95F1F791509111CF
:103FC000EECF90E19A95F1F799B132E03A95F1F799
:103FD000000040E14A95F1F792FB992790F992276A
:103FE0002081920F90830895A1E0B0E0EAEFFFE115
:103FF0000C94832119828C017C01E60EF11C0E15B4
:104000001F0541F481E09981911180E02196E6E05D
:104010000C949F210E94B81FCE0101960E94C71FD9
:10402000F80181938F01EBCF529A5A9A08955298D2
:104030005A9AEA9AE9E6F0E080818F7C80830895BD
:104040006150770B91E001C0990F6A95EAF7692FEB
:1040500090E021E0611108C0992399F05A9A80E21A
:104060008A95F1F75A980895362F3823332339F07B
:104070005A9A922730E23A95F1F76695EBCF5A9823
:10408000F9CF5A98ECCFFF920F931F93CF93DF9302
:10409000EC018C01060F111DC017D10729F4CDB713
:1040A000DEB7E5E00C94A021F9900E94C11F68E002
:1040B0008F2D0E942020F0CF1F920F920FB60F92EB
:1040C00011240F931F932F933F934F935F936F93FD
:1040D0007F938F939F93AF93BF93EF93FF93CF9370
:1040E000DF930F92CDB7DEB719820E94B81FCE01C1
:1040F00001960E94C71F082F069506950695982FD2
:1041000092959570202F2570920F292F23709695E8
:104110009695920F982797708981892B81115CC0A1
:10412000043008F059C080E18A95F1F75A9A529A02
:1041300082E08A95F1F700C05A9888E0089F8001D4
:104140001124D801AA5EBE4F1696ED91FC911797E7
:104150003097A9F060913F017091400114962D9124
:104160003C911597260F371F11968D919C911297B0
:10417000680F791F13964C9113978C910995F8014C
:10418000EA5EFE4F6381662351F020913F0130913A
:10419000400184819581820F931F0E9443200E94D9
:1041A000C11F80E18A95F1F75A9852985A9A80E196
:1041B0008A95F1F7F801EA5EFE4F6081662351F0BF
:1041C00020913F013091400181819281820F931FA4
:1041D0000E94F41F0E94B81F0F90DF91CF91FF91B2
:1041E000EF91BF91AF919F918F917F916F915F916F
:1041F0004F913F912F911F910F910F900FBE0F90F4
:104200001F9018950F931F93CF93DF938C01049702
:104210000CF065C0F894529A5A9885E08A95F1F7A7
:104220000000C02FC695C570802F8570C80F8C2FD9
:104230008370C695C69593E0000F111F9A95E1F71C
:10424000C80FC8018C2BEC010E94C11F00C068E0A0
:104250008C2F0E94202090E19A95F1F752985A9A5B
:104260004A9B35C087E090E04A9933C0F801EA5E86
:10427000FE4F6381662361F020913F013091400140
:1042800084819581820F931F0E94F41F882321F15E
:104290000E94B81F80E28A95F1F75A98529A90E1ED
:1042A0009A95F1F7F801EA5EFE4F6081662351F0BE
:1042B00020913F013091400181819281820F931FB3
:1042C0000E9443200E94C11F789481E009C000C071
:1042D000C7CF0197009749F4529A5A9A789480E090
:1042E000DF91CF911F910F91089500C0BDCF2F9204
:1042F0003F924F925F926F927F928F929F92AF9276
:10430000BF92CF92DF92EF92FF920F931F93CF93C2
:10431000DF93CDB7DEB7CA1BDB0B0FB6F894DEBF59
:104320000FBECDBF09942A88398848885F846E847F
:104330007D848C849B84AA84B984C884DF80EE80C9
:10434000FD800C811B81AA81B981CE0FD11D0FB6D2
:10435000F894DEBF0FBECDBFED01089597FB072E89
:1043600016F4009407D077FD09D00E94C82107FCFD
:1043700005D03EF4909581959F4F08957095619575
:104380007F4F0895EE0FFF1F0590F491E02D0994E3
:10439000AA1BBB1B51E107C0AA1FBB1FA617B7076B
:1043A00010F0A61BB70B881F991F5A95A9F7809587
:1043B0009095BC01CD010895F999FECF92BD81BDC4
:1043C000F89A992780B50895A8E1B0E042E050E05E
:1043D0000C941022262FF999FECF92BD81BDF89A38
:1043E000019700B4021639F01FBA20BD0FB6F89439
:1043F000FA9AF99A0FBE08950396272F0E94EB218F
:104400000E94EA21252F0E94EB21242F0C94EB21FE
:104410000196272F0E94EB210C94EA21DC01CB01AD
:10442000FC01F999FECF06C0F2BDE1BDF89A3196C4
:1044300000B40D9241505040B8F70895FB01DC01E3
:1044400004C08D910190801921F441505040C8F76B
:10445000881B990B0895FB01DC0102C001900D92AD
:1044600041505040D8F70895F894FFCF3D084508D3
:1044700048084E0863086308630863086308630814
:1044800063086308510856085A08600871087708DD
:104490007B0898119811EB11EB1161127C12D0116D
:1044A000D01181120D131E131E13D30FDF0FE50F52
:1044B000F70FFD0F031009100F1015101B10391006
:1044C0003F104510980F9D0FA20FA70FAC0F340F90
:1044D0008E0F930F7010741053106C1078107C10A6
:1044E0008010FA1065110211CC10D0100611D410F2
:1044F0000A111611E0105E11E4101A11E8101E11D5
:104500004611EC1022114D11F21028113011D81063
:104510000E11DC101211F6102C113C1156115C1109
:10452000C610FE106C11C716ED16F316ED16F31635
:0A45300046176817F3166618731893
:10453A000132363534C6976694F6F73133012209CB
:10454A00290B400B470B000000010000000000008F
:10455A0000040100000004050000000000003435DA
:10456A0036323331F7F600FCFCFF2FFCFCFF2FD666
:10457A0001E200E900EA00B500B600B700CD008309
:10458A0001CC008A0192019401210223022402250E
:10459A0002260227022A02B300B4006F0070009FAD
:0845AA0001CB019F02A00200F9
:00000001FF
