:100000000C94E4020C941C030C941C030C94691FC4
:100010000C941C030C941C030C941C030C941C03E4
:100020000C941C030C941C030C94A41D0C947C1EB7
:100030000C94591D0C941C030C941C030C941C036D
:100040000C941C030C941C030C941C030C941C03B4
:100050000C941C030C94801D0C941C030C941C0326
:100060000C941C030C941C030C941C030C941C0394
:100070000C941C030C941C030C941C030C941C0384
:100080000C941C030C941C030C941C030C941C0374
:100090000C941C030C941C030C941C030C941C0364
:1000A0000C941C030C941C030C941C0301043330AB
:1000B0007C00010431307C000000000000000000E2
:1000C0000000000000000000000000000000000030
:1000D0000000000000000000000000007E0F00D4BF
:1000E000FFFFFFC7000000780000000000000000D4
:1000F0002A2B280000000000000000000000000083
:1001000000000029000000002C1E3420212224348D
:100110002627252E362D3738271E1F20212223245F
:1001200025263333362E37381F0405060708090AFB
:100130000B0C0D0E0F101112131415161718191A97
:100140001B1C1D2F3130232D350405060708090A15
:100150000B0C0D0E0F101112131415161718191A77
:100160001B1C1D2F3130354C05010902A1018502F0
:100170000901A100050919012908150025019508A3
:10018000750181020501093009311581257F95022C
:100190007508810609381581257F95017508810646
:1001A000050C0A38021581257F950175088106C066
:1001B000C005010980A101850319012AB7001501B5
:1001C00026B700950175108100C0050C0901A10139
:1001D000850419012AA002150126A00295017510B7
:1001E0008100C005010906A101050719E029E715ED
:1001F00000250195087501810295017508810105A9
:1002000007190029FF150026FF00950675088100D3
:1002100005081901290595057501910295017503D8
:100220009101C009023B00020100A0FA090400008C
:10023000010301010009211101000122400007050D
:1002400081030800010904010001030000000921E5
:1002500011010001227B0007058203200001120129
:100260000002000000081D8D9D9D0001010200019B
:1002700016034B00790072006900610020007200D3
:1002800065007600320000001803730070006C00F7
:10029000690074006B0062002E0063006F006D0047
:1002A0000000040309040000000005001300090019
:1002B0001A0014000000000000000A28172216216E
:1002C000152404400000000000001900070006008B
:1002D0001B001C00000028442C430000000000000C
:1002E000000000000000000000000D000F0018409A
:1002F0001D002D0000000000000010281132082110
:100300000C2412400000000000000E000B003640DC
:100310003740384000002B422A4100000000000016
:10032000000000000000000000000000000052007B
:10033000000000000000000000004D004F005100D0
:1003400050004A000000000000000000A900AA00C0
:10035000A800AE000000E100E00000000000000086
:1003600000000000000000000000290000004B0019
:10037000000000000000000000004C0000004E00E3
:10038000000000000000000000002A000601190122
:100390001B01000000000000010000000000000040
:1003A0000000000000000000000000000000CD0080
:1003B000000000000000000000000000D000CE009F
:1003C000CF0000000000000000000000000000005E
:1003D000000000000000000000000000000000001D
:1003E000000000000000000000000000DB00D90059
:1003F000DC000000000000000000B600D100DA00C0
:10040000D200B70000000000000000000601190142
:100410001B010000000001000000000000000000BF
:1004200000000000000000000000290000000000A3
:10043000000000000000000000004C001414220224
:10044000350023430000000000002A0006011901C6
:100450001B0100000000010001000000000000007E
:10046000000000000000000000001F43254320435F
:10047000214322430000000000001E432443434365
:1004800027023002000000000000300026434443F1
:100490006400640200001E022D0200000000000043
:1004A000000000000000000000000000000000004C
:1004B000000000000000000000000000000000003C
:1004C000000000000000000000000000060119010B
:1004D0001B010000000001000100000000000000FE
:1004E00000000000000000000000000024002500C3
:1004F0002600000000000000000000002100220093
:100500002300000000000000000000001E001F4447
:100510002044000000000000270000000000000050
:1005200000000000000000000000000000000000CB
:10053000000000000000000000000000007E00003D
:1005400000000000000000000000000000000000AB
:100550000000000000000100010000000000000099
:100560000000000000000000000076004000410094
:100570004200430000000000000000003D003E007B
:100580003F00440000000000000000003A003B0073
:100590003C004500000000000000000000000000DA
:1005A00000000000000041637469766174656400B6
:1005B000010431357C00446561637469766174655A
:1005C0006400010431357C0011241FBECFEFDAE056
:1005D000DEBFCDBF04B603FE18C080915F029091CC
:1005E0006002A0916102B09162028730904BA740F7
:1005F000B04B59F410925F021092600210926102A7
:1006000010926202E0E0F8E3099511E0A0E0B1E0A9
:10061000EAE3F3E402C005900D92A437B107D9F7DD
:1006200022E0A4E7B1E001C01D92AF35B207E1F7C7
:100630000E94301A0C9441210C9400009C01FB0193
:100640009A9581159F41A8F431FB882780F9A9016B
:100650004427547034FF08C08295880F807E452B54
:1006600009F0806409950895880F452BD9F38460BB
:10067000F9CF80E0F7CF9093200280931F02089576
:100680009C0188719927489731F4206230932202A7
:100690002093210208952F7DF9CF21E030E002C0A0
:1006A000220F331F8A95E2F7809121029091220256
:1006B000822B932B0E944003089521E030E002C07A
:1006C000220F331F8A95E2F7209530958091210201
:1006D00090912202822393230E9440030895282FA1
:1006E000292B283070F528E0929FF0011124E80FA3
:1006F000F11D877041E001C0440F8A95EAF783E05D
:10070000F695E7958A95E1F7EE0FFF1FEE0FFF1FB5
:10071000EF50FE4F80E090E070E05191DF011197C3
:100720009B01082E02C0369527950A94E2F72170A6
:1007300021952527242325272C9301968430910584
:1007400061F70895292F282B283060F528E0929F23
:10075000F0011124E80FF11D982F977083E0F695B2
:10076000E7958A95E1F7EE0FFF1FEE0FFF1FEF50A1
:10077000FE4F40E050E080E0219130E0092E02C0C1
:10078000369527950A94E2F721703327042E01C08D
:10079000220F0A94EAF7822B4F5F5F4F44305105D6
:1007A00059F7089580E008958091280290912702DA
:1007B000981301C008958F5F8770FACFE8E7F1E0E2
:1007C0009191891303C0DF0111971C9291E0EE37DC
:1007D000F907B1F708952091230280958223809331
:1007E0002302982F9770911113C030E0482F082EE4
:1007F000000C550B2417350759F09091250292FFF4
:1008000007C08595859585950E945D03109223020A
:100810000895982F909580911D02892380931D0241
:10082000089580911E02811110921E020895962F44
:10083000972B9830B0F48630A0F498E0899FF001AF
:100840001124E70FF11D83E0EE0FFF1F8A95E1F7FA
:10085000E60FF11DEE0FFF1FEA55FD4F85919491B4
:10086000089580E090E008952091240222FF06C0C0
:10087000982F98719830C1F4877F846090912502F9
:10088000392F3170927023FF21C0482F48714831B1
:1008900091F4877E84619923B1F0982F9171913101
:1008A00091F48E7E88610FC0982F9471943031F747
:1008B0008B7F8860E3CF482F4471443139F48B7EBD
:1008C0008861911118C024FD877E0895332369F053
:1008D000382F3871383019F4877F8160DCCF382F9A
:1008E0003171313011F48E7F8860992361F3982F34
:1008F0009871983191F6877E8161E5CFCF93DF9330
:10090000EC01803E910509F478C088F581339105AA
:1009100009F4C0C090F48932910509F4B0C08A325C
:10092000910509F4BEC0019709F47AC0CE0104977D
:10093000813A910508F06DC073C08933910509F4BF
:1009400050C08238910509F44CC08533910509F4F3
:1009500091C08D3C910508F010C1883A910508F0CE
:10096000A7C0853A910510F3A497D06459C0843E7E
:10097000910509F464C088F4823E910509F44CC0E5
:10098000833E910509F450C0C83ED10508F448C023
:10099000CE019A958F3F9E41CDCF863E910509F4B9
:1009A00059C0873E910509F45AC0803222E592076A
:1009B00008F0A4C0811542E5940708F0E3C0811552
:1009C00050E5950708F484C08F710E943404E5E077
:1009D000D695C795EA95E1F7CF709C2FEC01D069C9
:1009E0001FC080912402837081110CC18091250267
:1009F00083FF16C0C9E2D0E013C08091240280FDBD
:100A000046C09091250290FF0BC0C3EED0E084FF5A
:100A100007C0C0E0D0E004C08091240282FDF5CF81
:100A2000CE01DF91CF9108958091240282FDE7C02D
:100A30009091250290FDE6C084FFF2CFEACF80912D
:100A4000250281FFEDCF80912402C7EED0E084FD26
:100A5000E0CFE6CF8091240283FDF7CFE1CF8091F4
:100A6000240283FDD2C09091250291FFE5CFC4EE10
:100A7000D0E0D6CF8091240285FFD2CFBBCF80912A
:100A8000240285FDC5C08091250283FFC9CFC9E33B
:100A9000D0E0C6CF8091240286FFC2CFCAE2D0E068
:100AA000BFCF8091240286FFBBCFC1E3D0E0B8CF97
:100AB000885A9109499708F0ACCFC85AD0E0CC0FBA
:100AC000DD1FCF5BDE4F0990D881C02DD464A8CF45
:100AD000C11580E4D80708F052C0C11520E2D20742
:100AE00008F452CF8D2F8F710E94340490E0982F1C
:100AF000882788279F718C2BEC017FC0803A924514
:100B000050F5C03882E5D80708F066C0C03622E547
:100B1000D207B0F08C2F86958695877040E2849F2F
:100B2000C0011124C37021E030E0A90102C0440FCC
:100B3000551FCA95E2F7EA01C82BD92BDA6870CFA6
:100B4000C03452E5D50790F5CF71D0E0DC2FCC272B
:100B5000C16FD06A65CFC03C82E5D80708F443C0B6
:100B6000CE01805C9245809708F053CFDC2FCC27D4
:100B7000CC27DF71C06FD06A53CFD06551CFDF7003
:100B8000D06A4ECF8695869520E2829FC0011124BF
:100B9000C37021E030E0A90102C0440F551FCA957F
:100BA000E2F7EA01C82BD92BDD683ACF8C2F869566
:100BB0008695877050E2859FC0011124C37021E0A3
:100BC00030E0A90102C0440F551FCA95E2F7EA01BF
:100BD000C82BD92BDC6824CFCF71D0E0DC2FCC27F9
:100BE000C46FD06A1DCF8C2F8F710E943404C82F20
:100BF000D0E0DC2FCC27CC27DF71D06211CFC2EE42
:100C0000D0E00ECFC0EED0E00BCFC6EED0E008CFE4
:100C1000C5E3D0E005CFA0E0B0E0E1E1F6E00C9460
:100C20008D208C01E0902102F090220280911F0221
:100C300090912002E82AF92ACFE0D0E0CC24C39496
:100C4000D12CC6010C2E02C0880F991F0A94E2F71E
:100C50008E219F21892B49F4219798F7B12C8B2D58
:100C6000CDB7DEB7E9E00C94A920BC2EB8018C2FDB
:100C70000E9417040E947E04019771F3F0CF0F9336
:100C80001F93CF93FC01828100811181882391F011
:100C9000662381F0C8010E940B06C82F682FC80187
:100CA0000E946F03B8018C2F0E941704CF911F91EF
:100CB0000F910895C8010E94A203C82FF3CFCF93CC
:100CC000DF93D82FC92F0E940B066D2F7C2F0E9417
:100CD00017040E947E04DF91CF910895FC01838167
:100CE0009481892BC9F08181908189238F3FA1F064
:100CF000808191810E945F06282F92959F70963087
:100D000091F060F4925F9F70923030F481E0203F68
:100D100079F030F4283E30F080E004C09A5FF3CFE1
:100D2000243FD1F7089581E0283E18F0213FF9CF04
:100D30000895089580E00895F894E82FE295EF7003
:100D4000F0E041A18F7021E030E0B90102C0660FF0
:100D5000771F8A95E2F7CB01962F9095942391A364
:100D600092A1892B82A3789408958091130280FD2B
:100D700016C081FD16C082FD18C080911202882322
:100D800091F0803490F420E3829FC001112426E08A
:100D9000959587952A95E1F7009749F008958CE09D
:100DA000089588E1089588E0089580E3089581E03A
:100DB00008958091130280FD17C081FD17C082FD48
:100DC00019C080911102882399F0883298F428E0A4
:100DD000829FC001112468E270E00E94BB2061156F
:100DE000710551F0862F089562E0FCCF64E0FACFE0
:100DF00061E0F8CF68E0F6CF81E00895A3E0B0E0CD
:100E0000E4E0F7E00C9494209C018091A201909181
:100E1000A30182179307A1F03093A3012093A201AD
:100E2000E091E701F091E801309751F083E0898388
:100E30003B832A830680F781E02DCE010196099538
:100E40002396E2E00C94B020A3E0B0E0EAE2F7E001
:100E50000C9494209C018091A0019091A101821793
:100E60009307A1F03093A1012093A001E091E70145
:100E7000F091E801309751F084E089833B832A8325
:100E80000680F781E02DCE01019609952396E2E0D8
:100E90000C94B0209C01FC0132968FEF90E04191C0
:100EA000461751F08F3F19F4411101C0892F9F5F00
:100EB0009630A9F78F3F09F40895280F311D87FD5B
:100EC0003A95F901628308952FB7F8948091D00183
:100ED0009091D101A091D201B091D3012FBF08957B
:100EE0000E9464072091160230911702232B2223BF
:100EF00021F08093C5019093C60120911802309192
:100F00001902232B222321F08093C3019093C40163
:100F1000E091E701F091E801309749F082E0809399
:100F200014020480F581E02D84E192E00995089592
:100F3000662309F44BC0E3E3E80FE33150F4F0E03B
:100F4000ED5BFE4D0C94CF200E94B50681958093F9
:100F500017020E94700708950E94B506F8CF0E94FC
:100F6000B506819580931602F4CF0E94B506FACF9C
:100F70000E94D90680931802ECCF0E94D906819571
:100F8000F9CF0E94D906819580931902E2CF0E9481
:100F9000D906FACF815D990B21E030E001C0220F24
:100FA0008A95EAF780911502822B80931502D1CFA2
:100FB00080911302816080931302CBCF8091130242
:100FC0008260F9CF809113028460F5CF40911602C0
:100FD0008D3C59F48091170287FF0DC010921702C3
:100FE000442359F41092120208C08E3C81F480917F
:100FF000170218169CF3442381F0809118029091F7
:101000001902892B8111A5CF10921102A2CF8F3C1A
:1010100041F447FFF0CF1092160280911702882307
:10102000E0CF803D19F41416B4F3E5CF9091180287
:10103000893D29F41916FCF610921802DCCF8A3D7E
:1010400019F497FFD8CFF8CF909119028B3D29F46E
:1010500097FFD1CF10921902CECF8C3D19F41916FB
:10106000CCF3C9CF9FE2980F983090F4815D990B33
:1010700021E030E0B90102C0660F771F8A95E2F7E0
:10108000CB01809590911502892380931502B3CFEF
:101090008D3D31F4809113028E7F80931302ABCF8C
:1010A0008E3D21F4809113028D7FF7CF8F3D09F0A3
:1010B000A2CF809113028B7FF0CFA4E0B0E0E3E6F3
:1010C000F8E00C9494208FB7F8942091D0013091DF
:1010D000D1014091D2015091D30129833A834B83AE
:1010E0005C838FBF69817A818B819C812496E2E049
:1010F0000C94B0209C014FB7F8948091D00190914E
:10110000D101A091D201B091D3014FBF821B930BAB
:10111000089580919F010895FC019B0180919501A4
:10112000909196018617970740F0672B29F48091DC
:10113000E8008E778093E800C90140E0009741F411
:10114000411106C08091E80082FF2FC080E0089521
:101150002091E5012223A9F12530A9F12091E80091
:1011600023FD2DC02091E80022FDECCF2091E80066
:1011700020FFE4CF3091F3002091F200009719F0A6
:101180002830310558F041E02830310509F040E0C1
:101190002091E8002E772093E800D0CF4191409332
:1011A000F10001972F5F3F4FE9CF8091E501882340
:1011B00041F0853041F08091E80083FFC3CF81E0AA
:1011C000089582E0089583E0089580918F0187FF5C
:1011D00013C08091E80082FF06C08091E8008B7701
:1011E0008093E80004C08091E5018111F2CF089559
:1011F0008091E5018823D9F38091E80080FFF8CF42
:101200008091E8008E77ECCF2091E4003091E500EA
:1012100095E6A9018091EC008170882331F08091DE
:10122000E80080FF06C080E008952091E80022FDDC
:101230001BC08091E501882391F0853091F0809169
:10124000EB0085FD10C02091E4003091E5004217CD
:10125000530701F391509111DCCF84E0089582E0AF
:10126000089583E0089581E00895E8EDF0E080813D
:101270008E7F80831092E2001092DA001092E100DB
:10128000A0EEB0E08C9181608C9380818F77808319
:1012900019BCA7EDB0E08C918E7F8C9380818F7EFE
:1012A000808310928E010895FC01AC014C5F5F4F6A
:1012B0008FEF91E32191822728E030E087FF0BC078
:1012C000880F89272150310921153105B9F7E41715
:1012D000F50781F70895880FF5CF982FE42FE27076
:1012E0009093E900891308C0762F242F50E0E11174
:1012F00011C091E0980FF4CF7091EC002091ED00B7
:101300005091F00021FD06C09F5F973049F7809310
:10131000E90008953091EB003E7F3093EB0030916F
:10132000ED003D7F3093ED003091EB003160309364
:10133000EB007093EC002093ED005093F0002091AF
:10134000EE0027FDE1CF0895A0E0B0E0EAEAF9E081
:101350000C948E20C8EDD0E088818F7E8883E7EDE5
:10136000F0E080818160808384E082BF81E08093AF
:101370008E0188818E7F888302EE10E0F801108252
:101380001092DA0081EEC82ED12CF60110828881ED
:101390008F77888388818068888388818F7D888320
:1013A00019BC1092E50110928D011092AF011092BC
:1013B0008C0190EEE92EF12CF70180818B7F8083E8
:1013C00088818160888342E060E080E00E946D094E
:1013D000F60180818E7F8083F80180818160808327
:1013E000808188608083F70180818E7F80838881FF
:1013F00080618883CDB7DEB7E8E00C94AA208091A5
:10140000E601811110C08091D80080618093D800DE
:101410008AE18A95F1F700C08091D90080FF0AC067
:1014200081E08093E60181E09091E601913009F03E
:1014300080E0089582E08093E6010E9435091092D1
:10144000E501F1CF0E94FF09882359F0E091E701FF
:10145000F091E801309729F00190F081E02D099595
:10146000089580E008950F931F93CF93DF93EB01CE
:101470008A019091E501943079F58093E9008FEF2E
:101480009091E80095FD07C095ED9A95F1F7000061
:1014900081508111F5CF8091E80085FF1DC00E9429
:1014A0000409811114C08091E80085FD06C0809177
:1014B000E8008E778093E800F2CF88818093F10076
:1014C000015011090115110511F02196ECCF809101
:1014D000E8008E778093E800DF91CF911F910F9104
:1014E0000895CF93DF93D82FC92F48E050E0682F9D
:1014F000792F81E00E94330A88E0ED2FFC2FA7E9C5
:10150000B1E001900D928A95E1F7DF91CF910895B6
:10151000BC0146E050E082E00E94330A0895BC011D
:1015200043E050E082E00E94330A0895A0E0B0E07A
:10153000ECE9FAE00C948C20F82EE92EB62EA72EBA
:101540008A0180918A01CC24C394D12C8A3018F46A
:101550008AE0C82ED12CC1E0D0E06B2D7A2D8F2DE2
:101560009E2DF8010995811116C02196CC16DD0635
:1015700094F0CC9FC001CD9F900D900D112420E0E0
:1015800030E045E34A95F1F700002F5F3F4F281701
:101590003907B9F7E2CFCDB7DEB7EAE00C94A8205F
:1015A0009091250292FB222720F9281779F080FBE1
:1015B00092F990932502609124027091250284E0B3
:1015C00090E00E94152182E00E94EB030895809133
:1015D0001D0290912602892B8093760190911E0224
:1015E000992391F0892B8093760120E088E791E0A0
:1015F000FC013081019631112F5F31E08E37930766
:10160000B9F721110E94110448E050E069EE71E041
:1016100086E791E00E942B21892BA9F088E0E6E77C
:10162000F1E0A9EEB1E001900D928A95E1F7E09129
:10163000E701F091E801309731F00280F381E02D6D
:1016400086E791E009950895882339F090911D026D
:10165000892B80931D020E94E70A0895882339F0A0
:1016600090912602892B809326020E94E70A089512
:10167000882321F00E9409040E94E70A0895882324
:1016800041F08095909126028923809326020E9442
:10169000E70A0895CF93C82F8823A9F08CEF8C0F09
:1016A000813A98F4E8E7F1E08191C81709F440C065
:1016B00021E0EE37F207C1F76C2F86E791E00E9438
:1016C0004A070E94E70ACF91089580E28C0F883084
:1016D00068F4C77021E030E001C0220FCA95EAF734
:1016E00080911D02822B80931D02EBCF8BE58C0F26
:1016F000833038F42C2F2452330BC9010E94FE068C
:10170000E2CFE8E5EC0FE93150F4F0E0EE0FFF1F17
:10171000EF5BFE4F808191810E942407D4CF83E349
:101720008C0F833180F661E08C2F0E949807CBCF1D
:101730008C2F0E94DE030E94E70ABECFCF93C82FF2
:101740006EE27BE00E941E038C2F0E944A0BCF9119
:101750000895882381F19CEF980F913A28F40E9414
:10176000DE030E94E70A089590E2980F983050F443
:10177000877091E001C0990F8A95EAF7892F0E943E
:101780000904EFCF9BE5980F933028F480E090E0B8
:101790000E94FE06089598E5980F993128F480E09C
:1017A00090E00E942407089593E3980F933118F472
:1017B00060E00E9498070895CF93DF93EC010E94A8
:1017C000A90B6FE37BE0CE010E941E03DF91CF9156
:1017D00008950F931F93CF93DF93EC0100E010E087
:1017E000C99711F400E510E0CE010E949E0B01158F
:1017F000110541F4CE010E94DC0BDF91CF911F91C6
:101800000F9108958FE99FE00197F1F700C0000064
:1018100001501109ECCF282FCA01603128F42111A1
:101820000E94E90B80E0089581E00895CF93DF9353
:10183000782FCA01D22FC32F603160F0772351F087
:101840000E94E90B8D2F9C2F0E94E90B80E590E010
:101850000E94E90B80E0DF91CF910895782FCA01B3
:10186000603130F0772331F00E949E0B80E00895C4
:10187000C901F8CF0E94DC0BF9CF0F931F93CF93D0
:10188000C82F00E010E0893311F400E510E08C2F40
:101890000E944A0B0115110539F48C2F0E94A90BE7
:1018A000CF911F910F9108958FE99FE00197F1F774
:1018B00000C0000001501109EDCF0F931F93CF938B
:1018C000DF93C62FD42F122F8823A9F060931B0219
:1018D0000E9464079093890180938801C77081E01A
:1018E00001C0880FCA95EAF70E94240BDF91CF91BF
:1018F0001F910F91089580911B02681332C080914F
:101900008801909189010E947A08883C910548F5E8
:10191000CD130CC0812F0E943D0CD77081E001C017
:10192000880FDA95EAF70E94380BE0CFC77001E024
:10193000802F01C0880FCA95EAF70E94380B80E219
:101940008D0F883050F48D2F877001C0000F8A955D
:10195000EAF7802F0E94240BDDCF812F0E943D0CDF
:10196000C5CFC77081E001C0880FCA95EAF7DBCF09
:10197000A0E0B0E0EEEBFCE00C948F208C01F801CD
:101980009491992309F4AAC0913009F048C0E80164
:101990002196FE018491813049F42196FE018491C3
:1019A0000E943D0C8E010F5F1F4FE9CF823039F44A
:1019B000E8012296FE0184910E944A0BF3CF833006
:1019C00039F4E8012296FE0184910E94A90BEACF26
:1019D000843041F7E8012296FE01849120E030E056
:1019E0004AE0FE0131968053990B8A30910560F0F0
:1019F00021153105B9F28FE99FE00197F1F700C099
:101A0000000021503109F4CF429FB001439F700D77
:101A100011249C01260F371F8491EF01E2CFE92F9B
:101A2000F0E0E851FF4FD490292F26952695269572
:101A300030E0F901E852FF4F84919770F901E853C3
:101A4000FF4FE490F12C092E02C0F594E7940A941C
:101A5000E2F7E1E0EE22FF24F901E854FF4FC491E0
:101A6000D0E0092E02C0D595C7950A94E2F7C1705F
:101A7000DD27E82FF0E002C0F595E7959A95E2F7AB
:101A8000E0FD0DC0E114F104A9F48D2D0E943D0C80
:101A9000CD2B19F08CE20E943D0CE80183CF81EE42
:101AA0000E944A0BE114F10479F48D2D0E943D0C43
:101AB00081EE07C086EE0E944A0B8D2D0E943D0CE0
:101AC00086EE0E94A90BE4CF86EE0E944A0B8D2D74
:101AD0000E943D0C86EE0E94A90BEACFCDB7DEB77F
:101AE000E7E00C94AB20CF9310921D02C6E0E8E72C
:101AF000F1E0DF018C2F1D928A95E9F780E090E0FC
:101B00000E94FE0680E090E00E94240710922602C8
:101B10000E94E70AE4E1F2E0DF011D92CA95E9F7CD
:101B20001092120210921102109213020E9470077A
:101B3000CF9108950E94730D2FEF84E39CE0215014
:101B400080409040E1F700C0000088E19CE00FB6C3
:101B5000F894A895809360000FBE90936000FFCF2B
:101B6000A0E0B0E0E6EBFDE00C948E208C01FC01DF
:101B70009081818123813481232B09F414C189232D
:101B80008F3F09F410C161E0C8010E943F06EC01DB
:101B90008732F3E49F0708F065C08E3123E4920793
:101BA000D0F58633904409F4DDC0C73380E4D8070C
:101BB000E8F5C23190E4D90709F4CCC04FE250E017
:101BC000C831E0E4DE0709F4C7C044E350E0C430A4
:101BD000F0E4DF0709F4C0C0F8018281882309F42A
:101BE00036C110921B02C6312CE7D20709F057C04C
:101BF00080911D028A7A91E0811101C090E090935A
:101C00001C0269E2811165E386E791E00E944A07C0
:101C10000E94E70AB8C0FC01EF51F344E830F10537
:101C200008F0D5C0EA5AFE4D0C94CF20C733F0E43B
:101C3000DF0709F49AC048E352E0C83320E4D20732
:101C400009F48AC0F801828181116EC1C631DC4776
:101C500009F0FDC080911C0281113CC289E20E9402
:101C6000DE03D6CF8F31944409F4D4C0C03284E46B
:101C7000D80708F058C0C334DC0709F4A3C022E336
:101C800032E042E352E0C434E3E4DE0709F474C016
:101C9000F8018281882309F4DAC010921B02CA3548
:101CA0003CE7D30709F432C208F016C2C1309CE702
:101CB000D90709F429C2C330ECE7DE0709F41EC2D4
:101CC000C115DC4709F0C3C00E94730D8FEF94E388
:101CD000ECE081509040E040E1F700C0000081E07E
:101CE0008093E00080E28093D8001092C9008FE1D9
:101CF0009EE40197F1F700C0000087E090EBDC0163
:101D000080935F0290936002A0936102B09362029D
:101D100088E19CE00FB6F894A895809360000FBE10
:101D200090936000FFCFC032F4E4DF0709F475C080
:101D3000F8018281C115FEE7DF0709F471C0FE01D9
:101D4000E851FC47E730F10508F07CCFE25AFE4D40
:101D50000C94CF2043E350E0F801658182810E941A
:101D60000B0C0FC046E352E0F7CF47E352E0F4CF4D
:101D700026E232E045E252E0F801658182810E946C
:101D8000160C811129CF809123028770882359F086
:101D9000F8018281882339F08091250282FF03C0F7
:101DA00082E00E94EB03CDB7DEB7E8E00C94AA20F6
:101DB00026E234E145E254E1DFCF27E234E144E2B8
:101DC00054E1DACF2FE132E04FE152E0D5CF28E005
:101DD00034E141E252E0F801658182810E942E0CDB
:101DE000D0CF24E634E143E252E0F5CF2EE232E0F8
:101DF0004EE250E0F0CF2DE234E144E252E0EBCF8E
:101E000020E334E142E350E0E6CF25E332E040E274
:101E100052E0E1CF4FE154E19FCF40E254E19CCF4B
:101E2000882309F4D9CE80911A02882309F455C079
:101E300082EC95E00E94B80C10921A0286EB95E0B5
:101E40000E94B80CF8018281811110921B02F801E6
:101E50008281E080F180882309F45CC1C7010E947F
:101E60000B06C82F682FC7010E946F03B7018C2F84
:101E70000E9417040E947E04D82FC92FF801D28037
:101E8000C580C2942FE0C2228091230287708823EC
:101E9000C1F0FD2CDD20B1F0892F807F803421F04E
:101EA00080E28D0F883068F08091250282FF09C0A2
:101EB00082E00E94EB03809123028770FF24F39459
:101EC0008111F12CEC2FE295EF70C03C08F08EC12F
:101ED000F0E0EB59FE4D0C94CF2080EB95E00E9492
:101EE000B80C81E080931A0286EA95E0A9CF26E239
:101EF00041EE61EE0E945D0C46CF27E245EE65EEB5
:101F0000F9CF26E241EE60EEF5CF27E245EE64EE32
:101F1000F1CF26E241EE62EEEDCF27E245EE66EE2E
:101F2000E9CF28E241E0EBCF10921B02CE0190579F
:101F3000839708F058CE84E090E00E94F1209093BF
:101F4000250280932402FE01E150F047E232F105C0
:101F500020F4EF58FE4D0C94CF2080912402816034
:101F600080932402609124027091250284E090E025
:101F70000E9415210E94730D06CF80912502886072
:101F800080932502EFCF809124028260E9CF809177
:101F900024028460E5CF809124028860E1CF8091A3
:101FA00025028160EDCF809125028260E9CF80918A
:101FB00024028061D5CF809124028062D1CF8091AC
:101FC00024028064CDCF0E94730D8091240280682A
:101FD000C7CF809124028C60C3CF8091250283609B
:101FE000CFCF809124028E7FBBCF80912502877F47
:101FF000C7CF809124028D7FB3CF809124028B7F45
:10200000AFCF80912402877FABCF809125028E7F56
:10201000B7CF809125028D7FB3CF809124028F7E30
:102020009FCF809124028F7D9BCF809124028F7B54
:1020300097CF0E94730D809124028F7791CF80916A
:102040002402837F8DCF809125028C7F99CF809150
:10205000240282FB992790F921E0922790FB82F9D4
:1020600090FB83F97DCF80912502982F90959170F8
:102070008E7F892B90FB81F983CF90912402892F49
:102080008F7B96FF80646CCF0E94730D9091240229
:10209000892F97FB87F9805863CF61E08EE090E04D
:1020A0000E94F7205FCF60E0F9CF90912402892F42
:1020B0008F7E94FF806154CF90912402892F8E7F70
:1020C00090FF81604DCF90912502892F877F93FFEC
:1020D000886056CF85E3C3CDCB352CE7D207C1F05E
:1020E000CC35DC4709F0B3CE8091250282FB8827EE
:1020F00080F991E089270E94D00AA9CE6FEF7FEF87
:1021000080E090E00E9415210E949A0D81E0F3CFBB
:1021100080E0F1CFC7010E94A203C82FA7CEFC2FF9
:10212000FF70EF2EC03118F0E29490EFE922DD202D
:10213000B9F0EE2069F080E28D0F883010F0D111F7
:1021400009C080911D028E2980931D020E94E70A1A
:102150008D2F44C0809126028E2980932602F6CFCF
:102160008D2F0E94A90BEE2009F440C080E28D0F54
:10217000883010F0D11104C08E2D0E94090406C0D1
:10218000E094809126028E21809326020E94E70A25
:102190002DC02C2F2F70E22EC07FC03219F0E29498
:1021A00080EFE822DD2351F0D13009F461C0DD2059
:1021B00009F46BC0CC2009F461C0CACF209125027C
:1021C00022FD30C0DD2069F0EE2039F080911D0243
:1021D0008E2980931D020E94E70A80E00E944A0B2C
:1021E00005C080E00E94A90BE110C6CFFF20A9F036
:1021F0008091230280FD11C0F8011282859585959A
:1022000085950E944D03C8010E94B00D8091230264
:102210008595859585950E945D0360E0C8010E94C3
:102220003F06C1CDDD2099F090911E028E2D892BA5
:10223000C11003C00E94240BD9CF31E0C312FACFE2
:1022400022FFD4CF981791F280931E02CFCFC110F6
:1022500006C00E9411048E2D0E94380BC7CF81E06A
:10226000C81621F28E2D0E94380B0E941104BECF99
:10227000DD2031F095E09C1508F4B8CF8E2DDACF33
:10228000E4E0EC1508F4B2CFE6CFCC2021F3D9334B
:1022900049F4FFEF27EE33E0F15020403040E1F702
:1022A00000C000008D2F0E94A90BA0CF8C2F869517
:1022B00086958370882369F0813009F097CF8D2F40
:1022C0009C2F9370D11002C080E090E00E94240700
:1022D0008DCF8D2F9C2F9370D11002C080E090E0A5
:1022E0000E94FE0683CF6D2D8D2F0E9498077ECF12
:1022F0008C2F8370811142C0D1102FC04D2F429579
:1023000046954770440F440F2D2F2F7030E0042E58
:1023100002C0220F331F0A94E2F780E090E0D4FF5E
:1023200009C08FE090E002C0880F991F4A95E2F73C
:1023300080959095C695C695C370C230B1F0C330F4
:1023400089F040911F0250912002C13049F0822B48
:10235000932B842395230E943B030E94220A46CF9D
:10236000242B352B822B932BF6CF822B932B209172
:102370001F023091200282279327EDCFDD2091F1BB
:10238000C0FFEBCF4D2F429546954770440F440F49
:102390002D2F2F7030E0042E02C0220F331F0A941D
:1023A000E2F780E090E0D4FF09C08FE090E002C047
:1023B000880F991F4A95E2F780959095C695C69526
:1023C000C370C230C1F0C33099F0409121025091E6
:1023D0002202C13059F0822B932B842395230E9433
:1023E0004003BBCF823008F4B8CFCCCF242B352BA1
:1023F000822B932BF4CF822B932B209121023091AF
:10240000220282279327EBCFCF70DD2039F08C2F6B
:102410000E944D038D2F0E94240B9FCF8D2F0E9471
:10242000380B8C2F0E945D0398CFD23FA1F178F436
:10243000D03FC1F0D13F09F447C0DD2009F46BC0A3
:10244000CC2009F465C08D2F0E944A0B86CFD33F64
:1024500049F1D43FA9F1D110F3CFC1106AC08C2F3C
:102460008F71E0CFDD20A1F084E08C1508F475CFEA
:10247000CF7181E090E0FC0102C0EE0FFF1FCA9512
:10248000E2F780912102909122028E279F27A7CF09
:10249000F5E0CF16EBCF8C2F8F71D110C3CF0E94F8
:1024A0004D035BCF80E090E0DD2009F498CFCF7141
:1024B00081E090E002C0880F991FCA95E2F78FCFA4
:1024C0008091250282FD06C08C2F8F71DD2009F4DA
:1024D000A9CFE5CFDD2089F0CF718C2F0E944D036D
:1024E0008091250282FF07C028E0C29FC00111240D
:1024F0008360809323028C2FD2CF81E00E94EB0374
:1025000031E03C1508F029CF82E00E94EB0325CF93
:102510008C2F8F71C4CFCC2009F4A1CFD93349F4CB
:102520008FEF97EEE3E081509040E040E1F700C08C
:1025300000008D2F0E94A90B10CF1F93CF93DF9324
:1025400080915E02803108F04CC080915B0288234C
:1025500009F447C080912802209127026091590216
:1025600030915A02C0915C02D0915D02732F7623A4
:102570002817B9F190E0209709F443C016E07F3F97
:1025800009F43FC0189FF001199FF00D1124DF01DD
:10259000A75DBD4F11964C91119734132CC04C91EF
:1025A000461329C012964C91129741111EC01396E2
:1025B0004D915C914C1B5D0B483C5105E0F48091C2
:1025C0005E028F70806180935E02E25DFD4F8081CC
:1025D0008F708061808389E592E00E94B00D0E9437
:1025E000D403DF91CF911F910895019687709927A9
:1025F0002813C8CFF6CF0196877099272813BFCF2D
:10260000F0CF01968770B4CF8F929F92AF92BF9216
:10261000DF92EF92FF920F931F93CF93DF93CDB78B
:10262000DEB72B970FB6F894DEBF0FBECDBF8C017F
:1026300085E0F801DE01179601900D928A95E1F789
:10264000F801F280A380B48089E5882E82E0982E7C
:102650009091590220915A0240915C0250915D0282
:102660004115510509F414C1822F89238F3F09F4C4
:102670000FC1D0905B02B501641B750BDD2009F41E
:10268000DBC080915E02683C710508F0B7C0318103
:10269000803108F077C0EF2C321312C0208129134B
:1026A0000FC0F1101CC08F70806180935E02C40166
:1026B0000E94B00D80915E02F8018583E12C4FC02D
:1026C0008F819885AB2889F0282F29232F3F69F027
:1026D000E09128022091270236E0FF20E1F080916E
:1026E0005E02816080935E02E9CFFF2039F3F7CF6D
:1026F0004E2F50E03E9FF0011124E75DFD4F6181B8
:10270000691306C06081681303C062816111D6CF6E
:10271000FA013196E770E213EBCF8F8198850E9422
:102720005F06292F22952F70903248F49F709923CD
:1027300011F08823A1F0805E883088F004C0225F09
:102740002F70223028F0C8010E94B00DED2C07C078
:102750009F70992381F3F8019581903160F78E2D58
:102760002B960FB6F894DEBF0FBECDBFDF91CF9191
:102770001F910F91FF90EF90DF90BF90AF909F90CF
:102780008F900895321312C0208129130FC0F110C9
:102790000DC08583C8010E94B00D86E0F801A9E54F
:1027A000B2E001900D928A95E1F725C0C8010E9420
:1027B0006E06882309F468C0FF2009F465C0809183
:1027C0005E02803270F02091590230915A023A83B1
:1027D00029831B82BD82AC828E83CE0101960E942A
:1027E000B00D86E0F801A9E5B2E001900D928A955E
:1027F000E1F70E949D12EE24E394B1CF803150F4B2
:1028000089E592E00E94B00D86E0F40111928A956C
:10281000E9F754CF31812313C9CF20812913C6CFC3
:10282000F110C4CF8583C8010E94B00D86E0F40189
:1028300011928A95E9F7DFCF683C710528F7FF20F0
:1028400019F18181281316C08081891313C08091EA
:102850005E0280FDA2CF803108F49FCF8583807F08
:10286000803F09F497CF8581982F907F905F8F707C
:10287000892B8FCFC8010E946E068111B2CF809143
:102880005E02816080935E02C8010E94B00DB3CFEA
:10289000FF20D1F3C8010E946E068823A9F386E0C9
:1028A000F801A9E5B2E001900D928A95E1F78091D7
:1028B000590290915A020E945F069BCFA7E1B0E0B7
:1028C000E4E6F4E10C9493204B8B5C8B962F6D8B9C
:1028D0007E8B8F8B6111109226021A8A85E0FE0191
:1028E0007396DE011D9601900D928A95E1F79F8700
:1028F00086E0FE013D96DE01179601900D928A95C5
:10290000E1F7CE0107960E940413811131C086E0E1
:10291000FE013796DE01119601900D928A95E1F73E
:102920008F81988520912702409128026A857B85B6
:10293000672BF1F089238F3FD9F030E0C901019670
:102940008770992750E084179507E9F096E0929FE9
:10295000D001939FB00D1124A75DBD4FFE013196AC
:1029600001900D929A95E1F7809327020E94D4037B
:1029700016E08091280290912702891312C0679671
:10298000E3E00C94AF200E94730D10922702109286
:10299000280286E0E9E5F2E0DF011D928A95E9F779
:1029A000E7CF189FC0011124875D9D4F0E9404133B
:1029B000882329F38091280290E001968770992757
:1029C00080932802D6CFAAE2B0E0E9EEF4E10C94BD
:1029D00093208FE891E0FC0101962091F100208383
:1029E00021E087399207B9F780919001893009F485
:1029F00056C0C8F4823009F4B2C0833009F481C0F3
:102A0000813071F18091E80083FFE6C080918F01F1
:102A1000909190019A3008F0DFC0E92FF0E0ED5678
:102A2000FE4D0C94CF208A3009F488C08B3051F7CA
:102A300080918F01813231F78091930190919401BF
:102A4000892B01F78091E800877F8093E8000E943E
:102A5000E50880919101809300010E94730DD2CF0F
:102A600080918F01813A71F68091E800877F809391
:102A7000E8008091930190919401892B61F060E0CE
:102A800080E090E070E00E948C088091E8008B77F5
:102A90008093E800B7CF68E087E991E0F3CF8091B9
:102AA0008F01813209F0AECF809193019091940112
:102AB000029708F0A7CF8091E800877F8093E80015
:102AC0008091E80082FF18C09091F3008091F2009D
:102AD000029731F48091F100813011F0863021F4B9
:102AE0008091F10080939F018091E8008B77809323
:102AF000E8000E94E50886CF8091E5018111E0CFD2
:102B000081CF80918F01813A09F07CCF8091930130
:102B100090919401892B09F075CF8091E800877F0F
:102B20008093E8008091E80080FFFCCF8091000155
:102B30008093F1008091E8008E77D9CF80918F014A
:102B4000813209F05FCF8091E800877F8093E800B1
:102B50000E94E5088091920180938B0153CF809170
:102B60008F01813A09F04ECF8091E800877F8093F2
:102B7000E8008091E80080FFFCCF80918B01D8CFE6
:102B8000803889F0823841F5809193018F708730C9
:102B900018F58093E9008091EB0085FB882780F988
:102BA0001092E90006C080918C019091AF019111C3
:102BB00082609091E800977F9093E8008093F10005
:102BC0001092F1008091E8008E7723C0811116C029
:102BD00080919101813011F18091E80083FF0AC05A
:102BE0008091E800877F8093E8008091EB0080620D
:102BF0008093EB00AA96E3E00C94AF20823061F75B
:102C000080919101882389F01092E9008091E80079
:102C1000877F8093E8000E94E508DECF81E0933053
:102C200009F080E08093AF01EFCF809193018F7026
:102C30002FEF280F263080F68093E9002091EB00DB
:102C400020FFE2CF933031F48091EB0080628093DB
:102C5000EB00DACF9091EB0090619093EB0021E0D4
:102C600030E0A90102C0440F551F8A95E2F7409356
:102C7000EA001092EA008091EB008860E8CF8111B1
:102C8000ABCF109191011F778091E3008078812B69
:102C90008093E3008091E800877F8093E8000E94A2
:102CA000E5088091E80080FFFCCF8091E300806818
:102CB0008093E30083E0111101C082E08093E5017D
:102CC0008BCF8058823008F087CF4091910150918E
:102CD00092014C3D83E0580799F583E08A838AE2AC
:102CE00089834FB7F894DE01139620E03EE051E26D
:102CF000E32FF0E050935700849120FF03C08295AA
:102D00008F703F5F8F708A30C8F0895C90E08D9340
:102D10009D932F5F243161F74FBF8091E800877F3B
:102D20008093E8006AE270E0CE0101960E948C0870
:102D30008091E8008B778093E8004ECF805DE6CFEE
:102D40002091930130919401852F9927833091052B
:102D500009F160F48130910509F472C0029709F01D
:102D60003BCF8BE390E0E3E2F2E029C081329105B2
:102D700009F45AC0829709F02FCF2115310509F4C3
:102D800069C02130310509F027CF8BE790E0E8E6F4
:102D9000F1E015C0CA0199274130B1F182309105A7
:102DA00009F43AC0892B09F017CFE2EAF2E0E49186
:102DB0008E2F90E0E2EAF2E0009709F40DCF209127
:102DC000E800277F2093E80020919501309196013B
:102DD0008217930708F49C0140E02115310509F0A2
:102DE0003EC041113CC08091E80082FDA1CF80919E
:102DF000E501882309F49CCF853009F499CF8091AF
:102E0000E80083FFF0CF94CFE8E8F2E0E4918E2F62
:102E100090E0E8E8F2E0D0CFE0E7F2E0E4918E2F36
:102E200090E0E0E7F2E0C8CF2115310571F02130E4
:102E3000310509F0D1CE89E090E0EEE4F2E0BFCFB9
:102E400082E190E0EEE5F2E0BACF89E090E0E5E3E0
:102E5000F2E0B5CF80E490E0E3EEF1E0B0CF809116
:102E6000E501882309F464CF853009F461CF8091AE
:102E7000E80083FD5DCF8091E80082FDB4CF8091B2
:102E8000E80080FFAACF9091F3008091F200211515
:102E9000310519F08830910550F041E0089709F0AC
:102EA00040E08091E8008E778093E80096CF4491CF
:102EB0004093F1003196215031090196E8CF8038D6
:102EC00009F08ACE8091E800877F8093E8008091A6
:102ED0008D018093F10076CE81117ECE109191010B
:102EE000123008F079CE8091E800877F8093E80067
:102EF00010938D010E94E508112381F084E08093F6
:102F0000E50142E061EC81E00E946D0942E261EC82
:102F100082E00E946D098091E5015ECE8091E30020
:102F200087FDECCF81E0EBCFA0E1B0E0EAE9F7E18B
:102F30000C9489201A821982FE01339686E0DF0103
:102F40001D928A95E9F789E0A82E81E0B82E8E01BE
:102F50000F5F1F4F4801EE24E394F12C29E0C22EAD
:102F600021E0D22EF50181915F018F3F09F441C02C
:102F7000F894E82FE295EF70F0E021A18F70A7019F
:102F800002C0440F551F8A95E2F7CA01922F982B71
:102F900091A392A18095892382A3789400C0E1E057
:102FA000F1E031E0712C21912F3F09F465C0A22F8F
:102FB000A295AF70A05EB0E08C9190E02F7002C03F
:102FC000959587952A95E2F78170811155C0832FD9
:102FD000782A330FCE16DF0631F7F501319780815D
:102FE0008F3F11F00E949C0650EA5A95F1F7D801E4
:102FF0007C920F5F1F4FBDE0AB16B1E0BB0609F03E
:10300000B1CF48E050E0B40184EA91E00E942B2166
:103010000091AD01892B91F188E0F401A4EAB1E0BF
:1030200001900D928A95E1F781E0809387010E94DB
:10303000640790938601809385018091850190912A
:1030400086010E947A080597E8F010E00E541E4FA2
:1030500044E050E064EA71E0C8010E942B21892B12
:1030600041F084E0E4EAF1E0D80101900D928A9504
:10307000E1F71092870106C080E0AACF8091870116
:103080008111DBCF0E94FF09E091AD01882309F493
:1030900088C01A8619861C861B860E2F10E00E54D7
:1030A0001E4F80918A018A3008F044C07E01E9E019
:1030B000EE0EF11C4BE859E1B701C8010E94960AD7
:1030C0006701882309F45BC047E159E1B701C801F2
:1030D0000E94960A882309F452C010928A018091B6
:1030E000AC0190E044E050E0B6018E549E4F0E9447
:1030F0002B2121E020938401892B99F580911A02DC
:103100008823A1F082EB90E00E94B80C8DEC0E9425
:103110003D0C8EEC0E943D0C8CEA90E00E94B80CB5
:103120008FEC0E943D0C80ED0E943D0C6096EDE01E
:103130000C94A52080918201909183010E947A08CD
:10314000843F914008F0B2CF809184018823B1F28E
:10315000FE01399684E0DF011D928A95E9F710920D
:103160008401E091AC01F0E0EE54FE4F89859A8530
:10317000AB85BC8580839183A283B383BFCF8091CD
:103180008A018F3F39F40E946407909383018093F2
:103190008201DACF8F5F80938A018A3008F49FCF53
:1031A000F2CFF0E0EE54FE4F80819181A281B38195
:1031B0008093D5019093D601A093D701B093D80105
:1031C00085ED91E00E9454098093D401C090D9010B
:1031D000D090DA01E090DB01F090DC0180917E017B
:1031E00090917F01A0918001B0918101C816D9060C
:1031F000EA06FB0609F49ACFC0927E01D0927F01C5
:10320000E0928001F09281010E94FF0981118ECF2E
:103210000E945D08C61AD70AE80AF90AC092C801D6
:10322000D092C901E092CA01F092CB017FCFA8E011
:10323000B0E0EDE1F9E10C9493204091CC01509184
:10324000CD016091CE017091CF012FB7F89480919C
:10325000D0019091D101A091D201B091D3012FBFA3
:10326000841B950BA60BB70B11E084369105A105C5
:10327000B105A8F10E94FF098823B1F10E945D0801
:10328000462F572FBC014E5F5F4F6F4F7F4F4983D3
:103290005A836B837C8380912701909128018C5203
:1032A0009E4F20912601422F50E0253010F044E03F
:1032B00050E0BE016F5F7F4F0E94382182E090E0B6
:1032C0000E940F20182F882351F00E945D08609300
:1032D000CC017093CD018093CE019093CF01812FCB
:1032E0002896E3E00C94AF200E945D086D837E83F6
:1032F0008F8398874091C8015091C9016091CA019C
:103300007091CB018D819E81AF81B885480F591F87
:103310006A1F7B1FB8CFEF92FF921F93CF93DF936B
:1033200000D000D00F92CDB7DEB77B0180E090E0F7
:103330000E940F20182F81111AC010E08091DD012A
:103340009091DE01A091DF01B091E001F70180834F
:103350009183A283B383812F0F900F900F900F90D2
:103360000F90DF91CF911F91FF90EF900895809182
:103370001901482F50E0882311F041E050E060919E
:103380001A0170911B016C527E4FCE0105960E946E
:1033900038214091E1015091E2016091E301709187
:1033A000E4012FB7F8948091D0019091D101A091C0
:1033B000D201B091D3012FBF841B950BA60BB70B85
:1033C00084369105A105B10538F485ED91E00E94A0
:1033D00054099D818917B9F181E090E00E940F2086
:1033E000882309F4AACF80912101482F50E085302D
:1033F00010F044E050E060912201709123016C5282
:103400007E4FCE0101960E94382185ED91E00E9409
:1034100054099D81891391CF0E945D086093E10159
:103420007093E2018093E3019093E40189819A8192
:10343000AB81BC818093DD019093DE01A093DF011D
:10344000B093E0017BCF8091D5019091D601A091FE
:10345000D701B091D80189839A83AB83BC83E6CF2F
:10346000CDB7DEB72A970FB6F894DEBF0FBECDBF3B
:1034700085B7806885BF85B7806885BF84B7877F3B
:1034800084BF0FB6F894A8958091600088618093FE
:103490006000109260000FBE80E890E00FB6F894D4
:1034A00080936100909361000FBE8AE996E090934B
:1034B0007501809374010E9435090E94A4098091CE
:1034C000E20084608093E20078948091E501882393
:1034D00099F08091E9001091EC001795112717954C
:1034E0008F70182B1092E9008091E80083FD0E94F4
:1034F000E3141F701093E90082E084BD93E095BD52
:103500009AEF97BD80936E001092C8011092C90186
:103510001092CA011092CB0123982B9A6E9A76983A
:1035200025E02A95F1F7000083B183FB882780F915
:103530006E98769A40EA4A95F1F780930D010E94C1
:10354000FF0981110E94211F80910D0181111EC070
:1035500084E98093090186E680930A0187E98093D4
:103560000B0186EC80930C0188E0EEE2F1E0DE01D5
:10357000119601900D928A95E1F788E0FE0131964F
:10358000A1E0B1E001900D928A95E1F780910D01E3
:1035900091E08927880F880F8093AD0194E0981BF4
:1035A0009093AC0109E011E0D8018D918D018F3F1E
:1035B00011F00E949C06B1E00D301B07A9F701E055
:1035C00011E0F80181918F018F3F11F00E949C065C
:1035D000F1E009301F07A9F788E0E2EBF1E0DF0135
:1035E000282F1D922A95E9F7E4EAF1E0DF011D9208
:1035F0008A95E9F780E090E00E94F120873E9E4F97
:1036000009F45EC067EE7EEF80E090E00E94152135
:1036100060E082E090E00E94F72060E083E090E0CC
:103620000E94F7201092200210921F0260E074E1C5
:1036300084E090E00E94152160E086E090E00E9426
:10364000F7206FEF87E090E00E94F72040E050E025
:10365000BA0188E090E00E94092160E08DE090E0EE
:103660000E94F72040E050E0BA0188E190E00E941B
:10367000092160E087E190E00E94F72040E050E0FF
:10368000BA018CE190E00E94092160E070E080E2E4
:1036900090E00E94152140E050E0BA0188E190E0FE
:1036A0000E94092140E050E0BA018FE090E00E94C2
:1036B000092140E050E0BA0183E190E00E94092135
:1036C00082E090E00E94E9208093BA0184E090E0DB
:1036D0000E94F120909325028093240283E090E0E1
:1036E0000E94E92090E00E943B030E94FF098111A3
:1036F00002C00E94241F8EE091E09093E801809325
:10370000E70123ECA22E21E0B22ECE01019638E192
:10371000832E912C89879A878091E501853049F421
:103720008091E501853009F45FC00E94730D0E940D
:10373000220A0E9494170BEB11E082EBC82E81E065
:10374000D82E97E3E92E91E0F92EB7019601F80102
:103750009191D9018D919D01DB014D91BD01842392
:10376000AE16BF0609F493C0981791F30E94FF09A3
:10377000282E612CF60171906F01D7018D917D018A
:103780007822F80131908F01371439F13724512C08
:1037900044244394842D83218823B9F02220A9F066
:1037A00059826A8291E0842D8721811101C090E0C5
:1037B0009B830E9464078160782F9D838C8349815D
:1037C0005A816B81892F0E945E145394440CF8E057
:1037D0005F12E0CFF80131977082639428E06212A3
:1037E000C9CF0E945D0873C08091E501843011F15A
:1037F0001092AE01E0E40FB6F894A89580926000B4
:103800000FBEE093600083B7817F846083BF83B77E
:10381000816083BF7894889583B78E7F83BF0FB60E
:10382000F894A89580916000886180936000109260
:1038300060000FBE8091AF01882309F471CF0E9410
:103840009417E2EBF1E0A7E3B1E081919D91892328
:10385000811105C021E0EA3BF207B9F761CF80E1B1
:1038600089BD82E189BD09B400FEFDCF8091D800F9
:103870008F7D8093D8008091E00082608093E0008B
:103880008091E00081FDFCCF0E94730D49CF981319
:103890006DCF0E9464078C018091B0019091B101BD
:1038A00008171907A1F08FEF89838A831B820E9472
:1038B00064078160782F9D838C8349815A816B8155
:1038C000892F0E945E141093B1010093B0010E94F1
:1038D000FF0986E0E4E1F2E0A985BA8501900D9246
:1038E0008A95E1F7109216021092170210921802B0
:1038F000109219028B819C81892B882371F0809111
:10390000C5019091C6010E947A089C018091120223
:10391000811143C0232B09F046C08D819E81892BE4
:10392000882371F08091C3019091C4010E947A08AC
:103930009C0180911102811176C0232B09F079C07E
:1039400046E050E069857A8584E192E00E942B216F
:10395000892B61F48091160290911702892B909126
:103960001802892B90911902892B81110E947007EE
:1039700086E0E985FA85A4E1B2E001900D928A958E
:10398000E1F70E94220A9091C701891709F4C4CE79
:103990008093C7010E945D08BFCE2131310508F434
:1039A000BCCF8F3F19F08F5F809312021B811123D0
:1039B00059F00E94B50691E011160CF09FEF899F17
:1039C000802D1124809316021C81112359F00E942E
:1039D000B50691E011160CF09FEF899F802D112400
:1039E0008093170230911602332309F496CF209169
:1039F0001702222309F491CF45EB3403C0011124AF
:103A0000892F911101C081E08093160245EB2403B8
:103A100090011124332319F0309317027ECF81E0F7
:103A2000809317027ACF2135310508F489CF8F3F73
:103A300019F08F5F809311021D81112359F00E94AC
:103A4000D90691E011160CF09FEF899F802D11246B
:103A5000809318021E81112359F00E94D90691E02B
:103A600011160CF09FEF899F802D1124809319026D
:103A700030911802332309F463CF209119022223D5
:103A800009F45ECF45EB3403C0011124892F911155
:103A900001C081E08093180245EB240390011124BA
:103AA000332319F0309319024BCF81E08093190230
:103AB00047CF1F921FB61F9211248F939F93AF93EE
:103AC000BF938091AE01811113C08091D00190917C
:103AD000D101A091D201B091D3014196A11DB11D98
:103AE0008093D0019093D101A093D201B093D301E0
:103AF000BF91AF919F918F911F901FBE1F901895FE
:103B000078941F921FB61F9211248F939F93AF93A7
:103B1000BF938091D0019091D101A091D201B09139
:103B2000D3010196A11DB11D8093D0019093D101C5
:103B3000A093D201B093D301BF91AF919F918F9188
:103B40001F901FBE1F9018951F920F920FB60F92D5
:103B500011242F933F934F935F936F937F938F9392
:103B60009F93AF93BF93EF93FF938091E10082FF08
:103B700009C08091E20082FF05C08091E1008B7F47
:103B80008093E1008091DA0080FF24C08091D8000A
:103B900080FF20C08091DA008E7F8093DA008091D0
:103BA000D90080FF9BC080E189BD82E189BD09B455
:103BB00000FEFDCF81E08093E50180918E018111AF
:103BC00009C00E9435090E94A4098091E200846026
:103BD0008093E2008091E10080FF17C08091E200B5
:103BE00080FF13C08091E2008E7F8093E20080917D
:103BF000E20080618093E2008091D800806280932F
:103C0000D80019BC85E08093E5018091E10084FF34
:103C100029C08091E20084FF25C080E189BD82E156
:103C200089BD09B400FEFDCF8091D8008F7D8093BF
:103C3000D8008091E1008F7E8093E1008091E200C6
:103C40008F7E8093E2008091E20081608093E200A9
:103C500080918D01882309F447C084E08093E501B9
:103C60008091E5018091E10083FF27C08091E2000F
:103C700083FF23C08091E100877F8093E10082E091
:103C80008093E50110928D018091E1008E7F8093F9
:103C9000E1008091E2008E7F8093E2008091E2005B
:103CA00080618093E20042E060E080E00E946D0964
:103CB0008091F00088608093F000FF91EF91BF91B8
:103CC000AF919F918F917F916F915F914F913F91B4
:103CD0002F910F900FBE0F901F90189519BC109246
:103CE000E50110928E0176CF8091E30087FF02C03C
:103CF00083E0B4CF81E0B2CF1F920F920FB60F9244
:103D00001124FF920F931F932F933F934F935F9331
:103D10006F937F938F939F93AF93BF93CF93DF93D3
:103D2000EF93FF9309EE10E0F8018081C091EC0061
:103D3000C795CC27C7958F70FC2EF82A1082C0EF4C
:103D4000D0E08881877F888378940E94E314F8010B
:103D50001082888188608883CF2DCF70C083FF91C7
:103D6000EF91DF91CF91BF91AF919F918F917F9113
:103D70006F915F914F913F912F911F910F91FF9004
:103D80000F900FBE0F901F9018958EE14A9B03C0B5
:103D900081508111FBCF4A9BFECF08955A9880E253
:103DA0008A95F1F75A9A0895FC013BE03A95F1F7AC
:103DB00098E020E080E031E040E14A95F1F7880F9B
:103DC0004A9B02C08160232742E04A95F1F7000038
:103DD00040E14A95F1F791509111EECF90E19A951B
:103DE000F1F799B132E03A95F1F7000040E14A95D8
:103DF000F1F792FB992790F992272081920F9083F7
:103E00000895A1E0B0E0E7E0FFE10C949020198272
:103E10008C017C01E60EF11C0E151F0541F481E0BA
:103E20009981911180E02196E6E00C94AC200E94EB
:103E3000C51ECE0101960E94D41EF80181938F0108
:103E4000EBCF529A5A9A089552985A9AEA9AE9E60A
:103E5000F0E080818F7C808308956150770B91E042
:103E600001C0990F6A95EAF7692F90E021E061118E
:103E700008C0992399F05A9A80E28A95F1F75A98E6
:103E80000895362F3823332339F05A9A922730E297
:103E90003A95F1F76695EBCF5A98F9CF5A98ECCF4F
:103EA000FF920F931F93CF93DF93EC018C01060FCA
:103EB000111DC017D10729F4CDB7DEB7E5E00C948A
:103EC000AD20F9900E94CE1E68E08F2D0E942D1F1C
:103ED000F0CF1F920F920FB60F9211240F931F93E2
:103EE0002F933F934F935F936F937F938F939F9302
:103EF000AF93BF93EF93FF93CF93DF930F92CDB721
:103F0000DEB719820E94C51ECE0101960E94D41E02
:103F1000082F069506950695982F92959570202F57
:103F20002570920F292F237096959695920F9827BA
:103F300097708981892B81115CC0043008F059C0C9
:103F400080E18A95F1F75A9A529A82E08A95F1F7C0
:103F500000C05A9888E0089F80011124D801AA5E09
:103F6000BE4F1696ED91FC9117973097A9F060918E
:103F70003F017091400114962D913C911597260FA9
:103F8000371F11968D919C911297680F791F139688
:103F90004C9113978C910995F801EA5EFE4F63816D
:103FA000662351F020913F01309140018481958139
:103FB000820F931F0E94501F0E94CE1E80E18A959F
:103FC000F1F75A9852985A9A80E18A95F1F7F801D8
:103FD000EA5EFE4F6081662351F020913F013091EF
:103FE000400181819281820F931F0E94011F0E94D4
:103FF000C51E0F90DF91CF91FF91EF91BF91AF91CF
:104000009F918F917F916F915F914F913F912F91F0
:104010001F910F910F900FBE0F901F9018950F9347
:104020001F93CF93DF938C0104970CF065C0F89435
:10403000529A5A9885E08A95F1F70000C02FC695EC
:10404000C570802F8570C80F8C2F8370C695C6955C
:1040500093E0000F111F9A95E1F7C80FC8018C2B50
:10406000EC010E94CE1E00C068E08C2F0E942D1F24
:1040700090E19A95F1F752985A9A4A9B35C087E099
:1040800090E04A9933C0F801EA5EFE4F63816623EF
:1040900061F020913F013091400184819581820F30
:1040A000931F0E94011F882321F10E94C51E80E2F8
:1040B0008A95F1F75A98529A90E19A95F1F7F8019A
:1040C000EA5EFE4F6081662351F020913F013091FE
:1040D000400181819281820F931F0E94501F0E9494
:1040E000CE1E789481E009C000C0C7CF0197009729
:1040F00049F4529A5A9A789480E0DF91CF911F91B7
:104100000F91089500C0BDCF2F923F924F925F92C2
:104110006F927F928F929F92AF92BF92CF92DF92D7
:10412000EF92FF920F931F93CF93DF93CDB7DEB73C
:10413000CA1BDB0B0FB6F894DEBF0FBECDBF0994D0
:104140002A88398848885F846E847D848C849B8427
:10415000AA84B984C884DF80EE80FD800C811B8135
:10416000AA81B981CE0FD11D0FB6F894DEBF0FBE64
:10417000CDBFED01089597FB072E16F4009407D0EC
:1041800077FD09D00E94D52007FC05D03EF490951C
:1041900081959F4F0895709561957F4F0895EE0F1B
:1041A000FF1F0590F491E02D0994AA1BBB1B51E160
:1041B00007C0AA1FBB1FA617B70710F0A61BB70B97
:1041C000881F991F5A95A9F780959095BC01CD013C
:1041D0000895F999FECF92BD81BDF89A992780B5CF
:1041E0000895A8E1B0E042E050E00C941D21262F94
:1041F000F999FECF92BD81BDF89A019700B40216DD
:1042000039F01FBA20BD0FB6F894FA9AF99A0FBE8A
:1042100008950396272F0E94F8200E94F720252F4B
:104220000E94F820242F0C94F8200196272F0E943A
:10423000F8200C94F720DC01CB01FC01F999FECFAA
:1042400006C0F2BDE1BDF89A319600B40D9241501E
:104250005040B8F70895FB01DC0104C08D91019036
:10426000801921F441505040C8F7881B990B0895DC
:10427000FB01DC0102C001900D9241505040D8F783
:104280000895F894FFCFA407AC07AF07B507CA0796
:10429000CA07CA07CA07CA07CA07CA07CA07B807A8
:1042A000BD07C107C707D807DE07E207F10EF60E04
:1042B000FB0E000F050FB80ED80EDD0E810F850F17
:1042C000770F7D0F890F8D0F910F8F108F10C910F1
:1042D000C91056117311F610F61078110412151248
:1042E0001512F10F5C10F90FC30FC70FFD0FCB0FA5
:1042F00001100D10D70F5510DB0F1110DF0F151027
:104300003D10E30F19104410E90F1F102710CF0FB5
:104310000510D30F0910ED0F231033104D1053105B
:10432000BD0FF50F6310C015E615EC15E615EC157D
:0A4330003F166116EC155F176C17BD
:10433A000132363534C6976694F6F7313301890867
:10434A00710A880A8F0A00000001000000000000BC
:10435A0000040100000004050000000000003435DC
:10436A0036323331F7F600FCFCFF2FFCFCFF2FD46A
:10437A0001E200E900EA00B500B600B700CD00830B
:10438A0001CC008A01920194012102230224022510
:10439A0002260227022A02B300B4006F0070009FAF
:0443AA0001CB010042
:00000001FF
