:100000000C940E030C9446030C9446030C940B20A2
:100010000C9446030C9446030C9446030C9446033C
:100020000C9446030C9446030C94461E0C941E1F1D
:100030000C94FB1D0C9446030C9446030C9446034D
:100040000C9446030C9446030C9446030C9446030C
:100050000C9446030C94221E0C9446030C94460305
:100060000C9446030C9446030C9446030C944603EC
:100070000C9446030C9446030C9446030C944603DC
:100080000C9446030C9446030C9446030C944603CC
:100090000C9446030C9446030C9446030C944603BC
:1000A0000C9446030C9446030C944603010433302D
:1000B0007C00010431307C000000000000000000E2
:1000C0000000000000000000000000000000000030
:1000D0000000000000000000000000007E0F00D4BF
:1000E000FFFFFFC7000000780000000000000000D4
:1000F0002A2B280000000000000000000000000083
:1001000000000029000000002C1E3420212224348D
:100110002627252E362D3738271E1F20212223245F
:1001200025263333362E37381F0405060708090AFB
:100130000B0C0D0E0F101112131415161718191A97
:100140001B1C1D2F3130232D350405060708090A15
:100150000B0C0D0E0F101112131415161718191A77
:100160001B1C1D2F3130354C05010902A1018502F0
:100170000901A100050919012908150025019508A3
:10018000750181020501093009311581257F95022C
:100190007508810609381581257F95017508810646
:1001A000050C0A38021581257F950175088106C066
:1001B000C005010980A101850319012AB7001501B5
:1001C00026B700950175108100C0050C0901A10139
:1001D000850419012AA002150126A00295017510B7
:1001E0008100C005010906A101050719E029E715ED
:1001F00000250195087501810295017508810105A9
:1002000007190029FF150026FF00950675088100D3
:1002100005081901290595057501910295017503D8
:100220009101C009023B00020100A0FA090400008C
:10023000010301010009211101000122400007050D
:1002400081030800010904010001030000000921E5
:1002500011010001227B0007058203200001120129
:100260000002000000081D8D9D9D0001010200019B
:1002700016034B00790072006900610020007200D3
:1002800065007600320000001803730070006C00F7
:10029000690074006B0062002E0063006F006D0047
:1002A0000000040309040000000005001300090019
:1002B0001A0014000000000000000A28172216216E
:1002C000152404400000000000001900070006008B
:1002D0001B001C00000000002C432844000000000C
:1002E000000000000000000000000D000F0018409A
:1002F0001D002D0000000000000010281132082110
:100300000C2412400000000000000E000B003640DC
:1003100037403840000000002A412B420000000016
:10032000000000000000000000000000000052007B
:10033000000000000000000000004D004F005100D0
:1003400050004A000000000000000000A900AA00C0
:10035000A800AE0000000000E100E0000000000086
:1003600000000000000000000000290000004B0019
:10037000000000000000000000004C0000004E00E3
:10038000000000000000000000002A000601190122
:100390001B01000000000000010000000000000040
:1003A0000000000000000000000000000000CD0080
:1003B000000000000000000000000000D000CE009F
:1003C000CF0000000000000000000000000000005E
:1003D000000000000000000000000000000000001D
:1003E000000000000000000000000000DB00D90059
:1003F000DC000000000000000000B600D100DA00C0
:10040000D200B70000000000000000000601190142
:100410001B010000000000000000010000000000BF
:1004200000000000000000000000290000000000A3
:10043000000000000000000000004C001414220224
:10044000350023430000000000002A0006011901C6
:100450001B0100000000000001000100000000007E
:10046000000000000000000000001F43254320435F
:10047000214322430000000000001E4324431F02CA
:100480002702300200000000000030002643320244
:1004900064006402000000001E022D020000000043
:1004A000000000000000000000000000000000004C
:1004B000000000000000000000000000000000003C
:1004C000000000000000000000000000060119010B
:1004D0001B010000000000000100010000000000FE
:1004E00000000000000000000000000024002500C3
:1004F0002600000000000000000000002100220093
:100500002300000000000000000000001E001F4447
:100510002044000000000000270000000000000050
:10052000000000000000000000000000467E477E42
:10053000000000000000000000000000417E427E3C
:10054000437E447E000000000000407E457E0000A7
:100550000000000000000000010001000000000099
:100560000000000000000000000076004000410094
:100570004200430000000000000000003D003E007B
:100580003F00440000000000000000003A003B0073
:100590003C004500000000000000000000000000DA
:1005A000000000000000676974206272616E636879
:1005B000202F617676006769742070757368006714
:1005C00069742070756C6C006769742061646420C4
:1005D0002F70202E0067697420636F6D6D69742021
:1005E0002F616D2000676974206469666600676921
:1005F00074207374617475730041637469766174F7
:10060000656400010431357C00446561637469767A
:100610006174656400010431357C000011241FBE43
:10062000CFEFDAE0DEBFCDBF04B603FE18C0809185
:10063000630290916402A0916502B09166028730D6
:10064000904BA740B04B59F4109263021092640291
:100650001092650210926602E0E0F8E3099511E05D
:10066000A0E0B1E0ECE8F4E402C005900D92A837F8
:10067000B107D9F722E0A8E7B1E001C01D92A33687
:10068000B207E1F70E94E61A0C94E3210C940000F3
:100690009C01FB019A9581159F41A8F431FB8827A5
:1006A00080F9A9014427547034FF08C08295880F4F
:1006B000807E452B09F0806409950895880F452BAD
:1006C000D9F38460F9CF80E0F7CF90932402809330
:1006D000230208959C0188719927489731F420627C
:1006E000309326022093250208952F7DF9CF21E033
:1006F00030E002C0220F331F8A95E2F78091250275
:1007000090912602822B932B0E946A03089521E088
:1007100030E002C0220F331F8A95E2F72095309512
:100720008091250290912602822393230E946A03DE
:100730000895282F292B283070F528E0929FF0018A
:100740001124E80FF11D877041E001C0440F8A9524
:10075000EAF783E0F695E7958A95E1F7EE0FFF1F3C
:10076000EE0FFF1FEB50FE4F80E090E070E05191E4
:10077000DF0111979B01082E02C0369527950A9438
:10078000E2F7217021952527242325272C93019614
:100790008430910561F70895292F282B283060F5C2
:1007A00028E0929FF0011124E80FF11D982F977017
:1007B00083E0F695E7958A95E1F7EE0FFF1FEE0FC0
:1007C000FF1FEB50FE4F40E050E080E0219130E011
:1007D000092E02C0369527950A94E2F72170332737
:1007E000042E01C0220F0A94EAF7822B4F5F5F4F5D
:1007F0004430510559F7089580E0089580912C0206
:1008000090912B02981301C008958F5F8770FACFE3
:10081000ECE7F1E09191891303C0DF0111971C927D
:1008200091E0E238F907B1F7089520912702809509
:10083000822380932702982F9770911113C030E084
:10084000482F082E000C550B2417350759F09091AE
:10085000290292FF07C08595859585950E9487039B
:10086000109227020895982F909580912102892354
:100870008093210208958091220281111092220218
:100880000895962F972B9830B0F48630B8F498E0FE
:10089000899FF0011124E70FF11D83E0EE0FFF1F88
:1008A0008A95E1F7E60FF11DEE0FFF1FEA55FD4FA8
:1008B00085919491089580E090E0089581E0FCCFC7
:1008C000803E9105D1F1C8F48133910509F47FC0D0
:1008D00048F48932910509F46FC08A32910509F410
:1008E0007DC0089589339105E1F082389105C9F002
:1008F0008533910509F45BC00895843E9105D1F1DB
:1009000048F4823E910531F1833E910541F181EE3B
:1009100090E00895863E9105C1F1873E9105E1F191
:100920000895209128022370211165C02091290289
:1009300023FF14C089E290E008952091280220FD51
:1009400043C03091290230FF09C024FF4EC080E02F
:1009500090E008952091280222FDF7CF089520917C
:10096000280222FD45C03091290230FD44C024FFF9
:10097000F5CFEDCF2091290221FFF0CF8091280201
:1009800084FDE5CF87EE90E008952091280223FFB3
:10099000E5CF24FDDCCFF6CF2091280223FD2EC029
:1009A0003091290231FFE3CF84EE90E00895209149
:1009B000280225FFD3CFBECF2091280225FD21C0DC
:1009C0002091290223FFCACF89E390E00895209166
:1009D000280226FFC3CF8AE290E0089520912802E2
:1009E00026FFBCCF81E390E0089583EE90E0089568
:1009F00082EE90E0089580EE90E0089586EE90E01B
:100A0000089585E390E0AACF2091280222FF06C036
:100A1000982F98719830C1F4877F84609091290253
:100A2000392F3170927023FF21C0482F487148310F
:100A300091F4877E84619923B1F0982F917191315F
:100A400091F48E7E88610FC0982F9471943031F7A5
:100A50008B7F8860E3CF482F4471443139F48B7E1B
:100A60008861911118C024FD877E0895332369F0B1
:100A7000382F3871383019F4877F8160DCCF382FF8
:100A80003171313011F48E7F8860992361F3982F92
:100A90009871983191F6877E8161E5CF1F93CF934E
:100AA000DF930E946004EC01811522E5920708F0B3
:100AB00053C0811540E5940708F0DDC0803E9105E4
:100AC000F8F48D3C910508F0AEC0883A910580F4A9
:100AD000853A910508F099C08130910521F004977D
:100AE000813A910550F4CE01DF91CF911F91089585
:100AF000885A91094B9708F48BC0C0E0D0E0F3CF3F
:100B0000811550E49507F8F4C11580E2D80708F084
:100B1000CBC0C83ED10538F3CE019A9581159F41CF
:100B200060F78D2F0E940405182FCE0199270E948F
:100B30006004212F30E0322F2227E901CC27DF711A
:100B4000C82BD92BD0CF99270E946004CC27DF7007
:100B5000C82BD92BD06AC7CF803842E59407C8F597
:100B6000803652E5950708F067C0C03482E5D807A3
:100B7000B0F08C2F86958695877020E2829FC00109
:100B80001124C37021E030E0A90102C0440F551FB9
:100B9000CA95E2F7EA01C82BD92BDC68A4CFC03292
:100BA00052E5D50708F041C08C2F8695869520E246
:100BB000829FC0011124C37021E030E0A90102C06E
:100BC000440F551FCA95E2F7EA01C82BD92BDD68FF
:100BD0008ACF803C52E5950760F48F71C03AD245C8
:100BE00008F03FC090E0982F8827EC01C46FD06ACE
:100BF0007ACF805C9245809708F07FCFDC2FCC279E
:100C0000CC27DF71C06FD06A6ECFA497D0646BCF52
:100C1000C85AD0E0CC0FDD1FCF5BDE4F0990D881E2
:100C2000C02DD46460CFD0655ECFCF71D0E0DC2F13
:100C3000CC27C16FD06A57CF86958695877020E202
:100C4000829FC0011124C37021E030E0A90102C0DD
:100C5000440F551FCA95E2F7EA01C82BD92BDA6871
:100C600042CF0E940405C82FD0E0DC2FCC27CC2730
:100C7000DF71D06238CF8F710E94040565E0D69590
:100C8000C7956A95E1F7CF70D0E0DC2FCC27282FED
:100C900030E084FF05C054E0220F331F5A95E1F77E
:100CA000C22BD32BD0691FCF8D2F8F710E940405CB
:100CB000182FCE0199270E946004212F30E0322F97
:100CC000222722273F71282B392BE901D2CFA0E020
:100CD000B0E0EDE6F6E00C942F218C01E0902502C7
:100CE000F09026028091230290912402E82AF92AAA
:100CF000CFE0D0E0CC24C394D12CC6010C2E02C08E
:100D0000880F991F0A94E2F78E219F21892B49F4BD
:100D1000219798F7B12C8B2DCDB7DEB7E9E00C9475
:100D20004B21BC2EB8018C2F0E9441040E944E051D
:100D3000019771F3F0CF0F931F93CF93FC01828142
:100D400000811181882391F0662381F0C8010E94FF
:100D50006706C82F682FC8010E949903B8018C2F1D
:100D60000E944104CF911F910F910895C8010E94E4
:100D7000CC03C82FF3CFCF93DF93D82FC92F0E9476
:100D800067066D2F7C2F0E9441040E944E05DF9163
:100D9000CF910895FC0183819481892BC9F08181D1
:100DA000908189238F3FA1F0808191810E94BB06B1
:100DB000282F92959F70963091F060F4925F9F700B
:100DC000923030F481E0203F79F030F4283E30F06A
:100DD00080E004C09A5FF3CF243FD1F7089581E00B
:100DE000283E18F0213FF9CF0895089580E0089536
:100DF000F894E82FE295EF70F0E041A18F7021E0C8
:100E000030E0B90102C0660F771F8A95E2F7CB0187
:100E1000962F9095942391A392A1892B82A37894E5
:100E200008958091170280FD16C081FD16C082FDD5
:100E300018C080911602882391F0803490F420E34A
:100E4000829FC001112426E0959587952A95E1F7A8
:100E5000009749F008958CE0089588E1089588E0AE
:100E6000089580E3089581E008958091170280FD40
:100E700017C081FD17C082FD19C08091150288231B
:100E800099F0883298F428E0829FC001112468E22A
:100E900070E00E945D216115710551F0862F089563
:100EA00062E0FCCF64E0FACF61E0F8CF68E0F6CF13
:100EB00081E00895A3E0B0E0E0E6F7E00C9436218D
:100EC0009C018091A6019091A70182179307A1F040
:100ED0003093A7012093A601E091EB01F091EC0182
:100EE000309751F083E089833B832A830680F78122
:100EF000E02DCE01019609952396E2E00C94522153
:100F0000A3E0B0E0E6E8F7E00C9436219C01809184
:100F1000A4019091A50182179307A1F03093A50138
:100F20002093A401E091EB01F091EC01309751F096
:100F300084E089833B832A830680F781E02DCE01FC
:100F4000019609952396E2E00C9452219C01FC0144
:100F500032968FEF90E04191461751F08F3F19F490
:100F6000411101C0892F9F5F9630A9F78F3F09F487
:100F70000895280F311D87FD3A95F9016283089580
:100F80002FB7F8948091D2019091D301A091D40110
:100F9000B091D5012FBF08950E94C00720911A0279
:100FA00030911B02232B222321F08093C7019093C1
:100FB000C80120911C0230911D02232B222321F015
:100FC0008093C5019093C601E091EB01F091EC0193
:100FD000309749F082E0809318020480F581E02D7B
:100FE00088E192E009950895662309F44BC0E3E394
:100FF000E80FE33150F4F0E0EB51FE4D0C94712119
:101000000E941107819580931B020E94CC070895CE
:101010000E941107F8CF0E941107819580931A0250
:10102000F4CF0E941107FACF0E94350780931C026B
:10103000ECCF0E9435078195F9CF0E943507819545
:1010400080931D02E2CF0E943507FACF815D990B94
:1010500021E030E001C0220F8A95EAF78091190261
:10106000822B80931902D1CF8091170281608093E7
:101070001702CBCF809117028260F9CF80911702BF
:101080008460F5CF40911A028D3C59F480911B0287
:1010900087FF0DC010921B02442359F410921602D0
:1010A00008C08E3C81F480911B0218169CF34423E7
:1010B00081F080911C0290911D02892B8111A5CF96
:1010C00010921502A2CF8F3C41F447FFF0CF10924F
:1010D0001A0280911B028823E0CF803D19F4141678
:1010E000B4F3E5CF90911C02893D29F41916FCF662
:1010F00010921C02DCCF8A3D19F497FFD8CFF8CFAD
:1011000090911D028B3D29F497FFD1CF10921D02C3
:10111000CECF8C3D19F41916CCF3C9CF9FE2980FAE
:10112000983090F4815D990B21E030E0B90102C064
:10113000660F771F8A95E2F7CB018095909119028F
:10114000892380931902B3CF8D3D31F4809117022A
:101150008E7F80931702ABCF8E3D21F480911702D2
:101160008D7FF7CF8F3D09F0A2CF809117028B7F43
:10117000F0CFA4E0B0E0EFEBF8E00C9436218FB7AD
:10118000F8942091D2013091D3014091D401509133
:10119000D50129833A834B835C838FBF69817A8130
:1011A0008B819C812496E2E00C9452219C014FB7E4
:1011B000F8948091D2019091D301A091D401B09183
:1011C000D5014FBF821B930B08958091A301089511
:1011D000FC019B018091990190919A0186179707D4
:1011E00040F0672B29F48091E8008E778093E80027
:1011F000C90140E0009741F4411106C08091E80028
:1012000082FF2FC080E008952091E7012223A9F1F9
:101210002530A9F12091E80023FD2DC02091E800A0
:1012200022FDECCF2091E80020FFE4CF3091F300C5
:101230002091F200009719F02830310558F041E074
:101240002830310509F040E02091E8002E77209306
:10125000E800D0CF41914093F10001972F5F3F4FBD
:10126000E9CF8091E701882341F0853041F08091FA
:10127000E80083FFC3CF81E0089582E0089583E012
:1012800008958091930187FF13C08091E80082FF49
:1012900006C08091E8008B778093E80004C08091BD
:1012A000E7018111F2CF08958091E7018823D9F3F6
:1012B0008091E80080FFF8CF8091E8008E77ECCF36
:1012C0002091E4003091E50095E6A9018091EC00C1
:1012D0008170882331F08091E80080FF06C080E0B3
:1012E00008952091E80022FD1BC08091E70188232A
:1012F00091F0853091F08091EB0085FD10C0209138
:10130000E4003091E5004217530701F39150911129
:10131000DCCF84E0089582E0089583E0089581E0C1
:101320000895E8EDF0E080818E7F80831092E200E6
:101330001092DA001092E100A0EEB0E08C91816092
:101340008C9380818F77808319BCA7EDB0E08C915E
:101350008E7F8C9380818F7E80831092920108957E
:10136000FC01AC014C5F5F4F8FEF91E3219182272D
:1013700028E030E087FF0BC0880F89272150310912
:1013800021153105B9F7E417F50781F70895880F9E
:10139000F5CF982FE42FE2709093E900891308C0ED
:1013A000762F242F50E0E11111C091E0980FF4CF77
:1013B0007091EC002091ED005091F00021FD06C0ED
:1013C0009F5F973049F78093E90008953091EB00D3
:1013D0003E7F3093EB003091ED003D7F3093ED0088
:1013E0003091EB0031603093EB007093EC00209370
:1013F000ED005093F0002091EE0027FDE1CF08951D
:10140000A0E0B0E0E6E0FAE00C943021C8EDD0E0D6
:1014100088818F7E8883E7EDF0E080818160808322
:1014200084E082BF81E08093920188818E7F8883EF
:1014300002EE10E0F80110821092DA0081EEC82E60
:10144000D12CF601108288818F778883888180680B
:10145000888388818F7D888319BC1092E701109260
:1014600091011092B3011092900190EEE92EF12CAF
:10147000F70180818B7F808388818160888342E04F
:1014800060E080E00E94C909F60180818E7F808340
:10149000F801808181608083808188608083F7018A
:1014A00080818E7F8083888180618883CDB7DEB71D
:1014B000E8E00C944C21E0912C0290912B0226E064
:1014C000E91302C080E00895AE2FB0E02E9FF00136
:1014D0001124E35DFD4F3181361306C0308138138E
:1014E00003C03281341304C0FD013196E770E8CFA8
:1014F00081E008958091E801811110C08091D800A9
:1015000080618093D8008AE18A95F1F700C08091CC
:10151000D90080FF0AC081E08093E80181E09091CA
:10152000E801913009F080E0089582E08093E801BD
:101530000E9491091092E701F1CF0E947A0A882354
:1015400059F0E091EB01F091EC01309729F0019016
:10155000F081E02D0995089580E008950F931F9381
:10156000CF93DF93EB018A019091E701943079F5F5
:101570008093E9008FEF9091E80095FD07C095ED0D
:101580009A95F1F7000081508111F5CF8091E80024
:1015900085FF1DC00E946009811114C08091E80080
:1015A00085FD06C08091E8008E778093E800F2CF39
:1015B00088818093F100015011090115110511F086
:1015C0002196ECCF8091E8008E778093E800DF9140
:1015D000CF911F910F910895CF93DF93D82FC92FEB
:1015E00048E050E0682F792F81E00E94AE0A88E041
:1015F000ED2FFC2FABE9B1E001900D928A95E1F758
:10160000DF91CF910895BC0146E050E082E00E9456
:10161000AE0A0895BC0143E050E082E00E94AE0AA9
:101620000895A0E0B0E0E7E1FBE00C942E21F82E55
:10163000E92EB62EA72E8A0180918E01CC24C39468
:10164000D12C8A3018F48AE0C82ED12CC1E0D0E029
:101650006B2D7A2D8F2D9E2DF8010995811116C0C5
:101660002196CC16DD0694F0CC9FC001CD9F900D45
:10167000900D112420E030E045E34A95F1F7000099
:101680002F5F3F4F28173907B9F7E2CFCDB7DEB745
:10169000EAE00C944A219091290292FB222720F93A
:1016A000281779F080FB92F9909329026091280223
:1016B0007091290284E090E00E94B72182E00E94AC
:1016C000150408958091210290912A02892B80931C
:1016D0007A0190912202992391F0892B80937A01CB
:1016E00020E08CE791E0FC013081019631112F5F01
:1016F00031E082389307B9F721110E943B0448E09A
:1017000050E06DEE71E08AE791E00E94CD21892BD7
:10171000A9F088E0EAE7F1E0ADEEB1E001900D92CA
:101720008A95E1F7E091EB01F091EC01309731F00F
:101730000280F381E02D8AE791E0099508958823DE
:1017400039F090912102892B809321020E94620B33
:101750000895882339F090912A02892B80932A02D8
:101760000E94620B0895882321F00E9433040E9496
:10177000620B0895882341F0809590912A02892375
:1017800080932A020E94620B0895CF93C82F88236A
:10179000A9F08CEF8C0F813A98F4ECE7F1E081919D
:1017A000C81709F440C021E0E238F207C1F76C2FF6
:1017B0008AE791E00E94A6070E94620BCF910895EC
:1017C00080E28C0F883068F4C77021E030E001C0FF
:1017D000220FCA95EAF780912102822B8093210281
:1017E000EBCF8BE58C0F833038F42C2F2452330B46
:1017F000C9010E945A07E2CFE8E5EC0FEB3150F443
:10180000F0E0EE0FFF1FEF5BFE4F808191810E94A1
:101810008007D4CF83E38C0F833180F661E08C2F77
:101820000E94F407CBCF8C2F0E9408040E94620B09
:10183000BECFCF93C82F69EA7BE00E9448038C2F6C
:101840000E94C50BCF910895882381F19CEF980FDA
:10185000913A28F40E9408040E94620B089590E2D5
:10186000980F983050F4877091E001C0990F8A95D5
:10187000EAF7892F0E943304EFCF9BE5980F93304E
:1018800028F480E090E00E945A07089598E5980FA8
:101890009B3128F480E090E00E948007089593E354
:1018A000980F933118F460E00E94F4070895CF93E5
:1018B000DF93EC010E94240C6AEB7BE0CE010E94D6
:1018C0004803DF91CF9108950F931F93CF93DF9338
:1018D000EC0100E010E0C99711F400E510E0CE0142
:1018E0000E94190C0115110541F4CE010E94570CFC
:1018F000DF91CF911F910F9108958FE99FE001979C
:10190000F1F700C0000001501109ECCF282FCA01E7
:10191000603128F421110E94640C80E0089581E078
:101920000895782FCA01603130F0772331F00E949A
:10193000190C80E00895C901F8CF0E94570CF9CF27
:101940000F931F93CF93C82F00E010E0893311F459
:1019500000E510E08C2F0E94C50B0115110539F42C
:101960008C2F0E94240CCF911F910F9108958FE925
:101970009FE00197F1F700C0000001501109EDCF81
:101980000F931F93CF93DF93C62FD42F122F88234B
:10199000A9F060931F020E94C00790938D0180936D
:1019A0008C01C77081E001C0880FCA95EAF70E94D8
:1019B0009F0BDF91CF911F910F91089580911F028E
:1019C000681332C080918C0190918D010E94D608DD
:1019D000883C910548F5CD130CC0812F0E94A00CC6
:1019E000D77081E001C0880FDA95EAF70E94B30B47
:1019F000E0CFC77001E0802F01C0880FCA95EAF7D9
:101A00000E94B30B80E28D0F883050F48D2F8770C9
:101A100001C0000F8A95EAF7802F0E949F0BDDCF4F
:101A2000812F0E94A00CC5CFC77081E001C0880F34
:101A3000CA95EAF7DBCFA0E0B0E0E1E2FDE00C946C
:101A400031218C01F8019491992309F4AAC09130B5
:101A500009F048C0E8012196FE018491813049F4E3
:101A60002196FE0184910E94A00C8E010F5F1F4FF2
:101A7000E9CF823039F4E8012296FE0184910E9478
:101A8000C50BF3CF833039F4E8012296FE0184912F
:101A90000E94240CEACF843041F7E8012296FE012F
:101AA000849120E030E04AE0FE0131968053990BAA
:101AB0008A30910560F021153105B9F28FE99FE078
:101AC0000197F1F700C0000021503109F4CF429F87
:101AD000B001439F700D11249C01260F371F849184
:101AE000EF01E2CFE92FF0E0E851FF4FD490292F2A
:101AF00026952695269530E0F901E852FF4F84910E
:101B00009770F901E853FF4FE490F12C092E02C0C1
:101B1000F594E7940A94E2F7E1E0EE22FF24F9015C
:101B2000E854FF4FC491D0E0092E02C0D595C79567
:101B30000A94E2F7C170DD27E82FF0E002C0F595C6
:101B4000E7959A95E2F7E0FD0DC0E114F104A9F4E0
:101B50008D2D0E94A00CCD2B19F08CE20E94A00CC0
:101B6000E80183CF81EE0E94C50BE114F10479F402
:101B70008D2D0E94A00C81EE07C086EE0E94C50B41
:101B80008D2D0E94A00C86EE0E94240CE4CF86EEE0
:101B90000E94C50B8D2D0E94A00C86EE0E94240C85
:101BA000EACFCDB7DEB7E7E00C944D21CF9310928A
:101BB0002102C6E0ECE7F1E0DF018C2F1D928A954F
:101BC000E9F780E090E00E945A0780E090E00E94F0
:101BD000800710922A020E94620BE8E1F2E0DF0126
:101BE0001D92CA95E9F710921602109215021092F2
:101BF00017020E94CC07CF9108950E94D60D2FEFB7
:101C000084E39CE0215080409040E1F700C0000058
:101C100088E19CE00FB6F894A895809360000FBE11
:101C200090936000FFCFA0E0B0E0E9E1FEE00C940B
:101C300030218C01DC019C9111968C9111971396A7
:101C40002D913C91232B09F4E8C189238F3F09F49E
:101C5000E4C161E0C8010E949B06EC018732B3E455
:101C60009B0708F053C08E31E3E49E0750F586339E
:101C7000F0E49F0709F473C078F58231904409F4C9
:101C800063C04FE250E0C83180E4D80709F45EC079
:101C900044E350E0C43090E4D90709F462C0D801AD
:101CA00012968C9107C1FE01E154FE47D8011296AD
:101CB0008C91E730F10508F0E9C0E850FE4D0C9436
:101CC0007121FC01EF51F344E830F10508F0BDC08B
:101CD000E150FE4D0C9471218733B0E49B0709F469
:101CE00044C048E352E088339044D9F1F80182813E
:101CF0008111B2C1C631DC4709F0DEC080912002FB
:101D0000811197C289E20E940804C1C18834FEE7AC
:101D10009F0728F680342EE7920728F68F319444E7
:101D200009F4B1C040E254E1C03284E4D80771F054
:101D3000F8018281FE01E851FC47E730F105B0F679
:101D4000E95FFD4D0C94712143E350E0D8011596F5
:101D50006C91159712968C910E94860C15C046E3E3
:101D600052E0F80165818281F7CF47E352E0EECF80
:101D700026E232E045E252E0D80115966C911597C3
:101D800012968C910E94910C882309F436C1D801D7
:101D900012968C91882309F48FC010921F02CE01F5
:101DA0009057839708F476C1CA353CE7D30709F406
:101DB0005CC208F040C2C1309CE7D90709F453C2A5
:101DC000C330ACE7DA0709F448C2C115DC4709F0B3
:101DD00073C00E94D60D2FEF34E38CE021503040C9
:101DE0008040E1F700C0000081E08093E00080E2E5
:101DF0008093D8001092C900AFE1BEE41197F1F7CB
:101E000000C0000087E090EBDC01809363029093B8
:101E10006402A0936502B093660288E19CE00FB66D
:101E2000F894A895809360000FBE90936000FFCF58
:101E300026E234E145E254E1F80165818281A2CFD6
:101E400027E234E144E254E197CF28E034E141E273
:101E500052E0F2CF24E634E143E252E08DCF2EE2AD
:101E600032E04EE250E0E8CF2DE234E144E252E0CD
:101E700083CF20E334E142E350E0DECF25E332E0DC
:101E800040E252E079CF4FE154E16BCF882309F46F
:101E90007ECF80911E02882309F45CC085E196E024
:101EA0000E941B0D10921E0289E096E00E941B0DFD
:101EB000F80182818111CDC0D80112968C911297C0
:101EC000ED90FC90882309F4D4C1C7010E946706F5
:101ED000C82F682FC7010E949903B7018C2F0E9459
:101EE00041040E944E05D82FC92FF801F280E580E9
:101EF000E2942FE0E2228091270287708823F1F09C
:101F0000DF2CFF20E1F0892F807F803451F080E2C8
:101F10008D0F883098F0E11004C0892F807E8032C8
:101F200069F08091290282FF09C082E00E941504B5
:101F3000809127028770DD24D3948111D12CEC2F5E
:101F4000E295EF70C03C08F0D1C1F0E0E25FFD4DDA
:101F50000C94712183E096E00E941B0D81E0809338
:101F60001E0289EF95E00E941B0D99CE882309F48B
:101F70000ECF8EEE95E00E941B0D88E290E00E944D
:101F8000640C96CF882309F402CF85EE95E00E9479
:101F90001B0D88E290E00E94640C81CE882309F436
:101FA000F6CE85ED95E00E941B0D8FE192E00E9438
:101FB000640C8FE192E00E94640C80E590E0DFCF3A
:101FC000882309F4E4CE88EC95E0E1CF882309F476
:101FD000DECE8FEB95E0CFCF882309F4D8CE86EB09
:101FE00095E0C1CF882309F4D2CE86EA95E0C3CF2D
:101FF00026E241EE61EE0E94C00C809127028770BC
:10200000882359F0F8018281882339F080912902D0
:1020100082FF03C082E00E941504CDB7DEB7E8E07E
:102020000C944C2127E245EE65EEE5CF26E241EE29
:1020300060EEE1CF27E245EE64EEDDCF26E241EE31
:1020400062EED9CF27E245EE66EED5CF28E241E039
:10205000EBCF10921F02A8CE10921F02CE01905714
:102060008397C0F0C6312CE7D20709F09DCE80914E
:1020700021028A7A91E0811101C090E090932002C0
:1020800069E2811165E38AE791E00E94A6070E9458
:10209000620BB3CF84E090E00E94932190932902D9
:1020A00080932802FE01E150F047E232F10520F46E
:1020B000E65EFD4D0C947121809128028160809331
:1020C0002802609128027091290284E090E00E9429
:1020D000B7210E94D60D91CF80912902886080930C
:1020E0002902EFCF809128028260E9CF80912802F7
:1020F0008460E5CF809128028860E1CF8091290239
:102100008160EDCF809129028260E9CF8091280221
:102110008061D5CF809128028062D1CF8091280242
:102120008064CDCF0E94D60D809128028068C7CFF1
:10213000809128028C60C3CF809129028360CFCF29
:10214000809128028E7FBBCF80912902877FC7CFE5
:10215000809128028D7FB3CF809128028B7FAFCFF3
:1021600080912802877FABCF809129028E7FB7CFE5
:10217000809129028D7FB3CF809128028F7E9FCFDF
:10218000809128028F7D9BCF809128028F7B97CFF3
:102190000E94D60D809128028F7791CF80912802DE
:1021A000837F8DCF809129028C7F99CF80912802E7
:1021B00082FB992790F921E0922790FB82F990FB0E
:1021C00083F97DCF80912902982F909591708E7F11
:1021D000892B90FB81F983CF90912802892F8F7BE7
:1021E00096FF80646CCF0E94D60D90912802892FB3
:1021F00097FB87F9805863CF61E08EE090E00E9402
:1022000099215FCF60E0F9CF90912802892F8F7ECE
:1022100094FF806154CF90912802892F8E7F90FF88
:1022200081604DCF90912902892F877F93FF88602D
:1022300056CF85E368CDCB35ECE7DE07C1F0CC3572
:10224000DC4709F039CE8091290282FB882780F98A
:1022500091E089270E944B0B2FCE6FEF7FEF80E03C
:1022600090E00E94B7210E94FD0D81E0F3CF80E055
:10227000F1CFC7010E94CC03C82F2FCEFC2FFF70D7
:10228000EF2EC03118F0E29490EFE922FF20B9F070
:10229000EE2069F080E28D0F883010F0D11109C076
:1022A000809121028E29809321020E94620B8D2F42
:1022B0005FC080912A028E2980932A02F6CF8D2F4B
:1022C0000E94240CEE2091F080E28D0F883010F0F7
:1022D000D11104C08E2D0E94330406C0E094809179
:1022E0002A028E2180932A020E94620BDD20B1F027
:1022F0008091270280FD12C0D80112961C9285950C
:10230000859585950E947703C8010E94130E8091E0
:1023100027028595859585950E94870360E0C80111
:102320000E949B067ACE2C2F2F70C22EC07FC03207
:1023300019F0C29480EFC822DD2351F0D13009F4A6
:102340004AC0FF2009F454C0EE2009F44AC0AFCFC0
:102350002091290222FD17C0FF2069F0CC2039F01E
:10236000809121028C29809321020E94620B80E0DF
:102370000E94C50BBBCF80E00E94240CCC2009F446
:10238000B5CF8C2DA8CFFF20A1F0909122028C2DEB
:10239000892BE11003C00E949F0BA8CF31E0E3120C
:1023A000FACF22FFA3CF891709F4A0CF809322028E
:1023B0009DCFE11006C00E943B048C2D0E94B30B00
:1023C00095CF81E0E81609F491CF8C2D0E94B30BD4
:1023D0000E943B048BCFFF2031F095E09E1508F45E
:1023E00085CF8C2DD8CFA4E0AE1508F47FCFE5CFF4
:1023F000EE2019F3D93349F4BFEFE7EEF3E0B15023
:10240000E040F040E1F700C000008D2F0E94240C56
:102410006DCF8C2F869586958370882369F08130E7
:1024200009F064CF8D2F9C2F9370F11002C080E0D3
:1024300090E00E9480075ACF8D2F9C2F9370F1104F
:1024400002C080E090E00E945A0750CF6F2D8D2F80
:102450000E94F4074BCF8C2F8370811142C0F11082
:102460002FC04D2F429546954770440F440F2D2F96
:102470002F7030E0042E02C0220F331F0A94E2F7BF
:1024800080E090E0D4FF09C08FE090E002C0880FA8
:10249000991F4A95E2F780959095C695C695C370A9
:1024A000C230B1F0C33089F0409123025091240230
:1024B000C13049F0822B932B842395230E9465031E
:1024C0000E949D0A13CF242B352B822B932BF6CF02
:1024D000822B932B20912302309124028227932771
:1024E000EDCFFF2091F1C0FFEBCF4D2F42954695E8
:1024F0004770440F440F2D2F2F7030E0042E02C080
:10250000220F331F0A94E2F780E090E0D4FF09C065
:102510008FE090E002C0880F991F4A95E2F78095FE
:102520009095C695C695C370C230C1F0C33099F07E
:102530004091250250912602C13059F0822B932BF5
:10254000842395230E946A03BBCF823008F4B8CF5E
:10255000CCCF242B352B822B932BF4CF822B932B98
:10256000209125023091260282279327EBCFCF704E
:10257000FF2039F08C2F0E9477038D2F0E949F0B34
:102580009FCF8D2F0E94B30B8C2F0E94870398CF73
:10259000D23FA1F178F4D03FC1F0D13F09F447C058
:1025A000FF2009F46BC0EE2009F465C08D2F0E9456
:1025B000C50B86CFD33F49F1D43FA9F1F110F3CF3A
:1025C000E1106AC08C2F8F71E0CFFF20A1F024E0D2
:1025D0002E1508F475CFCF7181E090E0DC0102C0C8
:1025E000AA0FBB1FCA95E2F780912502909126029F
:1025F0008A279B27A7CFB5E0EB16EBCF8C2F8F71E7
:10260000F110C3CF0E9477035BCF80E090E0FF2002
:1026100009F498CFCF7181E090E002C0880F991F34
:10262000CA95E2F78FCF8091290282FD06C08C2FD8
:102630008F71FF2009F4A9CFE5CFFF2089F0CF717A
:102640008C2F0E9477038091290282FF07C0E8E067
:10265000CE9FC00111248360809327028C2FD2CF9C
:1026600081E00E941504F1E0FE1508F029CF82E018
:102670000E94150425CF8C2F8F71C4CFEE2009F452
:10268000A1CFD93349F42FEF37EE83E0215030400A
:102690008040E1F700C000008D2F0E94240C10CF75
:1026A0001F93CF93DF9380916202803108F04CC07A
:1026B00080915F02882309F447C080912C02209109
:1026C0002B0230915D0260915E02C0916002D09158
:1026D0006102732F76232817B9F190E0209709F44F
:1026E00043C016E07F3F09F43FC0189FF001199FD7
:1026F000F00D1124DF01A35DBD4F11964C91119790
:1027000046132CC04C91431329C012964C9112973A
:1027100041111EC013964D915C914C1B5D0B483CC2
:102720005105E0F4809162028F70806180936202B3
:10273000EE5CFD4F80818F70806180838DE592E03B
:102740000E94130E0E94FE03DF91CF911F91089506
:102750000196877099272813C8CFF6CF0196877006
:1027600099272813BFCFF0CF01968770B4CFABE085
:10277000B0E0EDEBF3E10C942E218C0185E0F80143
:10278000DE01179601900D928A95E1F7F801F2802B
:10279000C380D4808DE5A82E82E0B82E90915D0292
:1027A00020915E02409160025091610241155105F5
:1027B00009F4FEC0892F82238F3F09F4F9C0E0900D
:1027C0005F02B601641B750BEE2009F4C5C0809151
:1027D0006202683C710508F0A1C0B180803108F048
:1027E00061C02B1113C02081291310C0F1103EC00D
:1027F0008F708061809362028DE592E00E94130EDB
:1028000080916202F8018583F12C29C0AF80C11448
:10281000D10451F18A2D8B218F3F31F1F11026C067
:1028200040E06B2D8A2D0E945B0A40E06B2D8A2DC3
:102830000E945B0AF82E8111E7CF8F8198850E9454
:10284000BB06292F22952F709034B0F49F70223050
:10285000E0F09923F1F0F80195819031D0F48F2DBB
:102860002B96EAE00C944A21FF2071F280916202DB
:10287000816080936202C8CF2A5F2F70223068F097
:10288000C8010E94130EFE2CEACF992311F0882371
:1028900031F3805E883018F3F3CF803F00F3815F1F
:1028A0008230F9CF2B1112C0208129130FC0F110F3
:1028B0000DC08583C8010E94130E86E0F801ADE5C6
:1028C000B2E001900D928A95E1F725C0C8010E94FF
:1028D000CA06882309F468C0FF2009F465C0809106
:1028E0006202803270F020915D0230915E023A8384
:1028F00029831B82DD82CC828E83CE0101960E94C9
:10290000130E86E0F801ADE5B2E001900D928A95D4
:10291000E1F70E945013FF24F394A1CF803150F4CB
:102920008DE592E00E94130E86E0F50111928A95E2
:10293000E9F76ACF31813213C9CF20812913C6CF7D
:10294000F110C4CF8583C8010E94130E86E0F50103
:1029500011928A95E9F7DFCF683C710528F7FF20CF
:1029600019F18181821316C08081891313C080916F
:10297000620280FDA2CF803108F49FCF8583807FE3
:10298000803F09F497CF8581982F907F905F8F705B
:10299000892B8FCFC8010E94CA068111B2CF8091C6
:1029A0006202816080936202C8010E94130EB3CF5D
:1029B000FF20D1F3C8010E94CA068823A9F386E04C
:1029C000F801ADE5B2E001900D928A95E1F78091B2
:1029D0005D0290915E020E94BB069BCFA7E1B0E032
:1029E000E4EFF4E10C9435214B8B5C8B962F6D8BCF
:1029F0007E8B8F8B611110922A021A8A85E0FE016C
:102A00007396DE011D9601900D928A95E1F79F87DE
:102A100086E0FE013D96DE01179601900D928A95A3
:102A2000E1F7CE0107960E94B713811131C086E00D
:102A3000FE013796DE01119601900D928A95E1F71D
:102A40008F81988520912B0240912C026A857B858D
:102A5000672BF1F089238F3FD9F030E0C90101964F
:102A60008770992750E084179507E9F096E0929FC8
:102A7000D001939FB00D1124A35DBD4FFE0131968F
:102A800001900D929A95E1F780932B020E94FE032C
:102A900016E080912C0290912B02891312C0679648
:102AA000E3E00C9451210E94D60D10922B0210925B
:102AB0002C0286E0EDE5F2E0DF011D928A95E9F750
:102AC000E7CF189FC0011124835D9D4F0E94B7136B
:102AD000882329F380912C0290E001968770992732
:102AE00080932C02D6CFA5E0B0E0E9E7F5E10C94A5
:102AF00034210E94C0078C018091E9019091EA0184
:102B00008017910791F08FEF89838A831B820E943F
:102B1000C0078160782F49815A816B81892F0E947B
:102B2000EE141093EA010093E9012596E4E00C9479
:102B30005021AAE2B0E0EFE9F5E10C94352183E9F8
:102B400091E0FC0101962091F100208321E08B3976
:102B50009207B9F780919401893009F456C0C8F4FE
:102B6000823009F4B2C0833009F481C0813071F140
:102B70008091E80083FFE6C08091930190919401D9
:102B80009A3008F0DFC0E92FF0E0E45CFD4D0C94D2
:102B900071218A3009F488C08B3051F780919301FC
:102BA000813231F78091970190919801892B01F73B
:102BB0008091E800877F8093E8000E94410980911E
:102BC0009501809300010E94D60DD2CF8091930190
:102BD000813A71F68091E800877F8093E8008091C8
:102BE000970190919801892B61F060E080E090E07E
:102BF00070E00E94E8088091E8008B778093E800FD
:102C0000B7CF68E08BE991E0F3CF809193018132F7
:102C100009F0AECF8091970190919801029708F04A
:102C2000A7CF8091E800877F8093E8008091E8003B
:102C300082FF18C09091F3008091F200029731F466
:102C40008091F100813011F0863021F48091F10003
:102C50008093A3018091E8008B778093E8000E9425
:102C6000410986CF8091E7018111E0CF81CF80912A
:102C70009301813A09F07CCF80919701909198015E
:102C8000892B09F075CF8091E800877F8093E80059
:102C90008091E80080FFFCCF809100018093F100DB
:102CA0008091E8008E77D9CF80919301813209F02D
:102CB0005FCF8091E800877F8093E8000E94410900
:102CC0008091960180938F0153CF80919301813A37
:102CD00009F04ECF8091E800877F8093E8008091D3
:102CE000E80080FFFCCF80918F01D8CF803889F039
:102CF000823841F5809197018F70873018F5809365
:102D0000E9008091EB0085FB882780F91092E900AB
:102D100006C0809190019091B301911182609091D1
:102D2000E800977F9093E8008093F1001092F10003
:102D30008091E8008E7723C0811116C080919501A3
:102D4000813011F18091E80083FF0AC08091E80092
:102D5000877F8093E8008091EB0080628093EB0096
:102D6000AA96E3E00C945121823061F7809195019D
:102D7000882389F01092E9008091E800877F809392
:102D8000E8000E944109DECF81E0933009F080E045
:102D90008093B301EFCF809197018F702FEF280FB1
:102DA000263080F68093E9002091EB0020FFE2CFEF
:102DB000933031F48091EB0080628093EB00DACFA6
:102DC0009091EB0090619093EB0021E030E0A9013D
:102DD00002C0440F551F8A95E2F74093EA00109213
:102DE000EA008091EB008860E8CF8111ABCF1091B1
:102DF00095011F778091E3008078812B8093E30019
:102E00008091E800877F8093E8000E9441098091CB
:102E1000E80080FFFCCF8091E30080688093E300AE
:102E200083E0111101C082E08093E7018BCF8058CD
:102E3000823008F087CF40919501509196014C3D2A
:102E400083E0580799F583E08A838AE289834FB744
:102E5000F894DE01139620E03EE051E2E32FF0E02B
:102E600050935700849120FF03C082958F703F5F7D
:102E70008F708A30C8F0895C90E08D939D932F5FAE
:102E8000243161F74FBF8091E800877F8093E8008D
:102E90006AE270E0CE0101960E94E8088091E800A5
:102EA0008B778093E8004ECF805DE6CF209197012D
:102EB00030919801852F99278330910509F160F4AD
:102EC0008130910509F472C0029709F03BCF8BE382
:102ED00090E0E3E2F2E029C08132910509F45AC0A2
:102EE000829709F02FCF2115310509F469C02130EF
:102EF000310509F027CF8BE790E0E8E6F1E015C057
:102F0000CA0199274130B1F18230910509F43AC0E4
:102F1000892B09F017CFE2EAF2E0E4918E2F90E0DE
:102F2000E2EAF2E0009709F40DCF2091E800277F54
:102F30002093E8002091990130919A01821793071C
:102F400008F49C0140E02115310509F03EC0411113
:102F50003CC08091E80082FDA1CF8091E7018823E9
:102F600009F49CCF853009F499CF8091E80083FF64
:102F7000F0CF94CFE8E8F2E0E4918E2F90E0E8E81B
:102F8000F2E0D0CFE0E7F2E0E4918E2F90E0E0E7CE
:102F9000F2E0C8CF2115310571F02130310509F07B
:102FA000D1CE89E090E0EEE4F2E0BFCF82E190E0A4
:102FB000EEE5F2E0BACF89E090E0E5E3F2E0B5CFEC
:102FC00080E490E0E3EEF1E0B0CF8091E701882368
:102FD00009F464CF853009F461CF8091E80083FD66
:102FE0005DCF8091E80082FDB4CF8091E80080FF42
:102FF000AACF9091F3008091F2002115310519F0CC
:103000008830910550F041E0089709F040E0809148
:10301000E8008E778093E80096CF44914093F100CA
:103020003196215031090196E8CF803809F08ACED7
:103030008091E800877F8093E800809191018093E0
:10304000F10076CE81117ECE10919501123008F0FC
:1030500079CE8091E800877F8093E80010939101FA
:103060000E944109112381F084E08093E70142E04E
:1030700061EC81E00E94C90942E261EC82E00E94B9
:10308000C9098091E7015ECE8091E30087FDECCF16
:1030900081E0EBCFA0E1B0E0E0E5F8E10C942B217A
:1030A0001A821982FE01339686E0DF011D928A950D
:1030B000E9F789E0A82E81E0B82E8E010F5F1F4F3F
:1030C0004801EE24E394F12C29E0C22E21E0D22E17
:1030D000F50181915F018F3F09F441C0F894E82F19
:1030E000E295EF70F0E021A18F70A70102C0440FBC
:1030F000551F8A95E2F7CA01922F982B91A392A1AE
:103100008095892382A3789400C0E1E0F1E031E06A
:10311000712C21912F3F09F465C0A22FA295AF70A9
:10312000A05EB0E08C9190E02F7002C095958795DD
:103130002A95E2F78170811155C0832F782A330FC9
:10314000CE16DF0631F7F501319780818F3F11F000
:103150000E94F80650EA5A95F1F7D8017C920F5F69
:103160001F4FBDE0AB16B1E0BB0609F0B1CF48E0A0
:1031700050E0B40188EA91E00E94CD210091B101B4
:10318000892B91F188E0F401A8EAB1E001900D9259
:103190008A95E1F781E080938B010E94C0079093AC
:1031A0008A01809389018091890190918A010E940E
:1031B000D6080597E8F010E00C541E4F44E050E0AC
:1031C00068EA71E0C8010E94CD21892B41F084E0BA
:1031D000E8EAF1E0D80101900D928A95E1F71092AA
:1031E0008B0106C080E0AACF80918B018111DBCFDB
:1031F0000E947A0AE091B101882309F488C01A86F6
:1032000019861C861B860E2F10E00C541E4F8091D1
:103210008E018A3008F044C07E01E9E0EE0EF11C18
:1032200041E45AE1B701C8010E94110B67018823EC
:1032300009F45BC04DEC59E1B701C8010E94110BC4
:10324000882309F452C010928E018091B00190E061
:1032500044E050E0B6018C549E4F0E94CD2121E005
:1032600020938801892B99F580911E028823A1F073
:1032700082EB90E00E941B0D8DEC0E94A00C8EEC66
:103280000E94A00C8CEA90E00E941B0D8FEC0E9423
:10329000A00C80ED0E94A00C6096EDE00C944721FC
:1032A00080918601909187010E94D608843F9140C9
:1032B00008F0B2CF809188018823B1F2FE013996DF
:1032C00084E0DF011D928A95E9F710928801E09170
:1032D000B001F0E0EC54FE4F89859A85AB85BC8542
:1032E00080839183A283B383BFCF80918E018F3F70
:1032F00039F40E94C0079093870180938601DACF4A
:103300008F5F80938E018A3008F49FCFF2CFF0E078
:10331000EC54FE4F80819181A281B3818093D701CB
:103320009093D801A093D901B093DA0187ED91E091
:103330000E94B0098093D601C090DB01D090DC01DF
:10334000E090DD01F090DE01809182019091830197
:10335000A0918401B0918501C816D906EA06FB0642
:1033600009F49ACFC0928201D0928301E092840145
:10337000F09285010E947A0A81118ECF0E94B908CD
:10338000C61AD70AE80AF90AC092CA01D092CB013C
:10339000E092CC01F092CD017FCFA8E0B0E0E3ED68
:1033A000F9E10C9435214091CE015091CF0160910B
:1033B000D0017091D1012FB7F8948091D2019091F2
:1033C000D301A091D401B091D5012FBF841B950BDF
:1033D000A60BB70B11E084369105A105B105A8F144
:1033E0000E947A0A8823B1F10E94B908462F572F0C
:1033F000BC014E5F5F4F6F4F7F4F49835A836B8392
:103400007C8380912701909128018A529E4F2091C0
:103410002601422F50E0253010F044E050E0BE017C
:103420006F5F7F4F0E94DA2182E090E00E94B1201E
:10343000182F882351F00E94B9086093CE01709331
:10344000CF018093D0019093D101812F2896E3E0A2
:103450000C9451210E94B9086D837E838F839887D5
:103460004091CA015091CB016091CC017091CD0186
:103470008D819E81AF81B885480F591F6A1F7B1FC0
:10348000B8CFEF92FF921F93CF93DF9300D000D07D
:103490000F92CDB7DEB77B0180E090E00E94B120B3
:1034A000182F81111AC010E08091DF019091E00186
:1034B000A091E101B091E201F70180839183A283A1
:1034C000B383812F0F900F900F900F900F90DF918B
:1034D000CF911F91FF90EF90089580911901482F8F
:1034E00050E0882311F041E050E060911A017091A2
:1034F0001B016A527E4FCE0105960E94DA2140914F
:10350000E3015091E4016091E5017091E6012FB76C
:10351000F8948091D2019091D301A091D401B091FF
:10352000D5012FBF841B950BA60BB70B84369105D5
:10353000A105B10538F487ED91E00E94B0099D81A5
:103540008917B9F181E090E00E94B120882309F445
:10355000AACF80912101482F50E0853010F044E03F
:1035600050E060912201709123016A527E4FCE019A
:1035700001960E94DA2187ED91E00E94B0099D81B9
:10358000891391CF0E94B9086093E3017093E4011D
:103590008093E5019093E60189819A81AB81BC819A
:1035A0008093DF019093E001A093E101B093E201E9
:1035B0007BCF8091D7019091D801A091D901B09192
:1035C000DA0189839A83AB83BC83E6CFCDB7DEB7BC
:1035D0002C970FB6F894DEBF0FBECDBF85B78068BD
:1035E00085BF85B7806885BF84B7877F84BF0FB6E6
:1035F000F894A89580916000886180936000109293
:1036000060000FBE80E890E00FB6F89480936100F0
:10361000909361000FBE86EF96E0909379018093BE
:1036200078010E9491090E94000A8091E200846062
:103630008093E20078948091E701882399F080914B
:10364000E9001091EC001795112717958F70182B32
:103650001092E9008091E80083FD0E9499151F7087
:103660001093E90082E084BD93E095BD9AEF97BD89
:1036700080936E001092CA011092CB011092CC017F
:103680001092CD0123982B9A6E9A769825E02A9570
:10369000F1F7000083B183FB882780F96E98769A52
:1036A00040EA4A95F1F780930D010E947A0A811150
:1036B0000E94C31F80910D0181111EC084E9809377
:1036C000090186E680930A0187E980930B0186EC65
:1036D00080930C0188E0EEE2F1E0DE0111960190AA
:1036E0000D928A95E1F788E0FE013196A1E0B1E004
:1036F00001900D928A95E1F780910D0191E0892763
:10370000880F880F8093B10194E0981B9093B001CB
:1037100009E011E0D8018D918D018F3F11F00E94D9
:10372000F806B1E00D301B07A9F701E011E059E000
:10373000E52E51E0F52EF80181918F018F3F11F0B8
:103740000E94F806E016F106B1F788E0E4EBF1E03C
:10375000DF01282F1D922A95E9F7E8EAF1E0DF0161
:103760001D928A95E9F780E090E00E949321873EC0
:103770009E4F09F45EC067EE7EEF80E090E00E940D
:10378000B72160E082E090E00E94992160E083E050
:1037900090E00E949921109224021092230260E08E
:1037A00074E184E090E00E94B72160E086E090E060
:1037B0000E9499216FEF87E090E00E94992140E0FC
:1037C00050E0BA0188E090E00E94AB2160E08DE01B
:1037D00090E00E94992140E050E0BA0188E190E039
:1037E0000E94AB2160E087E190E00E94992140E0D7
:1037F00050E0BA018CE190E00E94AB2160E070E003
:1038000080E290E00E94B72140E050E0BA0188E1F8
:1038100090E00E94AB2140E050E0BA018FE090E0E0
:103820000E94AB2140E050E0BA0183E190E00E94A9
:10383000AB2182E090E00E948B218093BC0184E068
:1038400090E00E949321909329028093280283E0C4
:1038500090E00E948B2190E00E9465030E947A0A0A
:10386000811102C00E94C61F8EE091E09093EC018E
:103870008093EB0125EC622E21E0722ECE010196A1
:1038800038E1A32EB12C4CEB842E41E0942E898795
:103890009A878091E701853049F48091E70185306E
:1038A00009F461C00E94D60D0E949D0A0E944A1828
:1038B0000DEB11E084EBC82E81E0D82E97E3E92EC2
:1038C00091E0F92EB7019601F8019191D9018D91FE
:1038D0009D01DB014D91BD0184236E167F0609F425
:1038E00094C0981791F30E947A0A8C87412CF601B4
:1038F00051906F01D7018D917D015822F80181917E
:103900008F01851549F185258B87312C222423943D
:103910008B8582218823C1F0FC85FF23A9F03982A1
:103920004A8291E0822D8521811101C090E09B8324
:103930000E94C0078160782F9D838C8349815A81C2
:103940006B81892F0E94EE143394220C28E03212EE
:10395000DFCFF80131975082439448E04412C7CF3B
:103960000E94B90856C08091E701843011F110928D
:10397000B201E0E40FB6F894A895A09260000FBEE3
:10398000E093600083B7817F846083BF83B78160E9
:1039900083BF7894889583B78E7F83BF0FB6F894E2
:1039A000A89580916000886180936000109260000B
:1039B0000FBE8091B301882309F46FCF0E944A188B
:1039C000E4EBF1E0A7E3B1E081919D9189238111BE
:1039D00004C08E169F06C1F760CF80E189BD82E1E9
:1039E00089BD09B400FEFDCF8091D8008F7D809302
:1039F000D8008091E00082608093E0008091E00038
:103A000081FDFCCF0E94D60D48CF98136CCF0E9449
:103A100073150E947A0A86E0E8E1F2E0A985BA858A
:103A200001900D928A95E1F710921A0210921B02F2
:103A300010921C0210921D028B819C81892B88237D
:103A400071F08091C7019091C8010E94D6089C0135
:103A500080911602811143C0232B09F046C08D814D
:103A60009E81892B882371F08091C5019091C601B8
:103A70000E94D6089C0180911502811176C0232BEB
:103A800009F079C046E050E069857A8588E192E0E6
:103A90000E94CD21892B61F480911A0290911B0222
:103AA000892B90911C02892B90911D02892B8111E9
:103AB0000E94CC0786E0E985FA85A8E1B2E0019092
:103AC0000D928A95E1F70E949D0A9091C90189178C
:103AD00009F4DFCE8093C9010E94B908DACE213102
:103AE000310508F4BCCF8F3F19F08F5F8093160229
:103AF0001B81112359F00E94110791E011160CF05F
:103B00009FEF899F802D112480931A021C8111231D
:103B100059F00E94110791E011160CF09FEF899F58
:103B2000802D112480931B0230911A02332309F453
:103B300096CF20911B02222309F491CF45EB340349
:103B4000C0011124892F911101C081E080931A02D4
:103B500045EB240390011124332319F030931B0209
:103B60007ECF81E080931B027ACF2135310508F4A6
:103B700089CF8F3F19F08F5F809315021D8111232C
:103B800059F00E94350791E011160CF09FEF899FC4
:103B9000802D112480931C021E81112359F00E9454
:103BA000350791E011160CF09FEF899F802D1124AD
:103BB00080931D0230911C02332309F463CF2091BE
:103BC0001D02222309F45ECF45EB3403C00111240A
:103BD000892F911101C081E080931C0245EB2403E1
:103BE00090011124332319F030931D024BCF81E053
:103BF00080931D0247CF1F921FB61F9211248F93EF
:103C00009F93AF93BF938091B201811113C08091B4
:103C1000D2019091D301A091D401B091D5014196E8
:103C2000A11DB11D8093D2019093D301A093D40123
:103C3000B093D501BF91AF919F918F911F901FBEFF
:103C40001F90189578941F921FB61F9211248F937E
:103C50009F93AF93BF938091D2019091D301A09194
:103C6000D401B091D5010196A11DB11D8093D2015F
:103C70009093D301A093D401B093D501BF91AF919C
:103C80009F918F911F901FBE1F9018951F920F92AA
:103C90000FB60F9211242F933F934F935F936F931F
:103CA0007F938F939F93AF93BF93EF93FF938091F5
:103CB000E10082FF09C08091E20082FF05C080918F
:103CC000E1008B7F8093E1008091DA0080FF24C0C7
:103CD0008091D80080FF20C08091DA008E7F809391
:103CE000DA008091D90080FF9BC080E189BD82E12C
:103CF00089BD09B400FEFDCF81E08093E70180918A
:103D00009201811109C00E9491090E94000A8091CC
:103D1000E20084608093E2008091E10080FF17C0A0
:103D20008091E20080FF13C08091E2008E7F80933B
:103D3000E2008091E20080618093E2008091D800EF
:103D400080628093D80019BC85E08093E701809160
:103D5000E10084FF29C08091E20084FF25C080E15A
:103D600089BD82E189BD09B400FEFDCF8091D800F4
:103D70008F7D8093D8008091E1008F7E8093E10059
:103D80008091E2008F7E8093E2008091E20081606A
:103D90008093E20080919101882309F447C084E078
:103DA0008093E7018091E7018091E10083FF27C0C4
:103DB0008091E20083FF23C08091E100877F8093A0
:103DC000E10082E08093E701109291018091E1008F
:103DD0008E7F8093E1008091E2008E7F8093E200ED
:103DE0008091E20080618093E20042E060E080E048
:103DF0000E94C9098091F00088608093F000FF91D3
:103E0000EF91BF91AF919F918F917F916F915F9152
:103E10004F913F912F910F900FBE0F901F901895CB
:103E200019BC1092E7011092920176CF8091E300C5
:103E300087FF02C083E0B4CF81E0B2CF1F920F9220
:103E40000FB60F921124FF920F931F932F933F935E
:103E50004F935F936F937F938F939F93AF93BF9392
:103E6000CF93DF93EF93FF9309EE10E0F801808189
:103E7000C091EC00C795CC27C7958F70FC2EF82A0F
:103E80001082C0EFD0E08881877F888378940E9479
:103E90009915F8011082888188608883CF2DCF70B2
:103EA000C083FF91EF91DF91CF91BF91AF919F912F
:103EB0008F917F916F915F914F913F912F911F91C2
:103EC0000F91FF900F900FBE0F901F9018958EE1ED
:103ED0004A9B03C081508111FBCF4A9BFECF0895BE
:103EE0005A9880E28A95F1F75A9A0895FC013BE0CE
:103EF0003A95F1F798E020E080E031E040E14A9522
:103F0000F1F7880F4A9B02C08160232742E04A955F
:103F1000F1F7000040E14A95F1F791509111EECF91
:103F200090E19A95F1F799B132E03A95F1F70000F6
:103F300040E14A95F1F792FB992790F99227208169
:103F4000920F90830895A1E0B0E0E9EAFFE10C94BC
:103F5000322119828C017C01E60EF11C0E151F0521
:103F600041F481E09981911180E02196E6E00C9482
:103F70004E210E94671FCE0101960E94761FF80114
:103F800081938F01EBCF529A5A9A089552985A9A78
:103F9000EA9AE9E6F0E080818F7C808308956150A1
:103FA000770B91E001C0990F6A95EAF7692F90E0CD
:103FB00021E0611108C0992399F05A9A80E28A950C
:103FC000F1F75A980895362F3823332339F05A9A47
:103FD000922730E23A95F1F76695EBCF5A98F9CFF0
:103FE0005A98ECCFFF920F931F93CF93DF93EC017E
:103FF0008C01060F111DC017D10729F4CDB7DEB70C
:10400000E5E00C944F21F9900E94701F68E08F2D1D
:104010000E94CF1FF0CF1F920F920FB60F92112464
:104020000F931F932F933F934F935F936F937F93C0
:104030008F939F93AF93BF93EF93FF93CF93DF93B0
:104040000F92CDB7DEB719820E94671FCE0101968D
:104050000E94761F082F069506950695982F929533
:104060009570202F2570920F292F23709695969585
:10407000920F982797708981892B81115CC0043039
:1040800008F059C080E18A95F1F75A9A529A82E075
:104090008A95F1F700C05A9888E0089F80011124A2
:1040A000D801AA5EBE4F1696ED91FC9117973097F6
:1040B000A9F060913F017091400114962D913C91BF
:1040C0001597260F371F11968D919C911297680FA7
:1040D000791F13964C9113978C910995F801EA5E1C
:1040E000FE4F6381662351F020913F0130914001E2
:1040F00084819581820F931F0E94F21F0E94701F7E
:1041000080E18A95F1F75A9852985A9A80E18A95F7
:10411000F1F7F801EA5EFE4F6081662351F02091CD
:104120003F013091400181819281820F931F0E9453
:10413000A31F0E94671F0F90DF91CF91FF91EF9116
:10414000BF91AF919F918F917F916F915F914F91AF
:104150003F912F911F910F910F900FBE0F901F90C5
:1041600018950F931F93CF93DF938C0104970CF056
:1041700065C0F894529A5A9885E08A95F1F7000044
:10418000C02FC695C570802F8570C80F8C2F837087
:10419000C695C69593E0000F111F9A95E1F7C80FD9
:1041A000C8018C2BEC010E94701F00C068E08C2FAE
:1041B0000E94CF1F90E19A95F1F752985A9A4A9B24
:1041C00035C087E090E04A9933C0F801EA5EFE4FBF
:1041D0006381662361F020913F0130914001848129
:1041E0009581820F931F0E94A31F882321F10E94B3
:1041F000671F80E28A95F1F75A98529A90E19A9552
:10420000F1F7F801EA5EFE4F6081662351F02091DC
:104210003F013091400181819281820F931F0E9462
:10422000F21F0E94701F789481E009C000C0C7CFC0
:104230000197009749F4529A5A9A789480E0DF9156
:10424000CF911F910F91089500C0BDCF2F923F9243
:104250004F925F926F927F928F929F92AF92BF9296
:10426000CF92DF92EF92FF920F931F93CF93DF9342
:10427000CDB7DEB7CA1BDB0B0FB6F894DEBF0FBE9F
:10428000CDBF09942A88398848885F846E847D84EC
:104290008C849B84AA84B984C884DF80EE80FD80EE
:1042A0000C811B81AA81B981CE0FD11D0FB6F89464
:1042B000DEBF0FBECDBFED01089597FB072E16F4AC
:1042C000009407D077FD09D00E94772107FC05D024
:1042D0003EF4909581959F4F0895709561957F4F1D
:1042E0000895EE0FFF1F0590F491E02D0994AA1B8D
:1042F000BB1B51E107C0AA1FBB1FA617B70710F0D1
:10430000A61BB70B881F991F5A95A9F78095909502
:10431000BC01CD010895F999FECF92BD81BDF89AF7
:10432000992780B50895A8E1B0E042E050E00C94F0
:10433000BF21262FF999FECF92BD81BDF89A019732
:1043400000B4021639F01FBA20BD0FB6F894FA9ADD
:10435000F99A0FBE08950396272F0E949A210E9472
:104360009921252F0E949A21242F0C949A2101969D
:10437000272F0E949A210C949921DC01CB01FC018A
:10438000F999FECF06C0F2BDE1BDF89A319600B4AE
:104390000D9241505040B8F70895FB01DC0104C074
:1043A0008D910190801921F441505040C8F7881B2D
:1043B000990B0895FB01DC0102C001900D92415060
:1043C0005040D8F70895F894FFCF000808080B086C
:1043D0001108260826082608260826082608260882
:1043E0002608140819081D08230834083A083E084E
:1043F000B60FC20FCE0FE00FE60FEC0FF20F2A0F31
:104400002F0F340F390F3E0FB80E180F200F161054
:104410001A10F80F12101E10221026103E113E1115
:104420009311931109122612761176112B12B712DD
:10443000C812C812A0100B11A81072107610AC1080
:104440007A10B010BC10861004118A10C0108E10A3
:10445000C410EC109210C810F3109810CE10D610A3
:104460007E10B4108210B8109C10D210E210FC1014
:1044700002116C10A410121176169C16A2169C162E
:0C448000A216F5161717A2161518221820
:10448C000132363534C6976694F6F7313301E508B8
:10449C00EC0A030B0A0B00000001000000000000F6
:1044AC000004010000000405000000000000343589
:1044BC0036323331F7F600FCFCFF2FFCFCFF2FD615
:1044CC0001E200E900EA00B500B600B700CD0083B8
:1044DC0001CC008A019201940121022302240225BD
:1044EC0002260227022A02B300B4006F0070009F5C
:0844FC0001CB019F02A00200A8
:00000001FF
